:400000000080002011000000FD070000FD07000008B5044B1A6803F53F5302331A6000F00DFC00BFFA46004010B5054C237833B9044B13B10448AFF300800123237010BD66
:400040004881FF1F0000000040180000084B10B51BB108490848AFF300800848036803B910BD074B002BFBD0BDE81040184700BF000000004C81FF1F40180000C880FF1F52
:400080000000000010B562B600F0D6FD00F0F4FC00F0BCFE1B4800F0E1FE0A2000F018FF0F2000F0EFF9184C02461849204600F0A3FF204600F0F0FD154800F0EDFD4021CC
:4000C000242000F0C7F9242000F0DCF902461149204600F091FF204600F0DEFD0221222000F0B8F9222000F0CDF902460A49204600F082FF204600F0CFFD084800F0CCFDAF
:40010000002010BD210100007481FF1F4418000078180000A8180000D81800000819000038B500F097FD9E4B18703138452800F28681DFE810F0C600DE00F6000D0184013B
:4001400084018401840184018401840184018401840146008401840173007D01840184018500840184018401840184018401840184018401A900840184017C0067012C0191
:4001800024018401840184018401840184018401840184018401840173007D01840184018500840184018401840184018401840184018401A900840184017C0067012C0172
:4001C0002401784C204600F067FD774800F064FD764D284600F060FD754800F05DFD754800F05AFD744800F057FD744800F054FD734800F051FD734800F04EFD724800F02D
:400200004BFD724800F048FD284600F045FD204600F042FD01226E4B1A7038BD6C4B1B78012B40F00C810022694B1A7038BD684B1B78012B40F003810022654B1A7038BDF8
:40024000634B1B78012B16D1624800F025FD624800F022FD614800F01FFD614800F01CFD604800F019FD604800F016FD584B01225A7000221A70564B9B78012B40F0DF804A
:400280000022534B9A7038BD514B1B78012B40F0D680564800F000FD554800F0FDFC554800F0FAFC544800F0F7FC544800F0F4FC534800F0F1FC464B0122DA7000221A70ED
:4002C00038BD434B5B78012B06D18021232000F0C1F800223E4B5A703D4BDB78012B40F0AE802321202000F0B5F80022384BDA7038BD374B5B78012B06D19021232000F0FD
:40030000A9F80022324B5A70314BDB78012B40F096803921202000F09DF800222C4BDA7038BD2B4B5B78012B06D1A021232000F091F80022264B5A70254BDB78012B7ED117
:400340005521202000F086F80022214BDA7038BD1F4B5B78012B06D1B021232000F07AF800221B4B5A701A4BDB78012B67D17121202000F06FF80022154BDA7038BD144B1F
:400380001B78012B5BD10022114B1A7038BD104B1B78012B53D100220D4B1A7038BD00BFD881FF1F3819000060190000B01B000088190000B0190000101A0000701A000035
:4003C000B41A0000FC1A0000441B0000881B00006481FF1FB41B0000EC1B0000181C0000381C0000581C0000781C0000981C0000D41C0000001D00001C1D00003C1D00005B
:400400005C1D00000E4B1B78012B18D10D4800F043FC0D4800F040FC0C4800F03DFC0C4800F03AFC064B01229A7000221A7038BD034B9B78012B02D10022014B9A7038BD5A
:400440006481FF1F7C1D00009C1D0000C81D0000001E000030B583B08DF804008DF80510002402AD05F8054D012000F027FC23462A46022101A800F019F8204600F01EFC7D
:4004800003B030BD00B583B060F07F008DF8040002AA002302F8053D0123194601A800F005F89DF8030003B05DF804FB2DE9F04383B006460C4617469846002000F0FEFB3B
:4004C00064B2002511E02146082CA8BF0821C9B206EBC50000F056FC00F016FC10F0010FFAD0083C64B201356DB2002CEBDC00F059FC00F027FC0026009601964FFA88F840
:4005000020E0C146B8F1080FA8BF4FF008095FFA89F1684600F036FC00F0F6FB10F0010FFAD0002406E004EBC60500F005FC78550134E4B24C45F6DBA8F108084FFA88F8BE
:40054000013676B2B8F1000FDBDC012000F0B6FB00F028FC00F0F6FB00F002FC03B0BDE8F08300BFFEE700BFF0B40022174611E050F82760F3B226F0FF0608E001EB42051C
:4005800011F812406D78A5550132013BDBB2002BF4D10137222FEBD9F0BC7047064B1B78DBB203F00701054A11701B09013213704422034B1A707047CF0100496E5800403B
:4005C0007658004008B50A46002100F00CFD08BD38B50B222B4B1A8018232B490B7002310A802A4A1370332102321180023213704BF67F3102321180023213700222244B29
:400600001A7008224FF040231A70032103F500731970204B1B78DBB21F490B701F4B1A8041F25122023B1A80002419250CE01C4B1B7803F0010343EA440404F003044FF4E1
:40064000F07000F089FC013D0DB1032CEFD115B90320FFF787FF134B4FF480721A8007221A70002210490A704820023108701A700222033B1A700D4A137843F00F03137045
:4006800038BD00BF8040004082400040864000400043004008010049A146004022420040254200400440004006400040A243004008B500F08DFC08BD38B572B63A4A1378E9
:4006C00043F00403137000240CE0384D630019194A0011462A44084691882858FFF772FF0134E4B2072CF0D900240BE02F48A20011194B0003441A8F596B186BFFF7D8FF4E
:400700000134E4B2022CF1D929494FF09040FFF72BFF284A137843F0020313701032137843F002031370244C237843F040032370A2F58632513A137843F0100313700822A9
:400740001E491F48FFF7B4FF0A221E491E48FFF7AFFF08221D491E48FFF7AAFF0A221D491D48FFF7A5FF0A221C491D48FFF7A0FF08221C491C48FFF79BFF1C4A137843F00D
:40078000080313701A4D61232B70FFF721FF81232B700122174B1A70FFF700FF0E2221461548FFF785FF38BDE84600403C1E00008C00004803500140A0430040B80900480D
:4007C00002510040C0090048C0510040CC090048F2510040D409004810510040E009004820510040EC09004832510040224300400048004004000840B043004008B500F063
:40080000BBFB03680C2B00D1FEE7FEE708B5094B1A681044084BC31A802B02DC054B186005E000F0A9FB0C2303604FF0FF32104608BD00BFCC80FF1F0082FF1F08B5104EE3
:40084000104D16E029686B68AC68002204E051F8040B43F8040B0432A242F8D1E868002203E0002143F8041B04328242F9D11035013E002EE6D100F085FBFFF703FCFEE7DB
:4008800001000000E41E000008B5104A104B1A60104A136843F40073136000230AE0032B03D80D4A52F8231000E00C490C4A42F8231001332F2BF2D90A4B1A780A4B1A7056
:4008C000074A0A4B1A60FFF7F7FE08BD0004FA050CED00E014ED00E000000000FD0700000080FF1FBC760040C080FF1F08ED00E00222014B1A60704700E100E00122014B53
:400900001A60704700E100E008B500F02DFB0C4A137843F020031370013A137843F0100313700932137843F01003137000F020FB00F0A2FAFFF7DCFFFFF7E0FF08BD00BF57
:40094000936400400222014B1A60704780E100E00122014B1A60704780E100E010B5FFF7F1FF064B1C78064A137803F009031C4300231370FFF7BCFF204610BD6264004024
:40098000DC81FF1F10B5FFF7E3FF064B1B78064A147804F040041C4300231370FFF7AEFF204610BD6B640040ED81FF1F08B501E00A4B1B780A4B1B7813F0200FF8D100F058
:4009C000D3FA084B1A7842F001021A701A7802F0FE021A7000F0CCFA08BD00BF536400406B6400409364004010B50F22174B1A70174C022323600721012000F093FA1549F0
:400A0000012000F07BFA012323600721002000F089FA1149002000F071FAFFF7C7FF00240E4B1C700E4B1C700E4B1C700E4B1C700E4B1C700E4B1C70FFF790FFFFF7A2FF9F
:400A40000C4B1C70202209331A7010BD8364004080E100E0950A0000350B0000EA81FF1FEB81FF1FE981FF1FE881FF1FEE81FF1FEC81FF1F8264004008B5054B1B7823B99B
:400A8000FFF7B2FF0122024B1A70FFF73DFF08BD6881FF1F28E01F4B19781F4A137803F009030B431370137813F0040F24D01B4B1B7813F0FF0F0CD1194A13780133DBB2A5
:400AC00013701378DBB2072B06D90022144B1A7002E00022114B1A70114B1B78DBB2114AD35CDBB2104A13700D4B1A78D2B20F4B1B78DBB29A42CED1094B1A78D2B20B4BC2
:400B00001B78DBB29A4204D1094A137803F0FB031370704762640040DC81FF1FE881FF1FEE81FF1FE081FF1F43640040EC81FF1F82640040204B1A7820490B7803F0400310
:400B400013430B7032E01E4B1A78D2B21D490B780133DBB20B700B78DBB2072B02D90021184B1970174B1978C9B2174B1B78DBB299420ED114490B780133DBB20B700B787B
:400B8000DBB2072B02D900210F4B197001210F4B19700C4B1B78DBB20D49CA54064B1A7806490B7803F0400313430B70034B1B7813F0200FC7D170476B640040ED81FF1FEE
:400BC00053640040E981FF1FEB81FF1FEA81FF1FF081FF1F7222084B1A702022A3F583731A700622A4331A70472210331A7000224F331A70704700BF8B65004010B500F0C1
:400C0000B3F904460B4A137843F020031370A2F58372137843F01003137002F20312137843F01003137000F035F9204600F0A0F910BD00BF9B65004008B5054B1B7823B973
:400C4000FFF7C8FF0122024B1A70FFF7D7FF08BD6981FF1F084B1B78DBB213F0200F06D0064A1078C0B213F01E0F02D17047002070470020704700BF656400404865004042
:400C8000034B1B7813F0040FFAD1024B18707047686500404A65004038B5074B1B782BB938BDFFF7EDFF0134A4B201E005460024285D0028F5D138BD6981FF1F044A137839
:400CC00003F07F03C001C0B218431070704700BF1051004008B500F047F90A4A137843F020031370033A137843F01003137002F20312137843F01003137000F039F900F0B5
:400D0000D7F808BD97640040014B1878704700BF64640040014B1878704700BF67650040034B1B7813F0040FFAD0024B187070476464004047640040014B1878704700BF9A
:400D40005764004001E0044B1B78044B1B7813F0200FF8D1704700BF576400406765004008B500F001F9064B1A7842F001021A701A7802F0FE021A7000F0FAF808BD00BF9E
:400D80009764004070B506460C46002506E0705DFFF7C6FF0135EDB2013CE4B2002CF6D170BD00BF08B501E00A4B1B780A4B1B7813F0200FF8D100F0D7F8084B1A7842F0DC
:400DC00001021A701A7802F0FE021A7000F0D0F808BD00BF57640040676500409764004008B50F22074B1A70FFF7DCFFFFF78CFFFFF790FF0023044A137002F203121370B9
:400E000008BD00BF876400408464004008B5054B1B7823B9FFF7E4FF0122024B1A70FFF759FF08BD6B81FF1F014B1B681865704708ED00E04001C0B2014B1870704700BF9A
:400E400004E400E01022014B1A60704700E100E01022014B1A60704780E100E010B50446FFF7F6FF2046FFF7DFFF0720FFF7E2FFFFF7E8FF10BD00BF054A137843F001039E
:400E800013701032137843F001031370704700BFA2430040054A137843F0040313701032137843F004031370704700BFA2430040054A137843F0020313701032137843F03C
:400EC00002031370704700BFA243004001BE704710B5044605E0084B186800F03DF8A4F50044B4F5004FF6D8034B586800FB04F000F032F810BD00BFD080FF1F70B504464A
:400F00000E46074B1D681F2802D90020FFF7DEFF04F01F04103455F8240045F8246070BD08ED00E038B504460D46072902D90020FFF7CCFF1F2C02D90020FFF7C7FF04F076
:400F40001F0000F1604000F564406D01EDB2057038BD00BF000000000230800803D000BF01380046FCD17047EFF3108072B6704780F31088704700BF014B1868704700BF8F
:400F80004081FF1F0E4B70B51E460E4C0025E41AA410A54204D056F8253098470135F8E700F08EFF084B094C1E46E41AA4100025A54204D056F8253098470135F8E770BD0E
:400FC000CC1E0000CC1E0000CC1E0000D41E000010B5431E0A44914204D011F8014B03F8014FF8E710BD03460244934202D003F8011BFAE7704700000EB400B54FF40271C8
:401000009CB0ADF814106FF00041049107914FF6FF711DAB02900690084853F8042BADF81610006802A9019300F064F8029B00221A701CB05DF804EB03B070474081FF1FFF
:401040002DE9F0478E6882469E420C46914698463ED88A8912F4906F3AD02568096902236F1A656905EB450595FBF3F57B1C43449D4238BF1D4653050FD5294600F040FBEC
:40108000064698B13A462169FFF7A2FFA38923F4906343F08003A38113E02A4600F08EFB064670B92169504600F0DEFA0C23CAF80030A3894FF0FF3043F04003A381BDE8B7
:4010C000F08726613E44266046466561ED1BA560464528BF464649463246206800F0A8FAA36800209B1BA36023681E442660BDE8F08700002DE9F04F9DB003938B898046E7
:401100001C060D4616460DD50B695BB9402100F0F7FA2860286118B90C23C8F80030CDE040236B610023099320238DF82930DFF89CB130238DF82A3037463C4614F8013BD8
:401140001BB9B7EB060910D003E0252BF9D02746F3E74B46324629464046FFF771FF013000F0A780099B4B4409933B78002B00F0A08000234FF0FF3204930793059206936A
:401180008DF853301A930126052221784E4800F041FA671C049B38B14B4A3C46801A06FA00F018430490EFE7D90644BF20228DF853201A0744BF2B228DF8532022782A2AEE
:4011C00003D0079A00210A200BE0039A111D12680391002A10DA524243F00200079204900BE027463B780134303B092B03D800FB02320121F5E701B107923B782E2B1ED135
:401200007B782A2B0AD1039B02371A1D1B680392002BB8BF4FF0FF33059310E0002319460593781C0A2407463A780130303A092A03D804FB01210123F5E703B105910322B6
:401240003978224800F0E6F940B14023CBEB000003FA00F0049B013718430490397806221B487E1C8DF8281000F0D4F988B1194B33B9039B073323F007030833039314E034
:4012800003AB00932A46144B04A94046AFF3008007E003AB00932A460F4B04A9404600F093F8B0F1FF3F824603D0099B5344099342E7AB895B0601D4099801E04FF0FF3055
:4012C0001DB0BDE8F08F00BF8C1E0000921E0000961E000000000000411000002DE9F04791461F460A698B6806469342B8BF1346C9F8003091F843200C46DDF8208012B198
:401300000133C9F800302368990642BFD9F800300233C9F80030256815F0060510D104F1190A07E00123524639463046C04701301AD00135E368D9F800209B1A9D42F1DB14
:4013400094F843302268003318BF012392060FD5E118302081F843005A1C94F845102244023382F8431003E04FF0FF30BDE8F08704F1430239463046C0470130F4D0226854
:40138000D9F80050E36802F00602042A08BF5D1B2269A3680CBF25EAE57500259342C4BF9B1AED184FF000091A344D4509D00123224639463046C0470130D5D009F10109F6
:4013C000F3E70020BDE8F0872DE9F04317460A7E85B06E2A984606460C460C9B01F1430E00F0AE8011D8632A22D009D8002A00F0BB80582A40F0CA8081F84520834955E0DF
:40140000642A1ED0692A1CD0C0E0732A00F0B08009D86F2A2ED0702A40F0B8800A6842F020020A603EE0752A24D0782A3AD0ADE01A6801F14205111D1960136884F84230F5
:40144000A8E021681A6811F0800F02D0111D196008E011F0400F02F10401196002D0B2F9003000E01368002B3CDA2D225B4284F8432037E021681A6811F0800F02D0111D61
:40148000196007E011F0400F02F10401196001D0138800E01368227E5C496F2A14BF0A2208221BE078225A4984F845202268186812F0800F00F104051D6003D1550601D50D
:4014C000038800E00368D00744BF42F0200222601BB9226822F0200222601022002084F8430001E049490A226568002DA56008DB206820F0040020602BB9002D7DD175468A
:401500000CE0002B79D07546B3FBF2F002FB1033CB5C05F8013D03460028F5D1082A0BD12368DA0708D5236962689A42DEBF302305F8013C05F1FF35C5EB0E0323612EE0F7
:4015400008681A6810F0800F496903D0101D1860136808E010F0400F02F104001860136801D0198000E0196000232361754616E01A68111D1960156800216268284600F01A
:4015800049F808B1401B6060636804E004F1420584F8422001232361002384F84330CDF800803B4603AA21463046FFF797FE013002D14FF0FF3026E023692A46394630464F
:4015C000C0470130F5D023689B0710D5002504F1190907E001234A4639463046C0470130E7D00135E368039A9B1A9D42F2DBE068039B9842B8BF184605E00B7804F1420569
:4016000084F842308AE705B0BDE8F0839D1E0000AE1E000010B5C9B202449042034605D01C7801308C42F8D1184610BD002010BD884210B501EB020301D8421E0BE098428F
:40164000FBD28118D21AD34204D013F8014D01F8014DF8E710BD994204D011F8014B02F8014FF8E710BD000038B50546002944D051F8043C0C1F002BB8BFE41800F0D4F866
:401680001E4A1368114613B96360146030E0A3420DD92268A018834201BF18685B681218226063600C6023E0A24203D813465A68002AF9D118681918A1420BD1216801441E
:4016C00058188242196013D110685268014419605A600DE002D90C232B6009E021686018824201BF106852680918216062605C602846BDE8384000F098B838BD7081FF1F9E
:4017000070B5CD1C25F0030508350C2D38BF0C25002D064601DBA94202D90C23336046E000F082F8234B1C681A462146A1B10B685B1B0ED40B2B03D90B60CC18CD501EE021
:401740008C420BBF63684B681360636018BF0C4615E00C464968E9E7174C23681BB9304600F052F820602946304600F04DF8431C18D0C41C24F00304A0420DD12560304623
:4017800000F053F804F10B00231D20F00700C31A0ED05A42E25070BD211A304600F034F80130EBD10C233360304600F03EF8002070BD00BF7081FF1F6C81FF1FF8B50746A9
:4017C00015460E4621B91146BDE8F840FFF798BF1AB9FFF749FF2846F8BD00F027F885420ED929463846FFF78BFF044650B131462A46FFF7EDFB31463846FFF735FF01E071
:401800003046F8BD2046F8BD38B5064C0023054608462360FEF7FAFF431C02D1236803B12B6038BDF881FF1F7047704751F8040C0028BEBF091851F8043CC018043870478D
:40184000000000002A2A2057686F20616D2049207265676973746572203D20307825303258205B45787065637465643A20307833335D0D0A000000002A2A2A2A2A2A2A2A0D
:401880002A2A2A2A2A2A5265676973746572732056616C7565732A2A2A2A2A2A2A2A2A2A2A2A2A2A0D0A000020436F6E74726F6C207265676973746572203520686173202A
:4018C0006265656E2073657420746F203D20307825303258200D0A0020436F6E74726F6C207265676973746572203320686173206265656E2073657420746F203D20307821
:4019000025303258200D0A002A2A2A2A2A2A2A2A2A2A2A2A2A2A2A2A2A2A2A2A2A2A2A2A2A2A2A2A2A2A2A2A2A2A2A2A2A2A2A2A2A2A2A2A0D0A00002A2A2A2A2A2A2A2AF2
:401940002A2A2A2A2A2A2A2A2A2A2A2A2A2A2A2A2A2A2A2A2A2A2A2A2A2A2A2A2A0D0A002A2A2A2A2A2A2A2A2A2A2A2A2A2A2A2A4D454E55272A2A2A2A2A2A2A2A2A2A2AC4
:401980002A2A2A2A2A0D0A00436F6D6D616E64202020202020526573756C742020202020202020202020202020202020200D0A0062202020202020202020202020537461DF
:4019C00072742064617461206163717569736974696F6E2066726F6D2074686520616363656C65726F6D6574657220616E642073746F72616765206F6E207468652045455E
:401A000050524F4D206D656D6F7279200D0A00007320202020202020202020202053746F702064617461206163717569736974696F6E2066726F6D2074686520616363657B
:401A40006C65726F6D6574657220616E642073746F72616765206F6E2074686520454550524F4D206D656D6F7279200D0A00000066202020202020202020202020436F6EF3
:401A800066696775726174696F6E206F662074686520616363656C65726F6D657465722066756C6C207363616C652072616E6765200D0A00702020202020202020202020EE
:401AC00020436F6E66696775726174696F6E206F662074686520616363656C65726F6D657465722073616D706C696E67206672657175656E6379200D0A0000007620202023
:401B0000202020202020202020537461727420646174612076697375616C697A6174696F6E20696E207468652042726964676520436F6E74726F6C2050616E656C200D0AFE
:401B4000000000007520202020202020202020202053746F7020646174612076697375616C697A6174696F6E20696E207468652042726964676520436F6E74726F6C205028
:401B8000616E656C200D0A007420202020202020202020202053746F7265207468652074656D70657261747572652064617461200D0A0000436F6E66696775726174696F43
:401BC0006E206F662074686520616363656C65726F6D657465722066756C6C207363616C652072616E6765200D0A000043686172616374657220202020202020202020205A
:401C00002046756C6C207363616C652072616E6765200D0A000000003120202020202020202020202020202020202020202B2D203267200D0A00000032202020202020205A
:401C4000202020202020202020202020202B2D203467200D0A0000003320202020202020202020202020202020202020202B2D203867200D0A000000342020202020202065
:401C8000202020202020202020202020202B2D20313667200D0A0000436F6E66696775726174696F6E206F662074686520616363656C65726F6D657465722073616D706CA1
:401CC000696E67206672657175656E6379200D0A0000000043686172616374657220202020202020202020202053616D706C696E67204672657175656E6379200D0A00002C
:401D000031202020202020202020202020202020202020202031487A200D0A003220202020202020202020202020202020202020203130487A200D0A000000003320202029
:401D400020202020202020202020202020202020203235487A200D0A000000003420202020202020202020202020202020202020203530487A200D0A0000000053746F7229
:401D800065207468652074656D70657261747572652064617461200D0A00000043686172616374657220202020202020202020202054656D706572617475726520666F729C
:401DC0006D6174200D0A000063202020202020202020202020202020202020202053746F7265206461746120696E2043656C7369757320666F726D6174200D0A00000000F1
:401E000066202020202020202020202020202020202020202053746F7265206461746120696E2046616872656E6865697420666F726D617420200D0A00000000405100400F
:401E4000300000000140800200030140800300070140000900140140000800400140000A004C0140000200500140200060520040B0080048060080020140B80800488000EC
:401E8000800601403809004880004300232D302B2000686C4C006566674546470030313233343536373839414243444546003031323334353637383961626364656600001C
:401EC000F8B500BFF8BC08BC9E4670474D00000089080000F8B500BFF8BC08BC9E46704729000000F81E0000C880FF1F80000000B800000000000000000000000082FF1F89
:401F00000000E02EC05D00001800000000366E0100000000000000000000000000000000000000000000000000000000000000008A1E000000000000000000000000000011
:401F4000000000000000000000000000000000000000000000000000000000000000000000000000000000000000000000000000E080FF1F000000000000000000000000E3
:401F80000000000000000000000000000000000000000000000000000000000000000000000000000000000000000000000000000000000000000000000000000000000021
:401FC00000000000000000000000000000000000000000000000000000000000000000000000000000000000000000000000000000000000000000000000000000000000E1
:4020000000000000000000000000000000000000000000000000000000000000000000000000000000000000000000000000000000000000000000000000000000000000A0
:402040000000000000000000000000000000000000000000000000000000000000000000000000000000000000000000000000000000000000000000000000000000000060
:020000040003F7
:0200000480007A
:400000000352004004640040036500400101014004020140350301404E0401403E0501400F0601404A0701400F090140650A0140380B0140020D0140010F01400C15014049
:400040005B1601405017014062180140441901404B1A0140401B0140074001400D4101400A420140084301400445014003460140034701400648014003490140034C014010
:40008000084D01400B50014002510140004001601180830F8538870F8A0D860F880F8B72E204540956045B045F01001201400210038209800A040B101115120218101950E0
:4000C0001A4020022104220223102A282B82310832023880391540844104422C4420450848414918510852905C205D0A5E4062086540660169556B82704071808201C00FB4
:40010000C207C40FCA0FCC03CE0FD007D20CD6F0D892E6020011011C022204420608086209080A140B120E801002120D14401701190A1B141C8D1D061F08200D2280248D85
:40014000288D2B012C8D300F311E34703501368039023A223E403F105409580459045B045C105D105F018103830C850986408706880E89028B0D8E40940495059639970A98
:400180009B109E10A023A204A405A510A63AAF10B040B30FB40FB510B630B820BB08BE01BF10D418D604D804D904DB04DD20DF01008603040590061009880A400E010F20AB
:4001C000111413821509170418041A421B101D101E812101230424102608270828082D802F223010324033083520370439023B103C163D0158A059055E02630264016744D7
:40020000830887408840911C94049B82A041A188A280A608A810A912B080C0EFC2ADC43FCA54CC6ECEE5D68FD8B8E6010607080718041A021C041E012A07320434033A2032
:400240003B02580459045C295F010098010A0404051008520A880B400E091114120213021608181019201B011E2820022104224623202480284229082A023018320233401A
:400280003994410442804310480549064B105008522053446040684069946A146B4272028080812082808C148E088F02968097109A089B089CB99D059E10A240A601A72377
:4002C000A920AA08AE01B281C06FC2CBC44FCA0BCC0FCE0ED007D20CD801E211E44091029210942496419C049D809E409F04A209A428A501B314B440E201E8A001CA020689
:400300000334060207C80C0412011513176C1B35211323E4240429032B042F80300431F0330F340236013B0A3E104010410249FF4AFF4BFF4DA04F04501854055604580468
:4003400059045A045B045C235D335F01604062C06440654066C068C06AC06CC06EC0840485038618881C8C088E049101941C9A019C03A002A410A604A803AD03B101B21C48
:40038000B603B702B880BE40C050C103C5D0C620C710C82BC9FFCAFFCBFFCDAFCE0FCF04D018D440D604D804D904DA04DB04DC32DD03DF01E040E2C0E440E540E6C0E8C082
:4003C000EAC0ECC0EEC003A20420058006200A400C680E0111041502172418801A061B801E12210122082320278128442A402E302F02302032083701380439023D0443A0D5
:4004000046104D064E015610572259025A045B806201640167688101880197409E01C0EDC2E8C474CA1DCC86CE43D04CD210D60BD8F1E420EA2087409E0182018040890276
:400440008A018C088E019080920299029C08A601E001E280051D0801091D0D1D110D131015021601170D19021A011B041D011F02211D250227082A0333103402350F3601AA
:400480003A803B203F044062420345EC4620480B49FF4AFF4BFF4F01501854035604580459045A045B045C195D995F016040624064406540668068806A806C806E808201EE
:4004C000841085058603870A88408C208D028F0D9220942098109C209D039F0CA220A420A509A706A818AA07AC06AE08B003B10FB21CB420B640BA08BB02BE50D440D804CE
:40050000D904DB04DC11DD10DF010080012A051008420A100B880C080E08110413621608190A1A021B101D101E011F202040271429082C402D082E02324033403766384030
:4005400039083C803D043E14451047084C084D014E084F04551056105D015EA05F046002622063206501810184018D2090809108929493C8944096019A0A9B2A9C099D1899
:400580009E109F10A040A27CA601A720A901AB10B020B304C04FC26FC44FCAC2CCF8CE7AD060D220D6F0D88EE20207010B0812011601170119041A011B121C012506280136
:4005C00029062D022F34300131183301350637203E013F054025410642034401450C47E0482149FF4AFF4BFF4C624DA04EF04F41500C5401580459045A045B045C205D22FA
:400600005F016640670269106A306B106D106E106F1282028524860687408B0C8D708F09900692019541973099029D509E03A140A601AA05AD31AF44B37CB503B607B92021
:40064000BA80C005C604C9FFCA07CBFFCC40CD20CEF0CF05D008D280D804D904DA04DB04DC22DD32DF01E040E1A8E240E3200004010202400A010B400C240D190E210F40F5
:400680001020120C160419401A011C4020142620276629422C082D802F2030A0320835043620370838143B403D103E103F044520474848204A014E014F14524055015C4006
:4006C0005D085E205F01724087208C1091029210942496419C049D809E409F04A209A428A501C00CC2F9C446CA79CC6ECE6ED070D238D6F0E2101C02200124022802320195
:4007000036023E044062410145E0460B470C481649FF4AFF4BFF4EF04F44500C58045A045C025D025F0166C06A406B02803C81108243840C8508880489188C018F63925358
:400740009304947F95FF987399409A0C9C2F9D1C9E509FE2A008A11CA3E1A402A5E7A718A803A960AD24B020B11FB21CB40FB560B64CB780B980BAA0BB02BE01D602D71012
:40078000D804D904DB04DC22DD20DF010580075809400C040E160F90102812801511170519081A021B401D241E461F40240A27402D902E042F403404362037423D013E2880
:4007C0003F80411042014A884B01508051085E406C386D806F2076287719821089808C05913092019420960297119B069D8CA228A488A528A720C0F0C2F1C47ECAF0CCF090
:40080000CEF0D00CD204D610E020E250301237183B208308CCF0CE10E2200340620866088310841097209C109F10A402C010D8C0E220E6405710871097209B40A402A608AF
:40084000AA08D440E640EE808E208F10A402A710AB40AE08EA10EC8000086202C008D802A602B004EA048301B602EC08062080029E20A402C020E22074018801DE200B01EF
:400880009701C2021101734089018B40C408DC01E004E601000F010108010A070B010C0D100E11011A021B011C0C00FF010300000C88000040000000079A380060980002C4
:4008C00001020098049A8000003800C00A02100056000900840000008413006484FC0003802104D80498000208E07F0F800002130800000A000051003205600004DEBF0CFD
:400900001FFFFFFF2200F008040000000000022804040404000000010000C00040011011C00100114001400100000000000000000000000000000000600000005698090273
:400940000102009804980002073838C0000200000A2110D8049A0000049A000004FC0003000004000413006402E07F0F080000130800000A000011003605200004BEFD0C60
:400980001FFFFFFF2200F008040000000000022C04040404111100010000C00040011011C001001140014001000000000000000000000000000000000164640060000000FD
:4009C0008000408C8C008C000000000002000000000000008000408B8B0000000000000090000190900080000000000010000000000000000000000000000000000000007A
:400A000000000000000000000000000000000000000000000000000000000000000000000000000000000000000000000000000000000000000000000000000000000000B6
:400A40000000000000000000000000000000000000000000000000000000000000000000000000000000000000000000000000000000000000000000000000000000000076
:400A80000000000000000000000000000000000000000000000000000000000000000000000000000000000000000000000000000000000000000000000000000000000036
:400AC00000000000000000000000000000000000000000000000000000000000000000000000000000000000000000000000000000000000000000000000000000000000F6
:0200000490006A
:0400000000004005B7
:0200000490105A
:04000000BC90ACAF55
:0200000490303A
:020000005B7132
:0200000490402A
:4000000000000000000000000000000000000000000000000000000000000000000000000000000000000000000000000000000000000000000000000000000000000000C0
:400040000000000000000000000000000000000000000000000000000000000000000000000000000000000000000000000000000000000000000000000000000000000080
:400080000000000000000000000000000000000000000000000000000000000000000000000000000000000000000000000000000000000000000000000000000000000040
:4000C0000000000000000000000000000000000000000000000000000000000000000000000000000000000000000000000000000000000000000000000000000000000000
:0200000490501A
:0C00000000012E16106900012E236BDA9F
:00000001FF