:400000000080002011000000C10A0000C10A000008B5044B1A6803F53F5302331A6000F06FFD00BFFA46004010B5054C237833B9044B13B10448AFF300800123237010BD75
:400040004881FF1F0000000058240000084B10B51BB108490848AFF300800848036803B910BD074B002BFBD0BDE81040184700BF000000004C81FF1F58240000C880FF1F0A
:400080000000000010B584B062B600F037FF00F057FE01F01BF801F099FA3C4801F03EF83B4801F0B9FB01F0A5FA01F053FD0A2001F06EF80F2000F097FA364C024636491E
:4000C000204601F0A5FD204600F048FF334800F045FF1721202000F06FFA202000F084FA02462F49204601F093FD204600F036FF4021242000F060FA242000F075FA024630
:400100002849204601F084FD204600F027FF80212E2000F051FA2E2000F066FA02462249204601F075FD204600F018FF0221222000F042FA222000F057FA02461B49204623
:4001400001F066FD204600F009FF194800F006FF00F0CAFA2F2000F047FA10F0400FF9D0062202A9282000F053FA9DF808209DF809309DF80A10074C00910E49204601F007
:4001800047FD204600F0EAFEE4E700BF55020000B90100009081FF1F5C24000090240000C0240000F0240000202500005825000088250000B825000008B501F0BBFA1E4BAF
:4001C0001B78012B37D101F085FA1C4B1860002801DA00221A60194B1B68B3F5803F03DB4FF6FF72154B1A60144B18680212144BDA71187201F05CFA124B1860A0F5FA704C
:40020000114B83FB0023C017C0EBA3000F4B1860094B5B78012B0BD100EBC00003F1663383FB0023C017C0EB63032033074A13600122074B1A7008BD6481FF1FF881FF1F65
:400240008481FF1F0082FF1F67666666FC81FF1FF481FF1F08B500F05FFEAC4B18703138452800F29D81DFE810F08900BB00ED001F019B019B019B019B019B019B019B0129
:400280009B019B019B0146009B019B01490094019B019B0157009B019B019B019B019B019B019B019B019B0173009B019B0150007F017B0171019B019B019B019B019B018E
:4002C0009B019B019B019B019B019B01490094019B019B0157009B019B019B019B019B019B019B019B019B0173009B019B0150007F017B01710100F0F7F908BDFF2001F04F
:40030000D7FB802001F0DAFB08BDFF2001F0D0FB002001F0D3FB08BD7D4800F01FFE7D4800F01CFE7C4800F019FE7C4800F016FE7B4800F013FE7B4800F010FE7A4B0122A0
:400340009A701B78934240F02B81774B5A7008BD764800F003FE764800F000FE754800F0FDFD754800F0FAFD744800F0F7FD744800F0F4FD01226C4BDA7008BD6A4B9B784A
:40038000012B13D1232000F02FF910F0800F03D06C4800F0E3FD06E08021232000F00CF9694800F0DBFD00225F4B9A705E4BDB78012B40F0F580202000F016F910F0170FAC
:4003C00003D0604800F0CAFD06E01721202000F0F3F85D4800F0C2FD0022534BDA7008BD514B9B78012B13D1232000F0FDF810F0900F03D0534800F0B1FD06E09021232003
:4004000000F0DAF8504800F0A9FD0022464B9A70454BDB78012B40F0C380202000F0E4F810F0270F03D0474800F098FD06E02721202000F0C1F8444800F090FD00223A4B9D
:40044000DA7008BD384B9B78012B13D1232000F0CBF810F0A00F03D03A4800F07FFD06E0A021232000F0A8F8374800F077FD00222D4B9A702C4BDB78012B40F091802020E9
:4004800000F0B2F810F0370F03D02E4800F066FD06E03721202000F08FF82B4800F05EFD0022214BDA7008BD1F4B9B78012B13D1232000F099F810F0B00F03D0214800F034
:4004C0004DFD06E0B021232000F076F81E4800F045FD0022144B9A70134BDB78012B5FD1202000F081F810F0470F03D0154800F035FD06E04721202000F05EF8124800F0BB
:400500002DFD0022084BDA7008BD00BF0482FF1FCC25000004260000302600005026000070260000902600006481FF1FB0260000EC26000018270000342700005427000077
:400540007427000094270000C4270000FF2001F0AFFA002001F0B2FA012001F08FFA08BD002001F08BFA08BD0E4B1B780BB901F025F90D4800F0F2FC0C4800F0EFFC0C4894
:4005800000F0ECFC0B4800F0E9FC0122054B1A7008BD044B1B78012B02D10022014B5A7008BD00BF6481FF1FE427000004280000302800006828000030B583B08DF8040019
:4005C0008DF80510002402AD05F8054D012000F0D7FC23462A46022101A800F029F8204600F0CEFC03B030BD00B583B060F07F008DF8040002AA002302F8053D0123194617
:4006000001A800F015F89DF8030003B05DF804FB00B583B060F03F0302A800F8043D13460A46012100F004F803B05DF804FB00BF2DE9F04383B006460C4617469846002026
:4006400000F09EFC64B2002511E02146082CA8BF0821C9B206EBC50000F0F6FC00F0B6FC10F0010FFAD0083C64B201356DB2002CEBDC00F0F9FC00F0C7FC0026009601967D
:400680004FFA88F820E0C146B8F1080FA8BF4FF008095FFA89F1684600F0D6FC00F096FC10F0010FFAD0002406E004EBC60500F0A5FC78550134E4B24C45F6DBA8F108085C
:4006C0004FFA88F8013676B2B8F1000FDBDC012000F056FC00F0C8FC00F096FC00F0A2FC03B0BDE8F08300BF38B5214D284600F035FC204800F032FC1F4C204600F02EFC57
:400700001E4800F02BFC204600F028FC1C4800F025FC204600F022FC1A4800F01FFC204600F01CFC184800F019FC204600F016FC164800F013FC204600F010FC144800F026
:400740000DFC204600F00AFC124800F007FC204600F004FC104800F001FC204600F0FEFB284600F0FBFB0D4800F0F8FB38BD00BFC0270000A4280000042900006429000030
:400780008C290000EC290000482A00008C2A0000D02A0000142B0000582B0000842B0000FEE700BFF0B40022174611E050F82760F3B226F0FF0608E001EB420511F812401F
:4007C0006D78A5550132013BDBB2002BF4D10137212FEBD9F0BC70470B4B1B78DBB203F007010A4A11701B09013213701023A2F23272137002F6C3121370583213704422AE
:40080000034B1A70704700BFCF0100496E5800407658004008B50A46002101F0F0F908BD08B501F0E1F908BD38B50024394B1C80502202331A700B2202331A80182336490B
:400840000B7002310A80354A137033210232118002321370EF21023211800232137042F6C6522F4B1A80192502331D7004222D492D48FFF7D5FF02222C4B1A7008224FF015
:4008800040231A70032103F500731970284B1B78DBB228490B70284B1A8041F25122023B1A800CE0254B1B7803F0010343EA440404F003044FF4F07001F05AF9013D0DB1F1
:4008C000032CEFD115B90320FFF76AFF1C4B4FF480721A8007221A7000221A490A704820023108701A700222033B1A7004220A331A70154A137843F03F031370013A1378B3
:4009000043F001031370013A137843F08003137038BD00BF80400040864000408A400040944000400C090048004100400043004008010049A1460040224200402542004001
:400940000440004006400040A2430040012807D8044B53F820201844017A13780B431370704700BFE42B0000012808D8044B53F820201844017A137823EA0103137070471E
:40098000E42B000038B572B6394A137843F00403137000240BE0374863001A19510001440A46098AD068FFF735FF0134E4B20A2CF1D900240CE02F48A20011194B00034499
:4009C000B3F85820596D186DFFF72AFF0134E4B2032CF0D928494FF09040FFF7E3FE0A24264B1C70264A137843F0020313701032137843F002031370224D2B7843F040035F
:400A00002B70A2F58632513A137843F01003137008221D491D48FFF703FF22461C491D48FFF7FEFE22461C491C48FFF7F9FE22461B491C48FFF7F4FE22461B491B48FFF781
:400A4000EFFE1B4A137843F008031370194C61232370FFF7E9FE812323700122164B1A70FFF7BAFE0E2229461448FFF7D9FE38BDE8460040E42B0000880000488358004067
:400A800003500140A0430040D408004802510040DC080048C0510040E808004810510040F4080048205100400009004830510040224300400048004004000840B0430040BF
:400AC00008B501F065F803680C2B00D1FEE7FEE708B5094B1A681044084BC31A802B02DC054B186005E001F053F80C2303604FF0FF32104608BD00BFCC80FF1F3082FF1F0F
:400B000008B5104E104D16E029686B68AC68002204E051F8040B43F8040B0432A242F8D1E868002203E0002143F8041B04328242F9D11035013E002EE6D101F02FF8FFF739
:400B4000A1FAFEE701000000B82C000008B5104A104B1A60104A136843F40073136000230AE0032B03D80D4A52F8231000E00C490C4A42F8231001332F2BF2D90A4B1A7810
:400B80000A4B1A70074A0A4B1A60FFF7FBFE08BD0004FA050CED00E014ED00E000000000C10A00000080FF1FBC760040C080FF1F08ED00E00222014B1A60704700E100E055
:400BC0000122014B1A60704700E100E008B500F0D7FF0C4A137843F020031370013A137843F01003137002F20112137843F01003137000F0C9FF00F09FFAFFF7DBFFFFF766
:400C0000DFFF08BD9B6400400222014B1A60704780E100E00122014B1A60704780E100E010B5FFF7F1FF064B1C78064A137803F009031C4300231370FFF7BCFF204610BDBC
:400C40006A6400400882FF1F10B5FFF7E3FF064B1B78064A147804F040041C4300231370FFF7AEFF204610BD6B6500401982FF1F08B501E00A4B1B780A4B1B7813F0200FE5
:400C8000F8D100F07DFF084B1A7842F001021A701A7802F0FE021A7000F076FF08BD00BF5B6400406B6500409B64004010B50F22184B1A70184C022323600721012000F0EE
:400CC0009BFA1649012000F083FA012323600721002000F091FA1249002000F079FAFFF7C7FF00240F4B1C700F4B1C700F4B1C700F4B1C700F4B1C700F4B1C70FFF790FF61
:400D0000FFF7A2FF0D4B1C70202203F201131A7010BD00BF8B64004080E100E05D0D0000FD0D00001682FF1F1782FF1F1582FF1F1482FF1F1A82FF1F1882FF1F8A6400407D
:400D400008B5054B1B7823B9FFF7B0FF0122024B1A70FFF73BFF08BD6881FF1F28E01F4B19781F4A137803F009030B431370137813F0040F24D01B4B1B7813F0FF0F0CD119
:400D8000194A13780133DBB213701378DBB2072B06D90022144B1A7002E00022114B1A70114B1B78DBB2114AD35CDBB2104A13700D4B1A78D2B20F4B1B78DBB29A42CED110
:400DC000094B1A78D2B20B4B1B78DBB29A4204D1094A137803F0FB03137070476A6400400882FF1F1482FF1F1A82FF1F0C82FF1F4B6400401882FF1F8A640040204B1A78B7
:400E000020490B7803F0400313430B7032E01E4B1A78D2B21D490B780133DBB20B700B78DBB2072B02D90021184B1970174B1978C9B2174B1B78DBB299420ED114490B7855
:400E40000133DBB20B700B78DBB2072B02D900210F4B197001210F4B19700C4B1B78DBB20D49CA54064B1A7806490B7803F0400313430B70034B1B7813F0200FC7D1704707
:400E80006B6500401982FF1F5B6400401582FF1F1782FF1F1682FF1F1C82FF1F7222084B1A70202202331A700622A3F261131A70472210331A70002250331A70704700BF84
:400EC0008865004010B500F05BFE04460A4A137843F0200313700232137843F010031370A2F20112137843F01003137000F032F9204600F049FE10BD9865004008B5054B63
:400F00001B7823B9FFF7CAFF0122024B1A70FFF7D9FF08BD6981FF1F084B1B78DBB213F0200F06D0064A1078C0B213F01E0F02D17047002070470020704700BF6A650040F3
:400F40004B650040034B1B7813F0040FFAD1024B18707047696400404965004038B5074B1B782BB938BDFFF7EDFF0134A4B201E005460024285D0028F5D138BD6981FF1F60
:400F8000044A137803F07F03C001C0B218431070704700BF1051004008B500F0F1FD0A4A137843F020031370FF32137843F0100313700132137843F01003137000F0E4FD8E
:400FC00000F0D6F808BD00BF97640040014B1878704700BF66650040014B1878704700BF67650040034B1B7813F0040FFAD0024B187070476665004046650040014B18789A
:40100000704700BF5665004001E0044B1B78044B1B7813F0200FF8D1704700BF566500406765004008B500F0ABFD064B1A7842F001021A701A7802F0FE021A7000F0A4FD8C
:4010400008BD00BF9665004070B506460C46002506E0705DFFF7C6FF0135EDB2013CE4B2002CF6D170BD00BF08B501E00A4B1B780A4B1B7813F0200FF8D100F081FD084BAA
:401080001A7842F001021A701A7802F0FE021A7000F07AFD08BD00BF56650040676500409665004008B50F22064B1A70FFF7DCFFFFF78CFFFFF790FF0023034A13700132DE
:4010C000137008BD876400408665004008B5054B1B7823B9FFF7E6FF0122024B1A70FFF75BFF08BD6B81FF1F014B1B689864704708ED00E04001C0B2014B1870704700BF8E
:4011000002E400E00422014B1A60704700E100E00422014B1A60704780E100E010B50446FFF7F6FF2046FFF7DFFF0720FFF7E2FFFFF7E8FF10BD00BF054A137843F00203F4
:4011400013701032137843F002031370704700BFA2430040054A137843F0080313701032137843F008031370704700BFA2430040054A137843F0040313701032137843F06E
:4011800004031370704700BFA243004001BE704710B5044605E0084B186800F0E9FCA4F50044B4F5004FF6D8034B586800FB04F000F0DEFC10BD00BFD080FF1F08B5034B89
:4011C0001B7A00FB03F000F0D3FC08BDD080FF1F70B504460E46074B1D681F2802D90020FFF7D4FF04F01F04103455F8240045F8246070BD08ED00E038B504460D4607298C
:4012000002D90020FFF7C2FF1F2C02D90020FFF7BDFF04F01F0000F1604000F564406D01EDB2057038BD00BF10B59DF80840012C51D1013809282ED8DFE800F0052D2D0515
:401240002D2D0F192D230F2B03D92548007840B222E02448007840B21EE00F2B03D92248007840B218E02148007840B214E00F2B03D91F48007840B20EE01E48007840B28B
:401280000AE00F2B03D91C48007840B204E01B48007840B200E0002001EB401101FB02F1C90B8AB20D2B0BD8C3F10E0289B211418AB2611E124800EB810101338B7005E071
:4012C000631E0F4901EB83030F219970013C0C4B23F8242010BD0020FFF758FF10BD00BF180100491C010049190100491D0100491A0100491E0100491B0100491F01004985
:401300006C81FF1FF8B5074600F03AFC06460D4D2B7843F003032B700B4C237843F0030323700A4B1F700320FFF748FF2B7803F0FC032B70237803F0FC032370304600F0AD
:4013400023FCF8BDF8460040F9460040925800400022324B1A7101285FD170B53422304B1A70042202331A70062201331A70002401331C7001331C703F2201331A700233AC
:401380001C7001331C7001331C7001250A331D70502203F527631A700A2201331A702C2201331A7001331C70442203331A70482201331A7001331D70022602331E701222CF
:4013C00001331A70282201331A70EB2201331A705220FFF797FF5822124B1A7001331C70052205331A7001331E7001331C7001331C70204600F02EFA43F233320A4B1A602B
:401400002946284600F04AFA2946082000F0CAFA06491D20FFF7DCFE70BD70476C81FF1F004E0040945800402482FF1FFD160000F0B583B0284D01272F70284E00247471E1
:40144000102000F019FA102000F09AFA07211D20FFF7D2FE0422224B1A7001331C7007331C70204A137843F0180313701E4B1C7003F2F5231C7001331C700A22A3F20933A6
:401480001A7001331C7002331C705B2205331A705E2201331A7004331C701422A3F68C231A70009710234FF4004248F6F0510220FFF7BAFE2B78013B06EB83039A780B4B7D
:4014C0001A702B78013B36F82320094B1A802878FFF73EFF03B0F0BDE080FF1F6C81FF1F96580040075B0040935800400E4E00400C4E004070B500F043FB06462A4B1B7890
:401500002A4B1A7842F001021A701A7842F010021A7010331A7842F001021A701A7842F010021A70224D2B7843F002032B70214C237843F0020323701F4A137843F00303AC
:4015400013700320FFF73AFE2B7803F0FD032B70237803F0FD032370184A137843F0060313707A22164B1A70164A137843F0010313701032137843F0010313700F3A137812
:4015800043F0010313701032137843F0010313704FF000530C4A1360A2F5C0721360304600F0F2FA70BD00BFE080FF1FAA430040F8460040F9460040915800407758004035
:4015C00082580040A143004080E200E008B5084B9B794BB9064BDB7913F0FF0F01D1FFF727FF0122024B9A71FFF784FF08BD00BF6C81FF1F024A137843F0010313707047D4
:40160000004E0040024A137803F0FE0313707047004E0040094B1B7913F0FF0F03D0074B5B79DBB203E0064B1B7803F00103012B01D00028EED01846704700BF6C81FF1F8A
:40164000014E0040154B1B7803F00303012B07D8134B1888023B1B889BB243EA004013E0022B0AD10E4B1888023B1B7843EA00430C4A107843EA002006E00B4B188883B2DC
:40168000074A108843EA0040084B1B7913F0FF0F02D00022054B5A71704700BF144E0040124E0040114E0040104E00406C81FF1F064B9B68C01A4FF47A7303FB00F0044B32
:4016C0001B6890FBF3F000B2704700BF6C81FF1F2482FF1F10B5084A137843F004031370FFF788FF0020FFF795FFFFF7ABFF0446FFF788FF204610BD014E0040704700BFDD
:40170000084A137843F0010313701032137843F00103137002F64D32137843F001031370704700BFA3430040014B1870704700BF034F0040014B1878704700BF034F004073
:40174000014B1880704700BF044F0040014B1880704700BF064F004008B5154A137803F0010313700232137803F0FC031370114B1A7802F0CF021A701A7842F030021A707D
:401780001A7802F0F0021A701A7842F00F021A70094A137843F0010313706320FFF7D0FF6320FFF7D3FF0820FFF7BEFF08BD00BF004F00400B4F0040014F004008B5054B7A
:4017C0001B7823B9FFF7C8FF0122024B1A70FFF797FF08BD7881FF1F024B1B68C3F88400704700BF08ED00E04001C0B2014B1870704700BF11E400E04FF40032014B1A60F4
:40180000704700BF00E100E04FF40032014B1A60704700BF80E100E010B50446FFF7F4FF2046FFF7D9FF0720FFF7DEFFFFF7E4FF10BD00BF10B5002404E02046FFF794F83F
:401840000134E4B2012CF8D9FF22014B1A7010BDE180FF1F10B50446FFF7ECFF2046FFF775F8014B1C7010BDE180FF1F014B188880B2704780400040034B1A7800F0F800E2
:4018800010431870704700BF82400040024B187800F00700704700BF8240004070B505460E46FFF7F3FF0446FFF7E0FFA84256D02B4B1B7803F0010294B900B185B938B982
:4018C000284B1D80284A137803F0BF03137070BD254A137843F040031370224B1D8070BD22B3002321490B7001240F310C7004310B700C390B7803F07F030B701A4B1B782E
:4019000013F0080F00D08DB9194B18800721013B1970164B1B7813F0010FFAD110490B7803F0FE030B700021104B19700C4B1B7813F0010F0DD00E4B1D800EB1032200E0D8
:4019400001220A4B1A70094B1B7813F0010FFAD170BD044B1D8002490B7813430B7070BDA243004080400040824000400140004002400040014B188880B27047004100403B
:40198000034B1A7800F0F80010431870704700BF02410040024B187800F00700704700BF0241004070B505460E46FFF7F3FF0446FFF7E0FFA84256D02B4B1B7803F00102E4
:4019C00094B900B185B938B9284B1D80284A137803F0BF03137070BD254A137843F040031370224B1D8070BD22B3002321490B70012413310C7004390B7008390B7803F0ED
:401A00007F030B701A4B1B7813F0080F00D08DB9194B18800721013B1970164B1B7813F0010FFAD110490B7803F0FE030B700021104B19700C4B1B7813F0010F0DD00E4B43
:401A40001D800EB1032200E001220A4B1A70094B1B7813F0010FFAD170BD044B1D8002490B7813430B7070BDA143004000410040024100400140004002400040044A137855
:401A800003F0FE0300F0010018431070704700BF30510040024A137843F080031370704778640040014B1870704700BF07650040014B1870704700BF47650040014B18704C
:401AC000704700BF27650040014B1870704700BF88640040014B1878704700BF68640040014B1878704700BF5765004008B501E0FFF7F6FFFFF7EEFF10F0100FF8D108BD69
:401B000008B5124A137803F0C00343F00903137002F21F12137843F001031370FF20FFF7C1FFFF20FFF7C4FF0020FFF7C7FF0020FFF7CAFF00F024F8054A137843F010038B
:401B4000137000F021F8FFF7D1FF08BD786400409864004008B5054B1B7823B9FFF7D0FF0122024B1A70FFF795FF08BD7981FF1F0230800803D000BF01380046FCD1704705
:401B8000EFF3108072B6704780F31088704700BF014B1868704700BF4481FF1F0E4B70B51E460E4C0025E41AA410A54204D056F8253098470135F8E701F06CF8084B094CCC
:401BC0001E46E41AA4100025A54204D056F8253098470135F8E770BDA02C0000A02C0000A02C0000A82C000010B5431E0A44914204D011F8014B03F8014FF8E710BD034643
:401C00000244934202D003F8011BFAE7704700000EB400B54FF402719CB0ADF814106FF00041049107914FF6FF711DAB02900690084853F8042BADF81610006802A9019318
:401C400000F064F8029B00221A701CB05DF804EB03B070474481FF1F2DE9F0478E6882469E420C46914698463ED88A8912F4906F3AD02568096902236F1A656905EB450593
:401C800095FBF3F57B1C43449D4238BF1D4653050FD5294600F040FB064698B13A462169FFF7A2FFA38923F4906343F08003A38113E02A4600F08EFB064670B921695046C8
:401CC00000F0DEFA0C23CAF80030A3894FF0FF3043F04003A381BDE8F08726613E44266046466561ED1BA560464528BF464649463246206800F0A8FAA36800209B1BA360BA
:401D000023681E442660BDE8F08700002DE9F04F9DB003938B8980461C060D4616460DD50B695BB9402100F0F7FA2860286118B90C23C8F80030CDE040236B6100230993E9
:401D400020238DF82930DFF89CB130238DF82A3037463C4614F8013B1BB9B7EB060910D003E0252BF9D02746F3E74B46324629464046FFF771FF013000F0A780099B4B441E
:401D800009933B78002B00F0A08000234FF0FF3204930793059206938DF853301A930126052221784E4800F041FA671C049B38B14B4A3C46801A06FA00F018430490EFE7D7
:401DC000D90644BF20228DF853201A0744BF2B228DF8532022782A2A03D0079A00210A200BE0039A111D12680391002A10DA524243F00200079204900BE027463B780134A3
:401E0000303B092B03D800FB02320121F5E701B107923B782E2B1ED17B782A2B0AD1039B02371A1D1B680392002BB8BF4FF0FF33059310E0002319460593781C0A240746A8
:401E40003A780130303A092A03D804FB01210123F5E703B1059103223978224800F0E6F940B14023CBEB000003FA00F0049B013718430490397806221B487E1C8DF828103D
:401E800000F0D4F988B1194B33B9039B073323F007030833039314E003AB00932A46144B04A94046AFF3008007E003AB00932A460F4B04A9404600F093F8B0F1FF3F824676
:401EC00003D0099B5344099342E7AB895B0601D4099801E04FF0FF301DB0BDE8F08F00BF5E2C0000642C0000682C000000000000591C00002DE9F04791461F460A698B68F3
:401F000006469342B8BF1346C9F8003091F843200C46DDF8208012B10133C9F800302368990642BFD9F800300233C9F80030256815F0060510D104F1190A07E00123524699
:401F400039463046C04701301AD00135E368D9F800209B1A9D42F1DB94F843302268003318BF012392060FD5E118302081F843005A1C94F845102244023382F8431003E09E
:401F80004FF0FF30BDE8F08704F1430239463046C0470130F4D02268D9F80050E36802F00602042A08BF5D1B2269A3680CBF25EAE57500259342C4BF9B1AED184FF00009C6
:401FC0001A344D4509D00123224639463046C0470130D5D009F10109F3E70020BDE8F0872DE9F04317460A7E85B06E2A984606460C460C9B01F1430E00F0AE8011D8632ABB
:4020000022D009D8002A00F0BB80582A40F0CA8081F84520834955E0642A1ED0692A1CD0C0E0732A00F0B08009D86F2A2ED0702A40F0B8800A6842F020020A603EE0752ADE
:4020400024D0782A3AD0ADE01A6801F14205111D1960136884F84230A8E021681A6811F0800F02D0111D196008E011F0400F02F10401196002D0B2F9003000E01368002BF0
:402080003CDA2D225B4284F8432037E021681A6811F0800F02D0111D196007E011F0400F02F10401196001D0138800E01368227E5C496F2A14BF0A2208221BE078225A4966
:4020C00084F845202268186812F0800F00F104051D6003D1550601D5038800E00368D00744BF42F0200222601BB9226822F0200222601022002084F8430001E049490A229E
:402100006568002DA56008DB206820F0040020602BB9002D7DD175460CE0002B79D07546B3FBF2F002FB1033CB5C05F8013D03460028F5D1082A0BD12368DA0708D5236920
:4021400062689A42DEBF302305F8013C05F1FF35C5EB0E0323612EE008681A6810F0800F496903D0101D1860136808E010F0400F02F104001860136801D0198000E0196008
:4021800000232361754616E01A68111D1960156800216268284600F049F808B1401B6060636804E004F1420584F8422001232361002384F84330CDF800803B4603AA214666
:4021C0003046FFF797FE013002D14FF0FF3026E023692A4639463046C0470130F5D023689B0710D5002504F1190907E001234A4639463046C0470130E7D00135E368039A8D
:402200009B1A9D42F2DBE068039B9842B8BF184605E00B7804F1420584F842308AE705B0BDE8F0836F2C0000802C000010B5C9B202449042034605D01C7801308C42F8D1BF
:40224000184610BD002010BD884210B501EB020301D8421E0BE09842FBD28118D21AD34204D013F8014D01F8014DF8E710BD994204D011F8014B02F8014FF8E710BD000047
:4022800038B50546002944D051F8043C0C1F002BB8BFE41800F0D4F81E4A1368114613B96360146030E0A3420DD92268A018834201BF18685B681218226063600C6023E09B
:4022C000A24203D813465A68002AF9D118681918A1420BD12168014458188242196013D110685268014419605A600DE002D90C232B6009E021686018824201BF1068526875
:402300000918216062605C602846BDE8384000F098B838BD8081FF1F70B5CD1C25F0030508350C2D38BF0C25002D064601DBA94202D90C23336046E000F082F8234B1C6876
:402340001A462146A1B10B685B1B0ED40B2B03D90B60CC18CD501EE08C420BBF63684B681360636018BF0C4615E00C464968E9E7174C23681BB9304600F052F8206029465F
:40238000304600F04DF8431C18D0C41C24F00304A0420DD12560304600F053F804F10B00231D20F00700C31A0ED05A42E25070BD211A304600F034F80130EBD10C233360B1
:4023C000304600F03EF8002070BD00BF8081FF1F7C81FF1FF8B5074615460E4621B91146BDE8F840FFF798BF1AB9FFF749FF2846F8BD00F027F885420ED929463846FFF723
:402400008BFF044650B131462A46FFF7EDFB31463846FFF735FF01E03046F8BD2046F8BD38B5064C0023054608462360FEF750FB431C02D1236803B12B6038BD2882FF1F45
:402440007047704751F8040C0028BEBF091851F8043CC01804387047000000002A2A2057686F20616D2049207265676973746572203D20307825303258205B457870656389
:402480007465643A20307833335D0D0A000000002A2A2A2A2A2A2A2A2A2A2A2A2A2A5265676973746572732056616C7565732A2A2A2A2A2A2A2A2A2A2A2A2A2A0D0A00000C
:4024C00020436F6E74726F6C207265676973746572203120686173206265656E2073657420746F203D20307825303258200D0A0020436F6E74726F6C207265676973746531
:4025000072203520686173206265656E2073657420746F203D20307825303258200D0A0020436F6E74726F6C207265676973746572206F66204649464F2068617320626512
:40254000656E2073657420746F203D20307825303258200D0A00000020436F6E74726F6C207265676973746572203320686173206265656E2073657420746F203D2030785B
:4025800025303258200D0A002A2A2A2A2A2A2A2A2A2A2A2A2A2A2A2A2A2A2A2A2A2A2A2A2A2A2A2A2A2A2A2A2A2A2A2A2A2A2A2A2A2A2A2A0D0A0000206461746120307834
:4025C00025642025642025640D0A0000436F6E66696775726174696F6E206F662074686520616363656C65726F6D657465722066756C6C207363616C652072616E67652078
:402600000D0A000043686172616374657220202020202020202020202046756C6C207363616C652072616E6765200D0A000000003120202020202020202020202020202046
:4026400020202020202B2D203267200D0A0000003220202020202020202020202020202020202020202B2D203467200D0A0000003320202020202020202020202020202063
:4026800020202020202B2D203867200D0A0000003420202020202020202020202020202020202020202B2D20313667200D0A0000436F6E66696775726174696F6E206F66AE
:4026C0002074686520616363656C65726F6D657465722073616D706C696E67206672657175656E6379200D0A0000000043686172616374657220202020202020202020206D
:402700002053616D706C696E67204672657175656E6379200D0A000031202020202020202020202020202020202020202031487A200D0A00322020202020202020202020C8
:402740002020202020202020203130487A200D0A000000003320202020202020202020202020202020202020203235487A200D0A0000000034202020202020202020202038
:402780002020202020202020203530487A200D0A000000005468652073656C6563746564206F7074696F6E2077617320616C7265616479206265656E207365747465642068
:4027C0000D0A0000546865206368616E676520776173207375636365737366756C200D0A0000000053746F7265207468652074656D70657261747572652064617461200DF6
:402800000A00000043686172616374657220202020202020202020202054656D706572617475726520666F726D6174200D0A000063202020202020202020202020202020D0
:40284000202020202053746F7265206461746120696E2043656C7369757320666F726D6174200D0A0000000066202020202020202020202020202020202020202053746F06
:402880007265206461746120696E2046616872656E6865697420666F726D617420200D0A000000002A2A2A2A2A2A2A2A2A2A2A2A2A2A2A2A2A2A2A2A2A2A2A2A2A2A2A2ADA
:4028C0002A2A2A2A2A2A2A2A2A2A2A204D454E5527202A2A2A2A2A2A2A2A2A2A2A2A2A2A2A2A2A2A2A2A2A2A2A2A2A2A2A2A2A2A2A2A2A2A2A2A2A2A2A2A2A2A2A2A0D0A1F
:40290000000000002D2D2D2D2D2D2D2D2D2D2D2D2D2D2D2D2D2D2D2D2D2D2D2D2D2D2D2D2D2D2D2D2D2D2D2D2D2D2D2D2D2D2D2D2D2D2D2D2D2D2D2D2D2D2D2D2D2D2D2D0B
:402940002D2D2D2D2D2D2D2D2D2D2D2D2D2D2D2D2D2D2D2D2D2D2D2D2D2D2D2D2D2D0D0A00000000436F6D6D616E6420207C20526573756C74202020202020202020202080
:40298000202020202020200D0A0000006220202020202020207C2053746172742064617461206163717569736974696F6E2066726F6D2074686520616363656C65726F6D91
:4029C0006574657220616E642073746F72616765206F6E2074686520454550524F4D206D656D6F7279200D0A000000007320202020202020207C2053746F7020646174611A
:402A0000206163717569736974696F6E2066726F6D2074686520616363656C65726F6D6574657220616E642073746F72616765206F6E2074686520454550524F4D206D657D
:402A40006D6F7279200D0A006620202020202020207C20436F6E66696775726174696F6E206F662074686520616363656C65726F6D657465722066756C6C207363616C6532
:402A80002072616E6765200D0A0000007020202020202020207C20436F6E66696775726174696F6E206F662074686520616363656C65726F6D657465722073616D706C69D7
:402AC0006E67206672657175656E6379200D0A007620202020202020207C20537461727420646174612076697375616C697A6174696F6E20696E20746865204272696467EC
:402B00006520436F6E74726F6C2050616E656C200D0A00007520202020202020207C2053746F7020646174612076697375616C697A6174696F6E20696E2074686520427299
:402B40006964676520436F6E74726F6C2050616E656C200D0A0000007420202020202020207C2053746F7265207468652074656D70657261747572652064617461200D0A37
:402B8000000000002A2A2A2A2A2A2A2A2A2A2A2A2A2A2A2A2A2A2A2A2A2A2A2A2A2A2A2A2A2A2A2A2A2A2A2A2A2A2A2A2A2A2A2A2A2A2A2A2A2A2A2A2A2A2A2A2A2A2A2A3D
:402BC0002A2A2A2A2A2A2A2A2A2A2A2A2A2A2A2A2A2A2A2A2A2A2A2A2A2A2A2A2A2A2A0D0A000000035B00402443004040000000004F00400C00405100403000F051004006
:402C0000100000000140800A000B01400005001401400002801601400004001B0140000100400140000A004C014000020050014020000000605200404C0700480600800AF1
:402C4000014054070048800000160140D40700488000801A01405408004880004300232D302B2000686C4C0065666745464700303132333435363738394142434445460023
:402C80003031323334353637383961626364656600000000F8B500BFF8BC08BC9E4670474D0000004D0B0000F8B500BFF8BC08BC9E46704729000000C82C0000C880FF1F8C
:402CC00080000000E8000000000000003082FF1F0000E02EC05D00001800000000366E0101FF000000000000000000000000000000000000000000000000000000000000B4
:402D0000000000005C2C000000000000000000000000000000000000000000000000000000000000000000000000000000000000000000000000000000000000000000000B
:402D400000000000E480FF1F0000000000000000000000000000000000000000000000000000000000000000000000000000000000000000000000000000000000000000D1
:402D80000000000000000000000000000000000000000000000000000000000000000000000000000000000000000000000000000000000000000000000000000000000013
:402DC00000000000000000000000000000000000000000000000000000000000000000000000000000000000000000000000000000000000000000000000000000000000D3
:402E00000000000000000000000000000000000000000000000000000000000000000000000000000000000000000000000000000000000000000000000000000000000092
:402E40000000000000000000000000000000000000000000000000000000000000000000000000000000000000000000000000000000000000000000000000000000000052
:020000040003F7
:0200000480007A
:4000000001450040024F004004520040046400400265004004040140060501404F0601403C0701405C08014056090140090A0140390B01400C150140241601404E17014074
:400040004E1801404A1901401B1A01404A1B014004400140074101400B42014006430140024401400545014005460140054701400848014009490140044C0140084D01407D
:400080000650014001510140640101400A4B0060014010021102870F880D890F8B0F88728A3838883E4458045F0118011B0482028A10E281E602019A0598070209020D9AAA
:4000C000119813021538160817C018311A021C241D211E181FD821FC2303240425132764282629022A192B983020321833E035133607370F3A803B883E01580459045C22D8
:400100005F018002810D820D850D88108C108D0D900991029206930D9405950D960A980399019A0C9B029E10A010A10DA410A902AB04AD02AE10AF08B10FB410B60FBA80E8
:40014000BB02BE10D602D720D804D904DB04DC22DD20DF0100C10304080809500B800D200E2110201140120113011408162018011B101D401E211F4121022530268428080E
:4001800029402A022C102D102F4030103122330436843701384039043A013C803E243F016001686069566A046B257202730180408B02A202A610AB04B401C00BC2EFC46D32
:4001C000CAEDCCD7CEFBD808E001EA2000720208030104100660081209040A640C4D0E801002120D1307168018CD20CD248D264028012A322CCD300F310432703302348054
:4002000037013A0A3E1052805405580459045B045C515D505F018403860487138B108C738D118E0C8F0695119608970E982A990C9A449B139F08A480A615A873AA04AB0C03
:40024000AD20B00FB2C0B320B430B50FB710B828BA02BB20BE10BF44C002C540C9FFCA07CBFFCC40CD20CEF0CF05D008D401D804D904DA04DB04DC33DD33DF01E040E1A876
:40028000E240E32001800210030204200504074109200A100D080E840F2010201208140815011602170418841A101B061D041E801F18212022442450268028022A402B04E3
:4002C0002C202F203080312032083602388039203A103B083C103F01400448A04B0858025A885B205C405E015F08600862207502820286808B08902091019204930196406E
:40030000971098049A029B459D02A104A220A310A708A921AC04AE40B080C0F5C276C4F6CA0CCC8ECEAED004D6DFE488EA20EC10020130015409560458045B045C055D103C
:400340005F0101020428060207400C080E861510170518801C011D201E8024282504262A27402D912F08362837413E143F0245254C044D084E424F025408564057105929D1
:400380005A40608167106D016E166F057580760280408120824083018640A101A901C0F8C2F0C470CAB0CCF0CEE0D0E0D230D60FD849EE018D0C9904A108A820A912AA0486
:4003C000AC08B510E212E601EA02EE048D018E0196019901A501B001B301BE01C050C106C621C70DC81CC9FFCAFFCBFFCDA0CF04D018D440D804D904DA04DB04DC30DD2522
:40040000DF01E040E2C0E440E540E6C0E8C0EAC0ECC0EEC00202050606060B200C040D010E080F0217251B021D841E02210826402710282031103680371039803D203E0139
:4004400040104220440C45824A024B204C084D044E014F0250405208531055405660570459025A035C105D045E8262406328670280088140828091029201930294809A0213
:400480009B259C089E20A110A286A310A540A608A702AE08C0F1C2F4C470CA02CC34CEA8D0B0D23CD6F0D81EE201E808EC10EE0101100223044C05080633080309180C08AB
:4004C0000D1C0FE1104F11FF12301402153C17C2187319801A0C1F04207F2144240425E72718280C29C02C012FE3302C31383210331F340F364037C038083A223B083E404C
:4005000056025713580459045B045C335D305F018004821984038614980EA415A60AB010B40FB820BE01C052C106C6CEC70BC81CC9FFCAFFCBFFCEF0CF44D00CD804DA0417
:40054000DC01DD03DF01E6C0EA40EB0200020108022003400524068107100A080C100D020E2411081502160217261A481C801D021E15244027112D202E8635043650370211
:4005800039013A013C803D013E28432049804A085004511052405E016C086D506E087629772480089320952096409710980599809B409C809E40A080A124A220A324A6084D
:4005C000A880AD10AE01AF20B001B108C0FCC272C4F4CAF0CCF0CEF0D004D20CD680EC1005140B03150C177119DC1B221D101F402401272029092BD02D102FAC300133E0CB
:40060000351F3B0A3E0154185604580459045B045C305D305F0105300E281308151016021B011D901EA021132208230826A0276029802B242C202F08308031203208350878
:400640003760380839203C423D483E104410458246044D40542057085B015F3062A2648567208340860287018A028E84904891109210932095029710981599889B019C80D2
:400680009D209E82A081A124A204A324A658AA04B540C040C260C4C4CA6ECC7ECEF6D0F0D210D601D8FDE418EA42310832403640CC705E0265209680A508A640D680D8806A
:4006C0005320628085208B2096809D20A508A641D420D640E6409680A508A601AA80B240EE207C01DE01034056029401C008D604450294019E02AB40D00186029E02A502F5
:40070000B401EC0827049F04A508A601AA40B704C820EE807C80820185088C80A508A601DE20E240E6800A04B502C202EC081040740184018840AE04C408DE04E201002E01
:400740000A040C2A102E1A2C1C0A003F888400004000000056820900071838020A021018840000000118000260C1003884330044849C0003041A800080000400041800003E
:40078000001A00007FE0000F801302000200000A000050003506200004CEDF0B1FFFFFFF2200F008040000000000022804040404111100010000C00040011011C00100111E
:4007C000400140010000000000000000000000000000000056080913010000000706380984000000840000000A001000041C0000600B001404008000800004008400000061
:400800000000000000007F1E0000800108080000000040402504100006BECD0F1FFFFFFF2200F008040000000900000004040404222200010000C00040011011C0010011A5
:400840004001400100000000000000000000000000000000000900360005003A01000E8000000040000000004423310C6702000D0000001000000000000000806700004058
:400880002200D1008030600F078018400000000800004050320405000100E00C18FFFFFF62A0F0410C00000040000400040404041313000100000000000040020010301026
:4008C000001010120000000000000000000000000000000000606000600000008000508C8C008C00000000008000408B8B000000000000001000011616000200000000001D
:400900000100000101000000100000000800180100000000000000000000000000000000000000000000000000000000000000000000000000000000000000000000000083
:400940000000000000000000000000000000000000000000000000000000000000000000000000000000000000000000000000000000000000000000000000000000000077
:400980000000000000000000000000000000000000000000000000000000000000000000000000000000000000000000000000000000000000000000000000000000000037
:4009C00000000000000000000000000000000000000000000000000000000000000000000000000000000000000000000000000000000000000000000000000000000000F7
:400A000000000000000000000000000000000000000000000000000000000000000000000000000000000000000000000000000000000000000000000000000000000000B6
:0200000490006A
:0400000000004005B7
:0200000490105A
:04000000BC90ACAF55
:0200000490303A
:02000000BA8ABA
:0200000490402A
:4000000000000000000000000000000000000000000000000000000000000000000000000000000000000000000000000000000000000000000000000000000000000000C0
:400040000000000000000000000000000000000000000000000000000000000000000000000000000000000000000000000000000000000000000000000000000000000080
:400080000000000000000000000000000000000000000000000000000000000000000000000000000000000000000000000000000000000000000000000000000000000040
:4000C0000000000000000000000000000000000000000000000000000000000000000000000000000000000000000000000000000000000000000000000000000000000000
:0200000490501A
:0C00000000012E16106900012E27CAF323
:00000001FF