:400000000080002011000000650700006507000008B5044B1A6803F53F5302331A6000F0C1FB00BFFA46004010B5054C237833B9044B13B10448AFF300800123237010BDE3
:400040004881FF1F00000000A8170000084B10B51BB108490848AFF300800848036803B910BD074B002BFBD0BDE81040184700BF000000004C81FF1FA8170000C880FF1F84
:400080000000000010B562B600F088FD00F0A8FC00F0D0FE1B4800F003FF0A2000F0EAFD0F2000F055F8184C02461849204600F057FF204600F0A2FD154800F09FFD4021E2
:4000C000242000F02DF8242000F042F802461149204600F045FF204600F090FD0221222000F01EF8222000F033F802460A49204600F036FF204600F081FD084800F07EFD9D
:40010000002010BD310200007481FF1FAC170000E017000010180000401800007018000030B583B08DF804008DF80510002402AD05F8054D012000F073FD23462A460221F0
:4001400001A800F019F8204600F06AFD03B030BD00B583B060F07F008DF8040002AA002302F8053D0123194601A800F005F89DF8030003B05DF804FB2DE9F04383B00646AD
:400180000C4617469846002000F04AFD64B2002511E02146082CA8BF0821C9B206EBC50000F004FE00F0C4FD10F0010FFAD0083C64B201356DB2002CEBDC00F007FE00F0CF
:4001C000D5FD0026009601964FFA88F820E0C146B8F1080FA8BF4FF008095FFA89F1684600F0E4FD00F0A4FD10F0010FFAD0002406E004EBC60500F0B3FD78550134E4B2DA
:400200004C45F6DBA8F108084FFA88F8013676B2B8F1000FDBDC012000F002FD00F0D6FD00F0A4FD00F0B0FD03B0BDE8F08300BF08B500F0C1FC974B18703138452800F2F5
:400240002881DFE810F09D00B400CB00E20026012601260126012601260126012601260126014600260126014A001F01260126015C002601260126012601260126012601D1
:4002800026012601800026012601530009010101F900260126012601260126012601260126012601260126014A001F01260126015C002601260126012601260126012601F8
:4002C00026012601800026012601530009010101F9000122704B1A7008BD6F4B1B78012B40F0D78000226C4B1A7008BD6A4B1B78012B40F0CE800022674B1A7008BD664B6F
:400300001B78012B16D1654800F078FC644800F075FC644800F072FC634800F06FFC634800F06CFC624800F069FC5B4B01225A7000221A70584B9B78012B40F0AA8000224A
:40034000554B9A7008BD544B1B78012B40F0A180584800F053FC584800F050FC574800F04DFC574800F04AFC564800F047FC564800F044FC484B0122DA7000221A7008BDE7
:40038000454B5B78012B06D180212320FFF7C8FE0022414B5A70404BDB78012B79D123212020FFF7BDFE00223B4BDA7008BD3A4B5B78012B06D190212320FFF7B1FE002269
:4003C000354B5A70344BDB78012B62D139212020FFF7A6FE0022304BDA7008BD2E4B5B78012B06D1A0212320FFF79AFE00222A4B5A70294BDB78012B4BD155212020FFF7A5
:400400008FFE0022244BDA7008BD234B5B78012B06D1B0212320FFF783FE00221E4B5A701D4BDB78012B34D171212020FFF778FE0022194BDA7008BD174B1B78012B28D192
:400440000022154B1A7008BD134B1B78012B20D10022114B1A7008BD0F4B1B78012B18D11A4800F0CBFB1A4800F0C8FB194800F0C5FB194800F0C2FB074B01229A700022E1
:400480001A7008BD044B9B78012B02D10022024B9A7008BDD881FF1F6481FF1FA0180000D81800000419000024190000441900006419000084190000C0190000EC1900007D
:4004C000081A0000281A0000481A0000681A0000881A0000B41A0000EC1A0000FEE700BFF0B40022174611E050F82760F3B226F0FF0608E001EB420511F812406D78A555A2
:400500000132013BDBB2002BF4D101371E2FEBD9F0BC7047064B1B78DBB203F00701054A11701B09013213704422034B1A707047CF0100496E5800407658004008B50A46DE
:40054000002100F004FD08BD38B50B222B4B1A8018232B490B7002310A802A4A1370332102321180023213704BF67F3102321180023213700222244B1A7008224FF0402376
:400580001A70032103F500731970204B1B78DBB21F490B701F4B1A8041F25122023B1A80002419250CE01C4B1B7803F0010343EA440404F003044FF4F07000F081FC013DAD
:4005C0000DB1032CEFD115B90320FFF787FF134B4FF480721A8007221A70002210490A704820023108701A700222033B1A700D4A137843F00F03137038BD00BF8040004025
:4006000082400040864000400043004008010049A146004022420040254200400440004006400040A243004008B500F085FC08BD38B572B6384A137843F004031370002446
:400640000CE0364D630019194A0011462A44084691882858FFF772FF0134E4B2072CF0D900240BE02D48A20011194B0003441A8F596B186BFFF7D8FF0134E4B2012CF1D9F1
:4006800027494FF09040FFF72BFF264A137843F0020313701032137843F002031370224C237843F040032370A2F58632513A137843F01003137008221C491D48FFF7B4FF80
:4006C0000A221C491C48FFF7AFFF0A221B491C48FFF7AAFF0A221B491B48FFF7A5FF08221A491B48FFF7A0FF1A4A137843F008031370194D61232B70FFF726FF81232B702D
:400700000122164B1A70FFF705FF0E2221461448FFF78AFF38BD00BFE8460040281B00007C00004803500140A04300408C0800480251004094080048C0510040A0080048CB
:4007400010510040AC08004820510040B808004832510040224300400048004004000840B043004008B500F0BBFB03680C2B00D1FEE7FEE708B5094B1A681044084BC31AFD
:40078000802B02DC054B186005E000F0A9FB0C2303604FF0FF32104608BD00BFCC80FF1F0082FF1F08B5104E104D16E029686B68AC68002204E051F8040B43F8040B0432C5
:4007C000A242F8D1E868002203E0002143F8041B04328242F9D11035013E002EE6D100F085FBFFF74FFCFEE701000000C81B000008B5104A104B1A60104A136843F400736A
:40080000136000230AE0032B03D80D4A52F8231000E00C490C4A42F8231001332F2BF2D90A4B1A780A4B1A70074A0A4B1A60FFF7FFFE08BD0004FA050CED00E014ED00E0AF
:4008400000000000650700000080FF1FBC760040C080FF1F08ED00E00222014B1A60704700E100E00122014B1A60704700E100E008B500F02DFB0C4A137843F02003137077
:40088000013A137843F0100313700232137843F01003137000F020FB00F0CEF9FFF7DCFFFFF7E0FF08BD00BF956500400222014B1A60704780E100E00122014B1A60704779
:4008C00080E100E010B5FFF7F1FF064B1C78064A137803F009031C4300231370FFF7BCFF204610BD64650040DC81FF1F10B5FFF7E3FF064B1B78064A147804F040041C43EC
:4009000000231370FFF7AEFF204610BD66650040ED81FF1F08B501E00A4B1B780A4B1B7813F0200FF8D100F0D3FA084B1A7842F001021A701A7802F0FE021A7000F0CCFA16
:4009400008BD00BF55650040666500409565004010B50F22174B1A70174C022323600721012000F0B1F91549012000F099F9012323600721002000F0A7F91149002000F0FA
:400980008FF9FFF7C7FF00240E4B1C700E4B1C700E4B1C700E4B1C700E4B1C700E4B1C70FFF790FFFFF7A2FF0C4B1C70202202331A7010BD8565004080E100E0FD09000033
:4009C0009D0A0000EA81FF1FEB81FF1FE981FF1FE881FF1FEE81FF1FEC81FF1F8465004008B5054B1B7823B9FFF7B2FF0122024B1A70FFF73DFF08BD6881FF1F28E01F4B60
:400A000019781F4A137803F009030B431370137813F0040F24D01B4B1B7813F0FF0F0CD1194A13780133DBB213701378DBB2072B06D90022144B1A7002E00022114B1A7095
:400A4000114B1B78DBB2114AD35CDBB2104A13700D4B1A78D2B20F4B1B78DBB29A42CED1094B1A78D2B20B4B1B78DBB29A4204D1094A137803F0FB03137070476465004000
:400A8000DC81FF1FE881FF1FEE81FF1FE081FF1F45650040EC81FF1F84650040204B1A7820490B7803F0400313430B7032E01E4B1A78D2B21D490B780133DBB20B700B7861
:400AC000DBB2072B02D90021184B1970174B1978C9B2174B1B78DBB299420ED114490B780133DBB20B700B78DBB2072B02D900210F4B197001210F4B19700C4B1B78DBB2EC
:400B00000D49CA54064B1A7806490B7803F0400313430B70034B1B7813F0200FC7D1704766650040ED81FF1F55650040E981FF1FEB81FF1FEA81FF1FF081FF1F7222084B81
:400B40001A702022A3F582731A700622A2331A70472210331A700022AF3B1A70704700BF8A65004010B500F0B3F904460A4A137843F020031370A2F58272137843F01003DB
:400B800013700332137843F01003137000F062F8204600F0A1F910BD9A65004008B5054B1B7823B9FFF7CAFF0122024B1A70FFF7D9FF08BD6981FF1F084B1B78DBB213F09D
:400BC000200F06D0064A1078C0B213F01E0F02D17047002070470020704700BF666400404A650040034B1B7813F0040FFAD1024B18707047696400404B65004038B5074BFC
:400C00001B782BB938BDFFF7EDFF0134A4B201E005460024285D0028F5D138BD6981FF1F044A137803F07F03C001C0B218431070704700BF10510040054A137843F0010397
:400C400013701032137843F001031370704700BFA2430040054A137843F0040313701032137843F004031370704700BFA243004001BE704710B5044605E0084B186800F0E6
:400C80001FF9A4F50044B4F5004FF6D8034B586800FB04F000F014F910BD00BFD080FF1F70B504460E46074B1D681F2802D90020FFF7DEFF04F01F04103455F8240045F8CD
:400CC000246070BD08ED00E038B504460D46072902D90020FFF7CCFF1F2C02D90020FFF7C7FF04F01F0000F1604000F564406D01EDB2057038BD00BF08B500F0E9F80B4AA0
:400D0000137843F020031370A2F58072137843F01003137002F20112137843F01003137000F0DAF800F094F808BD00BF97650040014B1878704700BF67640040014B1878E0
:400D4000704700BF68650040034B1B7813F0040FFAD0024B187070476764004047650040014B1878704700BF5765004001E0044B1B78044B1B7813F0200FF8D1704700BF48
:400D8000576500406865004008B500F0A1F8064B1A7842F001021A701A7802F0FE021A7000F09AF808BD00BF9765004070B506460C46002506E0705DFFF7C6FF0135EDB2C7
:400DC000013CE4B2002CF6D170BD00BF08B501E00A4B1B780A4B1B7813F0200FF8D100F077F8084B1A7842F001021A701A7802F0FE021A7000F070F808BD00BF57650040EF
:400E0000686500409765004008B50F22074B1A70FFF7DCFFFFF78CFFFFF790FF0023044A137002F20112137008BD00BF876500408764004008B5054B1B7823B9FFF7E4FF1A
:400E40000122024B1A70FFF757FF08BD6B81FF1F054A137843F0020313701032137843F002031370704700BFA2430040014B1B68D864704708ED00E04001C0B2014B187087
:400E8000704700BF03E400E00822014B1A60704700E100E00822014B1A60704780E100E010B50446FFF7F6FF2046FFF7DFFF0720FFF7E2FFFFF7E8FF10BD00BF000000000A
:400EC0000230800803D000BF01380046FCD17047EFF3108072B6704780F31088704700BF014B1868704700BF4081FF1F0E4B70B51E460E4C0025E41AA410A54204D056F894
:400F0000253098470135F8E700F04CFE084B094C1E46E41AA4100025A54204D056F8253098470135F8E770BDB01B0000B01B0000B01B0000B81B000010B5431E0A44914251
:400F400004D011F8014B03F8014FF8E710BD03460244934202D003F8011BFAE7704700000EB400B54FF402719CB0ADF814106FF00041049107914FF6FF711DAB02900690B8
:400F8000084853F8042BADF81610006802A9019300F064F8029B00221A701CB05DF804EB03B070474081FF1F2DE9F0478E6882469E420C46914698463ED88A8912F4906FE7
:400FC0003AD02568096902236F1A656905EB450595FBF3F57B1C43449D4238BF1D4653050FD5294600F040FB064698B13A462169FFF7A2FFA38923F4906343F08003A38147
:4010000013E02A4600F08EFB064670B92169504600F0DEFA0C23CAF80030A3894FF0FF3043F04003A381BDE8F08726613E44266046466561ED1BA560464528BF464649468B
:401040003246206800F0A8FAA36800209B1BA36023681E442660BDE8F08700002DE9F04F9DB003938B8980461C060D4616460DD50B695BB9402100F0F7FA2860286118B9FA
:401080000C23C8F80030CDE040236B610023099320238DF82930DFF89CB130238DF82A3037463C4614F8013B1BB9B7EB060910D003E0252BF9D02746F3E74B463246294698
:4010C0004046FFF771FF013000F0A780099B4B4409933B78002B00F0A08000234FF0FF3204930793059206938DF853301A930126052221784E4800F041FA671C049B38B1A3
:401100004B4A3C46801A06FA00F018430490EFE7D90644BF20228DF853201A0744BF2B228DF8532022782A2A03D0079A00210A200BE0039A111D12680391002A10DA5242AB
:4011400043F00200079204900BE027463B780134303B092B03D800FB02320121F5E701B107923B782E2B1ED17B782A2B0AD1039B02371A1D1B680392002BB8BF4FF0FF3384
:40118000059310E0002319460593781C0A2407463A780130303A092A03D804FB01210123F5E703B1059103223978224800F0E6F940B14023CBEB000003FA00F0049B0137DB
:4011C00018430490397806221B487E1C8DF8281000F0D4F988B1194B33B9039B073323F007030833039314E003AB00932A46144B04A94046AFF3008007E003AB00932A4670
:401200000F4B04A9404600F093F8B0F1FF3F824603D0099B5344099342E7AB895B0601D4099801E04FF0FF301DB0BDE8F08F00BF6E1B0000741B0000781B00000000000077
:40124000A90F00002DE9F04791461F460A698B6806469342B8BF1346C9F8003091F843200C46DDF8208012B10133C9F800302368990642BFD9F800300233C9F8003025686B
:4012800015F0060510D104F1190A07E00123524639463046C04701301AD00135E368D9F800209B1A9D42F1DB94F843302268003318BF012392060FD5E118302081F8430061
:4012C0005A1C94F845102244023382F8431003E04FF0FF30BDE8F08704F1430239463046C0470130F4D02268D9F80050E36802F00602042A08BF5D1B2269A3680CBF25EACA
:40130000E57500259342C4BF9B1AED184FF000091A344D4509D00123224639463046C0470130D5D009F10109F3E70020BDE8F0872DE9F04317460A7E85B06E2A984606467E
:401340000C460C9B01F1430E00F0AE8011D8632A22D009D8002A00F0BB80582A40F0CA8081F84520834955E0642A1ED0692A1CD0C0E0732A00F0B08009D86F2A2ED0702A30
:4013800040F0B8800A6842F020020A603EE0752A24D0782A3AD0ADE01A6801F14205111D1960136884F84230A8E021681A6811F0800F02D0111D196008E011F0400F02F119
:4013C0000401196002D0B2F9003000E01368002B3CDA2D225B4284F8432037E021681A6811F0800F02D0111D196007E011F0400F02F10401196001D0138800E01368227E21
:401400005C496F2A14BF0A2208221BE078225A4984F845202268186812F0800F00F104051D6003D1550601D5038800E00368D00744BF42F0200222601BB9226822F02002FD
:4014400022601022002084F8430001E049490A226568002DA56008DB206820F0040020602BB9002D7DD175460CE0002B79D07546B3FBF2F002FB1033CB5C05F8013D03468C
:401480000028F5D1082A0BD12368DA0708D5236962689A42DEBF302305F8013C05F1FF35C5EB0E0323612EE008681A6810F0800F496903D0101D1860136808E010F0400FB1
:4014C00002F104001860136801D0198000E0196000232361754616E01A68111D1960156800216268284600F049F808B1401B6060636804E004F1420584F842200123236172
:40150000002384F84330CDF800803B4603AA21463046FFF797FE013002D14FF0FF3026E023692A4639463046C0470130F5D023689B0710D5002504F1190907E001234A466F
:4015400039463046C0470130E7D00135E368039A9B1A9D42F2DBE068039B9842B8BF184605E00B7804F1420584F842308AE705B0BDE8F0837F1B0000901B000010B5C9B21E
:4015800002449042034605D01C7801308C42F8D1184610BD002010BD884210B501EB020301D8421E0BE09842FBD28118D21AD34204D013F8014D01F8014DF8E710BD9942A1
:4015C00004D011F8014B02F8014FF8E710BD000038B50546002944D051F8043C0C1F002BB8BFE41800F0D4F81E4A1368114613B96360146030E0A3420DD92268A01883422A
:4016000001BF18685B681218226063600C6023E0A24203D813465A68002AF9D118681918A1420BD12168014458188242196013D110685268014419605A600DE002D90C238B
:401640002B6009E021686018824201BF106852680918216062605C602846BDE8384000F098B838BD7081FF1F70B5CD1C25F0030508350C2D38BF0C25002D064601DBA94247
:4016800002D90C23336046E000F082F8234B1C681A462146A1B10B685B1B0ED40B2B03D90B60CC18CD501EE08C420BBF63684B681360636018BF0C4615E00C464968E9E76E
:4016C000174C23681BB9304600F052F820602946304600F04DF8431C18D0C41C24F00304A0420DD12560304600F053F804F10B00231D20F00700C31A0ED05A42E25070BD99
:40170000211A304600F034F80130EBD10C233360304600F03EF8002070BD00BF7081FF1F6C81FF1FF8B5074615460E4621B91146BDE8F840FFF798BF1AB9FFF749FF2846E8
:40174000F8BD00F027F885420ED929463846FFF78BFF044650B131462A46FFF7EDFB31463846FFF735FF01E03046F8BD2046F8BD38B5064C0023054608462360FEF7FAFFC8
:40178000431C02D1236803B12B6038BDF881FF1F7047704751F8040C0028BEBF091851F8043CC01804387047000000002A2A2057686F20616D204920726567697374657242
:4017C000203D20307825303258205B45787065637465643A20307833335D0D0A000000002A2A2A2A2A2A2A2A2A2A2A2A2A2A5265676973746572732056616C7565732A2A74
:401800002A2A2A2A2A2A2A2A2A2A2A2A0D0A000020436F6E74726F6C207265676973746572203520686173206265656E2073657420746F203D20307825303258200D0A00FE
:4018400020436F6E74726F6C207265676973746572203320686173206265656E2073657420746F203D20307825303258200D0A002A2A2A2A2A2A2A2A2A2A2A2A2A2A2A2A2F
:401880002A2A2A2A2A2A2A2A2A2A2A2A2A2A2A2A2A2A2A2A2A2A2A2A2A2A2A2A0D0A0000436F6E66696775726174696F6E206F662074686520616363656C65726F6D657427
:4018C00065722066756C6C207363616C652072616E6765200D0A000043686172616374657220202020202020202020202046756C6C207363616C652072616E6765200D0A86
:40190000000000003120202020202020202020202020202020202020202B2D203267200D0A0000003220202020202020202020202020202020202020202B2D203467200DBC
:401940000A0000003320202020202020202020202020202020202020202B2D203867200D0A0000003420202020202020202020202020202020202020202B2D203136672042
:401980000D0A0000436F6E66696775726174696F6E206F662074686520616363656C65726F6D657465722073616D706C696E67206672657175656E6379200D0A0000000043
:4019C00043686172616374657220202020202020202020202053616D706C696E67204672657175656E6379200D0A0000312020202020202020202020202020202020202005
:401A00002031487A200D0A003220202020202020202020202020202020202020203130487A200D0A00000000332020202020202020202020202020202020202020323548EE
:401A40007A200D0A000000003420202020202020202020202020202020202020203530487A200D0A0000000053746F7265207468652074656D706572617475726520646182
:401A80007461200D0A00000043686172616374657220202020202020202020202054656D706572617475726520666F726D6174200D0A0000632020202020202020202020DC
:401AC00020202020202020202053746F7265206461746120696E2043656C7369757320666F726D6174200D0A0000000066202020202020202020202020202020202020206A
:401B00002053746F7265206461746120696E2046616872656E6865697420666F726D617420200D0A00000000405100403000F05100401000000001400010001401408000F1
:401B400000150140000700400140000A004C0140000200500140200060520040040800480600801401400C08004880004300232D302B2000686C4C006566674546470030DE
:401B8000313233343536373839414243444546003031323334353637383961626364656600000000F8B500BFF8BC08BC9E4670474D000000F1070000F8B500BFF8BC08BCA9
:401BC0009E46704729000000D81B0000C880FF1F80000000B8000000000000000082FF1F0000E02EC05D00001800000000366E010000000000000000000000000000000008
:401C0000000000000000000000000000000000006C1B000000000000000000000000000000000000000000000000000000000000000000000000000000000000000000001D
:401C400000000000000000000000000000000000E080FF1F0000000000000000000000000000000000000000000000000000000000000000000000000000000000000000E6
:401C80000000000000000000000000000000000000000000000000000000000000000000000000000000000000000000000000000000000000000000000000000000000024
:401CC00000000000000000000000000000000000000000000000000000000000000000000000000000000000000000000000000000000000000000000000000000000000E4
:401D000000000000000000000000000000000000000000000000000000000000000000000000000000000000000000000000000000000000000000000000000000000000A3
:401D40000000000000000000000000000000000000000000000000000000000000000000000000000000000000000000000000000000000000000000000000000000000063
:020000040003F7
:0200000480007A
:4000000004520040036400400365004002030140020501404E060140380701406308014040090140030B014004140140491501405916014045170140581801404D19014016
:400040005F1A0140551B01400540014008410140094201400A4301400445014004460140014701400448014005490140034C01400A4D01400650014001510140004001603E
:40008000108011808638880D890F850F870F8A729E01AA019E01E6400113030C05020640070D080E14051519163A1706180419151A391B0A1E10202322042A403240330F3A
:4000C000340F3630371038203B083E043F4054185604580459045B045D205F018102830D8552860487A48801890D8C608D0D900494569520960997D09804990D9C049D0DF0
:40010000A004A10DA40AA531A610A7C2A807A992AA38AB68AC04B002B27FB3F0B408B70FB808BB88BE11D409D804D904DB04DC11DD10DF01009802100510071008580A866C
:400140000B200E2A1104124613181501160818141B011D101E021F04210823012504268028482A043010310832403614388039043A503B013D093F0459045A605B015E0193
:4001800063026580678887408B108E018F109E01C067C2EFC45FCA07CC6ECECFD68FD8B8E210EA0409230B040D050F3A110E1B101C02250427392E01333034023601370F93
:4001C00039803E104010410649FF4AFF4BFF4DA04F045018528054055604580459045A045B045C135D335F01604062C06440654066C068C06AC06CC06EC086338873890169
:400200008A0C8C7F8F02900F9270940C981199079C04A008A422A80CAA73AC33AD07B030B101B240B40FB504B702B808BAA0C050C103C5D0C601C702C81EC9FFCAFFCBFF83
:40024000CDAFCE0FCF04D018D401D804D904DA04DB04DC32DD23DF01E040E2C0E440E540E6C0E8C0EAC0ECC0EEC0000801A0082009080A800B020E010F021084110412027E
:400280001740182019A01A081B021D801E041F4020402110228027122A402D083320371239203B803DA03E204308458049024B804C0450045240532C5A655C405D025F08A7
:4002C000650177408A208C108E129D019F10A680AB10C007C28FC48FCA48CCA4CE3CD012D228D6DFD880E480E6408A808D01E640540956045B045F010402051006020C10F0
:400300000EA20F08150117141D301E281F54260827482C402D212F56364937103E924440452047084D284E01540256A05704581059085A015B40628167046C016D806E12B3
:400340006F16760282018601870888098A0993049501961097089C099E229F10A2C0A402A540A615AC81AD10AE80B020B580B668C0D0C2F0C470CAF0CCF0CEB0D0E0D2303E
:40038000D60FD829E680E802EE0A01CD0502070D098D0B400D4D0F8011CD1572170819CD1D101F602101233229122B642F80330F358037703B883F105440560459045B04FC
:4003C0005F018598870289028B988D9A9138920193C095989601970299029D9AA513A764A9FCAB03AD21AFD8B1E0B313B50FB601BB22BE40C026C103C240C405C5BEC6DC92
:40040000C7F0C82FC9FFCAFFCBFFCC22CEF0CF08D004D602D728D804D904DA04DB04DC10DD11DF01E2C0E440E501E610E711E8C0E901EB11EC40ED01EE40EF01080919804B
:4004400020102110220223182524264029202A842C022D012F053080323A36453710388039143D883E1240904110430145204608484149244B205020518053026108662987
:400480006702689469146AC670408302860188148C4093249480950196A697109A049D849E019F09A108A280A444A616A81CAA40B209C20CCABECCFFCEFED007D20CD8F278
:4004C000E004E402EE0400130204062007130A600C030E1410131131120C13461460156C17031A081C601F0820602380240A2614274C2A152B802C602D312F0E30103130EC
:400500003240330F34203580360F374A39023A803B883E153F114004454049FF4A074BFF4C404D204EF04F0550085440580459045A045B045C225D125F01604061A86240AC
:4005400063208404851487498804899F8D018F269180999F9C069E01A50AA751A801AA02B107B207B318B580B760BA08BF40D804D904DC21DF0101280422060307600940A3
:400580000C010D600E040F10112014021608170619081E421F18204A21042202240225012604270828202D402E042F4430223401368537053840391C3E083F0445014C41FD
:4005C0004D404E804F0466A067208220870288028B108D4092089388950496C0970299809C249D089E029F08A110A484A548A622A701A908B220B302C0F6C2F1C4F2CAF258
:40060000CCD5CE4ED080D870E020E490EA20EE80066308670A180C7F101C11011261143C1501164219011A041C08201028182C042D012E8030583101321F348036383A0A3C
:400640003F014036410442014405450E47C0482149FF4AFF4BFF4C624DA04EF04F41500C56025713580459045A045B045C025D225F016640670269106A306B106D106E1083
:400680006F12802C821184098610881C8A228C10910198149E03A030A20CA840B101B460B61FB820BF01C042C101C5E0C7CBC832C9FFCAFFCBFFCEF0CF44D00CD804D9043D
:4006C000DA04DC02DD02DF01E6C0EA40EB020008018003080484074408040AA40B020E020F081080114013201608170119411AA51C041D201E022201260229802B0231013A
:400700003214330836014201430A4608474148054A204F025102560157045A026822691070807118732081108301860289428C208D409080920895109680970299809A0889
:400740009B459C249E01A005A4A2A528A620A701AD40AF08B280B320B410B520C0F7C2CFC45BCA08CC87D0BBD20CD601E002E2A0E620E810EC60EE083080310136083710FB
:40078000CCF0632067809D019F10A608A880D8C0EA20508056088D0197809D019F10A608A710D46086088F1097809E089F10A608A710A880E210EA2002206708C008D80141
:4007C0008B049708A220E001A22097809F10AA08EE8083108B4097809F10E2200B08A220C2021280710285028A208E80A220AF04C408DC01E206000F0A070C0E10071A0309
:400800001C0600FF088C00004000000018840200000000009C8003041A60000018840000C1013800828400001A0400003307443802561809180A02100004008000080F7F51
:40084000E0801300000828000000001162043000050EFBDC3DFFFFFF2200F008040000000000022404040404000000010000C00040011011C001001140014001000000003F
:4008800000000000000000000000000000616100600000008000408C8C008C00000000008000408B8B0000000000000090000190900080000000000010000000000000009B
:4008C00000000000000000000000000000000000000000000000000000000000000000000000000000000000000000000000000000000000000000000000000000000000F8
:4009000000000000000000000000000000000000000000000000000000000000000000000000000000000000000000000000000000000000000000000000000000000000B7
:400940000000000000000000000000000000000000000000000000000000000000000000000000000000000000000000000000000000000000000000000000000000000077
:400980000000000000000000000000000000000000000000000000000000000000000000000000000000000000000000000000000000000000000000000000000000000037
:0200000490006A
:0400000000004005B7
:0200000490105A
:04000000BC90ACAF55
:0200000490303A
:02000000434675
:0200000490402A
:4000000000000000000000000000000000000000000000000000000000000000000000000000000000000000000000000000000000000000000000000000000000000000C0
:400040000000000000000000000000000000000000000000000000000000000000000000000000000000000000000000000000000000000000000000000000000000000080
:400080000000000000000000000000000000000000000000000000000000000000000000000000000000000000000000000000000000000000000000000000000000000040
:4000C0000000000000000000000000000000000000000000000000000000000000000000000000000000000000000000000000000000000000000000000000000000000000
:0200000490501A
:0C00000000012E16106900012E2253AFE3
:00000001FF