:400000000080002011000000ED070000ED07000008B5044B1A6803F53F5302331A6000F005FC00BFFA46004010B5054C237833B9044B13B10448AFF300800123237010BD8E
:400040004881FF1F0000000028180000084B10B51BB108490848AFF300800848036803B910BD074B002BFBD0BDE81040184700BF000000004C81FF1F28180000C880FF1F82
:400080000000000010B562B600F0CAFD00F0ECFC00F0B0FE1B4800F0D5FE0A2000F00CFF0F2000F0EFF9184C02461849204600F097FF204600F0E4FD154800F0E1FD402128
:4000C000242000F0C7F9242000F0DCF902461149204600F085FF204600F0D2FD0221222000F0B8F9222000F0CDF902460A49204600F076FF204600F0C3FD084800F0C0FDEB
:40010000002010BD210100007481FF1F2C1800006018000090180000C0180000F018000038B500F08BFD9E4B18703138452800F28681DFE810F0C600DE00F6000D018401C0
:4001400084018401840184018401840184018401840146008401840173007D01840184018500840184018401840184018401840184018401A900840184017C0067012C0191
:4001800024018401840184018401840184018401840184018401840173007D01840184018500840184018401840184018401840184018401A900840184017C0067012C0172
:4001C0002401784C204600F05BFD774800F058FD764D284600F054FD754800F051FD754800F04EFD744800F04BFD744800F048FD734800F045FD734800F042FD724800F099
:400200003FFD724800F03CFD284600F039FD204600F036FD01226E4B1A7038BD6C4B1B78012B40F00C810022694B1A7038BD684B1B78012B40F003810022654B1A7038BD28
:40024000634B1B78012B16D1624800F019FD624800F016FD614800F013FD614800F010FD604800F00DFD604800F00AFD584B01225A7000221A70564B9B78012B40F0DF8092
:400280000022534B9A7038BD514B1B78012B40F0D680564800F0F4FC554800F0F1FC554800F0EEFC544800F0EBFC544800F0E8FC534800F0E5FC464B0122DA7000221A7036
:4002C00038BD434B5B78012B06D18021232000F0C1F800223E4B5A703D4BDB78012B40F0AE802321202000F0B5F80022384BDA7038BD374B5B78012B06D19021232000F0FD
:40030000A9F80022324B5A70314BDB78012B40F096803921202000F09DF800222C4BDA7038BD2B4B5B78012B06D1A021232000F091F80022264B5A70254BDB78012B7ED117
:400340005521202000F086F80022214BDA7038BD1F4B5B78012B06D1B021232000F07AF800221B4B5A701A4BDB78012B67D17121202000F06FF80022154BDA7038BD144B1F
:400380001B78012B5BD10022114B1A7038BD104B1B78012B53D100220D4B1A7038BD00BFD881FF1F2019000048190000981B00007019000098190000F8190000581A0000DE
:4003C0009C1A0000E41A00002C1B0000701B00006481FF1F9C1B0000D41B0000001C0000201C0000401C0000601C0000801C0000BC1C0000E81C0000041D0000241D0000C4
:40040000441D00000E4B1B78012B18D10D4800F037FC0D4800F034FC0C4800F031FC0C4800F02EFC064B01229A7000221A7038BD034B9B78012B02D10022014B9A7038BDA2
:400440006481FF1F641D0000841D0000B01D0000E81D000030B583B08DF804008DF80510002402AD05F8054D012000F01BFC23462A46022101A800F019F8204600F012FCF6
:4004800003B030BD00B583B060F07F008DF8040002AA002302F8053D0123194601A800F005F89DF8030003B05DF804FB2DE9F04383B006460C4617469846002000F0F2FB47
:4004C00064B2002511E02146082CA8BF0821C9B206EBC50000F04AFC00F00AFC10F0010FFAD0083C64B201356DB2002CEBDC00F04DFC00F01BFC0026009601964FFA88F870
:4005000020E0C146B8F1080FA8BF4FF008095FFA89F1684600F02AFC00F0EAFB10F0010FFAD0002406E004EBC60500F0F9FB78550134E4B24C45F6DBA8F108084FFA88F8E3
:40054000013676B2B8F1000FDBDC012000F0AAFB00F01CFC00F0EAFB00F0F6FB03B0BDE8F08300BFFEE700BFF0B40022174611E050F82760F3B226F0FF0608E001EB42054D
:4005800011F812406D78A5550132013BDBB2002BF4D10137212FEBD9F0BC7047064B1B78DBB203F00701054A11701B09013213704422034B1A707047CF0100496E5800403C
:4005C0007658004008B50A46002100F000FD08BD38B50B222B4B1A8018232B490B7002310A802A4A1370332102321180023213704BF67F3102321180023213700222244B35
:400600001A7008224FF040231A70032103F500731970204B1B78DBB21F490B701F4B1A8041F25122023B1A80002419250CE01C4B1B7803F0010343EA440404F003044FF4E1
:40064000F07000F07DFC013D0DB1032CEFD115B90320FFF787FF134B4FF480721A8007221A70002210490A704820023108701A700222033B1A700D4A137843F00F03137051
:4006800038BD00BF8040004082400040864000400043004008010049A146004022420040254200400440004006400040A243004008B500F081FC08BD38B572B6384A1378F7
:4006C00043F00403137000240CE0364D630019194A0011462A44084691882858FFF772FF0134E4B2092CF0D900240CE02D48A20011194B000344B3F84420196CD86BFFF73F
:40070000D7FF0134E4B2032CF0D927494FF09040FFF72AFF254A137843F0020313701032137843F002031370214C237843F040032370A2F58632513A137843F01003137006
:4007400008221C491C48FFF7B3FF0A221B491C48FFF7AEFF0A221B491B48FFF7A9FF0A221A491B48FFF7A4FF08221A491A48FFF79FFF1A4A137843F008031370184D61230F
:400780002B70FFF725FF81232B700122154B1A70FFF704FF0E2221461348FFF789FF38BDE8460040241E00008800004803500140A04300406C09004802510040740900488E
:4007C000C051004080090048105100408C090048205100409809004832510040224300400048004004000840B043004008B500F0B7FB03680C2B00D1FEE7FEE708B5094BA3
:400800001A681044084BC31A802B02DC054B186005E000F0A5FB0C2303604FF0FF32104608BD00BFCC80FF1F0082FF1F08B5104E104D16E029686B68AC68002204E051F8D1
:40084000040B43F8040B0432A242F8D1E868002203E0002143F8041B04328242F9D11035013E002EE6D100F081FBFFF70BFCFEE701000000E41E000008B5104A104B1A6002
:40088000104A136843F40073136000230AE0032B03D80D4A52F8231000E00C490C4A42F8231001332F2BF2D90A4B1A780A4B1A70074A0A4B1A60FFF7FFFE08BD0004FA056A
:4008C0000CED00E014ED00E000000000ED0700000080FF1FBC760040C080FF1F08ED00E00222014B1A60704700E100E00122014B1A60704700E100E008B500F029FB0C4A1D
:40090000137843F02003137002F58072137843F010031370FF3A137843F01003137000F01BFB00F09DFAFFF7DBFFFFF7DFFF08BD976400400222014B1A60704780E100E076
:400940000122014B1A60704780E100E010B5FFF7F1FF064B1C78064A137803F009031C4300231370FFF7BCFF204610BD67650040DC81FF1F10B5FFF7E3FF064B1B78064AEB
:40098000147804F040041C4300231370FFF7AEFF204610BD68640040ED81FF1F08B501E00A4B1B780A4B1B7813F0200FF8D100F0CFFA084B1A7842F001021A701A7802F0B6
:4009C000FE021A7000F0C8FA08BD00BF57640040686400409764004010B50F22174B1A70174C022323600721012000F08FFA1549012000F077FA012323600721002000F087
:400A000085FA1149002000F06DFAFFF7C7FF00240E4B1C700E4B1C700E4B1C700E4B1C700E4B1C700E4B1C70FFF790FFFFF7A2FF0C4B1C702022FF3B1A7010BD876400402B
:400A400080E100E0850A0000250B0000EA81FF1FEB81FF1FE981FF1FE881FF1FEE81FF1FEC81FF1F8765004008B5054B1B7823B9FFF7B2FF0122024B1A70FFF73DFF08BDFC
:400A80006881FF1F28E01F4B19781F4A137803F009030B431370137813F0040F24D01B4B1B7813F0FF0F0CD1194A13780133DBB213701378DBB2072B06D90022144B1A7086
:400AC00002E00022114B1A70114B1B78DBB2114AD35CDBB2104A13700D4B1A78D2B20F4B1B78DBB29A42CED1094B1A78D2B20B4B1B78DBB29A4204D1094A137803F0FB03D9
:400B00001370704767650040DC81FF1FE881FF1FEE81FF1FE081FF1F47640040EC81FF1F87650040204B1A7820490B7803F0400313430B7032E01E4B1A78D2B21D490B7855
:400B40000133DBB20B700B78DBB2072B02D90021184B1970174B1978C9B2174B1B78DBB299420ED114490B780133DBB20B700B78DBB2072B02D900210F4B197001210F4BAC
:400B800019700C4B1B78DBB20D49CA54064B1A7806490B7803F0400313430B70034B1B7813F0200FC7D1704768640040ED81FF1F57640040E981FF1FEB81FF1FEA81FF1F75
:400BC000F081FF1F7222074B1A702022043B1A7006225C3B1A70472210331A7000224D331A7070478865004010B500F0B1F904460A4A137843F020031370043A137843F0FF
:400C0000100313700132137843F01003137000F035F9204600F0A0F910BD00BF9865004008B5054B1B7823B9FFF7CCFF0122024B1A70FFF7D9FF08BD6981FF1F084B1B7809
:400C4000DBB213F0200F06D0064A1078C0B213F01E0F02D17047002070470020704700BF646500404B650040034B1B7813F0040FFAD1024B18707047656500404465004034
:400C800038B5074B1B782BB938BDFFF7EDFF0134A4B201E005460024285D0028F5D138BD6981FF1F044A137803F07F03C001C0B218431070704700BF1051004008B500F03C
:400CC00047F90A4A137843F0200313700132137843F01003137002F58072137843F01003137000F039F900F0D7F808BD95640040014B1878704700BF66640040014B187821
:400D0000704700BF66650040034B1B7813F0040FFAD0024B187070476664004045640040014B1878704700BF5564004001E0044B1B78044B1B7813F0200FF8D1704700BF91
:400D4000556400406665004008B500F001F9064B1A7842F001021A701A7802F0FE021A7000F0FAF808BD00BF9564004070B506460C46002506E0705DFFF7C6FF0135EDB24E
:400D8000013CE4B2002CF6D170BD00BF08B501E00A4B1B780A4B1B7813F0200FF8D100F0D7F8084B1A7842F001021A701A7802F0FE021A7000F0D0F808BD00BF5564004072
:400DC000666500409564004008B50F22074B1A70FFF7DCFFFFF78CFFFFF790FF0023044A137002F58072137008BD00BF856400408664004008B5054B1B7823B9FFF7E4FF82
:400E00000122024B1A70FFF759FF08BD6B81FF1F014B1B68D864704708ED00E04001C0B2014B1870704700BF03E400E00822014B1A60704700E100E00822014B1A60704731
:400E400080E100E010B50446FFF7F6FF2046FFF7DFFF0720FFF7E2FFFFF7E8FF10BD00BF054A137843F0010313701032137843F001031370704700BFA2430040054A137806
:400E800043F0040313701032137843F004031370704700BFA2430040054A137843F0020313701032137843F002031370704700BFA243004001BE704710B5044605E0084BDB
:400EC000186800F03DF8A4F50044B4F5004FF6D8034B586800FB04F000F032F810BD00BFD080FF1F70B504460E46074B1D681F2802D90020FFF7DEFF04F01F04103455F842
:400F0000240045F8246070BD08ED00E038B504460D46072902D90020FFF7CCFF1F2C02D90020FFF7C7FF04F01F0000F1604000F564406D01EDB2057038BD00BF00000000DF
:400F40000230800803D000BF01380046FCD17047EFF3108072B6704780F31088704700BF014B1868704700BF4081FF1F0E4B70B51E460E4C0025E41AA410A54204D056F813
:400F8000253098470135F8E700F09AFF084B094C1E46E41AA4100025A54204D056F8253098470135F8E770BDCC1E0000CC1E0000CC1E0000D41E000010B5431E0A44914206
:400FC00004D011F8014B03F8014FF8E710BD03460244934202D003F8011BFAE7704700000EB400B54FF402719CB0ADF814106FF00041049107914FF6FF711DAB0290069038
:40100000084853F8042BADF81610006802A9019300F064F8029B00221A701CB05DF804EB03B070474081FF1F2DE9F0478E6882469E420C46914698463ED88A8912F4906F66
:401040003AD02568096902236F1A656905EB450595FBF3F57B1C43449D4238BF1D4653050FD5294600F040FB064698B13A462169FFF7A2FFA38923F4906343F08003A381C6
:4010800013E02A4600F08EFB064670B92169504600F0DEFA0C23CAF80030A3894FF0FF3043F04003A381BDE8F08726613E44266046466561ED1BA560464528BF464649460B
:4010C0003246206800F0A8FAA36800209B1BA36023681E442660BDE8F08700002DE9F04F9DB003938B8980461C060D4616460DD50B695BB9402100F0F7FA2860286118B97A
:401100000C23C8F80030CDE040236B610023099320238DF82930DFF89CB130238DF82A3037463C4614F8013B1BB9B7EB060910D003E0252BF9D02746F3E74B463246294617
:401140004046FFF771FF013000F0A780099B4B4409933B78002B00F0A08000234FF0FF3204930793059206938DF853301A930126052221784E4800F041FA671C049B38B122
:401180004B4A3C46801A06FA00F018430490EFE7D90644BF20228DF853201A0744BF2B228DF8532022782A2A03D0079A00210A200BE0039A111D12680391002A10DA52422B
:4011C00043F00200079204900BE027463B780134303B092B03D800FB02320121F5E701B107923B782E2B1ED17B782A2B0AD1039B02371A1D1B680392002BB8BF4FF0FF3304
:40120000059310E0002319460593781C0A2407463A780130303A092A03D804FB01210123F5E703B1059103223978224800F0E6F940B14023CBEB000003FA00F0049B01375A
:4012400018430490397806221B487E1C8DF8281000F0D4F988B1194B33B9039B073323F007030833039314E003AB00932A46144B04A94046AFF3008007E003AB00932A46EF
:401280000F4B04A9404600F093F8B0F1FF3F824603D0099B5344099342E7AB895B0601D4099801E04FF0FF301DB0BDE8F08F00BF8A1E0000901E0000941E0000000000009A
:4012C000291000002DE9F04791461F460A698B6806469342B8BF1346C9F8003091F843200C46DDF8208012B10133C9F800302368990642BFD9F800300233C9F8003025686A
:4013000015F0060510D104F1190A07E00123524639463046C04701301AD00135E368D9F800209B1A9D42F1DB94F843302268003318BF012392060FD5E118302081F84300E0
:401340005A1C94F845102244023382F8431003E04FF0FF30BDE8F08704F1430239463046C0470130F4D02268D9F80050E36802F00602042A08BF5D1B2269A3680CBF25EA49
:40138000E57500259342C4BF9B1AED184FF000091A344D4509D00123224639463046C0470130D5D009F10109F3E70020BDE8F0872DE9F04317460A7E85B06E2A98460646FE
:4013C0000C460C9B01F1430E00F0AE8011D8632A22D009D8002A00F0BB80582A40F0CA8081F84520834955E0642A1ED0692A1CD0C0E0732A00F0B08009D86F2A2ED0702AB0
:4014000040F0B8800A6842F020020A603EE0752A24D0782A3AD0ADE01A6801F14205111D1960136884F84230A8E021681A6811F0800F02D0111D196008E011F0400F02F198
:401440000401196002D0B2F9003000E01368002B3CDA2D225B4284F8432037E021681A6811F0800F02D0111D196007E011F0400F02F10401196001D0138800E01368227EA0
:401480005C496F2A14BF0A2208221BE078225A4984F845202268186812F0800F00F104051D6003D1550601D5038800E00368D00744BF42F0200222601BB9226822F020027D
:4014C00022601022002084F8430001E049490A226568002DA56008DB206820F0040020602BB9002D7DD175460CE0002B79D07546B3FBF2F002FB1033CB5C05F8013D03460C
:401500000028F5D1082A0BD12368DA0708D5236962689A42DEBF302305F8013C05F1FF35C5EB0E0323612EE008681A6810F0800F496903D0101D1860136808E010F0400F30
:4015400002F104001860136801D0198000E0196000232361754616E01A68111D1960156800216268284600F049F808B1401B6060636804E004F1420584F8422001232361F1
:40158000002384F84330CDF800803B4603AA21463046FFF797FE013002D14FF0FF3026E023692A4639463046C0470130F5D023689B0710D5002504F1190907E001234A46EF
:4015C00039463046C0470130E7D00135E368039A9B1A9D42F2DBE068039B9842B8BF184605E00B7804F1420584F842308AE705B0BDE8F0839B1E0000AC1E000010B5C9B260
:4016000002449042034605D01C7801308C42F8D1184610BD002010BD884210B501EB020301D8421E0BE09842FBD28118D21AD34204D013F8014D01F8014DF8E710BD994220
:4016400004D011F8014B02F8014FF8E710BD000038B50546002944D051F8043C0C1F002BB8BFE41800F0D4F81E4A1368114613B96360146030E0A3420DD92268A0188342A9
:4016800001BF18685B681218226063600C6023E0A24203D813465A68002AF9D118681918A1420BD12168014458188242196013D110685268014419605A600DE002D90C230B
:4016C0002B6009E021686018824201BF106852680918216062605C602846BDE8384000F098B838BD7081FF1F70B5CD1C25F0030508350C2D38BF0C25002D064601DBA942C7
:4017000002D90C23336046E000F082F8234B1C681A462146A1B10B685B1B0ED40B2B03D90B60CC18CD501EE08C420BBF63684B681360636018BF0C4615E00C464968E9E7ED
:40174000174C23681BB9304600F052F820602946304600F04DF8431C18D0C41C24F00304A0420DD12560304600F053F804F10B00231D20F00700C31A0ED05A42E25070BD18
:40178000211A304600F034F80130EBD10C233360304600F03EF8002070BD00BF7081FF1F6C81FF1FF8B5074615460E4621B91146BDE8F840FFF798BF1AB9FFF749FF284668
:4017C000F8BD00F027F885420ED929463846FFF78BFF044650B131462A46FFF7EDFB31463846FFF735FF01E03046F8BD2046F8BD38B5064C0023054608462360FEF7FEFF44
:40180000431C02D1236803B12B6038BDF881FF1F7047704751F8040C0028BEBF091851F8043CC01804387047000000002A2A2057686F20616D2049207265676973746572C1
:40184000203D20307825303258205B45787065637465643A20307833335D0D0A000000002A2A2A2A2A2A2A2A2A2A2A2A2A2A5265676973746572732056616C7565732A2AF3
:401880002A2A2A2A2A2A2A2A2A2A2A2A0D0A000020436F6E74726F6C207265676973746572203520686173206265656E2073657420746F203D20307825303258200D0A007E
:4018C00020436F6E74726F6C207265676973746572203320686173206265656E2073657420746F203D20307825303258200D0A002A2A2A2A2A2A2A2A2A2A2A2A2A2A2A2AAF
:401900002A2A2A2A2A2A2A2A2A2A2A2A2A2A2A2A2A2A2A2A2A2A2A2A2A2A2A2A0D0A00002A2A2A2A2A2A2A2A2A2A2A2A2A2A2A2A2A2A2A2A2A2A2A2A2A2A2A2A2A2A2A2AB8
:401940002A2A2A2A2A0D0A002A2A2A2A2A2A2A2A2A2A2A2A2A2A2A2A4D454E55272A2A2A2A2A2A2A2A2A2A2A2A2A2A2A2A0D0A00436F6D6D616E6420202020202052657322
:40198000756C742020202020202020202020202020202020200D0A006220202020202020202020202053746172742064617461206163717569736974696F6E2066726F6D34
:4019C0002074686520616363656C65726F6D6574657220616E642073746F72616765206F6E2074686520454550524F4D206D656D6F7279200D0A000073202020202020201A
:401A0000202020202053746F702064617461206163717569736974696F6E2066726F6D2074686520616363656C65726F6D6574657220616E642073746F72616765206F6EC8
:401A40002074686520454550524F4D206D656D6F7279200D0A00000066202020202020202020202020436F6E66696775726174696F6E206F662074686520616363656C651C
:401A8000726F6D657465722066756C6C207363616C652072616E6765200D0A0070202020202020202020202020436F6E66696775726174696F6E206F662074686520616347
:401AC00063656C65726F6D657465722073616D706C696E67206672657175656E6379200D0A0000007620202020202020202020202053746172742064617461207669737506
:401B0000616C697A6174696F6E20696E207468652042726964676520436F6E74726F6C2050616E656C200D0A000000007520202020202020202020202053746F702064614D
:401B400074612076697375616C697A6174696F6E20696E207468652042726964676520436F6E74726F6C2050616E656C200D0A007420202020202020202020202053746FA7
:401B80007265207468652074656D70657261747572652064617461200D0A0000436F6E66696775726174696F6E206F662074686520616363656C65726F6D6574657220667F
:401BC000756C6C207363616C652072616E6765200D0A000043686172616374657220202020202020202020202046756C6C207363616C652072616E6765200D0A00000000E0
:401C00003120202020202020202020202020202020202020202B2D203267200D0A0000003220202020202020202020202020202020202020202B2D203467200D0A000000AF
:401C40003320202020202020202020202020202020202020202B2D203867200D0A0000003420202020202020202020202020202020202020202B2D20313667200D0A000032
:401C8000436F6E66696775726174696F6E206F662074686520616363656C65726F6D657465722073616D706C696E67206672657175656E6379200D0A0000000043686172D9
:401CC000616374657220202020202020202020202053616D706C696E67204672657175656E6379200D0A000031202020202020202020202020202020202020202031487A6D
:401D0000200D0A003220202020202020202020202020202020202020203130487A200D0A000000003320202020202020202020202020202020202020203235487A200D0A4D
:401D4000000000003420202020202020202020202020202020202020203530487A200D0A0000000053746F7265207468652074656D70657261747572652064617461200D2E
:401D80000A00000043686172616374657220202020202020202020202054656D706572617475726520666F726D6174200D0A0000632020202020202020202020202020205B
:401DC000202020202053746F7265206461746120696E2043656C7369757320666F726D6174200D0A0000000066202020202020202020202020202020202020202053746F91
:401E00007265206461746120696E2046616872656E6865697420666F726D617420200D0A00000000405100403000F051004010000000014080040005014080010007014096
:401E40000009001401408006001B0140000100400140000A004C0140000200500140200060520040E4070048060080040140EC0700488000800601406C0800488000801A0E
:401E80000140EC08004880004300232D302B2000686C4C006566674546470030313233343536373839414243444546003031323334353637383961626364656600000000EF
:401EC000F8B500BFF8BC08BC9E4670474D00000079080000F8B500BFF8BC08BC9E46704729000000F81E0000C880FF1F80000000B800000000000000000000000082FF1F99
:401F00000000E02EC05D00001800000000366E010000000000000000000000000000000000000000000000000000000000000000881E000000000000000000000000000013
:401F4000000000000000000000000000000000000000000000000000000000000000000000000000000000000000000000000000E080FF1F000000000000000000000000E3
:401F80000000000000000000000000000000000000000000000000000000000000000000000000000000000000000000000000000000000000000000000000000000000021
:401FC00000000000000000000000000000000000000000000000000000000000000000000000000000000000000000000000000000000000000000000000000000000000E1
:4020000000000000000000000000000000000000000000000000000000000000000000000000000000000000000000000000000000000000000000000000000000000000A0
:402040000000000000000000000000000000000000000000000000000000000000000000000000000000000000000000000000000000000000000000000000000000000060
:020000040003F7
:0200000480007A
:4000000001450040035200400364004003650040010301400F0401403505014004060140450701406408014040090140010B0140010D01404F1401404F1501404C160140AB
:40004000451701404B180140431901401A1A01404E1B0140054001400741014008420140074301400645014001460140034701400948014006490140044C01400B4D014073
:4000800006500140015101406401004001201180850F870F890D8438850F88728E010103030C0B0511031304270829032B042D0A2F04370F3B8059045C205F010426070178
:4000C0000D800E600F0815151C241D081F012001242825C0261027182A902B102DA132023608371138013B203DA03E043F01450A47104C054DA04F055602572466206D35D5
:400100006E046F0374808004848086188A028B04A201C0F0C2F0C470CABECCE1CEF5D0E0D230D820E20254095B045D105F01009809A00A400B101008110412011302180447
:4001400019401A40202821022211288029102A4131883211396640D4410849164A014B10512052445E015F6461026702684869666B02718089028A408B488E4091019205F4
:40018000930F940297209B189EA0A110A209A322A602A710A902AC10AE01B481B640C007C20FC40FCA0DCC0FCE0FD007D20CD6F0D811E202E640EA01080E09310B060C01DD
:4001C0000D2C0F03100411311202130E140118011B0C1C021E0C2001240E28082A022B132F0833303401360E370F39083A083B803E103F044050410449FF4AFF4BFF4DA0DA
:400200004F04501854405604580459045A045B045C225D035F01604062C06440654066C068C06AC06CC06EC08202850189018D01920194049E02A804B004B402B601B70112
:40024000BE10C010C105C5D0C612C81EC9FFCAFFCBFFCDAFCE0FCF04D018D280D405D604D804D904DA04DB04DC33DD33DF01E040E2C0E440E540E6C0E8C0EAC0ECC0EEC081
:4002800002400420070209020A020B200C020E15100815021604170418811A0A1B401C021D081E191F802240254026082F0A3620370138883B203DB04001464049014B8027
:4002C0004F80500C51105240535059015A8862026580660267187102860289808B049F01A110B510C0C8C2FDC472CA30CCA0CE3ED088D218D60BD8F1E080E480EA01EC10A2
:400300008701E21000020414062808380C100E24100216021A012201240C26102A022E023001323C360238083E414056410345E046E047CB483A49FF4AFF4BFF4EF04F4448
:40034000500C5418560458045A045B045C015D225F0166C06A406B028180851D8804891D8E03918292019308951D99C29B249D029F0DA11DA402A710A921AA03AB42AD0DD2
:40038000AF10B003B10FB404B510B603B7E0BB82BE10BF10D401D804D904DB04DC11DD20DF01001203110420070108110B200E8010801202132816201718181019801B01E8
:4003C0001E881F402402252027412D012E202F22360837513D203E043F01410845204608480149024B205014520258025D825E186040630A800483048401874088018908D3
:400400008CC28E12910192049321940298109B389E08A110A208A322A602AB10AE80AF30B010C0CFC21EC46FCAF0CCF0CEE0D002D20CD6F1D80DE240E401E60CEA02EE03F3
:4004400002400610080509020A3A0B0D0C040E391503170C182319051A041B0A1C0E1D091F062640284032403430350F360F38803B203E045440580459045B045C105D1006
:400480005F01809C82038418850D8882890D8C1A8D0D943395029644970D98C199019A389B129C1A9D0DA102A318A418A602A802A912AA18AB04AC18AD0DAE02B0E0B21364
:4004C000B30FB40FB710BA22BB08BF40D409D604D804D904DB04DF01008801A2020404460510074009800A280E020F08100811441718185019121A281B041C041E021F0833
:40050000210822402704299231883210375839643E204620470459255A80614063406608670A8004832187409165920493099452972099459A049B189D109EA0A04CA190AE
:40054000A208A322A602A718A804A901B010B721C0FFC2C7C467CA0DCC7ECE2ED60FD879EE0400010206040808080C041201140718061A012007240228062C083008340741
:400580004006474049FF4A074BFF4C404D204EF04F0550085602571258045A045B045C025D225F01604061A8624063208110840C8508880489188C0C8D678E028F18920291
:4005C0009363940E957F980C997C9A029B019C019D60A002A11CA20CA362A540A924AC08AF04B001B11FB40EB778BA20BB82BE01D804D904DC22DF0100A806410714090A9D
:400600000A040B020D0A0E04124113021440154A1720188019101A041D221F10208021012302284029402A24311A33803602370239083A594E0855045602570A5E086C183C
:400640006D446F147414761977209008913092029420950296049E049F07A001A148A20CA380A402A620A70AAA02B310C0F7C27FC4F9CA0FCC0FCE0FD220D640EC8000607D
:4006800002080501084409010A120E601260130114601A602060240628062C222E15306032063418350136013E10580459045C325F01008201400204030806020760090AA1
:4006C0000A040B100E600F08100A1104130215101610170119401A801B181D101E401F012004267027212D502E0632013662380839203D883F10452A4E024F285601800498
:40070000811083408550861088028A208B018E4190089134920697029A029B029D409E249F01A049A16EA202A402A620AA20AD40AF08B310B440C0BBC27EC47FCAF0CCB103
:40074000CE76D0E0D230E004E210E660EA203202338035083640CCF05F0863809D08A642A780D680D840562082209D089F08A642A7C0D440E22086028F089D089F08A6427F
:40078000A7C0E240034063808F40C008D802E208A740A510A740A910834086409D08A640A740AB80E220E640EE207F0287028D089D08DE20E2100910A510A740C20210805A
:4007C0007210834088809210A740B610C408DC01E601EC08000F0A070C0D100F1A071C0C00FF00000C8800004000000056020900019800020A021098043880C0849800021B
:40080000079A3800602100D804000000849A0000840000008013046400FC00030200800F7F1300E020000088000005002506300004CED0FB3BFFFFFF2200F00804000000E8
:400840000000022404040404111100010000C00040011011C0010011400140010000000000000000000000000000000000C0000004C0000007803840844000800102000DD2
:400880000A03103C6010006084C0000004798006840000008015046A560009807F0F00808070020002000022000050046403200005FEBD0C1FFFFFFF2200F008040000005D
:4008C0000000022C04040404000000010000C00040011011C0010011400140010000000000000000000000000000000014000000001020010020000010060009002003009C
:400900000900100000002006000800030C0011021C00022010080C05000000201F00002020180007002800800000100054030200060E00C021FFFFFF62A0F0410C00000007
:40094000000000000404040022020001000000000000400200103010001010120000000000000000000000000000000000606000600000008000508C8C008C0000000000EE
:400980008000408B8B000000000000009000019494008000000000001000000000000000000000000000000000000000000000000000000000000000000000000000000018
:4009C00000000000000000000000000000000000000000000000000000000000000000000000000000000000000000000000000000000000000000000000000000000000F7
:400A000000000000000000000000000000000000000000000000000000000000000000000000000000000000000000000000000000000000000000000000000000000000B6
:400A40000000000000000000000000000000000000000000000000000000000000000000000000000000000000000000000000000000000000000000000000000000000076
:400A80000000000000000000000000000000000000000000000000000000000000000000000000000000000000000000000000000000000000000000000000000000000036
:0200000490006A
:0400000000004005B7
:0200000490105A
:04000000BC90ACAF55
:0200000490303A
:020000001EF2EE
:0200000490402A
:4000000000000000000000000000000000000000000000000000000000000000000000000000000000000000000000000000000000000000000000000000000000000000C0
:400040000000000000000000000000000000000000000000000000000000000000000000000000000000000000000000000000000000000000000000000000000000000080
:400080000000000000000000000000000000000000000000000000000000000000000000000000000000000000000000000000000000000000000000000000000000000040
:4000C0000000000000000000000000000000000000000000000000000000000000000000000000000000000000000000000000000000000000000000000000000000000000
:0200000490501A
:0C00000000012E16106900012E232F5B5A
:00000001FF