:400000000080002011000000D1120000D112000008B5044B1A6803F53F5302331A6001F077F900BFFA46004010B5054C237833B9044B13B10448AFF300800123237010BD40
:400040004881FF1F00000000D8320000084B10B51BB108490848AFF300800848036803B910BD074B002BFBD0BDE81040184700BF000000004C81FF1FD8320000C880FF1FEE
:400080000000000030B597B062B601F031FC01F053FB01F055FE02F0A9F9A54801F018FFA44802F0C9FA02F0B5F902F097FA02F05FFCA14802F084FC0A2001F043FF0F20DA
:4000C00000F0ECFC9D4C02469D49204602F0E0FC204601F03DFC9B4801F03AFC4721202000F0C4FC202000F0D9FC02469649204602F0CEFC204601F02BFC4021242000F08A
:40010000B5FC242000F0CAFC02469049204602F0BFFC204601F01CFC4A212E2000F0A6FC2E2000F0BBFC02468949204602F0B0FC204601F00DFC0421222000F097FC222087
:4001400000F0ACFC02468349204602F0A1FC204601F0FEFB804801F0FBFB804B1988C9B2032000F03DF900F097F900F0A3FD04E0062214A9282000F0A5FC2F2000F08EFC34
:400180002028F5D06D4D764C0FCC28606960AA60EB6023782B74284601F0DAFB0023714A1370714A1370714A1370022000F000F910F0800F03D001226C4B1A700CE010F02D
:4001C000400F03D00022694B1A7005E04021022000F006F900F060F9032000F0E9F80446002000F0E5F8032C0ED88021002000F0F7F81721012000F0F3F80421032000F091
:40020000EFF800F049F907E0A4B2544B1C80554B1870554B00221A70524B1B7813F0FF0F0ED0504B1B78DBB2012B09D04B4B18884C4C21780022C0B200F084FE00232370B7
:40024000494B1B7813F0FF0F0ED0474B1B78DBB2012B09D0414B1888434C21780122C0B200F070FE00232370404B1B78DBB2012B29D18021022000F0B3F800F00DF93C480B
:4002800001F066FB354A13889BB206339BB213800222364B1A70374801F0BEFE364B1B78DBB2012B0FD150236A463449344800F05DFD2A4B1888334A694680B200F0B0FDEE
:4002C00000222D4B1A70294B1B7813F0FF0F0BD14021022000F084F800F0DEF82A4801F037FB0222214B1A701C4B1B889BB247F6FA72934216D93F2002F0EAFA202002F057
:40030000EDFA0FE0154D2888204B1B78204A1D49C0B200F0CDFD06232B80013400E00024092CEFDD1B4B1B78DBB2012BF7D073E7CD050000F9040000A9040000F881FF1FE7
:40034000DC320000103300004033000070330000A0330000D8330000083400005E82FF1F38340000DF81FF1FDC81FF1FDD81FF1F4C340000B50400009C82FF1FE081FF1F29
:400380009081FF1F6082FF1F68340000F481FF1FA082FF1FDE81FF1F08B5052000F0B8FB08BD00BF08B5062000F09CFB08BD00BF00B583B003218DF80410030A8DF80530BF
:4003C0008DF8060002AA002302F8053D012301A800F0B8FB9DF8030003B05DF804FB00BF30B583B004460D46FFF7DCFF02238DF80430230A8DF805308DF806408DF80750A7
:40040000002302AA02F8053D04210DEB010000F099FB03B030BD00BF10B582B003248DF80440030A8DF805308DF8060013460A46214601A800F086FB02B010BD2DE9F04187
:4004400082B000AF054688461446FFF7ABFF012001F08EFDE61C04F10A0323F00703ADEB030D02238DF800302B0A8DF801308DF80250224641460DF1030002F0F5FA002392
:4004800007F1080202F8013DF1B2684600F05AFB0837BD46BDE8F08108B5FFF77DFF10F0010FFAD108BD00BF0122014B1A7070478C81FF1F10B52F2000F0F0FA0B4C2070D6
:4004C000312000F0EBFA207042220949282000F0F9FA00212E2000F0C9FA4A212E2000F0C5FA0122034B1A7010BD00BFF581FF1F9081FF1F9C82FF1F10B502F02BF82C4B04
:400500001B78DBB2012B29D12A4C6378237002F065FA60706368013363602378984203D000236360224A1370224B5B68FA2B15D1A0B9214B04221A801988C9B20320FFF79C
:400540004FFFFFF7A9FFFF2002F0C2F9002002F0C5F90023174A5360154A137001F0CAFF164B1860002801DA00221A60134B1B68B3F5803F03DB4FF6FF72104B1A60104B9C
:400580001B68122B05DD00220D4B1A6001220D4B1A700B490B68094A1268C2F307240A48C4540133D2B2C25401330B6010BD00BF8C81FF1F6481FF1F5E82FF1FB082FF1F4D
:4005C000AC82FF1FD281FF1FE081FF1F38B501F09DF9A64B18703138452800F22182DFE810F0C100FB003501A6011F021F021F021F021F021F021F021F021F021F02460077
:400600001F021F02490012021F021F025F001F021F021F021F021F021F021F021F021F0298001F021F025300F501EF01DF011F021F021F021F021F021F021F021F021F0235
:400640001F021F02490012021F021F025F001F021F021F021F021F021F021F021F021F0298001F021F025300F501EF01DF0100F021FB38BD01227E4B1A70FF2002F028F975
:40068000802002F02BF938BD0024794B1C7001F0D1FCFF2002F01CF9204602F01FF938BD744B1B7A3BBB744801F052F9734C204601F04EF9724801F04BF9204601F048F9AC
:4006C000704801F045F9204601F042F96E4801F03FF9204601F03CF96C4801F039F9204601F036F96A4801F033F9204601F030F90122684B1A705F4B1B7A012B05D10122A6
:40070000654B1A70654801F023F90022594B1A7238BD634801F01CF9624C204601F018F9614801F015F9204601F012F95F4801F00FF9204601F00CF95D4801F009F92046B3
:4007400001F006F95B4801F003F9204601F000F9594801F0FDF8204601F0FAF80122574B1A7038BD4B4B1B78DBB2012B16D1232000F094F910F0800F03D0514801F0E8F840
:4007800006E08021232000F071F94E4801F0E0F88022404B1A704C4801F0DAF8474B1B78DBB2012B40F03C81202000F077F910F0170F03D0424801F0CBF806E017212020A8
:4007C00000F054F93F4801F0C3F817223B4B1A703E4801F0BDF838BD2E4B1B78DBB2012B16D1232000F05AF910F0900F03D0344801F0AEF806E09021232000F037F93148F5
:4008000001F0A6F89022234B1A70314801F0A0F82A4B1B78DBB2012B40F00281202000F03DF910F0270F03D0254801F091F806E02721202000F01AF9224801F089F827221D
:400840001E4B1A70234801F083F838BD114B1B78DBB2012B4DD1232000F020F910F0A00F3AD0174801F074F83DE000BFBC82FF1FDD81FF1F6481FF1F84340000BC340000D3
:40088000F434000018350000303500004835000060350000DF81FF1FF481FF1F78350000A0350000C8380000DC35000004360000203600003C36000058360000DC81FF1F9D
:4008C00074360000A4360000C4360000D8360000EC36000000370000A021232000F0C6F8504801F035F8A0224F4B1A704F4801F02FF84F4B1B78DBB2012B40F091802020AF
:4009000000F0CCF810F0370F03D04A4801F020F806E03721202000F0A9F8424801F018F83722434B1A70444801F012F838BD3E4B1B78DBB2012B16D1232000F0AFF810F032
:40094000B00F03D03B4801F003F806E0B021232000F08CF8334800F0FBFFB022324B1A70364800F0F5FF324B1B78DBB2012B57D1202000F093F810F0470F03D02D4800F02E
:40098000E7FF06E04721202000F070F8254800F0DFFF4722264B1A70294800F0D9FF38BD0025284B1D700124274B1C70FF2001F08FFF284601F092FF204601F06FFF38BD0E
:4009C0000020214B187001F069FF38BD1F4800F0BFFF1F4C204600F0BBFF1E4800F0B8FF204600F0B5FF1C4800F0B2FF204600F0AFFF1A4800F0ACFF204600F0A9FF0122C7
:400A0000174B1A7238BD164B1B7A012B05D10022144B1A70144800F09BFF0022104B1A7238BD00BFA4360000DF81FF1F14370000DC81FF1F74360000283700003C37000093
:400A400054370000DD81FF1FDE81FF1F68370000BC34000088370000B0370000E43700006481FF1FF481FF1F1C38000030B583B08DF804008DF80510002402AD05F8054D5B
:400A8000012000F097FF23462A46022101A800F0B5F8204600F08EFF03B030BD00B583B060F07F008DF8040002AA002302F8053D0123194601A800F0A1F89DF8030003B07F
:400AC0005DF804FB00B583B060F03F0302A800F8043D13460A46012100F090F803B05DF804FB00BF10B50446002000F057FF204600F0C6FC00F09CFC10F0080FFAD000F056
:400B000029FD0446012000F049FF204610BD00BF10B50446002000F041FF204600F0B0FC002000F0ADFC00F083FC10F0010FFAD000F010FD00F00EFD0446012000F02EFF17
:400B4000204610BD2DE9F04383B006460C4617469846002000F022FF64B2002511E02146082CA8BF0821C9B206EBC50000F06EFD00F05EFC10F0010FFAD0083C64B2013525
:400B80006DB2002CEBDC00F071FD00F015FD0026009601964FFA88F820E0C146B8F1080FA8BF4FF008095FFA89F1684600F04EFD00F03EFC10F0010FFAD0002406E004EB70
:400BC000C60500F0C7FC78550134E4B24C45F6DBA8F108084FFA88F8013676B2B8F1000FDBDC012000F0DAFE00F040FD00F0E4FC00F002FD03B0BDE8F08300BF2DE9F04395
:400C000083B006460C4617469846002000F0D2FE64B2002511E02146082CA8BF0821C9B206EBC50001F016F800F006FF10F0010FFAD0083C64B201356DB2002CEBDC01F0DF
:400C400019F800F0BDFF0026009601964FFA88F820E0C146B8F1080FA8BF4FF008095FFA89F1684600F0F6FF00F0E6FE10F0010FFAD0002406E004EBC60500F06FFF78551A
:400C80000134E4B24C45F6DBA8F108084FFA88F8013676B2B8F1000FDBDC012000F08AFE00F0E8FF00F08CFF00F0AAFF03B0BDE8F08300BF38B5214D284600F049FE204851
:400CC00000F046FE1F4C204600F042FE1E4800F03FFE204600F03CFE1C4800F039FE204600F036FE1A4800F033FE204600F030FE184800F02DFE204600F02AFE164800F039
:400D000027FE204600F024FE144800F021FE204600F01EFE124800F01BFE204600F018FE104800F015FE204600F012FE284600F00FFE0D4800F00CFE38BD00BF8034000087
:400D400044380000A4380000043900002C3900008C390000E83900002C3A0000703A0000B43A0000F83A0000243B0000F0B591B0002406E00519AE7910AD254405F83C6C04
:400D800001343B2CF6DD0020074645E07C0006190DF1400E86441EF83CEC02F806E0461C04EB060E0DF1400C664416F83C6C02F80E60861C04EB060E664416F83C6C02F8ED
:400DC0000E60C61C04EB060E664416F83C6C02F80E60061D04EB060E664416F83C6C02F80E60461D04EB060E664416F83C6C02F80E60861D264411F805E002F806E0C61DFE
:400E000034444E1976781655023500E00025092DBCDD0137FFB206309842F7DB11B0F0BD2DE9F041074688461546002634463AE008EB060118F806302B55601C18F806303D
:400E4000F21C18F802E023F03F0343EA9E032B54A01C18F802308A7891F83AE0920842EA831323F00F0343EA1E132B54E21C48790B799B0943EA0013AB54231D8A79EA5428
:400E8000631DCA79EA54062229463846FFF7D6FAFFF702FB06340637BFB2062229463846FFF7BAFA08364F2EC2D9BDE8F08100BF70B50D4614461E460622FFF7ADFAA023D3
:400EC00023702B7863706B7823F03F03A3706A78AB789B0943EA8203E370AB789B0023F03F032371AA78EB781B0943EA02136371EB781B0103F07003A37128796B7943EADF
:400F0000002001F0E5FAA0F5FA730D4880FB0320DB17C3EBA000012E08D100EBC000084B83FB0023C017C0EB630020300312E3712072C02363720A21204600F01BFD70BD37
:400F400067666666F0B591B005460F46164640220021684601F093FD00240AE0402269460420FFF76BFAFFF797FA0C4800F0F0FC40342B1F9C42F1DB04210320FFF730FA1F
:400F8000FFF78AFA39463046FFF72AFAFFF784FA034800F0DDFC11B0F0BD00BF843B0000983B0000FEE700BFF0B40022174611E050F82760F3B226F0FF0608E001EB4205FF
:400FC00011F812406D78A5550132013BDBB2002BF4D10137232FEBD9F0BC70470B4B1B78DBB203F007010A4A11701B09013213701023A2F23272137002F6C3121370583232
:4010000013704422034B1A70704700BFCF0100496E5800407658004008B50A46002101F02EFD08BD08B501F01FFD08BD38B500243C4B1C80502202331A700B2202331A804D
:40104000182339490B7002310A80384A13701925023215800232137040F65F11023211800232137042F6C652314B1A8002331D704EF65F2202331A8002331D7004222D497C
:401080002D48FFF7CFFF02222C4B1A7008224FF040231A70032103F500731970284B1B78DBB228490B70284B1A8041F25122023B1A800CE0254B1B7803F0010343EA440400
:4010C00004F003044FF4F07001F092FC013D0DB1032CEFD115B90320FFF764FF1C4B4FF480721A8007221A7000221A490A704820023108701A700222033B1A7004220A33CA
:401100001A70154A137843F07F031370013A137843F001031370013A137843F08003137038BD00BF80400040864000408A400040944000403809004800410040004300401F
:4011400008010049A146004022420040254200400440004006400040A2430040012807D8044B53F820201844017A13780B431370704700BFB83B0000012808D8044B53F85B
:4011800020201844017A137823EA010313707047B83B000038B572B6394A137843F00403137000240BE0374863001A19510001440A46098AD068FFF72FFF0134E4B2092C76
:4011C000F1D900240CE02F48A20011194B000344B3F85020D96C986CFFF724FF0134E4B2022CF0D928494FF09040FFF7DDFE0A24264B1C70264A137843F00203137010328D
:40120000137843F002031370224D2B7843F040032B70A2F58632513A137843F01003137008221D491D48FFF7FDFE22461C491D48FFF7F8FE22461C491C48FFF7F3FE224693
:401240001B491C48FFF7EEFE08221B491B48FFF7E9FE1B4A137843F008031370194C61232370FFF7E3FE812323700122164B1A70FFF7B4FE0E2229461448FFF7D3FE38BD4E
:40128000E8460040B83B0000900000488358004003500140A043004004090048025100400C090048C051004018090048105100402409004820510040300900483251004019
:4012C000224300400048004004000840B043004008B501F09DFB03680C2B00D1FEE7FEE708B5094B1A681044084BC31A802B02DC054B186005E001F08BFB0C2303604FF02A
:40130000FF32104608BD00BFCC80FF1F0083FF1F08B5104E104D16E029686B68AC68002204E051F8040B43F8040B0432A242F8D1E868002203E0002143F8041B043282425C
:40134000F9D11035013E002EE6D101F067FBFEF799FEFEE701000000783C000008B5104A104B1A60104A136843F40073136000230AE0032B03D80D4A52F8231000E00C49C4
:401380000C4A42F8231001332F2BF2D90A4B1A780A4B1A70074A0A4B1A60FFF7FBFE08BD0004FA050CED00E014ED00E000000000D11200000080FF1FBC760040C080FF1F69
:4013C00008ED00E00422014B1A60704700E100E00222014B1A60704700E100E008B501F00FFB0C4A137843F02003137002F58072137843F010031370FF3A137843F0100399
:40140000137001F001FB00F071FDFFF7DBFFFFF7DFFF08BD986400400422014B1A60704780E100E00222014B1A60704780E100E010B5FFF7F1FF064B1C78064A137803F015
:4014400009031C4300231370FFF7BCFF204610BD68650040C082FF1F10B5FFF7E3FF064B1B78064A147804F040041C4300231370FFF7AEFF204610BD69640040D182FF1F1C
:4014800010B504462B4B1A7802F0FF0312B1013BDBB200E00723284A1278D2B29342F1D0FFF7BAFF254B1978254A137803F009030B4313701F4B1A78D2B21F4B1B78DBB2F1
:4014C0009A4207D11E4B1B7813F0040F02D01D4B1C702CE0184A13780133DBB213701378DBB2072B02D90022134B1A70124B1A78D2B2104B1B78DBB29A420ED10D4A137869
:401500000133DBB213701378DBB2072B02D90022084B1A7001220C4B1A70074B1B78DBB20A4AD4540A4A137843F004031370FFF749FF10BDD282FF1FD082FF1F68650040BB
:40154000C082FF1F48640040CC82FF1FC482FF1F8865004010B5FFF765FF134B1A78D2B2124B1B78DBB29A4214D0114B1B7813F0FF0F0CD10C4A13780133DBB213701378C5
:40158000DBB2072B06D90022074B1A7002E00022074B1A70044B1B78DBB2064AD45CE4B2FFF716FF204610BDCF82FF1FCD82FF1FCE82FF1FD482FF1F08B501E0094B1B78A9
:4015C000094B1B7813F0200FF8D1FFF72BFF0023064A1370064A1370064A1370FFF7F8FE08BD00BF5864004069640040CE82FF1FCF82FF1FCD82FF1F08B501F001FA0E4B88
:401600001A7842F001021A701A7802F0FE021A7001F0FAF9FFF700FF0023084A1370084A1370084A1370084A137803F0FB031370FFF7C8FE08BD00BF98640040CC82FF1F97
:40164000D282FF1FD082FF1F8865004070B506460C46002506E0705DFFF712FF0135EDB2013CE4B2002CF6D170BD00BF08B501E00A4B1B780A4B1B7813F0200FF8D101F0D8
:40168000BFF9084B1A7842F001021A701A7802F0FE021A7001F0B8F908BD00BF58640040696400409864004010B50F22174B1A70174C042323600621022000F077FC15495C
:4016C000022000F05FFC022323600621012000F06DFC1149012000F055FCFFF7C7FF00240E4B1C700E4B1C700E4B1C700E4B1C700E4B1C700E4B1C70FFF79AFEFFF7ACFE0C
:401700000C4B1C702022FF3B1A7010BD8864004080E100E055170000F5170000CE82FF1FCF82FF1FCD82FF1FCC82FF1FD282FF1FD082FF1F8865004008B5054B1B7823B9CD
:40174000FFF7B2FF0122024B1A70FFF747FE08BD6D81FF1F28E01F4B19781F4A137803F009030B431370137813F0040F24D01B4B1B7813F0FF0F0CD1194A13780133DBB2CA
:4017800013701378DBB2072B06D90022144B1A7002E00022114B1A70114B1B78DBB2114AD35CDBB2104A13700D4B1A78D2B20F4B1B78DBB29A42CED1094B1A78D2B20B4BF5
:4017C0001B78DBB29A4204D1094A137803F0FB031370704768650040C082FF1FCC82FF1FD282FF1FC482FF1F48640040D082FF1F88650040204B1A7820490B7803F04003B8
:4018000013430B7032E01E4B1A78D2B21D490B780133DBB20B700B78DBB2072B02D90021184B1970174B1978C9B2174B1B78DBB299420ED114490B780133DBB20B700B78AE
:40184000DBB2072B02D900210F4B197001210F4B19700C4B1B78DBB20D49CA54064B1A7806490B7803F0400313430B70034B1B7813F0200FC7D1704769640040D182FF1F3E
:4018800058640040CD82FF1FCF82FF1FCE82FF1FD482FF1F7222074B1A702022013B1A7006225F3B1A70472210331A700022B43B1A7070478B65004010B501F0A1F8044659
:4018C0000A4A137843F020031370013A137843F010031370A2F20312137843F01003137000F012FB204601F08FF810BD9B65004008B5054B1B7823B9FFF7CCFF0122024B0F
:401900001A70FFF7D9FF08BD6E81FF1F084B1B78DBB213F0200F06D0064A1078C0B213F01E0F02D17047002070470020704700BF6A65004049650040034B1B7813F0040F9D
:40194000FAD1024B18707047676400404865004038B5074B1B782BB938BDFFF7EDFF0134A4B201E005460024285D0028F5D138BD6E81FF1F084B1B7833B97047305DFFF72F
:40198000DBFF0134E4B203E070B50D4606460024AC42F3D370BD00BF6E81FF1F044A137803F0EF03000100F0100018431070704720510040044A137803F07F03C001C0B287
:4019C00018431070704700BF105100401022014B1A60704700E100E00822014B1A60704700E100E008B501F00BF80C4A137843F020031370FB3A137843F010031370053AEA
:401A0000137843F01003137000F0FEFF00F08AFAFFF7DCFFFFF7E0FF08BD00BF966500401022014B1A60704780E100E00822014B1A60704780E100E010B5FFF7F1FF064BB8
:401A40001C78064A137803F009031C4300231370FFF7BCFF204610BD6B640040EB82FF1F10B5FFF7E3FF064B1B78064A147804F040041C4300231370FFF7AEFF204610BD05
:401A800066640040E482FF1F10B504462B4B1A7802F0FF0312B1013BDBB200E00723284A1278D2B29342F1D0FFF7BAFF254B1978254A137803F009030B4313701F4B1A786B
:401AC000D2B21F4B1B78DBB29A4207D11E4B1B7813F0040F02D01D4B1C702CE0184A13780133DBB213701378DBB2072B02D90022134B1A70124B1A78D2B2104B1B78DBB2F2
:401B00009A420ED10D4A13780133DBB213701378DBB2072B02D90022084B1A7001220C4B1A70074B1B78DBB20A4AD4540A4A137843F004031370FFF749FF10BDE882FF1F7F
:401B4000E982FF1F6B640040EB82FF1F46650040E782FF1FEC82FF1F8B64004010B5FFF765FF134B1A78D2B2124B1B78DBB29A4214D0114B1B7813F0FF0F0CD10C4A137887
:401B80000133DBB213701378DBB2072B06D90022074B1A7002E00022074B1A70044B1B78DBB2064AD45CE4B2FFF716FF204610BDEA82FF1FE582FF1FE682FF1FDC82FF1F06
:401BC00008B501E0094B1B78094B1B7813F0200FF8D1FFF72BFF0023064A1370064A1370064A1370FFF7F8FE08BD00BF5665004066640040E682FF1FEA82FF1FE582FF1FB8
:401C000008B500F0FDFE0E4B1A7842F001021A701A7802F0FE021A7000F0F6FEFFF700FF0023084A1370084A1370084A1370084A137803F0FB031370FFF7C8FE08BD00BF38
:401C400096650040E782FF1FE882FF1FE982FF1F8B64004070B506460C46002506E0705DFFF712FF0135EDB2013CE4B2002CF6D170BD00BF08B501E00A4B1B780A4B1B78CB
:401C800013F0200FF8D100F0BBFE084B1A7842F001021A701A7802F0FE021A7000F0B4FE08BD00BF56650040666400409665004010B50F22174B1A70174C10232360062146
:401CC000042000F073F91549042000F05BF9082323600621032000F069F91149032000F051F9FFF7C7FF00240E4B1C700E4B1C700E4B1C700E4B1C700E4B1C700E4B1C705F
:401D0000FFF79AFEFFF7ACFE0C4B1C702022053B1A7010BD8665004080E100E05D1D0000FD1D0000E682FF1FEA82FF1FE582FF1FE782FF1FE882FF1FE982FF1F8B6400405D
:401D400008B5054B1B7823B9FFF7B2FF0122024B1A70FFF747FE08BD7081FF1F28E01F4B19781F4A137803F009030B431370137813F0040F24D01B4B1B7813F0FF0F0CD1F4
:401D8000194A13780133DBB213701378DBB2072B06D90022144B1A7002E00022114B1A70114B1B78DBB2114AD35CDBB2104A13700D4B1A78D2B20F4B1B78DBB29A42CED100
:401DC000094B1A78D2B20B4B1B78DBB29A4204D1094A137803F0FB03137070476B640040EB82FF1FE782FF1FE882FF1FEC82FF1F46650040E982FF1F8B640040204B1A7874
:401E000020490B7803F0400313430B7032E01E4B1A78D2B21D490B780133DBB20B700B78DBB2072B02D90021184B1970174B1978C9B2174B1B78DBB299420ED114490B7845
:401E40000133DBB20B700B78DBB2072B02D900210F4B197001210F4B19700C4B1B78DBB20D49CA54064B1A7806490B7803F0400313430B70034B1B7813F0200FC7D17047F7
:401E800066640040E482FF1F56650040E582FF1FEA82FF1FE682FF1FDC82FF1F014B1B685865704708ED00E04001C0B2014B1870704700BF05E400E02022014B1A607047EB
:401EC00000E100E02022014B1A60704780E100E010B50446FFF7F6FF2046FFF7DFFF0420FFF7E2FFFFF7E8FF10BD00BF054A137843F0020313701032137843F0020313706C
:401F0000704700BFA2430040054A137843F0080313701032137843F008031370704700BFA2430040054A137843F0040313701032137843F004031370704700BFA243004086
:401F400001BE704710B5044605E0084B186800F04FFDA4F50044B4F5004FF6D8034B586800FB04F000F044FD10BD00BFD080FF1F08B5034B1B7A00FB03F000F039FD08BDA4
:401F8000D080FF1F70B504460E46074B1D681F2802D90020FFF7D4FF04F01F04103455F8240045F8246070BD08ED00E038B504460D46072902D90020FFF7C2FF1F2C02D9ED
:401FC0000020FFF7BDFF04F01F0000F1604000F564406D01EDB2057038BD00BF014B1B68D866704708ED00E04001C0B2014B1870704700BF0BE400E04FF40062014B1A60CC
:40200000704700BF00E100E04FF40062014B1A60704700BF80E100E010B50446FFF7F4FF2046FFF7DBFF0720FFF7DEFFFFF7E4FF10BD00BF08B5FFF7E7FF0248FFF7CEFF14
:4020400008BD00BFD112000010B59DF80840012C51D1013809282ED8DFE800F0052D2D052D2D0F192D230F2B03D92548007840B222E02448007840B21EE00F2B03D9224868
:40208000007840B218E02148007840B214E00F2B03D91F48007840B20EE01E48007840B20AE00F2B03D91C48007840B204E01B48007840B200E0002001EB401101FB02F1A7
:4020C000C90B8AB20D2B0BD8C3F10E0289B211418AB2611E124800EB810101338B7005E0631E0F4901EB83030F219970013C0C4B23F8242010BD0020FFF722FF10BD00BFC7
:40210000180100491C010049190100491D0100491A0100491E0100491B0100491F0100497481FF1FF8B5074600F06AFC06460D4D2B7843F003032B700B4C237843F00303C8
:4021400023700A4B1F700320FFF712FF2B7803F0FC032B70237803F0FC032370304600F053FCF8BDF8460040F9460040925800400022324B1A7101285FD170B53422304B64
:402180001A70042202331A70062201331A70002401331C7001331C703F2201331A7002331C7001331C7001331C7001250A331D70502203F527631A700A2201331A702C2220
:4021C00001331A7001331C70442203331A70482201331A7001331D70022602331E70122201331A70282201331A70EB2201331A705220FFF797FF5822124B1A7001331C7083
:40220000052205331A7001331E7001331C7001331C70204600F02EFA43F233320A4B1A602946284600F04AFA2946082000F0CAFA06491D20FFF7A6FE70BD70477481FF1F13
:40224000004E004094580040F482FF1F1D250000F0B583B0284D01272F70284E00247471102000F019FA102000F09AFA07211D20FFF79CFE0422224B1A7001331C70073348
:402280001C70204A137843F0180313701E4B1C7003F2F5231C7001331C700A22A3F209331A7001331C7002331C705B2205331A705E2201331A7004331C701422A3F68C23B8
:4022C0001A70009710234FF4004248F6F0510220FFF7BAFE2B78013B06EB83039A780B4B1A702B78013B36F82320094B1A802878FFF73EFF03B0F0BDE080FF1F7481FF1F6C
:4023000096580040075B0040935800400E4E00400C4E004070B500F073FB06462A4B1B782A4B1A7842F001021A701A7842F010021A7010331A7842F001021A701A7842F017
:4023400010021A70224D2B7843F002032B70214C237843F0020323701F4A137843F0030313700320FFF704FE2B7803F0FD032B70237803F0FD032370184A137843F00603C3
:4023800013707A22164B1A70164A137843F0010313701032137843F0010313700F3A137843F0010313701032137843F0010313704FF000530C4A1360A2F5C07213603046C5
:4023C00000F022FB70BD00BFE080FF1FAA430040F8460040F9460040915800407758004082580040A143004080E200E008B5084B9B794BB9064BDB7913F0FF0F01D1FFF7DE
:4024000027FF0122024B9A71FFF784FF08BD00BF7481FF1F024A137843F0010313707047004E0040024A137803F0FE0313707047004E0040094B1B7913F0FF0F03D0074B64
:402440005B79DBB203E0064B1B7803F00103012B01D00028EED01846704700BF7481FF1F014E0040154B1B7803F00303012B07D8134B1888023B1B889BB243EA004013E062
:40248000022B0AD10E4B1888023B1B7843EA00430C4A107843EA002006E00B4B188883B2074A108843EA0040084B1B7913F0FF0F02D00022054B5A71704700BF144E00402A
:4024C000124E0040114E0040104E00407481FF1F064B9B68C01A4FF47A7303FB00F0044B1B6890FBF3F000B2704700BF7481FF1FF482FF1F10B5084A137843F00403137032
:40250000FFF788FF0020FFF795FFFFF7ABFF0446FFF788FF204610BD014E0040704700BF084A137843F0010313701032137843F00103137002F64D32137843F001031370FB
:40254000704700BFA3430040014B1870704700BF034F0040014B1878704700BF034F0040014B1880704700BF044F0040014B1880704700BF064F004008B5154A137803F089
:40258000010313700232137803F0FC031370114B1A7802F0CF021A701A7842F030021A701A7802F0F0021A701A7842F00F021A70094A137843F001031370C720FFF7D0FF02
:4025C000C720FFF7D3FF0820FFF7BEFF08BD00BF004F00400B4F0040014F004008B5054B1B7823B9FFF7C8FF0122024B1A70FFF797FF08BD8081FF1F024B1B68C3F8840062
:40260000704700BF08ED00E04001C0B2014B1870704700BF11E400E04FF40032014B1A60704700BF00E100E04FF40032014B1A60704700BF80E100E010B50446FFF7F4FF21
:402640002046FFF7D9FF0520FFF7DEFFFFF7E4FF10BD00BF10B5002404E02046FEF78CFD0134E4B2012CF8D9FF22014B1A7010BDE180FF1F10B50446FFF7ECFF2046FEF7C1
:402680006DFD014B1C7010BDE180FF1F014B188880B2704780400040034B1A7800F0F80010431870704700BF82400040024B187800F00700704700BF8240004070B50546E0
:4026C0000E46FFF7F3FF0446FFF7E0FFA84256D02B4B1B7803F0010294B900B185B938B9284B1D80284A137803F0BF03137070BD254A137843F040031370224B1D8070BDA7
:4027000022B3002321490B7001240F310C7004310B700C390B7803F07F030B701A4B1B7813F0080F00D08DB9194B18800721013B1970164B1B7813F0010FFAD110490B78B4
:4027400003F0FE030B700021104B19700C4B1B7813F0010F0DD00E4B1D800EB1032200E001220A4B1A70094B1B7813F0010FFAD170BD044B1D8002490B7813430B7070BDA5
:40278000A243004080400040824000400140004002400040014B188880B2704700410040034B1A7800F0F80010431870704700BF02410040024B187800F00700704700BFB3
:4027C0000241004070B505460E46FFF7F3FF0446FFF7E0FFA84256D02B4B1B7803F0010294B900B185B938B9284B1D80284A137803F0BF03137070BD254A137843F040036D
:402800001370224B1D8070BD22B3002321490B70012413310C7004390B7008390B7803F07F030B701A4B1B7813F0080F00D08DB9194B18800721013B1970164B1B7813F0A8
:40284000010FFAD110490B7803F0FE030B700021104B19700C4B1B7813F0010F0DD00E4B1D800EB1032200E001220A4B1A70094B1B7813F0010FFAD170BD044B1D8002496E
:402880000B7813430B7070BDA143004000410040024100400140004002400040044A137803F0FE0300F0010018431070704700BF30510040024A137843F0800313707047D5
:4028C0007A640040014B1870704700BF0A640040014B1870704700BF4A640040014B1870704700BF2A640040014B1870704700BF8A640040014B1878704700BF6A6400409A
:40290000014B1878704700BF5A64004008B501E0FFF7F6FFFFF7EEFF10F0100FF8D108BD10B5114A137803F0C00343F0090313700E4C237843F001032370FF20FFF7C2FF76
:40294000FF20FFF7C5FF0020FFF7C8FF0020FFF7CBFF00F055F8237843F01003237000F053F8FFF7D3FF10BD7A6400409A64004008B5054B1B7823B9FFF7D2FF0122024B31
:402980001A70FFF797FF08BD8181FF1F014B1B681864704708ED00E04001C0B2014B1870704700BF00E400E00122014B1A60704700E100E00122014B1A60704780E100E042
:4029C00010B50446FFF7F6FF2046FFF7DFFF0120FFF7E2FFFFF7E8FF10BD00BF024B1878C0F38000704700BF21510040000000000230800803D000BF01380046FCD17047BB
:402A0000EFF3108072B6704780F31088704700BF014B1868704700BF4481FF1F0E4B70B51E460E4C0025E41AA410A54204D056F8253098470135F8E701F00CF9084B094C9C
:402A40001E46E41AA4100025A54204D056F8253098470135F8E770BD603C0000603C0000603C0000683C000010B5431E0A44914204D011F8014B03F8014FF8E710BD034674
:402A80000244934202D003F8011BFAE7704700000EB400B54FF402719CB0ADF814106FF00041049107914FF6FF711DAB02900690084853F8042BADF81610006802A901938A
:402AC00000F064F8029B00221A701CB05DF804EB03B070474481FF1F2DE9F0478E6882469E420C46914698463ED88A8912F4906F3AD02568096902236F1A656905EB450505
:402B000095FBF3F57B1C43449D4238BF1D4653050FD5294600F040FB064698B13A462169FFF7A2FFA38923F4906343F08003A38113E02A4600F08EFB064670B92169504639
:402B400000F0DEFA0C23CAF80030A3894FF0FF3043F04003A381BDE8F08726613E44266046466561ED1BA560464528BF464649463246206800F0A8FAA36800209B1BA3602B
:402B800023681E442660BDE8F08700002DE9F04F9DB003938B8980461C060D4616460DD50B695BB9402100F0F7FA2860286118B90C23C8F80030CDE040236B61002309935B
:402BC00020238DF82930DFF89CB130238DF82A3037463C4614F8013B1BB9B7EB060910D003E0252BF9D02746F3E74B46324629464046FFF771FF013000F0A780099B4B4490
:402C000009933B78002B00F0A08000234FF0FF3204930793059206938DF853301A930126052221784E4800F041FA671C049B38B14B4A3C46801A06FA00F018430490EFE748
:402C4000D90644BF20228DF853201A0744BF2B228DF8532022782A2A03D0079A00210A200BE0039A111D12680391002A10DA524243F00200079204900BE027463B78013414
:402C8000303B092B03D800FB02320121F5E701B107923B782E2B1ED17B782A2B0AD1039B02371A1D1B680392002BB8BF4FF0FF33059310E0002319460593781C0A2407461A
:402CC0003A780130303A092A03D804FB01210123F5E703B1059103223978224800F0E6F940B14023CBEB000003FA00F0049B013718430490397806221B487E1C8DF82810AF
:402D000000F0D4F988B1194B33B9039B073323F007030833039314E003AB00932A46144B04A94046AFF3008007E003AB00932A460F4B04A9404600F093F8B0F1FF3F8246E7
:402D400003D0099B5344099342E7AB895B0601D4099801E04FF0FF301DB0BDE8F08F00BF203C0000263C00002A3C000000000000D92A00002DE9F04791461F460A698B6860
:402D800006469342B8BF1346C9F8003091F843200C46DDF8208012B10133C9F800302368990642BFD9F800300233C9F80030256815F0060510D104F1190A07E0012352460B
:402DC00039463046C04701301AD00135E368D9F800209B1A9D42F1DB94F843302268003318BF012392060FD5E118302081F843005A1C94F845102244023382F8431003E010
:402E00004FF0FF30BDE8F08704F1430239463046C0470130F4D02268D9F80050E36802F00602042A08BF5D1B2269A3680CBF25EAE57500259342C4BF9B1AED184FF0000937
:402E40001A344D4509D00123224639463046C0470130D5D009F10109F3E70020BDE8F0872DE9F04317460A7E85B06E2A984606460C460C9B01F1430E00F0AE8011D8632A2C
:402E800022D009D8002A00F0BB80582A40F0CA8081F84520834955E0642A1ED0692A1CD0C0E0732A00F0B08009D86F2A2ED0702A40F0B8800A6842F020020A603EE0752A50
:402EC00024D0782A3AD0ADE01A6801F14205111D1960136884F84230A8E021681A6811F0800F02D0111D196008E011F0400F02F10401196002D0B2F9003000E01368002B62
:402F00003CDA2D225B4284F8432037E021681A6811F0800F02D0111D196007E011F0400F02F10401196001D0138800E01368227E5C496F2A14BF0A2208221BE078225A49D7
:402F400084F845202268186812F0800F00F104051D6003D1550601D5038800E00368D00744BF42F0200222601BB9226822F0200222601022002084F8430001E049490A220F
:402F80006568002DA56008DB206820F0040020602BB9002D7DD175460CE0002B79D07546B3FBF2F002FB1033CB5C05F8013D03460028F5D1082A0BD12368DA0708D5236992
:402FC00062689A42DEBF302305F8013C05F1FF35C5EB0E0323612EE008681A6810F0800F496903D0101D1860136808E010F0400F02F104001860136801D0198000E019607A
:4030000000232361754616E01A68111D1960156800216268284600F049F808B1401B6060636804E004F1420584F8422001232361002384F84330CDF800803B4603AA2146D7
:403040003046FFF797FE013002D14FF0FF3026E023692A4639463046C0470130F5D023689B0710D5002504F1190907E001234A4639463046C0470130E7D00135E368039AFE
:403080009B1A9D42F2DBE068039B9842B8BF184605E00B7804F1420584F842308AE705B0BDE8F083313C0000423C000010B5C9B202449042034605D01C7801308C42F8D18D
:4030C000184610BD002010BD884210B501EB020301D8421E0BE09842FBD28118D21AD34204D013F8014D01F8014DF8E710BD994204D011F8014B02F8014FF8E710BD0000B9
:4031000038B50546002944D051F8043C0C1F002BB8BFE41800F0D4F81E4A1368114613B96360146030E0A3420DD92268A018834201BF18685B681218226063600C6023E00C
:40314000A24203D813465A68002AF9D118681918A1420BD12168014458188242196013D110685268014419605A600DE002D90C232B6009E021686018824201BF10685268E6
:403180000918216062605C602846BDE8384000F098B838BD8881FF1F70B5CD1C25F0030508350C2D38BF0C25002D064601DBA94202D90C23336046E000F082F8234B1C68E0
:4031C0001A462146A1B10B685B1B0ED40B2B03D90B60CC18CD501EE08C420BBF63684B681360636018BF0C4615E00C464968E9E7174C23681BB9304600F052F820602946D1
:40320000304600F04DF8431C18D0C41C24F00304A0420DD12560304600F053F804F10B00231D20F00700C31A0ED05A42E25070BD211A304600F034F80130EBD10C23336022
:40324000304600F03EF8002070BD00BF8881FF1F8481FF1FF8B5074615460E4621B91146BDE8F840FFF798BF1AB9FFF749FF2846F8BD00F027F885420ED929463846FFF784
:403280008BFF044650B131462A46FFF7EDFB31463846FFF735FF01E03046F8BD2046F8BD38B5064C0023054608462360FEF718F8431C02D1236803B12B6038BDF882FF1F22
:4032C0007047704751F8040C0028BEBF091851F8043CC01804387047000000002A2A2057686F20616D2049207265676973746572203D20307825303258205B4578706563FB
:403300007465643A20307833335D0D0A000000002A2A2A2A2A2A2A2A2A2A2A2A2A2A5265676973746572732056616C7565732A2A2A2A2A2A2A2A2A2A2A2A2A2A0D0A00007D
:4033400020436F6E74726F6C207265676973746572203120686173206265656E2073657420746F203D20307825303258200D0A0020436F6E74726F6C2072656769737465A2
:4033800072203520686173206265656E2073657420746F203D20307825303258200D0A0020436F6E74726F6C207265676973746572206F66204649464F2068617320626584
:4033C000656E2073657420746F203D20307825303258200D0A00000020436F6E74726F6C207265676973746572203320686173206265656E2073657420746F203D203078CD
:4034000025303258200D0A002A2A2A2A2A2A2A2A2A2A2A2A2A2A2A2A2A2A2A2A2A2A2A2A2A2A2A2A2A2A2A2A2A2A2A2A2A2A2A2A2A2A2A2A0D0A00000D0A204649464F20AC
:40344000636C65616E200D0A000000002A2A20454550524F4D20537461747573204F4E202A2A200D0A0000002A2A20454550524F4D20537461747573204F4646202A2A205B
:403480000D0A0000436F6E66696775726174696F6E206F662074686520616363656C65726F6D657465722066756C6C207363616C652072616E6765200D0A00002D2D2D2DB9
:4034C0002D2D2D2D2D2D2D2D2D2D2D2D2D2D2D2D2D2D2D2D2D2D2D2D2D2D2D2D2D2D2D2D2D2D2D2D2D2D2D2D2D2D2D2D2D2D2D2D0D0A000043686172616374657220202058
:403500007C2046756C6C207363616C652072616E6765200D0A0000003120202020202020202020207C202B2D203267200D0A00003220202020202020202020207C202B2DD5
:40354000203467200D0A00003320202020202020202020207C202B2D203867200D0A00003420202020202020202020207C202B2D20313667200D0A0054656D7065726174ED
:40358000757265206D6F64652073657474656420696E2046617268656E6569740A0D0000436F6E66696775726174696F6E206F662074686520616363656C65726F6D65743B
:4035C00065722073616D706C696E67206672657175656E6379200D0A00000000436861726163746572202020202020207C2053616D706C696E67204672657175656E63793A
:40360000200D0A00312020202020202020202020202020207C2031487A200D0A00000000322020202020202020202020202020207C203130487A200D0A00000033202020E1
:403640002020202020202020202020207C203235487A200D0A000000342020202020202020202020202020207C203530487A200D0A0000005468652073656C656374656436
:40368000206F7074696F6E2077617320616C7265616479206265656E20736574746564200D0A0000546865206368616E676520776173207375636365737366756C200D0AA1
:4036C000000000004653522073657420746F202B2D322067200D0A0053462073657420746F203120487A200D0A0000004653522073657420746F202B2D342067200D0A00D2
:4037000053462073657420746F20313020487A200D0A00004653522073657420746F202B2D382067200D0A0053462073657420746F20323520487A200D0A0000465352206C
:4037400073657420746F202B2D31362067200D0A0000000053462073657420746F20353020487A200D0A000053746F7265207468652074656D706572617475726520646196
:403780007461200D0A0000004368617261637465722020202020207C2054656D706572617475726520666F726D6174200D0A00006320202020202020202020202020207C07
:4037C0002053746F7265206461746120696E2043656C7369757320666F726D6174200D0A000000006620202020202020202020202020207C2053746F72652064617461206A
:40380000696E2046616872656E6865697420666F726D617420200D0A0000000054656D7065726174757265206D6F64652073657474656420696E2043656C736975730A0D91
:40384000000000002A2A2A2A2A2A2A2A2A2A2A2A2A2A2A2A2A2A2A2A2A2A2A2A2A2A2A2A2A2A2A2A2A2A2A2A2A2A2A204D454E5527202A2A2A2A2A2A2A2A2A2A2A2A2A2AFA
:403880002A2A2A2A2A2A2A2A2A2A2A2A2A2A2A2A2A2A2A2A2A2A2A2A2A2A2A2A2A2A0D0A000000002D2D2D2D2D2D2D2D2D2D2D2D2D2D2D2D2D2D2D2D2D2D2D2D2D2D2D2D19
:4038C0002D2D2D2D2D2D2D2D2D2D2D2D2D2D2D2D2D2D2D2D2D2D2D2D2D2D2D2D2D2D2D2D2D2D2D2D2D2D2D2D2D2D2D2D2D2D2D2D2D2D2D2D2D2D2D2D2D2D2D2D2D2D0D0ACB
:4039000000000000436F6D6D616E6420207C20526573756C742020202020202020202020202020202020200D0A0000006220202020202020207C20537461727420646174B1
:4039400061206163717569736974696F6E2066726F6D2074686520616363656C65726F6D6574657220616E642073746F72616765206F6E2074686520454550524F4D206D32
:40398000656D6F7279200D0A000000007320202020202020207C2053746F702064617461206163717569736974696F6E2066726F6D2074686520616363656C65726F6D6507
:4039C00074657220616E642073746F72616765206F6E2074686520454550524F4D206D656D6F7279200D0A006620202020202020207C20436F6E66696775726174696F6E84
:403A0000206F662074686520616363656C65726F6D657465722066756C6C207363616C652072616E6765200D0A0000007020202020202020207C20436F6E666967757261AC
:403A400074696F6E206F662074686520616363656C65726F6D657465722073616D706C696E67206672657175656E6379200D0A007620202020202020207C205374617274F7
:403A800020646174612076697375616C697A6174696F6E20696E207468652042726964676520436F6E74726F6C2050616E656C200D0A00007520202020202020207C205329
:403AC000746F7020646174612076697375616C697A6174696F6E20696E207468652042726964676520436F6E74726F6C2050616E656C200D0A0000007420202020202020A6
:403B0000207C2053746F7265207468652074656D70657261747572652064617461200D0A000000002A2A2A2A2A2A2A2A2A2A2A2A2A2A2A2A2A2A2A2A2A2A2A2A2A2A2A2A04
:403B40002A2A2A2A2A2A2A2A2A2A2A2A2A2A2A2A2A2A2A2A2A2A2A2A2A2A2A2A2A2A2A2A2A2A2A2A2A2A2A2A2A2A2A2A2A2A2A2A2A2A2A2A2A2A2A2A2A2A2A2A2A2A2A0DE2
:403B80000A000000455241534520434F4D504C45544544200D0A00004E657720636F6E66696775726174696F6E207365743A203078303258200D0A00035B00402443004031
:403BC00040000000004F00400C00405100403000F0510040100000000140000880080140800700140140000280160140800500400140000A004C0140000200500140200041
:403C000060520040FC070048060000080140040800488000001601408408004880004300232D302B2000686C4C0065666745464700303132333435363738394142434445EB
:403C40004600303132333435363738396162636465660000F8B500BFF8BC08BC9E4670474D0000005D130000F8B500BFF8BC08BC9E46704729000000883C0000C880FF1F8E
:403C800080000000B8010000000000000083FF1F0000E02EC05D00001800000000366E0101FF00000000000000000000000000000000000000000000000000000000000042
:403CC000000000001E3C000000000000000000000000000000000000000000000000000000000000000000000000000000000000000000000000000000000000000000006A
:403D000000000000E480FF1F000000000000000000000000000000000000000000000000000000000000000000000000000000000000000000000000000000000000000001
:403D40000000000000000000000000000000000000000000000000000000000000000000000000000000000000000000000000000000000000000000000000000000000043
:403D80000000000000000000000000000000000000000000000000000000000000000000000000000000000000000000000000000000000000000000000000000000000003
:403DC00000000000000000000000000000000000000000000000000000000000000000000000000000000000000000000000000000000000000000000000000000000000C3
:403E00000000000000000000000000000000000000000000000000000000000000000000000000000000000000000000000000000000000000000000000000000000000082
:020000040003F7
:0200000480007A
:4000000001450040024F004003520040036400400365004004020140030301400505014057060140430701400B080140450901405E0A0140370B0140020D01400A15014004
:400040001F160140511701405D1801404F1901404C1A0140471B0140074001400C410140124201400A43014002440140064501400A46014001470140094801400249014034
:40008000074C0140074D01400650014002510140640101400A4B002001401102870F880F8A0D860F8A388B72B980BF40D904DF0120022180E64080048A20A980B001E20994
:4000C000008D0121030606300704088D09210B100D270E40110313081451150616221721182219271A441C021E0D200D21272280248D25102723286229392A182B022C8D10
:4001000031043280333A3470360F37033A803B0C3E043F0154405604580459045B045C225D205F01810D831086088C338E049118940A950196349704983399149A0C9B0960
:400140009C409E15A403A614AD02B010B11CB260B302B40FB501B808B922BA20BE01BF04D401D804D904DB04DC23DD30DF010040010804A40520068007400A140B020C2089
:400180000D080E091010122015011602172519181A441C241E01211222042402254026092720280129802C202E022F08302031023208330835203602370438023D053EA070
:4001C0003F2858115A48640265046784851087408802894C8A028E0C94049E20A440AC40C0F5C2E7C4F4CAE8CCE7CEF1D60FD8F0E601E8029102A303B101B702D440D60482
:40020000D904DB04DC50DD10DF010403062A0C280EAA0F1017551C101D201E021F012102224025C026742B802CAA310236483C813E14440845444C014D044F125668570282
:400240006014638266046C966E146F55744076027702800482018302864889108C208E019001942895219680980C9A049C209E419F42A380A402A5C0A620A740AF04C0F08B
:40028000C2F0C4F0CAF1CC51CEF0D070D230D84FE040E4600040040E10441209130216801A801B011C131E2423012465261A32803301340F3502367038203A803E0440203B
:4002C000410345D046014702481649FF4AFF4BFF4DA04F04501852805405580459045A045B045C515D555F01604062C06440654066C068C06AC06CC06EC080028109820861
:400300008336840D880D8B108C208D238E108F0C900D94029502960D970D982099059A109B3A9C019E02A00DA430A802AA04AC0DB020B20FB30FB530B610BA08BB08BE4177
:40034000D409D604D804D904DB04DC11DD20DF01000402400429060109690C020D900E10122C14201752180519041D401E101F0121202204251026082B8031223628371082
:400380003C013DA2412849C15108538059055A805D815F1467827102811087408A048B10980CA740B004B408C0FCC2FFC4F4CA01CC65CEB0D006D6FBD890E480E8808F40C8
:4003C000E64084018B01A001A701AD80B102B504E408EA08EE088520861C87038C018D148E0E9208941C951C96039702980199109A169B0C9E03A10CA311A509A710AD108B
:40040000B01AB20FB31FB720BA0ABF40D804D904DC33DF010040010804200520074108110A100B020C800E880F1014801704184019061A101E801F10200221042508260407
:4004400027102801290A2B012C202D202F80301031143480379539883E023F10454847A04C424E084F145460571467206C106FC5748076028140822083018F2094E09610F3
:40048000970699189D809E029F45A002A140A208A440A624A714A904AA01B012B204C0D5C2FFC430CAEBCCF6CEAAD070D230D840E229E480E6050403050109010C020D01C7
:4004C000130119281A011B921D021F4C21012403253E293E2D142FA231C0330135303603370E38803E403F054035410145B046E0470C481A49FF4AFF4BFF4EF04F44500C1F
:4005000054095604580459045A045B045C305D135F0166C06A406B02870293029A019C019E02A301AA04AF01B001B402B501B604B702BB02BF50C023C106C205C404C5E0C3
:40054000C70CC812C9FFCAFFCBFFCC62CDA0CEF0CF41D00CD804D904DA04DC36DD03DF01E640E702E910EA30EB10ED10EE10EF12050807020A090F08100416101A091B01F3
:400580001D8020042101228024402504266429412C802D802F2830023201348035103660370138083C803E144040411043044612480649014D404F015004552056085C2083
:4005C0005D065E40678278207A0881408208830587408B408D028E0491049254930298049A109B01A0C0A208A504B101B210B520B640C0A0C243C422CAF9CCB1CE72D0579B
:40060000D21CD6F0D890E220E480E610ECA0001C017F02E204400504092F0A630B500C240F53120414E7150C1618181C19731AE11B0C1C601D08201021032408253C274329
:40064000281829022CFF2D013060311C321F334C350F3680372038803A083B283F4054185604580459045B045C335D305F01850289029102AF01B101B502C001C740C9FF34
:40068000CA07CBFFCC40CD20CEF0CF05D008D602D713D904DA04DB04DC30DD33DF01E040E1A8E240E320018002200344088009010A2810A812011945201021102215230282
:4006C00025012704288029942D80308832103701381039823A053E1445805602570459015F026004628063406E146F2974A876048144834489808A02900491029520960270
:400700009740988099109DC09F04A180A2A0A72CAD20AF01B004B109B202B702C00FC20FC40FCA1FCC8ECE6FD010D681D80DE280E408E89030023320358036083B80CCF0CF
:40074000CE1030105F0160108D8097809D80A402A608A720CC10D680D840502056205B02822083018740941097819B029C10A402A608A720AB02D460D640E2B0EE8080100E
:400780008420860894109C10A422A608A720E250E6807C20DE010020010859409C20C00AD401462089409D40B030B508D001E001E801EA02EE019E20252084028810892063
:4007C0009C10A402A720C820E210AF20EE1009108A208D109E20C202E401E6081101740184018901C408DE04E601002E0A0C0C26104E1A0C1C4A00FF010F0000888C0000D6
:400800004000000056FC09030098800260020098849A0000070038000A0210000400000001130064049A8000803804C0842100D884980002020080E0080F7F138000002829
:40084000000015006501300002DEDCFB3FFFFFFF2200F008040000000000022804040404111100010000C00040011011C001001140014001000000000000000000000000E9
:40088000000000001012000000000000100300180000100002021D1001101A02030114141003000C03120C001002000000120000000000001F00001F1F0000000008220066
:4008C000000000003601500002BFCE0D1FFFFFFF2200F00C040000000000022804040404222200010000C00040011011C001001140014001000000000000000000000000A2
:400900000000000000606000600000008400508C8C008C00000000008000408B8B0000000000000014000116120002000000000000010100000010000800180100000000D7
:400940000000000000000000000000000000000000000000000000000000000000000000000000000000000000000000000000000000000000000000000000000000000077
:400980000000000000000000000000000000000000000000000000000000000000000000000000000000000000000000000000000000000000000000000000000000000037
:4009C00000000000000000000000000000000000000000000000000000000000000000000000000000000000000000000000000000000000000000000000000000000000F7
:400A000000000000000000000000000000000000000000000000000000000000000000000000000000000000000000000000000000000000000000000000000000000000B6
:0200000490006A
:0400000000004005B7
:0200000490105A
:04000000BC90ACAF55
:0200000490303A
:0200000028FED8
:0200000490402A
:4000000000000000000000000000000000000000000000000000000000000000000000000000000000000000000000000000000000000000000000000000000000000000C0
:400040000000000000000000000000000000000000000000000000000000000000000000000000000000000000000000000000000000000000000000000000000000000080
:400080000000000000000000000000000000000000000000000000000000000000000000000000000000000000000000000000000000000000000000000000000000000040
:4000C0000000000000000000000000000000000000000000000000000000000000000000000000000000000000000000000000000000000000000000000000000000000000
:0200000490501A
:0C00000000012E16106900012E2E396739
:00000001FF