:400000000080002011000000F9080000F908000008B5044B1A6803F53F5302331A6000F08BFC00BFFA46004010B5054C237833B9044B13B10448AFF300800123237010BDEE
:400040004881FF1F0000000030190000084B10B51BB108490848AFF300800848036803B910BD074B002BFBD0BDE81040184700BF000000004C81FF1F30190000C880FF1F70
:400080000000000010B562B600F050FE00F072FD00F036FF334800F05BFF0A2000F092FF0F2000F019FA304C02463049204601F01BF8204600F06AFE2D4800F067FE20218F
:4000C000084600F0F1F9242000F006FA02462949204601F009F8204600F058FE6021242000F0E2F9242000F0F7F902462249204600F0FAFF204600F049FE40212E2000F0F4
:40010000D3F9242000F0E8F902461C49204600F0EBFF204600F03AFE0221222000F0C4F9222000F0D9F902461549204600F0DCFF204600F02BFE134800F028FE00F03CFA60
:400140002F2000F0C9F910F0400FF9D00E4800F01DFE00212E2000F0A7F940212E2000F0A3F9EDE78D0100007481FF1F341900006819000098190000C8190000F8190000E5
:40018000301A0000601A0000901A000008B500F0DBFDAC4B18703138432800F28281DFE810F07A00AC00DE00100180018001800180018001800180018001800180014400DA
:4001C000800180018001790180018001470080018001800180018001800180018001800164008001800180014101800180018001800180018001800180018001800180017C
:4002000080018001800179018001800147008001800180018001800180018001800180016400800180018001410100F0C5F908BD854800F0ABFD854800F0A8FD844800F0D0
:40024000A5FD844800F0A2FD834800F09FFD834800F09CFD824B01221A705B78934240F0208100227E4B5A7008BD7E4800F08EFD7D4800F08BFD7D4800F088FD7C4800F0FD
:4002800085FD7C4800F082FD7B4800F07FFD0122734B9A7008BD724B1B78012B13D1232000F01AF910F0800F03D0744800F06EFD06E08021232000F0F7F8714800F066FDD6
:4002C0000022674B1A70664B9B78012B40F0E980202000F001F910F0230F03D0674800F055FD06E02321202000F0DEF8644800F04DFD00225A4B9A7008BD594B1B78012BE8
:4003000013D1232000F0E8F810F0900F03D05B4800F03CFD06E09021232000F0C5F8584800F034FD00224E4B1A704D4B9B78012B40F0B780202000F0CFF810F0390F03D0AB
:400340004E4800F023FD06E03921202000F0ACF84B4800F01BFD0022414B9A7008BD404B1B78012B13D1232000F0B6F810F0A00F03D0424800F00AFD06E0A021232000F0BF
:4003800093F83F4800F002FD0022354B1A70344B9B78012B40F08580202000F09DF810F0550F03D0354800F0F1FC06E05521202000F07AF8324800F0E9FC0022284B9A70DB
:4003C00008BD274B1B78012B13D1232000F084F810F0B00F03D0294800F0D8FC06E0B021232000F061F8264800F0D0FC00221C4B1A701B4B9B78012B53D1202000F06CF8D0
:4004000010F0710F03D01D4800F0C0FC06E07121202000F049F81A4800F0B8FC0022104B9A7008BD174800F0B1FC174800F0AEFC164800F0ABFC164800F0A8FC0122084BCB
:400440005A7008BDD881FF1FA81A0000E01A00000C1B00002C1B00004C1B00006C1B00006481FF1F8C1B0000C81B0000F41B0000101C0000301C0000501C0000701C000052
:40048000A01C0000C01C0000E01C00000C1D0000441D0000034B5B78012B02D10022014B5A7008BD6481FF1F30B583B08DF804008DF80510002402AD05F8054D012000F090
:4004C00077FC23462A46022101A800F019F8204600F06EFC03B030BD00B583B060F07F008DF8040002AA002302F8053D0123194601A800F005F89DF8030003B05DF804FB80
:400500002DE9F04383B006460C4617469846002000F04EFC64B2002511E02146082CA8BF0821C9B206EBC50000F0A6FC00F066FC10F0010FFAD0083C64B201356DB2002CEB
:40054000EBDC00F0A9FC00F077FC0026009601964FFA88F820E0C146B8F1080FA8BF4FF008095FFA89F1684600F086FC00F046FC10F0010FFAD0002406E004EBC60500F06F
:4005800055FC78550134E4B24C45F6DBA8F108084FFA88F8013676B2B8F1000FDBDC012000F006FC00F078FC00F046FC00F052FC03B0BDE8F08300BF38B5214D284600F086
:4005C000E5FB204800F0E2FB1F4C204600F0DEFB1E4800F0DBFB204600F0D8FB1C4800F0D5FB204600F0D2FB1A4800F0CFFB204600F0CCFB184800F0C9FB204600F0C6FB4C
:40060000164800F0C3FB204600F0C0FB144800F0BDFB204600F0BAFB124800F0B7FB204600F0B4FB104800F0B1FB204600F0AEFB284600F0ABFB0D4800F0A8FB38BD00BFFA
:400640009C1C0000801D0000E01D0000401E0000681E0000C81E0000241F0000681F0000AC1F0000F01F00003420000060200000FEE700BFF0B40022174611E050F827605F
:40068000F3B226F0FF0608E001EB420511F812406D78A5550132013BDBB2002BF4D10137202FEBD9F0BC7047064B1B78DBB203F00701054A11701B09013213704422034BC1
:4006C0001A707047CF0100496E5800407658004008B50A46002100F0FEFC08BD38B50B222B4B1A8018232B490B7002310A802A4A1370332102321180023213704BF67F31E6
:4007000002321180023213700222244B1A7008224FF040231A70032103F500731970204B1B78DBB21F490B701F4B1A8041F25122023B1A80002419250CE01C4B1B7803F088
:40074000010343EA440404F003044FF4F07000F07BFC013D0DB1032CEFD115B90320FFF787FF134B4FF480721A8007221A70002210490A704820023108701A700222033BCF
:400780001A700D4A137843F00F03137038BD00BF8040004082400040864000400043004008010049A146004022420040254200400440004006400040A243004008B500F026
:4007C0007FFC08BD38B572B6384A137843F00403137000240CE0364D630019194A0011462A44084691882858FFF772FF0134E4B2072CF0D900240BE02D48A20011194B00F3
:4008000003441A8F596B186BFFF7D8FF0134E4B2022CF1D927494FF09040FFF72BFF264A137843F0020313701032137843F002031370224C237843F040032370A2F58632B3
:40084000513A137843F01003137008221C491D48FFF7B4FF0A221C491C48FFF7AFFF0A221B491C48FFF7AAFF0A221B491B48FFF7A5FF08221A491B48FFF7A0FF1A4A1378CF
:4008800043F008031370194D61232B70FFF726FF81232B700122164B1A70FFF705FF0E2221461448FFF78AFF38BD00BFE8460040C02000008400004803500140A043004099
:4008C000E008004802510040E8080048C0510040F40800481051004000090048205100400C09004832510040224300400048004004000840B043004008B500F0B5FB036831
:400900000C2B00D1FEE7FEE708B5094B1A681044084BC31A802B02DC054B186005E000F0A3FB0C2303604FF0FF32104608BD00BFCC80FF1F0082FF1F08B5104E104D16E0B6
:4009400029686B68AC68002204E051F8040B43F8040B0432A242F8D1E868002203E0002143F8041B04328242F9D11035013E002EE6D100F07FFBFFF785FBFEE701000000B1
:400980006821000008B5104A104B1A60104A136843F40073136000230AE0032B03D80D4A52F8231000E00C490C4A42F8231001332F2BF2D90A4B1A780A4B1A70074A0A4B29
:4009C0001A60FFF7FFFE08BD0004FA050CED00E014ED00E000000000F90800000080FF1FBC760040C080FF1F08ED00E00222014B1A60704700E100E00122014B1A607047C2
:400A000000E100E008B500F027FB0C4A137843F0200313700132137843F010031370FF32137843F01003137000F01AFB00F09EFAFFF7DCFFFFF7E0FF08BD00BF976400406E
:400A40000222014B1A60704780E100E00122014B1A60704780E100E010B5FFF7F1FF064B1C78064A137803F009031C4300231370FFF7BCFF204610BD68640040DC81FF1FD9
:400A800010B5FFF7E3FF064B1B78064A147804F040041C4300231370FFF7AEFF204610BD67650040ED81FF1F08B501E00A4B1B780A4B1B7813F0200FF8D100F0CDFA084BBB
:400AC0001A7842F001021A701A7802F0FE021A7000F0C6FA08BD00BF57640040676500409764004010B50F22174B1A70174C022323600721012000F08FFA1549012000F003
:400B000077FA012323600721002000F085FA1149002000F06DFAFFF7C7FF00240E4B1C700E4B1C700E4B1C700E4B1C700E4B1C700E4B1C70FFF790FFFFF7A2FF0C4B1C70D8
:400B40002022FF331A7010BD8764004080E100E0910B0000310C0000EA81FF1FEB81FF1FE981FF1FE881FF1FEE81FF1FEC81FF1F8864004008B5054B1B7823B9FFF7B2FFDC
:400B80000122024B1A70FFF73DFF08BD6781FF1F28E01F4B19781F4A137803F009030B431370137813F0040F24D01B4B1B7813F0FF0F0CD1194A13780133DBB2137013783E
:400BC000DBB2072B06D90022144B1A7002E00022114B1A70114B1B78DBB2114AD35CDBB2104A13700D4B1A78D2B20F4B1B78DBB29A42CED1094B1A78D2B20B4B1B78DBB2AF
:400C00009A4204D1094A137803F0FB031370704768640040DC81FF1FE881FF1FEE81FF1FE081FF1F47640040EC81FF1F88640040204B1A7820490B7803F0400313430B704E
:400C400032E01E4B1A78D2B21D490B780133DBB20B700B78DBB2072B02D90021184B1970174B1978C9B2174B1B78DBB299420ED114490B780133DBB20B700B78DBB2072B8C
:400C800002D900210F4B197001210F4B19700C4B1B78DBB20D49CA54064B1A7806490B7803F0400313430B70034B1B7813F0200FC7D1704767650040ED81FF1F57640040B4
:400CC000E981FF1FEB81FF1FEA81FF1FF081FF1F7222074B1A702022013B1A700622603B1A70472210331A700022AF3B1A7070478965004010B500F0AFF904460A4A1378CE
:400D000043F020031370013A137843F010031370FF3A137843F01003137000F035F9204600F09EF910BD00BF9965004008B5054B1B7823B9FFF7CCFF0122024B1A70FFF7BC
:400D4000D9FF08BD6881FF1F084B1B78DBB213F0200F06D0064A1078C0B213F01E0F02D17047002070470020704700BF686500404A650040034B1B7813F0040FFAD1024BD8
:400D800018707047696400404964004038B5074B1B782BB938BDFFF7EDFF0134A4B201E005460024285D0028F5D138BD6881FF1F044A137803F07F03C001C0B218431070C7
:400DC000704700BF1051004008B500F045F90A4A137843F020031370FE3A137843F01003137002F20512137843F01003137000F037F900F0D7F808BD94650040014B187895
:400E0000704700BF66640040014B1878704700BF6B650040034B1B7813F0040FFAD0024B187070476664004044650040014B1878704700BF5465004001E0044B1B78044B33
:400E40001B7813F0200FF8D1704700BF546500406B65004008B500F0FFF8064B1A7842F001021A701A7802F0FE021A7000F0F8F808BD00BF9465004070B506460C4600258C
:400E800006E0705DFFF7C6FF0135EDB2013CE4B2002CF6D170BD00BF08B501E00A4B1B780A4B1B7813F0200FF8D100F0D5F8084B1A7842F001021A701A7802F0FE021A7065
:400EC00000F0CEF808BD00BF546500406B6500409465004008B50F22074B1A70FFF7DCFFFFF78CFFFFF790FF0023044A137002F20512137008BD00BF84650040866400407C
:400F000008B5054B1B7823B9FFF7E4FF0122024B1A70FFF759FF08BD6A81FF1F014B1B68D864704708ED00E04001C0B2014B1870704700BF03E400E00822014B1A60704744
:400F400000E100E00822014B1A60704780E100E010B50446FFF7F6FF2046FFF7DFFF0720FFF7E2FFFFF7E8FF10BD00BF054A137843F0010313701032137843F00103137012
:400F8000704700BFA2430040054A137843F0040313701032137843F004031370704700BFA2430040054A137843F0020313701032137843F002031370704700BFA243004022
:400FC00001BE704710B5044605E0084B186800F03BF8A4F50044B4F5004FF6D8034B586800FB04F000F030F810BD00BFD080FF1F70B504460E46074B1D681F2802D9002003
:40100000FFF7DEFF04F01F04103455F8240045F8246070BD08ED00E038B504460D46072902D90020FFF7CCFF1F2C02D90020FFF7C7FF04F01F0000F1604000F564406D012B
:40104000EDB2057038BD00BF0230800803D000BF01380046FCD17047EFF3108072B6704780F31088704700BF014B1868704700BF4081FF1F0E4B70B51E460E4C0025E41A07
:40108000A410A54204D056F8253098470135F8E701F058F8084B094C1E46E41AA4100025A54204D056F8253098470135F8E770BD50210000502100005021000058210000BB
:4010C00010B5431E0A44914204D011F8014B03F8014FF8E710BD03460244934202D003F8011BFAE7704700000EB400B54FF402719CB0ADF814106FF00041049107914FF650
:40110000FF711DAB02900690084853F8042BADF81610006802A9019300F064F8029B00221A701CB05DF804EB03B070474081FF1F2DE9F0478E6882469E420C469146984633
:401140003ED88A8912F4906F3AD02568096902236F1A656905EB450595FBF3F57B1C43449D4238BF1D4653050FD5294600F040FB064698B13A462169FFF7A2FFA38923F464
:40118000906343F08003A38113E02A4600F08EFB064670B92169504600F0DEFA0C23CAF80030A3894FF0FF3043F04003A381BDE8F08726613E44266046466561ED1BA560CA
:4011C000464528BF464649463246206800F0A8FAA36800209B1BA36023681E442660BDE8F08700002DE9F04F9DB003938B8980461C060D4616460DD50B695BB9402100F0BF
:40120000F7FA2860286118B90C23C8F80030CDE040236B610023099320238DF82930DFF89CB130238DF82A3037463C4614F8013B1BB9B7EB060910D003E0252BF9D0274695
:40124000F3E74B46324629464046FFF771FF013000F0A780099B4B4409933B78002B00F0A08000234FF0FF3204930793059206938DF853301A930126052221784E4800F015
:4012800041FA671C049B38B14B4A3C46801A06FA00F018430490EFE7D90644BF20228DF853201A0744BF2B228DF8532022782A2A03D0079A00210A200BE0039A111D126820
:4012C0000391002A10DA524243F00200079204900BE027463B780134303B092B03D800FB02320121F5E701B107923B782E2B1ED17B782A2B0AD1039B02371A1D1B680392DA
:40130000002BB8BF4FF0FF33059310E0002319460593781C0A2407463A780130303A092A03D804FB01210123F5E703B1059103223978224800F0E6F940B14023CBEB00000A
:4013400003FA00F0049B013718430490397806221B487E1C8DF8281000F0D4F988B1194B33B9039B073323F007030833039314E003AB00932A46144B04A94046AFF30080C2
:4013800007E003AB00932A460F4B04A9404600F093F8B0F1FF3F824603D0099B5344099342E7AB895B0601D4099801E04FF0FF301DB0BDE8F08F00BF1021000016210000A1
:4013C0001A21000000000000311100002DE9F04791461F460A698B6806469342B8BF1346C9F8003091F843200C46DDF8208012B10133C9F800302368990642BFD9F80030D8
:401400000233C9F80030256815F0060510D104F1190A07E00123524639463046C04701301AD00135E368D9F800209B1A9D42F1DB94F843302268003318BF012392060FD531
:40144000E118302081F843005A1C94F845102244023382F8431003E04FF0FF30BDE8F08704F1430239463046C0470130F4D02268D9F80050E36802F00602042A08BF5D1BB3
:401480002269A3680CBF25EAE57500259342C4BF9B1AED184FF000091A344D4509D00123224639463046C0470130D5D009F10109F3E70020BDE8F0872DE9F04317460A7E84
:4014C00085B06E2A984606460C460C9B01F1430E00F0AE8011D8632A22D009D8002A00F0BB80582A40F0CA8081F84520834955E0642A1ED0692A1CD0C0E0732A00F0B080CA
:4015000009D86F2A2ED0702A40F0B8800A6842F020020A603EE0752A24D0782A3AD0ADE01A6801F14205111D1960136884F84230A8E021681A6811F0800F02D0111D1960B0
:4015400008E011F0400F02F10401196002D0B2F9003000E01368002B3CDA2D225B4284F8432037E021681A6811F0800F02D0111D196007E011F0400F02F10401196001D00A
:40158000138800E01368227E5C496F2A14BF0A2208221BE078225A4984F845202268186812F0800F00F104051D6003D1550601D5038800E00368D00744BF42F02002226078
:4015C0001BB9226822F0200222601022002084F8430001E049490A226568002DA56008DB206820F0040020602BB9002D7DD175460CE0002B79D07546B3FBF2F002FB103324
:40160000CB5C05F8013D03460028F5D1082A0BD12368DA0708D5236962689A42DEBF302305F8013C05F1FF35C5EB0E0323612EE008681A6810F0800F496903D0101D186036
:40164000136808E010F0400F02F104001860136801D0198000E0196000232361754616E01A68111D1960156800216268284600F049F808B1401B6060636804E004F14205C4
:4016800084F8422001232361002384F84330CDF800803B4603AA21463046FFF797FE013002D14FF0FF3026E023692A4639463046C0470130F5D023689B0710D5002504F125
:4016C000190907E001234A4639463046C0470130E7D00135E368039A9B1A9D42F2DBE068039B9842B8BF184605E00B7804F1420584F842308AE705B0BDE8F0832121000023
:401700003221000010B5C9B202449042034605D01C7801308C42F8D1184610BD002010BD884210B501EB020301D8421E0BE09842FBD28118D21AD34204D013F8014D01F861
:40174000014DF8E710BD994204D011F8014B02F8014FF8E710BD000038B50546002944D051F8043C0C1F002BB8BFE41800F0D4F81E4A1368114613B96360146030E0A342C0
:401780000DD92268A018834201BF18685B681218226063600C6023E0A24203D813465A68002AF9D118681918A1420BD12168014458188242196013D11068526801441960CE
:4017C0005A600DE002D90C232B6009E021686018824201BF106852680918216062605C602846BDE8384000F098B838BD7081FF1F70B5CD1C25F0030508350C2D38BF0C2555
:40180000002D064601DBA94202D90C23336046E000F082F8234B1C681A462146A1B10B685B1B0ED40B2B03D90B60CC18CD501EE08C420BBF63684B681360636018BF0C4674
:4018400015E00C464968E9E7174C23681BB9304600F052F820602946304600F04DF8431C18D0C41C24F00304A0420DD12560304600F053F804F10B00231D20F00700C31A28
:401880000ED05A42E25070BD211A304600F034F80130EBD10C233360304600F03EF8002070BD00BF7081FF1F6C81FF1FF8B5074615460E4621B91146BDE8F840FFF798BF0D
:4018C0001AB9FFF749FF2846F8BD00F027F885420ED929463846FFF78BFF044650B131462A46FFF7EDFB31463846FFF735FF01E03046F8BD2046F8BD38B5064C0023054687
:4019000008462360FFF700F8431C02D1236803B12B6038BDF881FF1F7047704751F8040C0028BEBF091851F8043CC01804387047000000002A2A2057686F20616D20492066
:401940007265676973746572203D20307825303258205B45787065637465643A20307833335D0D0A000000002A2A2A2A2A2A2A2A2A2A2A2A2A2A5265676973746572732051
:4019800056616C7565732A2A2A2A2A2A2A2A2A2A2A2A2A2A0D0A000020436F6E74726F6C207265676973746572203120686173206265656E2073657420746F203D203078D3
:4019C00025303258200D0A0020436F6E74726F6C207265676973746572203520686173206265656E2073657420746F203D20307825303258200D0A0020436F6E74726F6C35
:401A0000207265676973746572206F66204649464F20686173206265656E2073657420746F203D20307825303258200D0A00000020436F6E74726F6C207265676973746514
:401A400072203320686173206265656E2073657420746F203D20307825303258200D0A002A2A2A2A2A2A2A2A2A2A2A2A2A2A2A2A2A2A2A2A2A2A2A2A2A2A2A2A2A2A2A2AA1
:401A80002A2A2A2A2A2A2A2A2A2A2A2A0D0A0000204F76657272756E206F6363757272656421200D0A000000436F6E66696775726174696F6E206F66207468652061636342
:401AC000656C65726F6D657465722066756C6C207363616C652072616E6765200D0A000043686172616374657220202020202020202020202046756C6C207363616C65206B
:401B000072616E6765200D0A000000003120202020202020202020202020202020202020202B2D203267200D0A0000003220202020202020202020202020202020202020D6
:401B4000202B2D203467200D0A0000003320202020202020202020202020202020202020202B2D203867200D0A000000342020202020202020202020202020202020202066
:401B8000202B2D20313667200D0A0000436F6E66696775726174696F6E206F662074686520616363656C65726F6D657465722073616D706C696E67206672657175656E636B
:401BC00079200D0A0000000043686172616374657220202020202020202020202053616D706C696E67204672657175656E6379200D0A000031202020202020202020202053
:401C000020202020202020202031487A200D0A003220202020202020202020202020202020202020203130487A200D0A00000000332020202020202020202020202020203B
:401C400020202020203235487A200D0A000000003420202020202020202020202020202020202020203530487A200D0A000000005468652073656C6563746564206F707455
:401C8000696F6E2077617320616C7265616479206265656E20736574746564200D0A0000546865206368616E676520776173207375636365737366756C200D0A000000002E
:401CC00053746F7265207468652074656D70657261747572652064617461200D0A00000043686172616374657220202020202020202020202054656D70657261747572651C
:401D000020666F726D6174200D0A000063202020202020202020202020202020202020202053746F7265206461746120696E2043656C7369757320666F726D6174200D0A4A
:401D40000000000066202020202020202020202020202020202020202053746F7265206461746120696E2046616872656E6865697420666F726D617420200D0A00000000A1
:401D80002A2A2A2A2A2A2A2A2A2A2A2A2A2A2A2A2A2A2A2A2A2A2A2A2A2A2A2A2A2A2A2A2A2A2A2A2A2A2A2A4D454E55272A2A2A2A2A2A2A2A2A2A2A2A2A2A2A2A2A2A2A19
:401DC0002A2A2A2A2A2A2A2A2A2A2A2A2A2A2A2A2A2A2A2A2A2A2A2A2A2A0D0A000000002D2D2D2D2D2D2D2D2D2D2D2D2D2D2D2D2D2D2D2D2D2D2D2D2D2D2D2D2D2D2D2DE8
:401E00002D2D2D2D2D2D2D2D2D2D2D2D2D2D2D2D2D2D2D2D2D2D2D2D2D2D2D2D2D2D2D2D2D2D2D2D2D2D2D2D2D2D2D2D2D2D2D2D2D2D2D2D2D2D2D2D2D2D0D0A0000000059
:401E4000436F6D6D616E6420207C20526573756C742020202020202020202020202020202020200D0A0000006220202020202020207C205374617274206461746120616347
:401E8000717569736974696F6E2066726F6D2074686520616363656C65726F6D6574657220616E642073746F72616765206F6E2074686520454550524F4D206D656D6F729F
:401EC00079200D0A000000007320202020202020207C2053746F702064617461206163717569736974696F6E2066726F6D2074686520616363656C65726F6D65746572202A
:401F0000616E642073746F72616765206F6E2074686520454550524F4D206D656D6F7279200D0A006620202020202020207C20436F6E66696775726174696F6E206F6620B4
:401F400074686520616363656C65726F6D657465722066756C6C207363616C652072616E6765200D0A0000007020202020202020207C20436F6E66696775726174696F6EE2
:401F8000206F662074686520616363656C65726F6D657465722073616D706C696E67206672657175656E6379200D0A007620202020202020207C2053746172742064617433
:401FC000612076697375616C697A6174696F6E20696E207468652042726964676520436F6E74726F6C2050616E656C200D0A00007520202020202020207C2053746F7020EA
:40200000646174612076697375616C697A6174696F6E20696E207468652042726964676520436F6E74726F6C2050616E656C200D0A0000007420202020202020207C2053E4
:40204000746F7265207468652074656D70657261747572652064617461200D0A000000002A2A2A2A2A2A2A2A2A2A2A2A2A2A2A2A2A2A2A2A2A2A2A2A2A2A2A2A2A2A2A2A46
:402080002A2A2A2A2A2A2A2A2A2A2A2A2A2A2A2A2A2A2A2A2A2A2A2A2A2A2A2A2A2A2A2A2A2A2A2A2A2A2A2A2A2A2A2A2A2A2A2A2A2A2A2A2A2A2A2A2A2A2A0D0A0000005B
:4020C000405100403000F0510040100000000140800600070140000980140140800700400140000A004C0140000200500140200060520040D8070048060080060140E00742
:4021000000488000001401406008004880004300232D302B2000686C4C006566674546470030313233343536373839414243444546003031323334353637383961626364E7
:4021400065660000F8B500BFF8BC08BC9E4670474D00000085090000F8B500BFF8BC08BC9E4670472900000078210000C880FF1F80000000B8000000000000000082FF1FBB
:402180000000E02EC05D00001800000000366E0100000000000000000000000000000000000000000000000000000000000000000E21000000000000000000000000000008
:4021C000000000000000000000000000000000000000000000000000000000000000000000000000000000000000000000000000E080FF1F00000000000000000000000061
:40220000000000000000000000000000000000000000000000000000000000000000000000000000000000000000000000000000000000000000000000000000000000009E
:40224000000000000000000000000000000000000000000000000000000000000000000000000000000000000000000000000000000000000000000000000000000000005E
:40228000000000000000000000000000000000000000000000000000000000000000000000000000000000000000000000000000000000000000000000000000000000001E
:4022C00000000000000000000000000000000000000000000000000000000000000000000000000000000000000000000000000000000000000000000000000000000000DE
:020000040003F7
:0200000480007A
:400000000145004002520040026400400465004001030140040501401306014045070140580801403D090140010B0140010D014027140140571501405916014045170140A7
:400040005118014051190140581A0140541B014005400140084101400B420140084301400645014001460140024701400648014003490140024C0140084D01400650014028
:4000800001510140640101401080870F890F840F860D883889728B408A029340E280E6080010141016231A0128382A072C062E28321C340336203A083E40540958045B049A
:4000C0005C015D105F010090010203100640084109080A480B010E1410181104120215801720181019201E141F802020224E288929102A082B803018320233403A203B09BD
:4001000041094228431049124A084B4852A053015C805F1661016680684869046A406B4073018521860487048A408B108C108F0193409D049E02B504C01FC26FC4C7CA0E27
:40014000CC0FCE07D007D20CD6F0D811E210E40A0045023A0502070D09090B161610180E1C631E042444263929032B1C2D152F0A3230330F340F3640371038203B083E405D
:400180003F4054095604580459045B045F018320841F850C875088028C138E0C9003940C9804994D9B309C08A00FA128A210A351A613A80CA94DAA13AB10AC01AD02AF54A4
:4001C000B00FB103B340B53CB61CB902BA82BB20BF04C065C102C50BC6E0C70CC819C9FFCAFFCBFFCEF0CF44D00CD401D804D904DA04DB04DC22DD22DF01E6C0EA40EB0242
:40020000006404080640071009080A810B040E16104011401228162018401A021D401E1420182101221023082544280829922B012F0A3210380839023DA83E6040084804CA
:4002400049804A105004531059045B525C025D185E406540660280108340840285108D089E02C017C2EFC42FCA3DCC04CE63D004D20CD6FFD890E040E8108602E2208113D1
:400280008201830C89198B069102930D99159B0AB10FB201B710BB02BF40C030C102C9FFCAFFCBFFCDA0CF04D018D280D804D904DA04DB04DC13DD33DF01E040E2C0E440BA
:4002C000E540E6C0E8C0EAC0ECC0EEC000180181058206020A500B0110601280136018501D08200221402280236026022701284029102A40321833403602372039083A220A
:400300003B403C023E503F8040404230431045184680470148014B2550105240530459105B30610862066824690B6A606B40708072027502801082108501870488A08C10F9
:400340008E489210932094409589962097049D909EE49F20A110A740AF10B401B508B704C01FC20DC40FCA0DCCAECEAFD067D20CD801E004E210E40EEE0201010501080612
:40038000210126012A032C0631013202340136043E104020410345D046204701483A49FF4AFF4BFF4DAF4E0F4F04501854055604580459045A045B045C335D335F01604052
:4003C00062C06440654066C068C06AC06CC06EC08002810D820D8411850D8622884289428A088B988C8D8D318F42900D9280946295029614970D9840990D9C8D9DE0A10D04
:40040000A280A48DA88DA952ABA4AD0DB00FB30FB480B670B7F0B980BA82BB08BE10D440D604D804D904DB04DC10DF0100800102031404400608070208480A400B0810089C
:40044000110412801615180119021B101D041E081F802244278029902B402F80325439893A203C023E0846144F015401551056195E085F81608062A06320660288809104DC
:40048000925093089580970498489B109D049EC29F22A048A2A0A508A901B010B648C04FC20FC4EECA8DCC0ECECFD060D6D0D88FE228EA04EE10001C0202080C0A110F0191
:4004C000120314141810200922102410260C2F01301F37013F404001470449FF4A074BFF4C404D204EF04F05500854185604580459045A045B045C025D225F01604061A82C
:4005000062406320811082048409851889088C098D4493049402953C97C29A049BE39C089DC09E01A1E7A318A5FFA808A980AA01AD1CAFE1B008B138B202B31FB404B601F1
:40054000B7C0B880BB08BE15D602D713D804D904DB04DC22DD20DF010044010802010380051208400A020B280E600F0812081502170819251B801E402208234227012804A1
:4005800029882A012F02326A382839403B013F40464047814D804E014F025604570459015F0265206640678068286994701471087201730587409040910292029320940443
:4005C0009540968197049B089C409D16A210A410A518A628A701A904AF12B240B302B611B708C05DC277C432CA1FCC0FCE1FD010D681D8B0E810EC80EE1001020325050EB2
:40060000090E0D081001120614041504160117222310240728072C022E01300731013306350837303A203F404046410242054401450E47C0482149FF4AFF4BFF4C624DA04D
:400640004EF04F41500C580459045A045C225D025F016640670269106A306B106D106E106F12830288088A138F019020910495069B019C169D019E09A101A216A408A5067D
:40068000A615A901AA02AD01AE09B106B220B407B501B61BB902BAA0BE04BF11D440D804D904DB04DC02DD10DF01051009080A800E4210A811401301150216061708180470
:4006C00019011A801D141E021F102029210822222510278029012E802F5830043108350236813718380239943E023F8240454510460848044B485302640866086701808085
:40070000810482808310840887088A808B408C018D408F40904091969240934094049540968097089A049B089C049D129F80A028A301A410A622A702B510C040C29CC4F7AA
:40074000CAF1CCF2CE9FD00DD20CD870E4E1EC10EE023010320436103708CCF06001632096089C109F08A610D640D840510886108A04940196089C109F08A610A710D4200B
:40078000E61085088F1094019C109F08A508A710E24002205C028A20C008D601E2049C02B402E808870888109C109F08B401E2107C808C80DE200880C202128070048004B9
:4007C0008E80AC80C408DC01E20200070A030C05100F1A0B1C0600FF0884000040000000609A00000702380001FC000384000000043880C0560209980A981002849A0000D6
:400800000000000084130064802104D80498000200E07F0F800000130800000A000010006302400005BCFDE02FFFFFFF2200F008040000000000022C0404040400000001B3
:400840000000C00040011011C00100114001400100000000000000000000000000000000849A00008098040201FC0003843800C0040080005698090200020098609A000039
:4008800007133864840000000A2110D80402000080E07F0F000000130800000A000001002305400006BEDC0F1FFFFFFF2200F008040000000000022C04040404111100011F
:4008C0000000C00040011011C0010011400140010000000000000000000000000000000000606000600000008000508C8C008C00000000008000408B8B0000000000000018
:40090000900001949400800000000000100000000000000000000000000000000000000000000000000000000000000000000000000000000000000000000000000000006E
:400940000000000000000000000000000000000000000000000000000000000000000000000000000000000000000000000000000000000000000000000000000000000077
:400980000000000000000000000000000000000000000000000000000000000000000000000000000000000000000000000000000000000000000000000000000000000037
:4009C00000000000000000000000000000000000000000000000000000000000000000000000000000000000000000000000000000000000000000000000000000000000F7
:400A000000000000000000000000000000000000000000000000000000000000000000000000000000000000000000000000000000000000000000000000000000000000B6
:0200000490006A
:0400000000004005B7
:0200000490105A
:04000000BC90ACAF55
:0200000490303A
:020000000E6090
:0200000490402A
:4000000000000000000000000000000000000000000000000000000000000000000000000000000000000000000000000000000000000000000000000000000000000000C0
:400040000000000000000000000000000000000000000000000000000000000000000000000000000000000000000000000000000000000000000000000000000000000080
:400080000000000000000000000000000000000000000000000000000000000000000000000000000000000000000000000000000000000000000000000000000000000040
:4000C0000000000000000000000000000000000000000000000000000000000000000000000000000000000000000000000000000000000000000000000000000000000000
:0200000490501A
:0C00000000012E16106900012E241EC9FC
:00000001FF