:400000000080002011000000B90A0000B90A000008B5044B1A6803F53F5302331A6000F06BFD00BFFA46004010B5054C237833B9044B13B10448AFF300800123237010BD89
:400040004881FF1F0000000050240000084B10B51BB108490848AFF300800848036803B910BD074B002BFBD0BDE81040184700BF000000004C81FF1F50240000C880FF1F1A
:400080000000000038B562B600F034FF00F054FE01F018F801F096FA414801F03BF8414801F0B6FB01F0A2FA01F050FD0A2001F06BF80F2000F0A4FA3B4C02463B492046BD
:4000C00001F0A2FD204600F045FF394800F042FF1721202000F07CFA202000F091FA02463449204601F090FD204600F033FF6021242000F06DFA242000F082FA02462E49CF
:40010000204601F081FD204600F024FF40212E2000F05EFA2E2000F073FA02462749204601F072FD204600F015FF0221222000F04FFA222000F064FA02462149204601F0B0
:4001400063FD204600F006FF1E4800F003FF00F0C7FA2F2000F054FA10F0400F0BD01A4800F0F8FE00212E2000F032FA40212E2000F02EFAEDE72C2000F042FA04462D2087
:4001800000F03EFA0CB90028E3D0074D034622460E49284601F038FD284600F0DBFED8E76D020000D10100009081FF1F5424000088240000B8240000E824000018250000D8
:4001C0005025000080250000B0250000C825000008B501F0ABFA1E4B1B78012B37D101F075FA1C4B1860002801DA00221A60194B1B68B3F5803F03DB4FF6FF72154B1A6006
:40020000144B18680212144BDA71187201F04CFA124B1860A0F5FA70114B83FB0023C017C0EBA3000F4B1860094B5B78012B0BD100EBC00003F1663383FB0023C017C0EB0E
:4002400063032033074A13600122074B1A7008BD6481FF1FF881FF1F8481FF1F0082FF1F67666666FC81FF1FF481FF1F08B500F04FFEAC4B18703138452800F29D81DFE8F3
:4002800010F08900BB00ED001F019B019B019B019B019B019B019B019B019B019B0146009B019B01490094019B019B0157009B019B019B019B019B019B019B019B019B016E
:4002C00073009B019B0150007F017B0171019B019B019B019B019B019B019B019B019B019B019B01490094019B019B0157009B019B019B019B019B019B019B019B019B01F8
:4003000073009B019B0150007F017B01710100F0E7F908BDFF2001F0C7FB802001F0CAFB08BDFF2001F0C0FB002001F0C3FB08BD7D4800F00FFE7D4800F00CFE7C4800F03E
:4003400009FE7C4800F006FE7B4800F003FE7B4800F000FE7A4B01229A701B78934240F02B81774B5A7008BD764800F0F3FD764800F0F0FD754800F0EDFD754800F0EAFD6E
:40038000744800F0E7FD744800F0E4FD01226C4BDA7008BD6A4B9B78012B13D1232000F02FF910F0800F03D06C4800F0D3FD06E08021232000F00CF9694800F0CBFD0022E4
:4003C0005F4B9A705E4BDB78012B40F0F580202000F016F910F0170F03D0604800F0BAFD06E01721202000F0F3F85D4800F0B2FD0022534BDA7008BD514B9B78012B13D1EA
:40040000232000F0FDF810F0900F03D0534800F0A1FD06E09021232000F0DAF8504800F099FD0022464B9A70454BDB78012B40F0C380202000F0E4F810F0270F03D047485C
:4004400000F088FD06E02721202000F0C1F8444800F080FD00223A4BDA7008BD384B9B78012B13D1232000F0CBF810F0A00F03D03A4800F06FFD06E0A021232000F0A8F8CB
:40048000374800F067FD00222D4B9A702C4BDB78012B40F09180202000F0B2F810F0370F03D02E4800F056FD06E03721202000F08FF82B4800F04EFD0022214BDA7008BDA2
:4004C0001F4B9B78012B13D1232000F099F810F0B00F03D0214800F03DFD06E0B021232000F076F81E4800F035FD0022144B9A70134BDB78012B5FD1202000F081F810F065
:40050000470F03D0154800F025FD06E04721202000F05EF8124800F01DFD0022084BDA7008BD00BF0482FF1FE025000018260000442600006426000084260000A426000059
:400540006481FF1FC4260000002700002C270000482700006827000088270000A8270000D8270000FF2001F09FFA002001F0A2FA012001F07FFA08BD002001F07BFA08BDA8
:400580000E4B1B780BB901F015F90D4800F0E2FC0C4800F0DFFC0C4800F0DCFC0B4800F0D9FC0122054B1A7008BD044B1B78012B02D10022014B5A7008BD00BF6481FF1FB4
:4005C000F827000018280000442800007C28000030B583B08DF804008DF80510002402AD05F8054D012000F0C7FC23462A46022101A800F019F8204600F0BEFC03B030BD05
:4006000000B583B060F07F008DF8040002AA002302F8053D0123194601A800F005F89DF8030003B05DF804FB2DE9F04383B006460C4617469846002000F09EFC64B200257D
:4006400011E02146082CA8BF0821C9B206EBC50000F0F6FC00F0B6FC10F0010FFAD0083C64B201356DB2002CEBDC00F0F9FC00F0C7FC0026009601964FFA88F820E0C14672
:40068000B8F1080FA8BF4FF008095FFA89F1684600F0D6FC00F096FC10F0010FFAD0002406E004EBC60500F0A5FC78550134E4B24C45F6DBA8F108084FFA88F8013676B204
:4006C000B8F1000FDBDC012000F056FC00F0C8FC00F096FC00F0A2FC03B0BDE8F08300BF38B5214D284600F035FC204800F032FC1F4C204600F02EFC1E4800F02BFC20469C
:4007000000F028FC1C4800F025FC204600F022FC1A4800F01FFC204600F01CFC184800F019FC204600F016FC164800F013FC204600F010FC144800F00DFC204600F00AFCA4
:40074000124800F007FC204600F004FC104800F001FC204600F0FEFB284600F0FBFB0D4800F0F8FB38BD00BFDC250000B82800001829000078290000A0290000002A00004C
:400780005C2A0000A02A0000E42A0000282B00006C2B0000982B0000FEE700BFF0B40022174611E050F82760F3B226F0FF0608E001EB420511F812406D78A5550132013B23
:4007C000DBB2002BF4D10137212FEBD9F0BC70470B4B1B78DBB203F007010A4A11701B09013213701023A2F23272137002F6C3121370583213704422034B1A70704700BFAE
:40080000CF0100496E5800407658004008B50A46002101F0F0F908BD08B501F0E1F908BD38B50024394B1C80502202331A700B2202331A80182336490B7002310A80354AA2
:40084000137033210232118002321370EF21023211800232137042F6C6522F4B1A80192502331D7004222D492D48FFF7D5FF02222C4B1A7008224FF040231A70032103F5C3
:4008800000731970284B1B78DBB228490B70284B1A8041F25122023B1A800CE0254B1B7803F0010343EA440404F003044FF4F07001F05AF9013D0DB1032CEFD115B903201A
:4008C000FFF76AFF1C4B4FF480721A8007221A7000221A490A704820023108701A700222033B1A7004220A331A70154A137843F03F031370013A137843F001031370013A9E
:40090000137843F08003137038BD00BF80400040864000408A400040944000400C090048004100400043004008010049A146004022420040254200400440004006400040EC
:40094000A2430040012807D8044B53F820201844017A13780B431370704700BFF82B0000012808D8044B53F820201844017A137823EA010313707047F82B000038B572B6DC
:40098000394A137843F00403137000240BE0374863001A19510001440A46098AD068FFF735FF0134E4B20A2CF1D900240CE02F48A20011194B000344B3F85820596D186D4F
:4009C000FFF72AFF0134E4B2032CF0D928494FF09040FFF7E3FE0A24264B1C70264A137843F0020313701032137843F002031370224D2B7843F040032B70A2F58632513A58
:400A0000137843F01003137008221D491D48FFF703FF22461C491D48FFF7FEFE22461C491C48FFF7F9FE22461B491C48FFF7F4FE22461B491B48FFF7EFFE1B4A137843F0E6
:400A400008031370194C61232370FFF7E9FE812323700122164B1A70FFF7BAFE0E2229461448FFF7D9FE38BDE8460040F82B0000880000488358004003500140A0430040AC
:400A8000D408004802510040DC080048C0510040E808004810510040F4080048205100400009004830510040224300400048004004000840B043004008B501F065F8036800
:400AC0000C2B00D1FEE7FEE708B5094B1A681044084BC31A802B02DC054B186005E001F053F80C2303604FF0FF32104608BD00BFCC80FF1F3082FF1F08B5104E104D16E017
:400B000029686B68AC68002204E051F8040B43F8040B0432A242F8D1E868002203E0002143F8041B04328242F9D11035013E002EE6D101F02FF8FFF7A5FAFEE70100000022
:400B4000CC2C000008B5104A104B1A60104A136843F40073136000230AE0032B03D80D4A52F8231000E00C490C4A42F8231001332F2BF2D90A4B1A780A4B1A70074A0A4BF8
:400B80001A60FFF7FBFE08BD0004FA050CED00E014ED00E000000000B90A00000080FF1FBC760040C080FF1F08ED00E00222014B1A60704700E100E00122014B1A60704742
:400BC00000E100E008B500F0D7FF0C4A137843F020031370013A137843F01003137002F20112137843F01003137000F0C9FF00F09FFAFFF7DBFFFFF7DFFF08BD9B64004024
:400C00000222014B1A60704780E100E00122014B1A60704780E100E010B5FFF7F1FF064B1C78064A137803F009031C4300231370FFF7BCFF204610BD6A6400400882FF1FE8
:400C400010B5FFF7E3FF064B1B78064A147804F040041C4300231370FFF7AEFF204610BD6B6500401982FF1F08B501E00A4B1B780A4B1B7813F0200FF8D100F07DFF084B13
:400C80001A7842F001021A701A7802F0FE021A7000F076FF08BD00BF5B6400406B6500409B64004010B50F22184B1A70184C022323600721012000F09BFA1649012000F071
:400CC00083FA012323600721002000F091FA1249002000F079FAFFF7C7FF00240F4B1C700F4B1C700F4B1C700F4B1C700F4B1C700F4B1C70FFF790FFFFF7A2FF0D4B1C70EB
:400D0000202203F201131A7010BD00BF8B64004080E100E0550D0000F50D00001682FF1F1782FF1F1582FF1F1482FF1F1A82FF1F1882FF1F8A64004008B5054B1B7823B98C
:400D4000FFF7B0FF0122024B1A70FFF73BFF08BD6881FF1F28E01F4B19781F4A137803F009030B431370137813F0040F24D01B4B1B7813F0FF0F0CD1194A13780133DBB2E6
:400D800013701378DBB2072B06D90022144B1A7002E00022114B1A70114B1B78DBB2114AD35CDBB2104A13700D4B1A78D2B20F4B1B78DBB29A42CED1094B1A78D2B20B4BFF
:400DC0001B78DBB29A4204D1094A137803F0FB03137070476A6400400882FF1F1482FF1F1A82FF1F0C82FF1F4B6400401882FF1F8A640040204B1A7820490B7803F0400355
:400E000013430B7032E01E4B1A78D2B21D490B780133DBB20B700B78DBB2072B02D90021184B1970174B1978C9B2174B1B78DBB299420ED114490B780133DBB20B700B78B8
:400E4000DBB2072B02D900210F4B197001210F4B19700C4B1B78DBB20D49CA54064B1A7806490B7803F0400313430B70034B1B7813F0200FC7D170476B6500401982FF1FFD
:400E80005B6400401582FF1F1782FF1F1682FF1F1C82FF1F7222084B1A70202202331A700622A3F261131A70472210331A70002250331A70704700BF8865004010B500F06B
:400EC0005BFE04460A4A137843F0200313700232137843F010031370A2F20112137843F01003137000F032F9204600F049FE10BD9865004008B5054B1B7823B9FFF7CAFF17
:400F00000122024B1A70FFF7D9FF08BD6981FF1F084B1B78DBB213F0200F06D0064A1078C0B213F01E0F02D17047002070470020704700BF6A6500404B650040034B1B7850
:400F400013F0040FFAD1024B18707047696400404965004038B5074B1B782BB938BDFFF7EDFF0134A4B201E005460024285D0028F5D138BD6981FF1F044A137803F07F03E3
:400F8000C001C0B218431070704700BF1051004008B500F0F1FD0A4A137843F020031370FF32137843F0100313700132137843F01003137000F0E4FD00F0D6F808BD00BF9A
:400FC00097640040014B1878704700BF66650040014B1878704700BF67650040034B1B7813F0040FFAD0024B187070476665004046650040014B1878704700BF566500406B
:4010000001E0044B1B78044B1B7813F0200FF8D1704700BF566500406765004008B500F0ABFD064B1A7842F001021A701A7802F0FE021A7000F0A4FD08BD00BF966500403E
:4010400070B506460C46002506E0705DFFF7C6FF0135EDB2013CE4B2002CF6D170BD00BF08B501E00A4B1B780A4B1B7813F0200FF8D100F081FD084B1A7842F001021A7018
:401080001A7802F0FE021A7000F07AFD08BD00BF56650040676500409665004008B50F22064B1A70FFF7DCFFFFF78CFFFFF790FF0023034A13700132137008BD87640040BC
:4010C0008665004008B5054B1B7823B9FFF7E6FF0122024B1A70FFF75BFF08BD6B81FF1F014B1B689864704708ED00E04001C0B2014B1870704700BF02E400E00422014BC9
:401100001A60704700E100E00422014B1A60704780E100E010B50446FFF7F6FF2046FFF7DFFF0720FFF7E2FFFFF7E8FF10BD00BF054A137843F0020313701032137843F0A9
:4011400002031370704700BFA2430040054A137843F0080313701032137843F008031370704700BFA2430040054A137843F0040313701032137843F004031370704700BFF1
:40118000A243004001BE704710B5044605E0084B186800F0E9FCA4F50044B4F5004FF6D8034B586800FB04F000F0DEFC10BD00BFD080FF1F08B5034B1B7A00FB03F000F016
:4011C000D3FC08BDD080FF1F70B504460E46074B1D681F2802D90020FFF7D4FF04F01F04103455F8240045F8246070BD08ED00E038B504460D46072902D90020FFF7C2FF4D
:401200001F2C02D90020FFF7BDFF04F01F0000F1604000F564406D01EDB2057038BD00BF10B59DF80840012C51D1013809282ED8DFE800F0052D2D052D2D0F192D230F2BBB
:4012400003D92548007840B222E02448007840B21EE00F2B03D92248007840B218E02148007840B214E00F2B03D91F48007840B20EE01E48007840B20AE00F2B03D91C4833
:40128000007840B204E01B48007840B200E0002001EB401101FB02F1C90B8AB20D2B0BD8C3F10E0289B211418AB2611E124800EB810101338B7005E0631E0F4901EB83038A
:4012C0000F219970013C0C4B23F8242010BD0020FFF758FF10BD00BF180100491C010049190100491D0100491A0100491E0100491B0100491F0100496C81FF1FF8B50746CB
:4013000000F03AFC06460D4D2B7843F003032B700B4C237843F0030323700A4B1F700320FFF748FF2B7803F0FC032B70237803F0FC032370304600F023FCF8BDF846004060
:40134000F9460040925800400022324B1A7101285FD170B53422304B1A70042202331A70062201331A70002401331C7001331C703F2201331A7002331C7001331C7001337E
:401380001C7001250A331D70502203F527631A700A2201331A702C2201331A7001331C70442203331A70482201331A7001331D70022602331E70122201331A702822013313
:4013C0001A70EB2201331A705220FFF797FF5822124B1A7001331C70052205331A7001331E7001331C7001331C70204600F02EFA43F233320A4B1A602946284600F04AFA56
:401400002946082000F0CAFA06491D20FFF7DCFE70BD70476C81FF1F004E0040945800402482FF1FF5160000F0B583B0284D01272F70284E00247471102000F019FA102097
:4014400000F09AFA07211D20FFF7D2FE0422224B1A7001331C7007331C70204A137843F0180313701E4B1C7003F2F5231C7001331C700A22A3F209331A7001331C7002338A
:401480001C705B2205331A705E2201331A7004331C701422A3F68C231A70009710234FF4004248F6F0510220FFF7BAFE2B78013B06EB83039A780B4B1A702B78013B36F865
:4014C0002320094B1A802878FFF73EFF03B0F0BDE080FF1F6C81FF1F96580040075B0040935800400E4E00400C4E004070B500F043FB06462A4B1B782A4B1A7842F00102EB
:401500001A701A7842F010021A7010331A7842F001021A701A7842F010021A70224D2B7843F002032B70214C237843F0020323701F4A137843F0030313700320FFF73AFE14
:401540002B7803F0FD032B70237803F0FD032370184A137843F0060313707A22164B1A70164A137843F0010313701032137843F0010313700F3A137843F0010313701032EA
:40158000137843F0010313704FF000530C4A1360A2F5C0721360304600F0F2FA70BD00BFE080FF1FAA430040F8460040F9460040915800407758004082580040A1430040F3
:4015C00080E200E008B5084B9B794BB9064BDB7913F0FF0F01D1FFF727FF0122024B9A71FFF784FF08BD00BF6C81FF1F024A137843F0010313707047004E0040024A1378AD
:4016000003F0FE0313707047004E0040094B1B7913F0FF0F03D0074B5B79DBB203E0064B1B7803F00103012B01D00028EED01846704700BF6C81FF1F014E0040154B1B786D
:4016400003F00303012B07D8134B1888023B1B889BB243EA004013E0022B0AD10E4B1888023B1B7843EA00430C4A107843EA002006E00B4B188883B2074A108843EA004008
:40168000084B1B7913F0FF0F02D00022054B5A71704700BF144E0040124E0040114E0040104E00406C81FF1F064B9B68C01A4FF47A7303FB00F0044B1B6890FBF3F000B2E5
:4016C000704700BF6C81FF1F2482FF1F10B5084A137843F004031370FFF788FF0020FFF795FFFFF7ABFF0446FFF788FF204610BD014E0040704700BF084A137843F001036C
:4017000013701032137843F00103137002F64D32137843F001031370704700BFA3430040014B1870704700BF034F0040014B1878704700BF034F0040014B1880704700BF2D
:40174000044F0040014B1880704700BF064F004008B5154A137803F0010313700232137803F0FC031370114B1A7802F0CF021A701A7842F030021A701A7802F0F0021A70D7
:401780001A7842F00F021A70094A137843F0010313706320FFF7D0FF6320FFF7D3FF0820FFF7BEFF08BD00BF004F00400B4F0040014F004008B5054B1B7823B9FFF7C8FF4E
:4017C0000122024B1A70FFF797FF08BD7881FF1F024B1B68C3F88400704700BF08ED00E04001C0B2014B1870704700BF11E400E04FF40032014B1A60704700BF00E100E0E9
:401800004FF40032014B1A60704700BF80E100E010B50446FFF7F4FF2046FFF7D9FF0720FFF7DEFFFFF7E4FF10BD00BF10B5002404E02046FFF794F80134E4B2012CF8D9AD
:40184000FF22014B1A7010BDE180FF1F10B50446FFF7ECFF2046FFF775F8014B1C7010BDE180FF1F014B188880B2704780400040034B1A7800F0F80010431870704700BF5A
:4018800082400040024B187800F00700704700BF8240004070B505460E46FFF7F3FF0446FFF7E0FFA84256D02B4B1B7803F0010294B900B185B938B9284B1D80284A1378C6
:4018C00003F0BF03137070BD254A137843F040031370224B1D8070BD22B3002321490B7001240F310C7004310B700C390B7803F07F030B701A4B1B7813F0080F00D08DB90B
:40190000194B18800721013B1970164B1B7813F0010FFAD110490B7803F0FE030B700021104B19700C4B1B7813F0010F0DD00E4B1D800EB1032200E001220A4B1A70094BB2
:401940001B7813F0010FFAD170BD044B1D8002490B7813430B7070BDA243004080400040824000400140004002400040014B188880B2704700410040034B1A7800F0F800C9
:4019800010431870704700BF02410040024B187800F00700704700BF0241004070B505460E46FFF7F3FF0446FFF7E0FFA84256D02B4B1B7803F0010294B900B185B938B97F
:4019C000284B1D80284A137803F0BF03137070BD254A137843F040031370224B1D8070BD22B3002321490B70012413310C7004390B7008390B7803F07F030B701A4B1B7825
:401A000013F0080F00D08DB9194B18800721013B1970164B1B7813F0010FFAD110490B7803F0FE030B700021104B19700C4B1B7813F0010F0DD00E4B1D800EB1032200E0D7
:401A400001220A4B1A70094B1B7813F0010FFAD170BD044B1D8002490B7813430B7070BDA143004000410040024100400140004002400040044A137803F0FE0300F00100D1
:401A800018431070704700BF30510040024A137843F080031370704778640040014B1870704700BF07650040014B1870704700BF47650040014B1870704700BF27650040EF
:401AC000014B1870704700BF88640040014B1878704700BF68640040014B1878704700BF5765004008B501E0FFF7F6FFFFF7EEFF10F0100FF8D108BD08B5124A137803F014
:401B0000C00343F00903137002F21F12137843F001031370FF20FFF7C1FFFF20FFF7C4FF0020FFF7C7FF0020FFF7CAFF00F024F8054A137843F01003137000F021F8FFF7A0
:401B4000D1FF08BD786400409864004008B5054B1B7823B9FFF7D0FF0122024B1A70FFF795FF08BD7981FF1F0230800803D000BF01380046FCD17047EFF3108072B6704736
:401B800080F31088704700BF014B1868704700BF4481FF1F0E4B70B51E460E4C0025E41AA410A54204D056F8253098470135F8E701F07AF8084B094C1E46E41AA4100025D4
:401BC000A54204D056F8253098470135F8E770BDB42C0000B42C0000B42C0000BC2C000010B5431E0A44914204D011F8014B03F8014FF8E710BD03460244934202D003F846
:401C0000011BFAE7704700000EB400B54FF402719CB0ADF814106FF00041049107914FF6FF711DAB02900690084853F8042BADF81610006802A9019300F064F8029B0022F5
:401C40001A701CB05DF804EB03B070474481FF1F2DE9F0478E6882469E420C46914698463ED88A8912F4906F3AD02568096902236F1A656905EB450595FBF3F57B1C434408
:401C80009D4238BF1D4653050FD5294600F040FB064698B13A462169FFF7A2FFA38923F4906343F08003A38113E02A4600F08EFB064670B92169504600F0DEFA0C23CAF8A5
:401CC0000030A3894FF0FF3043F04003A381BDE8F08726613E44266046466561ED1BA560464528BF464649463246206800F0A8FAA36800209B1BA36023681E442660BDE85B
:401D0000F08700002DE9F04F9DB003938B8980461C060D4616460DD50B695BB9402100F0F7FA2860286118B90C23C8F80030CDE040236B610023099320238DF82930DFF809
:401D40009CB130238DF82A3037463C4614F8013B1BB9B7EB060910D003E0252BF9D02746F3E74B46324629464046FFF771FF013000F0A780099B4B4409933B78002B00F0AC
:401D8000A08000234FF0FF3204930793059206938DF853301A930126052221784E4800F041FA671C049B38B14B4A3C46801A06FA00F018430490EFE7D90644BF20228DF898
:401DC00053201A0744BF2B228DF8532022782A2A03D0079A00210A200BE0039A111D12680391002A10DA524243F00200079204900BE027463B780134303B092B03D800FBD7
:401E000002320121F5E701B107923B782E2B1ED17B782A2B0AD1039B02371A1D1B680392002BB8BF4FF0FF33059310E0002319460593781C0A2407463A780130303A092A9D
:401E400003D804FB01210123F5E703B1059103223978224800F0E6F940B14023CBEB000003FA00F0049B013718430490397806221B487E1C8DF8281000F0D4F988B1194B63
:401E800033B9039B073323F007030833039314E003AB00932A46144B04A94046AFF3008007E003AB00932A460F4B04A9404600F093F8B0F1FF3F824603D0099B5344099326
:401EC00042E7AB895B0601D4099801E04FF0FF301DB0BDE8F08F00BF722C0000782C00007C2C000000000000511C00002DE9F04791461F460A698B6806469342B8BF134678
:401F0000C9F8003091F843200C46DDF8208012B10133C9F800302368990642BFD9F800300233C9F80030256815F0060510D104F1190A07E00123524639463046C04701305D
:401F40001AD00135E368D9F800209B1A9D42F1DB94F843302268003318BF012392060FD5E118302081F843005A1C94F845102244023382F8431003E04FF0FF30BDE8F08741
:401F800004F1430239463046C0470130F4D02268D9F80050E36802F00602042A08BF5D1B2269A3680CBF25EAE57500259342C4BF9B1AED184FF000091A344D4509D0012373
:401FC000224639463046C0470130D5D009F10109F3E70020BDE8F0872DE9F04317460A7E85B06E2A984606460C460C9B01F1430E00F0AE8011D8632A22D009D8002A00F0AB
:40200000BB80582A40F0CA8081F84520834955E0642A1ED0692A1CD0C0E0732A00F0B08009D86F2A2ED0702A40F0B8800A6842F020020A603EE0752A24D0782A3AD0ADE09E
:402040001A6801F14205111D1960136884F84230A8E021681A6811F0800F02D0111D196008E011F0400F02F10401196002D0B2F9003000E01368002B3CDA2D225B4284F89F
:40208000432037E021681A6811F0800F02D0111D196007E011F0400F02F10401196001D0138800E01368227E5C496F2A14BF0A2208221BE078225A4984F8452022681868F9
:4020C00012F0800F00F104051D6003D1550601D5038800E00368D00744BF42F0200222601BB9226822F0200222601022002084F8430001E049490A226568002DA56008DBA7
:40210000206820F0040020602BB9002D7DD175460CE0002B79D07546B3FBF2F002FB1033CB5C05F8013D03460028F5D1082A0BD12368DA0708D5236962689A42DEBF30236C
:4021400005F8013C05F1FF35C5EB0E0323612EE008681A6810F0800F496903D0101D1860136808E010F0400F02F104001860136801D0198000E0196000232361754616E046
:402180001A68111D1960156800216268284600F049F808B1401B6060636804E004F1420584F8422001232361002384F84330CDF800803B4603AA21463046FFF797FE01308C
:4021C00002D14FF0FF3026E023692A4639463046C0470130F5D023689B0710D5002504F1190907E001234A4639463046C0470130E7D00135E368039A9B1A9D42F2DBE06816
:40220000039B9842B8BF184605E00B7804F1420584F842308AE705B0BDE8F083832C0000942C000010B5C9B202449042034605D01C7801308C42F8D1184610BD002010BD28
:40224000884210B501EB020301D8421E0BE09842FBD28118D21AD34204D013F8014D01F8014DF8E710BD994204D011F8014B02F8014FF8E710BD000038B50546002944D0EA
:4022800051F8043C0C1F002BB8BFE41800F0D4F81E4A1368114613B96360146030E0A3420DD92268A018834201BF18685B681218226063600C6023E0A24203D813465A6836
:4022C000002AF9D118681918A1420BD12168014458188242196013D110685268014419605A600DE002D90C232B6009E021686018824201BF106852680918216062605C602F
:402300002846BDE8384000F098B838BD8081FF1F70B5CD1C25F0030508350C2D38BF0C25002D064601DBA94202D90C23336046E000F082F8234B1C681A462146A1B10B680A
:402340005B1B0ED40B2B03D90B60CC18CD501EE08C420BBF63684B681360636018BF0C4615E00C464968E9E7174C23681BB9304600F052F820602946304600F04DF8431CE1
:4023800018D0C41C24F00304A0420DD12560304600F053F804F10B00231D20F00700C31A0ED05A42E25070BD211A304600F034F80130EBD10C233360304600F03EF80020FF
:4023C00070BD00BF8081FF1F7C81FF1FF8B5074615460E4621B91146BDE8F840FFF798BF1AB9FFF749FF2846F8BD00F027F885420ED929463846FFF78BFF044650B1314693
:402400002A46FFF7EDFB31463846FFF735FF01E03046F8BD2046F8BD38B5064C0023054608462360FEF750FB431C02D1236803B12B6038BD2882FF1F7047704751F8040CCA
:402440000028BEBF091851F8043CC01804387047000000002A2A2057686F20616D2049207265676973746572203D20307825303258205B45787065637465643A20307833DE
:40248000335D0D0A000000002A2A2A2A2A2A2A2A2A2A2A2A2A2A5265676973746572732056616C7565732A2A2A2A2A2A2A2A2A2A2A2A2A2A0D0A000020436F6E74726F6C7D
:4024C000207265676973746572203120686173206265656E2073657420746F203D20307825303258200D0A0020436F6E74726F6C20726567697374657220352068617320EF
:402500006265656E2073657420746F203D20307825303258200D0A0020436F6E74726F6C207265676973746572206F66204649464F20686173206265656E20736574207482
:402540006F203D20307825303258200D0A00000020436F6E74726F6C207265676973746572203320686173206265656E2073657420746F203D20307825303258200D0A0018
:402580002A2A2A2A2A2A2A2A2A2A2A2A2A2A2A2A2A2A2A2A2A2A2A2A2A2A2A2A2A2A2A2A2A2A2A2A2A2A2A2A2A2A2A2A0D0A0000204F76657272756E206F636375727265A8
:4025C0006421200D0A00000020646174612030782530325820307825303258200D0A0000436F6E66696775726174696F6E206F662074686520616363656C65726F6D65748E
:4026000065722066756C6C207363616C652072616E6765200D0A000043686172616374657220202020202020202020202046756C6C207363616C652072616E6765200D0A38
:40264000000000003120202020202020202020202020202020202020202B2D203267200D0A0000003220202020202020202020202020202020202020202B2D203467200D6F
:402680000A0000003320202020202020202020202020202020202020202B2D203867200D0A0000003420202020202020202020202020202020202020202B2D2031366720F5
:4026C0000D0A0000436F6E66696775726174696F6E206F662074686520616363656C65726F6D657465722073616D706C696E67206672657175656E6379200D0A00000000F6
:4027000043686172616374657220202020202020202020202053616D706C696E67204672657175656E6379200D0A00003120202020202020202020202020202020202020B7
:402740002031487A200D0A003220202020202020202020202020202020202020203130487A200D0A00000000332020202020202020202020202020202020202020323548A1
:402780007A200D0A000000003420202020202020202020202020202020202020203530487A200D0A000000005468652073656C6563746564206F7074696F6E207761732088
:4027C000616C7265616479206265656E20736574746564200D0A0000546865206368616E676520776173207375636365737366756C200D0A0000000053746F7265207468AB
:40280000652074656D70657261747572652064617461200D0A00000043686172616374657220202020202020202020202054656D706572617475726520666F726D61742010
:402840000D0A000063202020202020202020202020202020202020202053746F7265206461746120696E2043656C7369757320666F726D6174200D0A000000006620202002
:40288000202020202020202020202020202020202053746F7265206461746120696E2046616872656E6865697420666F726D617420200D0A000000002A2A2A2A2A2A2A2ACC
:4028C0002A2A2A2A2A2A2A2A2A2A2A2A2A2A2A2A2A2A2A2A2A2A2A2A2A2A2A2A2A2A2A204D454E5527202A2A2A2A2A2A2A2A2A2A2A2A2A2A2A2A2A2A2A2A2A2A2A2A2A2AE2
:402900002A2A2A2A2A2A2A2A2A2A2A2A2A2A2A2A2A2A0D0A000000002D2D2D2D2D2D2D2D2D2D2D2D2D2D2D2D2D2D2D2D2D2D2D2D2D2D2D2D2D2D2D2D2D2D2D2D2D2D2D2D84
:402940002D2D2D2D2D2D2D2D2D2D2D2D2D2D2D2D2D2D2D2D2D2D2D2D2D2D2D2D2D2D2D2D2D2D2D2D2D2D2D2D2D2D2D2D2D2D2D2D2D2D0D0A00000000436F6D6D616E642097
:40298000207C20526573756C742020202020202020202020202020202020200D0A0000006220202020202020207C2053746172742064617461206163717569736974696F64
:4029C0006E2066726F6D2074686520616363656C65726F6D6574657220616E642073746F72616765206F6E2074686520454550524F4D206D656D6F7279200D0A000000001B
:402A00007320202020202020207C2053746F702064617461206163717569736974696F6E2066726F6D2074686520616363656C65726F6D6574657220616E642073746F7273
:402A4000616765206F6E2074686520454550524F4D206D656D6F7279200D0A006620202020202020207C20436F6E66696775726174696F6E206F6620746865206163636597
:402A80006C65726F6D657465722066756C6C207363616C652072616E6765200D0A0000007020202020202020207C20436F6E66696775726174696F6E206F6620746865200E
:402AC000616363656C65726F6D657465722073616D706C696E67206672657175656E6379200D0A007620202020202020207C20537461727420646174612076697375616C49
:402B0000697A6174696F6E20696E207468652042726964676520436F6E74726F6C2050616E656C200D0A00007520202020202020207C2053746F70206461746120766973A7
:402B400075616C697A6174696F6E20696E207468652042726964676520436F6E74726F6C2050616E656C200D0A0000007420202020202020207C2053746F7265207468658A
:402B80002074656D70657261747572652064617461200D0A000000002A2A2A2A2A2A2A2A2A2A2A2A2A2A2A2A2A2A2A2A2A2A2A2A2A2A2A2A2A2A2A2A2A2A2A2A2A2A2A2AC6
:402BC0002A2A2A2A2A2A2A2A2A2A2A2A2A2A2A2A2A2A2A2A2A2A2A2A2A2A2A2A2A2A2A2A2A2A2A2A2A2A2A2A2A2A2A2A2A2A2A2A2A2A2A0D0A000000035B0040244300401B
:402C000040000000004F00400C00405100403000F0510040100000000140800A000B01400005001401400002801601400004001B0140000100400140000A004C0140000262
:402C40000050014020000000605200404C0700480600800A014054070048800000160140D40700488000801A01405408004880004300232D302B2000686C4C006566674584
:402C800046470030313233343536373839414243444546003031323334353637383961626364656600000000F8B500BFF8BC08BC9E4670474D000000450B0000F8B500BFFB
:402CC000F8BC08BC9E46704729000000E02C0000C880FF1F80000000E800000000000000000000003082FF1F0000E02EC05D00001800000000366E0101FF00000000000006
:402D000000000000000000000000000000000000000000000000000000000000702C00000000000000000000000000000000000000000000000000000000000000000000F7
:402D400000000000000000000000000000000000000000000000000000000000E480FF1F0000000000000000000000000000000000000000000000000000000000000000D1
:402D80000000000000000000000000000000000000000000000000000000000000000000000000000000000000000000000000000000000000000000000000000000000013
:402DC00000000000000000000000000000000000000000000000000000000000000000000000000000000000000000000000000000000000000000000000000000000000D3
:402E00000000000000000000000000000000000000000000000000000000000000000000000000000000000000000000000000000000000000000000000000000000000092
:402E40000000000000000000000000000000000000000000000000000000000000000000000000000000000000000000000000000000000000000000000000000000000052
:020000040003F7
:0200000480007A
:400000000145004002520040026400400465004001030140040501401306014045070140580801403D090140010B0140010D014027140140571501405916014045170140A7
:400040005118014051190140581A0140541B014005400140084101400B420140084301400645014001460140024701400648014003490140024C0140084D01400650014028
:4000800001510140640101401080870F890F840F860D883889728B408A029340E280E6080010141016231A0128382A072C062E28321C340336203A083E40540958045B049A
:4000C0005C015D105F010090010203100640084109080A480B010E1410181104120215801720181019201E141F802020224E288929102A082B803018320233403A203B09BD
:4001000041094228431049124A084B4852A053015C805F1661016680684869046A406B4073018521860487048A408B108C108F0193409D049E02B504C01FC26FC4C7CA0E27
:40014000CC0FCE07D007D20CD6F0D811E210E40A0045023A0502070D09090B161610180E1C631E042444263929032B1C2D152F0A3230330F340F3640371038203B083E405D
:400180003F4054095604580459045B045F018320841F850C875088028C138E0C9003940C9804994D9B309C08A00FA128A210A351A613A80CA94DAA13AB10AC01AD02AF54A4
:4001C000B00FB103B340B53CB61CB902BA82BB20BF04C065C102C50BC6E0C70CC819C9FFCAFFCBFFCEF0CF44D00CD401D804D904DA04DB04DC22DD22DF01E6C0EA40EB0242
:40020000006404080640071009080A810B040E16104011401228162018401A021D401E1420182101221023082544280829922B012F0A3210380839023DA83E6040084804CA
:4002400049804A105004531059045B525C025D185E406540660280108340840285108D089E02C017C2EFC42FCA3DCC04CE63D004D20CD6FFD890E040E8108602E2208113D1
:400280008201830C89198B069102930D99159B0AB10FB201B710BB02BF40C030C102C9FFCAFFCBFFCDA0CF04D018D280D804D904DA04DB04DC13DD33DF01E040E2C0E440BA
:4002C000E540E6C0E8C0EAC0ECC0EEC000180181058206020A500B0110601280136018501D08200221402280236026022701284029102A40321833403602372039083A220A
:400300003B403C023E503F8040404230431045184680470148014B2550105240530459105B30610862066824690B6A606B40708072027502801082108501870488A08C10F9
:400340008E489210932094409589962097049D909EE49F20A110A740AF10B401B508B704C01FC20DC40FCA0DCCAECEAFD067D20CD801E004E210E40EEE0201010501080612
:40038000210126012A032C0631013202340136043E104020410345D046204701483A49FF4AFF4BFF4DAF4E0F4F04501854055604580459045A045B045C335D335F01604052
:4003C00062C06440654066C068C06AC06CC06EC08002810D820D8411850D8622884289428A088B988C8D8D318F42900D9280946295029614970D9840990D9C8D9DE0A10D04
:40040000A280A48DA88DA952ABA4AD0DB00FB30FB480B670B7F0B980BA82BB08BE10D440D604D804D904DB04DC10DF0100800102031404400608070208480A400B0810089C
:40044000110412801615180119021B101D041E081F802244278029902B402F80325439893A203C023E0846144F015401551056195E085F81608062A06320660288809104DC
:40048000925093089580970498489B109D049EC29F22A048A2A0A508A901B010B648C04FC20FC4EECA8DCC0ECECFD060D6D0D88FE228EA04EE10001C0202080C0A110F0191
:4004C000120314141810200922102410260C2F01301F37013F404001470449FF4A074BFF4C404D204EF04F05500854185604580459045A045B045C025D225F01604061A82C
:4005000062406320811082048409851889088C098D4493049402953C97C29A049BE39C089DC09E01A1E7A318A5FFA808A980AA01AD1CAFE1B008B138B202B31FB404B601F1
:40054000B7C0B880BB08BE15D602D713D804D904DB04DC22DD20DF010044010802010380051208400A020B280E600F0812081502170819251B801E402208234227012804A1
:4005800029882A012F02326A382839403B013F40464047814D804E014F025604570459015F0265206640678068286994701471087201730587409040910292029320940443
:4005C0009540968197049B089C409D16A210A410A518A628A701A904AF12B240B302B611B708C05DC277C432CA1FCC0FCE1FD010D681D8B0E810EC80EE1001020325050EB2
:40060000090E0D081001120614041504160117222310240728072C022E01300731013306350837303A203F404046410242054401450E47C0482149FF4AFF4BFF4C624DA04D
:400640004EF04F41500C580459045A045C225D025F016640670269106A306B106D106E106F12830288088A138F019020910495069B019C169D019E09A101A216A408A5067D
:40068000A615A901AA02AD01AE09B106B220B407B501B61BB902BAA0BE04BF11D440D804D904DB04DC02DD10DF01051009080A800E4210A811401301150216061708180470
:4006C00019011A801D141E021F102029210822222510278029012E802F5830043108350236813718380239943E023F8240454510460848044B485302640866086701808085
:40070000810482808310840887088A808B408C018D408F40904091969240934094049540968097089A049B089C049D129F80A028A301A410A622A702B510C040C29CC4F7AA
:40074000CAF1CCF2CE9FD00DD20CD870E4E1EC10EE023010320436103708CCF06001632096089C109F08A610D640D840510886108A04940196089C109F08A610A710D4200B
:40078000E61085088F1094019C109F08A508A710E24002205C028A20C008D601E2049C02B402E808870888109C109F08B401E2107C808C80DE200880C202128070048004B9
:4007C0008E80AC80C408DC01E20200070A030C05100F1A0B1C0600FF0884000040000000609A00000702380001FC000384000000043880C0560209980A981002849A0000D6
:400800000000000084130064802104D80498000200E07F0F800000130800000A000010006302400005BCFDE02FFFFFFF2200F008040000000000022C0404040400000001B3
:400840000000C00040011011C00100114001400100000000000000000000000000000000849A00008098040201FC0003843800C0040080005698090200020098609A000039
:4008800007133864840000000A2110D80402000080E07F0F000000130800000A000001002305400006BEDC0F1FFFFFFF2200F008040000000000022C04040404111100011F
:4008C0000000C00040011011C0010011400140010000000000000000000000000000000000606000600000008000508C8C008C00000000008000408B8B0000000000000018
:40090000900001949400800000000000100000000000000000000000000000000000000000000000000000000000000000000000000000000000000000000000000000006E
:400940000000000000000000000000000000000000000000000000000000000000000000000000000000000000000000000000000000000000000000000000000000000077
:400980000000000000000000000000000000000000000000000000000000000000000000000000000000000000000000000000000000000000000000000000000000000037
:4009C00000000000000000000000000000000000000000000000000000000000000000000000000000000000000000000000000000000000000000000000000000000000F7
:400A000000000000000000000000000000000000000000000000000000000000000000000000000000000000000000000000000000000000000000000000000000000000B6
:0200000490006A
:0400000000004005B7
:0200000490105A
:04000000BC90ACAF55
:0200000490303A
:02000000EC36DC
:0200000490402A
:4000000000000000000000000000000000000000000000000000000000000000000000000000000000000000000000000000000000000000000000000000000000000000C0
:400040000000000000000000000000000000000000000000000000000000000000000000000000000000000000000000000000000000000000000000000000000000000080
:400080000000000000000000000000000000000000000000000000000000000000000000000000000000000000000000000000000000000000000000000000000000000040
:4000C0000000000000000000000000000000000000000000000000000000000000000000000000000000000000000000000000000000000000000000000000000000000000
:0200000490501A
:0C00000000012E16106900012E27FC9F45
:00000001FF