:400000000080002011000000B9090000B909000008B5044B1A6803F53F5302331A6000F0EBFC00BFFA46004010B5054C237833B9044B13B10448AFF300800123237010BD0C
:400040004881FF1F0000000058220000084B10B51BB108490848AFF300800848036803B910BD074B002BFBD0BDE81040184700BF000000004C81FF1F58220000C880FF1F0E
:400080000000000010B562B600F0B0FE00F0D2FD00F094FF01F012FA364800F0B7FF364801F0C6FA01F01EFA0A2000F0E9FF0F2000F042FA314C02463149204601F0A8FC93
:4000C000204600F0C3FE2F4800F0C0FE2021084600F01AFA242000F02FFA02462A49204601F096FC204600F0B1FE6021242000F00BFA242000F020FA02462449204601F017
:4001000087FC204600F0A2FE40212E2000F0FCF9242000F011FA02461D49204601F078FC204600F093FE0221222000F0EDF9222000F002FA02461749204601F069FC2046E0
:4001400000F084FE144800F081FE00F065FA2F2000F0F2F910F0400FF9D0104800F076FE00212E2000F0D0F940212E2000F0CCF9EDE700BF01020000A10100009081FF1F02
:400180005C22000090220000C0220000F0220000202300005823000088230000B823000008B501F091FB114B1B78012B1DD101F009FA0F4B1860002801DA00221A600C4BD8
:4001C0001B68B3F5803F03DB4FF6FF72084B1A60074B18680212074B5A71987101F0E0F9054B18600122054B1A7008BD6481FF1FF881FF1F8481FF1FFC81FF1FF481FF1F69
:4002000008B500F001FEA04B18703138432800F26F81DFE810F07300A500D70008016D016D016D016D016D016D016D016D016D016D0144006D016D016D016D016D016D0106
:4002400047006D016D016D016D016D016D016D016D016D015D006D016D016D0159016D016D016D016D016D016D016D016D016D016D016D016D016D016D016D016D016D010A
:4002800047006D016D016D016D016D016D016D016D016D015D006D016D016D01590100F0BBF908BD794800F0D1FD794800F0CEFD784800F0CBFD784800F0C8FD774800F018
:4002C000C5FD774800F0C2FD0122764B5A7008BD754800F0BBFD754800F0B8FD744800F0B5FD744800F0B2FD734800F0AFFD734800F0ACFD01226B4B9A7008BD694B5B7801
:40030000012B13D1232000F017F910F0800F03D06B4800F09BFD06E08021232000F0F4F8684800F093FD00225E4B5A705D4B9B78012B40F0DD80202000F0FEF810F0230F96
:4003400003D05F4800F082FD06E02321202000F0DBF85C4800F07AFD0022524B9A7008BD504B5B78012B13D1232000F0E5F810F0900F03D0524800F069FD06E09021232004
:4003800000F0C2F84F4800F061FD0022454B5A70444B9B78012B40F0AB80202000F0CCF810F0390F03D0464800F050FD06E03921202000F0A9F8434800F048FD0022394BB8
:4003C0009A7008BD374B5B78012B13D1232000F0B3F810F0A00F03D0394800F037FD06E0A021232000F090F8364800F02FFD00222C4B5A702B4B9B78012B79D1202000F036
:400400009BF810F0550F03D02D4800F01FFD06E05521202000F078F82A4800F017FD0022204B9A7008BD1F4B5B78012B13D1232000F082F810F0B00F03D0214800F006FDBB
:4004400006E0B021232000F05FF81E4800F0FEFC0022144B5A70134B9B78012B48D1202000F06AF810F0710F03D0154800F0EEFC06E07121202000F047F8124800F0E6FCBB
:400480000022084B9A7008BD0082FF1FD023000008240000342400005424000074240000942400006481FF1FB4240000F02400001C25000038250000582500007825000072
:4004C00098250000C82500000A4B1B780BB901F03FFA094800F0BAFC084800F0B7FC084800F0B4FC074800F0B1FC0122014B1A7008BD00BF6481FF1FE825000008260000FB
:40050000342600006C26000030B583B08DF804008DF80510002402AD05F8054D012000F0A7FC23462A46022101A800F019F8204600F09EFC03B030BD00B583B060F07F00D1
:400540008DF8040002AA002302F8053D0123194601A800F005F89DF8030003B05DF804FB2DE9F04383B006460C4617469846002000F07EFC64B2002511E02146082CA8BF22
:400580000821C9B206EBC50000F0D6FC00F096FC10F0010FFAD0083C64B201356DB2002CEBDC00F0D9FC00F0A7FC0026009601964FFA88F820E0C146B8F1080FA8BF4FF040
:4005C00008095FFA89F1684600F0B6FC00F076FC10F0010FFAD0002406E004EBC60500F085FC78550134E4B24C45F6DBA8F108084FFA88F8013676B2B8F1000FDBDC0120FB
:4006000000F036FC00F0A8FC00F076FC00F082FC03B0BDE8F08300BF38B5154C204600F015FC144800F012FC134D284600F00EFC124800F00BFC124800F008FC114800F0EB
:4006400005FC114800F002FC104800F0FFFB104800F0FCFB0F4800F0F9FB0F4800F0F6FB284600F0F3FB204600F0F0FB38BD00BFA8260000D026000020290000F8260000D2
:400680002027000080270000E0270000242800006C280000B4280000F8280000FEE700BFF0B40022174611E050F82760F3B226F0FF0608E001EB420511F812406D78A555CD
:4006C0000132013BDBB2002BF4D10137242FEBD9F0BC70470B4B1B78DBB203F007010A4A11701B09013213701023A2F23272137002F6C3121370583213704422034B1A70B3
:40070000704700BFCF0100496E5800407658004008B50A46002101F072F908BD08B501F063F908BD38B50024394B1C80502202331A700B2202331A80182336490B70023132
:400740000A80354A137033210232118002321370EF2102321180023213704BF67F31023211800232137004222C492D48FFF7D6FF02222C4B1A7008224FF040231A700321AA
:4007800003F500731970284B1B78DBB227490B70274B1A8041F25122023B1A8019250CE0244B1B7803F0010343EA440404F003044FF4F07001F0DCF8013D0DB1032CEFD158
:4007C00015B90320FFF76AFF1B4B4FF480721A8007221A70002219490A704820023108701A700222033B1A7004220A331A70144A137843F03F031370013A137843F001036F
:400800001370013A137843F08003137038BD00BF80400040864000408A400040D8080048004100400043004008010049A14600402242004025420040044000400640004078
:40084000A2430040012807D8044B53F820201844017A13780B431370704700BF24290000012808D8044B53F820201844017A137823EA0103137070472429000038B572B689
:40088000394A137843F00403137000240BE0374863001A19510001440A46098AD068FFF737FF0134E4B2092CF1D900240CE02F48A20011194B000344B3F85020D96C986C59
:4008C000FFF72CFF0134E4B2022CF0D928494FF09040FFF7E5FE0A24264B1C70264A137843F0020313701032137843F002031370224D2B7843F040032B70A2F58632513A56
:40090000137843F01003137008221D491D48FFF705FF22461C491D48FFF700FF22461C491C48FFF7FBFE22461B491C48FFF7F6FE08221B491B48FFF7F1FE1B4A137843F01A
:4009400008031370194C61232370FFF7EBFE812323700122164B1A70FFF7BCFE0E2229461448FFF7DBFE38BDE846004024290000940000488358004003500140A043004071
:40098000A408004802510040AC080048C0510040B808004810510040C408004820510040D008004832510040224300400048004004000840B043004008B500F0E9FF036866
:4009C0000C2B00D1FEE7FEE708B5094B1A681044084BC31A802B02DC054B186005E000F0D7FF0C2303604FF0FF32104608BD00BFCC80FF1F2882FF1F08B5104E104D16E096
:400A000029686B68AC68002204E051F8040B43F8040B0432A242F8D1E868002203E0002143F8041B04328242F9D11035013E002EE6D100F0B3FFFFF725FBFEE70100000018
:400A4000E429000008B5104A104B1A60104A136843F40073136000230AE0032B03D80D4A52F8231000E00C490C4A42F8231001332F2BF2D90A4B1A780A4B1A70074A0A4BE4
:400A80001A60FFF7FBFE08BD0004FA050CED00E014ED00E000000000B90900000080FF1FBC760040C080FF1F08ED00E00222014B1A60704700E100E00122014B1A60704744
:400AC00000E100E008B500F05BFF0C4A137843F0200313700132137843F010031370043A137843F01003137000F04EFF00F09CFAFFF7DCFFFFF7E0FF08BD00BF9B6400402F
:400B00000222014B1A60704780E100E00122014B1A60704780E100E010B5FFF7F1FF064B1C78064A137803F009031C4300231370FFF7BCFF204610BD6C6400400482FF1FEB
:400B400010B5FFF7E3FF064B1B78064A147804F040041C4300231370FFF7AEFF204610BD686400401582FF1F08B501E00A4B1B780A4B1B7813F0200FF8D100F001FF084B98
:400B80001A7842F001021A701A7802F0FE021A7000F0FAFE08BD00BF5C640040686400409C64004010B50F22174B1A70174C022323600721012000F097FA1549012000F0F8
:400BC0007FFA012323600721002000F08DFA1149002000F075FAFFF7C7FF00240E4B1C700E4B1C700E4B1C700E4B1C700E4B1C700E4B1C70FFF790FFFFF7A2FF0C4B1C7000
:400C00002022043B1A7010BD8B64004080E100E0510C0000F10C00001282FF1F1382FF1F1182FF1F1082FF1F1682FF1F1482FF1F8C64004008B5054B1B7823B9FFF7B2FF8F
:400C40000122024B1A70FFF73DFF08BD6781FF1F28E01F4B19781F4A137803F009030B431370137813F0040F24D01B4B1B7813F0FF0F0CD1194A13780133DBB2137013787D
:400C8000DBB2072B06D90022144B1A7002E00022114B1A70114B1B78DBB2114AD35CDBB2104A13700D4B1A78D2B20F4B1B78DBB29A42CED1094B1A78D2B20B4B1B78DBB2EE
:400CC0009A4204D1094A137803F0FB03137070476C6400400482FF1F1082FF1F1682FF1F0882FF1F4C6400401482FF1F8C640040204B1A7820490B7803F0400313430B70B4
:400D000032E01E4B1A78D2B21D490B780133DBB20B700B78DBB2072B02D90021184B1970174B1978C9B2174B1B78DBB299420ED114490B780133DBB20B700B78DBB2072BCB
:400D400002D900210F4B197001210F4B19700C4B1B78DBB20D49CA54064B1A7806490B7803F0400313430B70034B1B7813F0200FC7D17047686400401582FF1F5C640040C5
:400D80001182FF1F1382FF1F1282FF1F1882FF1F7222074B1A702022013B1A700622603B1A70472210331A700022B13B1A7070478B65004010B500F0E3FD04460A4A13782D
:400DC00043F020031370013A137843F010031370A2F20112137843F01003137000F032F9204600F0D1FD10BD9B65004008B5054B1B7823B9FFF7CCFF0122024B1A70FFF717
:400E0000D9FF08BD6881FF1F084B1B78DBB213F0200F06D0064A1078C0B213F01E0F02D17047002070470020704700BF6A65004049650040034B1B7813F0040FFAD1024B16
:400E400018707047696400404964004038B5074B1B782BB938BDFFF7EDFF0134A4B201E005460024285D0028F5D138BD6881FF1F044A137803F07F03C001C0B21843107006
:400E8000704700BF1051004008B500F079FD0A4A137843F0200313700232137843F010031370013A137843F01003137000F06CFD00F0D6F808BD00BF96650040014B187877
:400EC000704700BF68650040014B1878704700BF67650040034B1B7813F0040FFAD0024B187070476865004048650040014B1878704700BF5865004001E0044B1B78044B69
:400F00001B7813F0200FF8D1704700BF586500406765004008B500F033FD064B1A7842F001021A701A7802F0FE021A7000F02CFD08BD00BF9865004070B506460C46002555
:400F400006E0705DFFF7C6FF0135EDB2013CE4B2002CF6D170BD00BF08B501E00A4B1B780A4B1B7813F0200FF8D100F009FD084B1A7842F001021A701A7802F0FE021A706B
:400F800000F002FD08BD00BF58650040676500409865004008B50F22064B1A70FFF7DCFFFFF78CFFFFF790FF0023034A1370013A137008BD866500408865004008B5054BFD
:400FC0001B7823B9FFF7E6FF0122024B1A70FFF75BFF08BD6A81FF1F014B1B68D864704708ED00E04001C0B2014B1870704700BF03E400E00822014B1A60704700E100E0CC
:401000000822014B1A60704780E100E010B50446FFF7F6FF2046FFF7DFFF0720FFF7E2FFFFF7E8FF10BD00BF054A137843F0020313701032137843F002031370704700BF9A
:40104000A2430040054A137843F0080313701032137843F008031370704700BFA2430040054A137843F0040313701032137843F004031370704700BFA243004001BE704755
:4010800010B5044605E0084B186800F071FCA4F50044B4F5004FF6D8034B586800FB04F000F066FC10BD00BFD080FF1F08B5034B1B7A00FB03F000F05BFC08BDD080FF1F18
:4010C00070B504460E46074B1D681F2802D90020FFF7D4FF04F01F04103455F8240045F8246070BD08ED00E038B504460D46072902D90020FFF7C2FF1F2C02D90020FFF714
:40110000BDFF04F01F0000F1604000F564406D01EDB2057038BD00BF10B59DF80840012C51D1013809282ED8DFE800F0052D2D052D2D0F192D230F2B03D92548007840B245
:4011400022E02448007840B21EE00F2B03D92248007840B218E02148007840B214E00F2B03D91F48007840B20EE01E48007840B20AE00F2B03D91C48007840B204E01B4836
:40118000007840B200E0002001EB401101FB02F1C90B8AB20D2B0BD8C3F10E0289B211418AB2611E124800EB810101338B7005E0631E0F4901EB83030F219970013C0C4B6F
:4011C00023F8242010BD0020FFF758FF10BD00BF180100491C010049190100491D0100491A0100491E0100491B0100491F0100496C81FF1FF8B5074600F0C2FB06460D4D46
:401200002B7843F003032B700B4C237843F0030323700A4B1F700320FFF748FF2B7803F0FC032B70237803F0FC032370304600F0ABFBF8BDF8460040F946004092580040FD
:401240000022324B1A7101285FD170B53422304B1A70042202331A70062201331A70002401331C7001331C703F2201331A7002331C7001331C7001331C7001250A331D70AC
:40128000502203F527631A700A2201331A702C2201331A7001331C70442203331A70482201331A7001331D70022602331E70122201331A70282201331A70EB2201331A703B
:4012C0005220FFF797FF5822124B1A7001331C70052205331A7001331E7001331C7001331C70204600F0C2F943F233320A4B1A602946284600F0DEF92946082000F05EFAA7
:4013000006491D20FFF7DCFE70BD70476C81FF1F004E0040945800402082FF1FED150000F0B583B0284D01272F70284E00247471102000F0ADF9102000F02EFA07211D20E0
:40134000FFF7D2FE0422224B1A7001331C7007331C70204A137843F0180313701E4B1C7003F2F5231C7001331C700A22A3F209331A7001331C7002331C705B2205331A70A9
:401380005E2201331A7004331C701422A3F68C231A70009710234FF4004248F6F0510220FFF7BAFE2B78013B06EB83039A780B4B1A702B78013B36F82320094B1A80287860
:4013C000FFF73EFF03B0F0BDE080FF1F6C81FF1F96580040075B0040935800400E4E00400C4E004070B500F0CBFA06462A4B1B782A4B1A7842F001021A701A7842F01002D6
:401400001A7010331A7842F001021A701A7842F010021A70224D2B7843F002032B70214C237843F0020323701F4A137843F0030313700320FFF73AFE2B7803F0FD032B7044
:40144000237803F0FD032370184A137843F0060313707A22164B1A70164A137843F0010313701032137843F0010313700F3A137843F0010313701032137843F001031370D7
:401480004FF000530C4A1360A2F5C0721360304600F07AFA70BD00BFE080FF1FAA430040F8460040F9460040915800407758004082580040A143004080E200E008B5084B5F
:4014C0009B794BB9064BDB7913F0FF0F01D1FFF727FF0122024B9A71FFF784FF08BD00BF6C81FF1F024A137843F0010313707047004E0040024A137803F0FE0313707047D2
:40150000004E0040094B1B7913F0FF0F03D0074B5B79DBB203E0064B1B7803F00103012B01D00028EED01846704700BF6C81FF1F014E0040154B1B7803F00303012B07D898
:40154000134B1888023B1B889BB243EA004013E0022B0AD10E4B1888023B1B7843EA00430C4A107843EA002006E00B4B188883B2074A108843EA0040084B1B7913F0FF0F15
:4015800002D00022054B5A71704700BF144E0040124E0040114E0040104E00406C81FF1F064B9B68C01A4FF47A7303FB00F0044B1B6890FBF3F000B2704700BF6C81FF1F5D
:4015C0002082FF1F10B5084A137843F004031370FFF788FF0020FFF795FFFFF7ABFF0446FFF788FF204610BD014E0040704700BF024B1B68C3F88400704700BF08ED00E0AC
:401600004001C0B2014B1870704700BF11E400E04FF40032014B1A60704700BF00E100E04FF40032014B1A60704700BF80E100E010B50446FFF7F4FF2046FFF7D9FF072021
:40164000FFF7DEFFFFF7E4FF10BD00BF10B5002404E02046FFF704F90134E4B2012CF8D9FF22014B1A7010BDE180FF1F10B50446FFF7ECFF2046FFF7E5F8014B1C7010BD32
:40168000E180FF1F014B188880B2704780400040034B1A7800F0F80010431870704700BF82400040024B187800F00700704700BF8240004070B505460E46FFF7F3FF044679
:4016C000FFF7E0FFA84256D02B4B1B7803F0010294B900B185B938B9284B1D80284A137803F0BF03137070BD254A137843F040031370224B1D8070BD22B3002321490B7060
:4017000001240F310C7004310B700C390B7803F07F030B701A4B1B7813F0080F00D08DB9194B18800721013B1970164B1B7813F0010FFAD110490B7803F0FE030B70002111
:40174000104B19700C4B1B7813F0010F0DD00E4B1D800EB1032200E001220A4B1A70094B1B7813F0010FFAD170BD044B1D8002490B7813430B7070BDA24300408040004020
:40178000824000400140004002400040014B188880B2704700410040034B1A7800F0F80010431870704700BF02410040024B187800F00700704700BF0241004070B50546F5
:4017C0000E46FFF7F3FF0446FFF7E0FFA84256D02B4B1B7803F0010294B900B185B938B9284B1D80284A137803F0BF03137070BD254A137843F040031370224B1D8070BDB6
:4018000022B3002321490B70012413310C7004390B7008390B7803F07F030B701A4B1B7813F0080F00D08DB9194B18800721013B1970164B1B7813F0010FFAD110490B78BB
:4018400003F0FE030B700021104B19700C4B1B7813F0010F0DD00E4B1D800EB1032200E001220A4B1A70094B1B7813F0010FFAD170BD044B1D8002490B7813430B7070BDB4
:40188000A143004000410040024100400140004002400040084A137843F0010313701032137843F00103137002F64D32137843F001031370704700BFA3430040014B1870B3
:4018C000704700BF034F0040014B1878704700BF034F0040014B1880704700BF044F0040014B1880704700BF064F004008B5154A137803F0010313700232137803F0FC034E
:401900001370114B1A7802F0CF021A701A7842F030021A701A7802F0F0021A701A7842F00F021A70094A137843F0010313706320FFF7D0FF6320FFF7D3FF0820FFF7BEFF04
:4019400008BD00BF004F00400B4F0040014F004008B5054B1B7823B9FFF7C8FF0122024B1A70FFF797FF08BD7881FF1F000000000230800803D000BF01380046FCD1704740
:40198000EFF3108072B6704780F31088704700BF014B1868704700BF4481FF1F0E4B70B51E460E4C0025E41AA410A54204D056F8253098470135F8E701F002F8084B094C38
:4019C0001E46E41AA4100025A54204D056F8253098470135F8E770BDCC290000CC290000CC290000D429000010B5431E0A44914204D011F8014B03F8014FF8E710BD0346A1
:401A00000244934202D003F8011BFAE7704700000EB400B54FF402719CB0ADF814106FF00041049107914FF6FF711DAB02900690084853F8042BADF81610006802A901931A
:401A400000F064F8029B00221A701CB05DF804EB03B070474481FF1F2DE9F0478E6882469E420C46914698463ED88A8912F4906F3AD02568096902236F1A656905EB450595
:401A800095FBF3F57B1C43449D4238BF1D4653050FD5294600F040FB064698B13A462169FFF7A2FFA38923F4906343F08003A38113E02A4600F08EFB064670B921695046CA
:401AC00000F0DEFA0C23CAF80030A3894FF0FF3043F04003A381BDE8F08726613E44266046466561ED1BA560464528BF464649463246206800F0A8FAA36800209B1BA360BC
:401B000023681E442660BDE8F08700002DE9F04F9DB003938B8980461C060D4616460DD50B695BB9402100F0F7FA2860286118B90C23C8F80030CDE040236B6100230993EB
:401B400020238DF82930DFF89CB130238DF82A3037463C4614F8013B1BB9B7EB060910D003E0252BF9D02746F3E74B46324629464046FFF771FF013000F0A780099B4B4420
:401B800009933B78002B00F0A08000234FF0FF3204930793059206938DF853301A930126052221784E4800F041FA671C049B38B14B4A3C46801A06FA00F018430490EFE7D9
:401BC000D90644BF20228DF853201A0744BF2B228DF8532022782A2A03D0079A00210A200BE0039A111D12680391002A10DA524243F00200079204900BE027463B780134A5
:401C0000303B092B03D800FB02320121F5E701B107923B782E2B1ED17B782A2B0AD1039B02371A1D1B680392002BB8BF4FF0FF33059310E0002319460593781C0A240746AA
:401C40003A780130303A092A03D804FB01210123F5E703B1059103223978224800F0E6F940B14023CBEB000003FA00F0049B013718430490397806221B487E1C8DF828103F
:401C800000F0D4F988B1194B33B9039B073323F007030833039314E003AB00932A46144B04A94046AFF3008007E003AB00932A460F4B04A9404600F093F8B0F1FF3F824678
:401CC00003D0099B5344099342E7AB895B0601D4099801E04FF0FF301DB0BDE8F08F00BF8C290000922900009629000000000000591A00002DE9F04791461F460A698B6876
:401D000006469342B8BF1346C9F8003091F843200C46DDF8208012B10133C9F800302368990642BFD9F800300233C9F80030256815F0060510D104F1190A07E0012352469B
:401D400039463046C04701301AD00135E368D9F800209B1A9D42F1DB94F843302268003318BF012392060FD5E118302081F843005A1C94F845102244023382F8431003E0A0
:401D80004FF0FF30BDE8F08704F1430239463046C0470130F4D02268D9F80050E36802F00602042A08BF5D1B2269A3680CBF25EAE57500259342C4BF9B1AED184FF00009C8
:401DC0001A344D4509D00123224639463046C0470130D5D009F10109F3E70020BDE8F0872DE9F04317460A7E85B06E2A984606460C460C9B01F1430E00F0AE8011D8632ABD
:401E000022D009D8002A00F0BB80582A40F0CA8081F84520834955E0642A1ED0692A1CD0C0E0732A00F0B08009D86F2A2ED0702A40F0B8800A6842F020020A603EE0752AE0
:401E400024D0782A3AD0ADE01A6801F14205111D1960136884F84230A8E021681A6811F0800F02D0111D196008E011F0400F02F10401196002D0B2F9003000E01368002BF2
:401E80003CDA2D225B4284F8432037E021681A6811F0800F02D0111D196007E011F0400F02F10401196001D0138800E01368227E5C496F2A14BF0A2208221BE078225A4968
:401EC00084F845202268186812F0800F00F104051D6003D1550601D5038800E00368D00744BF42F0200222601BB9226822F0200222601022002084F8430001E049490A22A0
:401F00006568002DA56008DB206820F0040020602BB9002D7DD175460CE0002B79D07546B3FBF2F002FB1033CB5C05F8013D03460028F5D1082A0BD12368DA0708D5236922
:401F400062689A42DEBF302305F8013C05F1FF35C5EB0E0323612EE008681A6810F0800F496903D0101D1860136808E010F0400F02F104001860136801D0198000E019600A
:401F800000232361754616E01A68111D1960156800216268284600F049F808B1401B6060636804E004F1420584F8422001232361002384F84330CDF800803B4603AA214668
:401FC0003046FFF797FE013002D14FF0FF3026E023692A4639463046C0470130F5D023689B0710D5002504F1190907E001234A4639463046C0470130E7D00135E368039A8F
:402000009B1A9D42F2DBE068039B9842B8BF184605E00B7804F1420584F842308AE705B0BDE8F0839D290000AE29000010B5C9B202449042034605D01C7801308C42F8D16B
:40204000184610BD002010BD884210B501EB020301D8421E0BE09842FBD28118D21AD34204D013F8014D01F8014DF8E710BD994204D011F8014B02F8014FF8E710BD000049
:4020800038B50546002944D051F8043C0C1F002BB8BFE41800F0D4F81E4A1368114613B96360146030E0A3420DD92268A018834201BF18685B681218226063600C6023E09D
:4020C000A24203D813465A68002AF9D118681918A1420BD12168014458188242196013D110685268014419605A600DE002D90C232B6009E021686018824201BF1068526877
:402100000918216062605C602846BDE8384000F098B838BD8081FF1F70B5CD1C25F0030508350C2D38BF0C25002D064601DBA94202D90C23336046E000F082F8234B1C6878
:402140001A462146A1B10B685B1B0ED40B2B03D90B60CC18CD501EE08C420BBF63684B681360636018BF0C4615E00C464968E9E7174C23681BB9304600F052F82060294661
:40218000304600F04DF8431C18D0C41C24F00304A0420DD12560304600F053F804F10B00231D20F00700C31A0ED05A42E25070BD211A304600F034F80130EBD10C233360B3
:4021C000304600F03EF8002070BD00BF8081FF1F7C81FF1FF8B5074615460E4621B91146BDE8F840FFF798BF1AB9FFF749FF2846F8BD00F027F885420ED929463846FFF725
:402200008BFF044650B131462A46FFF7EDFB31463846FFF735FF01E03046F8BD2046F8BD38B5064C0023054608462360FEF7CCFB431C02D1236803B12B6038BD2482FF1FCF
:402240007047704751F8040C0028BEBF091851F8043CC01804387047000000002A2A2057686F20616D2049207265676973746572203D20307825303258205B45787065638B
:402280007465643A20307833335D0D0A000000002A2A2A2A2A2A2A2A2A2A2A2A2A2A5265676973746572732056616C7565732A2A2A2A2A2A2A2A2A2A2A2A2A2A0D0A00000E
:4022C00020436F6E74726F6C207265676973746572203120686173206265656E2073657420746F203D20307825303258200D0A0020436F6E74726F6C207265676973746533
:4023000072203520686173206265656E2073657420746F203D20307825303258200D0A0020436F6E74726F6C207265676973746572206F66204649464F2068617320626514
:40234000656E2073657420746F203D20307825303258200D0A00000020436F6E74726F6C207265676973746572203320686173206265656E2073657420746F203D2030785D
:4023800025303258200D0A002A2A2A2A2A2A2A2A2A2A2A2A2A2A2A2A2A2A2A2A2A2A2A2A2A2A2A2A2A2A2A2A2A2A2A2A2A2A2A2A2A2A2A2A0D0A0000204F76657272756EA7
:4023C000206F6363757272656421200D0A000000436F6E66696775726174696F6E206F662074686520616363656C65726F6D657465722066756C6C207363616C65207261F7
:402400006E6765200D0A000043686172616374657220202020202020202020202046756C6C207363616C652072616E6765200D0A000000003120202020202020202020206E
:402440002020202020202020202B2D203267200D0A0000003220202020202020202020202020202020202020202B2D203467200D0A00000033202020202020202020202065
:402480002020202020202020202B2D203867200D0A0000003420202020202020202020202020202020202020202B2D20313667200D0A0000436F6E66696775726174696F93
:4024C0006E206F662074686520616363656C65726F6D657465722073616D706C696E67206672657175656E6379200D0A00000000436861726163746572202020202020208C
:40250000202020202053616D706C696E67204672657175656E6379200D0A000031202020202020202020202020202020202020202031487A200D0A003220202020202020CA
:40254000202020202020202020202020203130487A200D0A000000003320202020202020202020202020202020202020203235487A200D0A0000000034202020202020203A
:40258000202020202020202020202020203530487A200D0A000000005468652073656C6563746564206F7074696F6E2077617320616C7265616479206265656E2073657447
:4025C000746564200D0A0000546865206368616E676520776173207375636365737366756C200D0A0000000053746F7265207468652074656D70657261747572652064619D
:402600007461200D0A00000043686172616374657220202020202020202020202054656D706572617475726520666F726D6174200D0A000063202020202020202020202050
:4026400020202020202020202053746F7265206461746120696E2043656C7369757320666F726D6174200D0A000000006620202020202020202020202020202020202020DE
:402680002053746F7265206461746120696E2046616872656E6865697420666F726D617420200D0A000000002A2A2A2A2A2A2A2A2A2A2A2A2A2A2A2A2A2A2A2A2A2A2A2A2E
:4026C0002A2A2A2A2A2A2A2A2A2A2A2A2A0D0A002A2A2A2A2A2A2A2A2A2A2A2A2A2A2A2A4D454E55272A2A2A2A2A2A2A2A2A2A2A2A2A2A2A2A0D0A00436F6D6D616E64200F
:402700002020202020526573756C742020202020202020202020202020202020200D0A006220202020202020202020202053746172742064617461206163717569736974F6
:40274000696F6E2066726F6D2074686520616363656C65726F6D6574657220616E642073746F72616765206F6E2074686520454550524F4D206D656D6F7279200D0A0000C5
:402780007320202020202020202020202053746F702064617461206163717569736974696F6E2066726F6D2074686520616363656C65726F6D6574657220616E64207374F3
:4027C0006F72616765206F6E2074686520454550524F4D206D656D6F7279200D0A00000066202020202020202020202020436F6E66696775726174696F6E206F6620746866
:402800006520616363656C65726F6D657465722066756C6C207363616C652072616E6765200D0A0070202020202020202020202020436F6E66696775726174696F6E206F82
:40284000662074686520616363656C65726F6D657465722073616D706C696E67206672657175656E6379200D0A0000007620202020202020202020202053746172742064EA
:402880006174612076697375616C697A6174696F6E20696E207468652042726964676520436F6E74726F6C2050616E656C200D0A000000007520202020202020202020204E
:4028C0002053746F7020646174612076697375616C697A6174696F6E20696E207468652042726964676520436F6E74726F6C2050616E656C200D0A00742020202020202045
:40290000202020202053746F7265207468652074656D70657261747572652064617461200D0A0000035B00402443004040000000004F00400C00405100403000F051004028
:40294000100000000140800A000B01400001800C0140800300140140000800400140000A004C01400002005001402000605200409C0700480600800A0140A4070048800096
:40298000000C01402408004880004300232D302B2000686C4C00656667454647003031323334353637383941424344454600303132333435363738396162636465660000A0
:4029C000F8B500BFF8BC08BC9E4670474D000000450A0000F8B500BFF8BC08BC9E46704729000000F8290000C880FF1F80000000E000000000000000000000002882FF1F65
:402A00000000E02EC05D00001800000000366E0101FF000000000000000000000000000000000000000000000000000000000000000000008A2900000000000000000000FB
:402A400000000000000000000000000000000000000000000000000000000000000000000000000000000000000000000000000000000000E480FF1F0000000000000000D4
:402A80000000000000000000000000000000000000000000000000000000000000000000000000000000000000000000000000000000000000000000000000000000000016
:402AC00000000000000000000000000000000000000000000000000000000000000000000000000000000000000000000000000000000000000000000000000000000000D6
:402B00000000000000000000000000000000000000000000000000000000000000000000000000000000000000000000000000000000000000000000000000000000000095
:402B40000000000000000000000000000000000000000000000000000000000000000000000000000000000000000000000000000000000000000000000000000000000055
:020000040003F7
:0200000480007A
:4000000001450040024F00400352004002640040046500400203014001050140020701404F0801403C090140280A0140460B01400B0C01403B0D0140040E0140030F014044
:4000400010150140581601403717014065180140421901404A1A01404A1B0140054001400D4101400742014007430140044401400445014006460140024701400448014056
:400080000A490140054C0140084D01400650014001510140640101400A4B004001401080890F8B0F860F890D8A388B72E614EE0CE002E202E60201010202040108010C016F
:4000C00014021A021C0228022C023201340235013E103F1054405604580459045B045C035D105F0180108480862087538C1C8D318E628F4E906C9211953197C6980999ACFB
:400100009A109B439E03A014A308A620A78CA870A930AA0CAB40B020B3F0B4C0B50FB61FB78AB820BBA8BE01C032C105C50CC6EBC80DC9FFCAFFCBFFCEF0CF44D00CD40105
:40014000D804D904DA04DB04DC33DD33DF01E6C0EA40EB02008003A0042A07010A050B800E2A0F0810B01218160217101A451B101D081F102154221824042A102B903218EE
:4001800039803A083B803E0141044208432048204B805080522058125A486520676286028740884089109002928899229A029B18A211A304A620B610C0FDC2EBC4CECA0770
:4001C000CC06CE8AD006D208D60FD8F00202030204060C0611011201210129012F02300432023502360137013F104010410449FF4AFF4BFF4DA04F045018528058045904B1
:400200005A045B045C555D555F01604062C06440654066C068C06AC06CC06EC0000903020402051406020B400E25142015041751180119011A221D141E091F042240230882
:400240002550270129012A802B082C202D042F0433023604370138013D2040014280451046884D024E0154045680570A66086C116E226F70734076028121920C9422970880
:400280009C209E02A020A101A304A540A635A720B409B65AC0FDC2E8C4F0CA6DCCC1CE21D089D210D840E002830687068F0295049901B106B301BF04D904DC10DF010426A7
:4002C00007400D020E2A1542160A1C041D021E1420402204251026882D602F243220330436153744384039023A093B083DA03E043F0244084540460147044D244E024F02E2
:400300005420550157045C215D045E406401650278017A8080408D109D02A902AF20C070C2F0C4D0CA70CCF6CEFBD070D230D6F0D890E610B820BE10D804DF011D101F20F8
:400340008D108C409040A884AA40AC25AE02AF08B122B510B601E240E602E808EA10EC02EE08004D0402060D08210A020C0D0E401105130A144D180219091A341B061D026F
:400380001E101F0D204D240225032638270C284D310F320F344036303A083B023E105602572C580459045B045C225D205F0180FC8156820383098498850A86028710898075
:4003C0008B048C988D018E02909A9104938094029560981399849A649C219D849ED8A184A438A504A6C0A802A907AA98AB38AC9AAF80B00FB17FB2E0B380B413B502B902C4
:40040000BA0ABF14D440D804D904DB04DC22DD20DF010002031105140741088809010A040E220F0410101110120114201712191A1A841B201C081D041E0220402108230866
:400440002780281029582A012F203359342035023780384839103A023B045FC0616867406D126E206F5176017702800883088940C0FDC2EFC477CA4FCCBFCE0FD88EE605ED
:4004800001080422053206D1074508670D480F9115E018441A311C011E0E2867295D2BA23018328033F0346035013607370E39083B803E013F10406441054230440145DED1
:4004C00046F047CB483B49FF4AFF4BFF4C224EF04F0850045409580459045A045B045C235D225F0162C0644065016610671168C069016B116C406D016E406F01850389025B
:400500008D03A701B503B920BB80BF10C013C105C202C404C60EC70CC814C9FFCAFFCBFFCC62CDA0CEF0CF41D00CD405D604D904DA04DB04DC30DD53DF01E640E702E9102F
:40054000EA30EB10ED10EE10EF12042005080E0615101C601E06200A2302254026A829042B202D202F04360839A83D803E023F084048410843484450458048014D604F0683
:4005800050085340562A59025A805B085C225F44620266408020820A8A208B4191A89280942899029B089F01A108A602A7A0B002B220B404B604B701C060C2C0C440CA22AE
:4005C000CC40CEDED0DFD238D6FBD811E28012021E0222012A01340236013E504006460449FF4A074BFF4C404D204EF04F0550085418560458045A045B045D335F0160402C
:4006000061A86240632080F3820C840C850888048B048C088D10917F951C96639761984299189C639D679F18A0FFA104A41FA6E0A81CAAE3AB63AC21AD3CAF42B00FB260C7
:40064000B31FB410B558B680B738B880BA02BB28BE10D602D712D804D904DB04DC33DD30DF010501062107480A010B800C040E061008128016021716180419401C101D01D4
:400680001E09268027142C042E422F0837663CA03E0848044904538058025E086004614063406C146D106F01744076297728801A82C08310874089088A02920493809428B1
:4006C00095109B029C089D0C9F41A01CA201A308A780A980AC52AEC0B220B304B540B704C0F0C2E9C4FACAB0CCF0CE70D204D641D80DE8C0EE813010320234023680CCF0FA
:400700005808660480088E049C12A301A602AA80AF01D640D880E620EE30630287019C12A301A602D640E040841086029C129F01A602E240E6407C208C20DE01E0020108E6
:400740005D02C008D601450885089D02B508D001EA02B502E80227019C029F01C82070017C8084028C0198809C02B480DC80DE20E6400880A002B402C202EC021040740257
:400780008840A002A880C408DE04E201002A0C2A0E02102C1A041C2C00FF00008480000040000000180002004100B8003302440D1A000000004900060213182C180000004E
:4007C000E00000005C008300024000001865021A1A00000000000F00130FE170800008A0000000005004000000D0021036FFFFFF00AF0F041800000000000228040404041E
:40080000111500014000C0004040C000C000C000C000C000000000000000000000000000000000004D60800010046000CD0100000056000902040D008D074038010032042D
:40084000CD0400007200080000040000120A6410CD0400000F008008707F000200202200000004446103500002BEC0FD3BFFFFFF2200F00804000000090004000404040412
:40088000111100010000C00040011011C0010011400140010000000000000000000000000000000000606000600000008000508C8C008C00000000008000408B8B00000035
:4008C000000000009000019494008000000000000000000000001000080018010000000000000000000000000000000000000000000000000000000000000000000000008E
:4009000000000000000000000000000000000000000000000000000000000000000000000000000000000000000000000000000000000000000000000000000000000000B7
:400940000000000000000000000000000000000000000000000000000000000000000000000000000000000000000000000000000000000000000000000000000000000077
:400980000000000000000000000000000000000000000000000000000000000000000000000000000000000000000000000000000000000000000000000000000000000037
:4009C00000000000000000000000000000000000000000000000000000000000000000000000000000000000000000000000000000000000000000000000000000000000F7
:0200000490006A
:0400000000004005B7
:0200000490105A
:04000000BC90ACAF55
:0200000490303A
:02000000E4ED2D
:0200000490402A
:4000000000000000000000000000000000000000000000000000000000000000000000000000000000000000000000000000000000000000000000000000000000000000C0
:400040000000000000000000000000000000000000000000000000000000000000000000000000000000000000000000000000000000000000000000000000000000000080
:400080000000000000000000000000000000000000000000000000000000000000000000000000000000000000000000000000000000000000000000000000000000000040
:4000C0000000000000000000000000000000000000000000000000000000000000000000000000000000000000000000000000000000000000000000000000000000000000
:0200000490501A
:0C00000000012E16106900012E26F55696
:00000001FF