:400000000080002011000000451000004510000008B5044B1A6803F53F5302331A6001F031F800BFFA46004010B5054C237833B9044B13B10448AFF300800123237010BDA3
:400040004881FF1F00000000802F0000084B10B51BB108490848AFF300800848036803B910BD074B002BFBD0BDE81040184700BF000000004C81FF1F802F0000C880FF1FA4
:4000800000000000F0B5C5B062B601F0EDFA01F00DFA01F0FDFC02F01BF8C84801F0C0FDC74802F04FF902F027F802F0E7FA0A2001F0F0FD0F2000F0CFFCC24C0246C24911
:4000C000204602F039FB204601F0FEFABF4801F0FBFA1721202000F0A7FC202000F0BCFC0246BB49204602F027FB204601F0ECFA4021242000F098FC242000F0ADFC0246F4
:40010000B449204602F018FB204601F0DDFA80212E2000F089FC2E2000F09EFC0246AE49204602F009FB204601F0CEFA0221222000F07AFC222000F08FFC0246A74920460D
:4001400002F0FAFA204601F0BFFAA54801F0BCFA4022002132A802F0E6FA0021032000F0B5F900F0FDF900239E4A13709E4A13709E4A13709E4A137000F07AFD04E00622BC
:400180006946282000F07CFC2F2000F065FC2028F5D08C4D974C0FCC28606960AA60EB6023782B74284601F08FFA00262F2000F053FC10F0400F44D0C02202A9282000F0F8
:4001C0005FFC2F2000F048FC7E4D02468A49284602F0B2FA284601F077FA884C0FCC28606960AA60EB600FCC28616961AA61EB61284601F069FA00240AE0724D02AB1A5DD2
:400200007F49284602F098FA284601F05DFA0134BF2CF2D900212E2000F006FC022001F04FFD40212E2000F0FFFB2F2000F014FC644C02467349204602F07EFA204601F0E0
:4002400043FA694B1B78DBB2012B28D10636F6B23146032000F03AF900F082F9062242A9301D00F04FF900F07BF9022000F016F9074680282DD08021022000F027F900F06A
:400280006FF9022000F00AF907464E4C02465E49204602F051FA204601F016FA19E0524B1B7813F0FF0F14D1802F12D14021022000F00CF900F054F9022000F0EFF8074635
:4002C000404C02465049204602F036FA204601F0FBF9464B1B78464A127813F0FF0F14BF0123002312F0FF0F18BF43F00103002B3FF45CAF08E0402232A9042000F002F99A
:4003000000F02EF9013400E00024331F00D53F33B4EBA31FEFDB0021032000F0D7F800F01FF9324B1B78DBB2012B07D18021002000F0CCF800222D4B1A7025E02B4B1B7856
:40034000DBB2022B07D19021002000F0BFF80022264B1A7018E0254B1B78DBB2032B07D1A021002000F0B2F80022204B1A700BE01E4B1B78DBB2042B06D1B021002000F0DB
:40038000A5F80022194B1A70194B1B78DBB2012B07D11721012000F099F80022144B1A704DE0134B1B78DBB2022B2FD12721012000F08CF800220E4B1A7040E00D06000036
:4003C000710500009481FF1F842F0000B82F0000E82F0000183000004830000080300000B0300000F881FF1F8581FF1F8681FF1F8481FF1FE0300000F430000020310000CB
:40040000403100004831000074310000194B1B78DBB2032B07D13721012000F057F80022144B1A700BE0134B1B78DBB2042B06D14721012000F04AF800220E4B1A7000F0C1
:400440008FF8002000F02AF80B4C02460B49204602F072F9204601F037F9012000F01EF8074602460649204602F066F9204601F02BF99AE68481FF1F9481FF1F94310000AE
:40048000AC31000008B5052000F020FB08BD00BF08B5062000F004FB08BD00BF00B583B003218DF80410030A8DF805308DF8060002AA002302F8053D012301A800F020FBBE
:4004C0009DF8030003B05DF804FB00BF30B583B004460D46FFF7DCFF02238DF80430230A8DF805308DF806408DF80750002302AA02F8053D04210DEB010000F001FB03B0E4
:4005000030BD00BF2DE9F04182B000AF054688461446FFF7BDFF012001F0D2FBE61C04F10A0323F00703ADEB030D02238DF800302B0A8DF801308DF80250224641460DF191
:40054000030002F0E5F8002307F1080202F8013DF1B2684600F0D4FA0837BD46BDE8F08108B5FFF78FFF10F0010FFAD108BD00BF08B501F075FE1E4B1B78012B37D101F003
:400580002BFE1C4B1860002801DA00221A60194B1B68B3F5803F03DB4FF6FF72154B1A60144B18680212144BDA71187201F002FE124B1860A0F5FA70114B83FB0023C01718
:4005C000C0EBA3000F4B1860094B5B78012B0BD100EBC00003F1663383FB0023C017C0EB63032033074A13600122074B1A7008BD6481FF1FFC81FF1F8881FF1F0482FF1FA7
:40060000676666660082FF1FF881FF1F10B501F039F8AC4B18703138452800F2F081DFE810F0C000F40028018601EE01EE01EE01EE01EE01EE01EE01EE01EE01EE01460084
:40064000EE01EE014900E401EE01EE016100EE01EE01EE01EE01EE01EE01EE01EE01EE019700EE01EE015500C701C301B901EE01EE01EE01EE01EE01EE01EE01EE01EE0151
:40068000EE01EE014900E401EE01EE016100EE01EE01EE01EE01EE01EE01EE01EE01EE019700EE01EE015500C701C301B90100F0DFFA10BD0122844B1A7001F015FEFF2043
:4006C00001F08CFF802001F08FFF10BD00247E4B1C7001F0ABFDFF2001F080FF204601F083FF10BD794B1B783BBB794800F0ECFF784C204600F0E8FF774800F0E5FF204668
:4007000000F0E2FF754800F0DFFF204600F0DCFF734800F0D9FF204600F0D6FF714800F0D3FF204600F0D0FF6F4800F0CDFF204600F0CAFF05226D4B1A70644B1B78012B75
:4007400002D10122614B5A700022604B1A7010BD674800F0B9FF674C204600F0B5FF664800F0B2FF204600F0AFFF644800F0ACFF204600F0A9FF624800F0A6FF204600F0A8
:40078000A3FF604800F0A0FF204600F09DFF5E4800F09AFF204600F097FF05225B4B1A7010BD524B1B78DBB2052B13D1232000F053F910F0800F03D0554800F085FF06E086
:4007C0008021232000F030F9524800F07DFF0122464B1A704D4B1B78DBB2052B40F00F81202000F039F910F0170F03D0484800F06BFF06E01721202000F016F9454800F0F1
:4008000063FF0122414B1A7010BD384B1B78DBB2052B13D1232000F01FF910F0900F03D03B4800F051FF06E09021232000F0FCF8384800F049FF02222C4B1A70334B1B786D
:40084000DBB2052B40F0DB80202000F005F910F0270F03D02E4800F037FF06E02721202000F0E2F82B4800F02FFF0222274B1A7010BD1E4B1B78DBB2052B13D1232000F0D7
:40088000EBF810F0A00F03D0214800F01DFF06E0A021232000F0C8F81E4800F015FF0322124B1A70194B1B78DBB2052B40F0A780202000F0D1F810F0370F2DD0144800F0BB
:4008C00003FF30E00882FF1F8581FF1F6481FF1FC4310000FC31000034320000583200007032000088320000A03200008681FF1FB832000014350000F43200001C3300000A
:400900003833000054330000703300008481FF1F8C330000BC3300003721202000F084F8374800F0D1FE0322364B1A7010BD364B1B78DBB2052B13D1232000F08DF810F0A5
:40094000B00F03D0314800F0BFFE06E0B021232000F06AF82A4800F0B7FE04222A4B1A70284B1B78DBB2052B49D1202000F074F810F0470F03D0254800F0A6FE06E0472146
:40098000202000F051F81E4800F09EFE04221D4B1A7010BDFF2001F021FE002001F024FE012001F001FE10BD002001F0FDFD10BD174800F089FE174C204600F085FE16485F
:4009C00000F082FE204600F07FFE144800F07CFE204600F079FE124800F076FE204600F073FE01220F4B1A7010BD0E4B1B78012B02D100220B4B5A7000220A4B1A7010BDCD
:400A0000BC3300008481FF1F8681FF1F8C330000DC330000FC310000FC33000024340000583400006481FF1F30B583B08DF804008DF80510002402AD05F8054D012000F000
:400A400061FE23462A46022101A800F0B5F8204600F058FE03B030BD00B583B060F07F008DF8040002AA002302F8053D0123194601A800F0A1F89DF8030003B05DF804FBEA
:400A800000B583B060F03F0302A800F8043D13460A46012100F090F803B05DF804FB00BF10B50446002000F021FE204600F0A2FB00F078FB10F0080FFAD000F005FC044620
:400AC000012000F013FE204610BD00BF10B50446002000F00BFE204600F08CFB002000F089FB00F05FFB10F0010FFAD000F0ECFB00F0EAFB0446012000F0F8FD204610BDF6
:400B00002DE9F04383B006460C4617469846002000F0ECFD64B2002511E02146082CA8BF0821C9B206EBC50000F04AFC00F03AFB10F0010FFAD0083C64B201356DB2002CCF
:400B4000EBDC00F04DFC00F0F1FB0026009601964FFA88F820E0C146B8F1080FA8BF4FF008095FFA89F1684600F02AFC00F01AFB10F0010FFAD0002406E004EBC60500F0D5
:400B8000A3FB78550134E4B24C45F6DBA8F108084FFA88F8013676B2B8F1000FDBDC012000F0A4FD00F01CFC00F0C0FB00F0DEFB03B0BDE8F08300BF2DE9F04383B00646DD
:400BC0000C4617469846002000F09CFD64B2002511E02146082CA8BF0821C9B206EBC50000F0E0FE00F0D0FD10F0010FFAD0083C64B201356DB2002CEBDC00F0E3FE00F06F
:400C000087FE0026009601964FFA88F820E0C146B8F1080FA8BF4FF008095FFA89F1684600F0C0FE00F0B0FD10F0010FFAD0002406E004EBC60500F039FE78550134E4B26C
:400C40004C45F6DBA8F108084FFA88F8013676B2B8F1000FDBDC012000F054FD00F0B2FE00F056FE00F074FE03B0BDE8F08300BF38B5214D284600F027FD204800F024FD4A
:400C80001F4C204600F020FD1E4800F01DFD204600F01AFD1C4800F017FD204600F014FD1A4800F011FD204600F00EFD184800F00BFD204600F008FD164800F005FD204680
:400CC00000F002FD144800F0FFFC204600F0FCFC124800F0F9FC204600F0F6FC104800F0F3FC204600F0F0FC284600F0EDFC0D4800F0EAFC38BD00BF1C3100009034000039
:400D0000F03400005035000078350000D83500003436000078360000BC360000003700004437000070370000FEE700BFF0B40022174611E050F82760F3B226F0FF0608E0BE
:400D400001EB420511F812406D78A5550132013BDBB2002BF4D10137232FEBD9F0BC70470B4B1B78DBB203F007010A4A11701B09013213701023A2F23272137002F6C3128E
:400D80001370583213704422034B1A70704700BFCF0100496E5800407658004008B50A46002101F0C0FC08BD08B501F0B1FC08BD38B50024384B1C80502202331A700B2274
:400DC00002331A80182335490B7002310A80344A137019250232158002321370EF21023211800232137042F6C6522E4B1A8002331D7004222C492D48FFF7D6FF02222C4B4D
:400E00001A7008224FF040231A70032103F500731970284B1B78DBB227490B70274B1A8041F25122023B1A800CE0254B1B7803F0010343EA440404F003044FF4F07001F0C9
:400E40002BFC013D0DB1032CEFD115B90320FFF76BFF1C4B4FF480721A8007221A70002219490A704820023108701A700222033B1A7004220A331A70144A137843F03F0354
:400E80001370013A137843F001031370013A137843F08003137038BD80400040864000408A400040944000401C090048004100400043004008010049A14600402242004089
:400EC000254200400440004006400040A2430040012807D8044B53F820201844017A13780B431370704700BFD0370000012808D8044B53F820201844017A137823EA010334
:400F000013707047D037000038B572B6394A137843F00403137000240BE0374863001A19510001440A46098AD068FFF737FF0134E4B2082CF1D900240CE02F48A200111973
:400F40004B000344B3F84C20996C586CFFF72CFF0134E4B2012CF0D928494FF09040FFF7E5FE0A24264B1C70264A137843F0020313701032137843F002031370224D2B7849
:400F800043F040032B70A2F58632513A137843F01003137008221D491D48FFF705FF22461C491D48FFF700FF22461C491C48FFF7FBFE22461B491C48FFF7F6FE08221B4914
:400FC0001B48FFF7F1FE1B4A137843F008031370194C61232370FFF7EBFE812323700122164B1A70FFF7BCFE0E2229461448FFF7DBFE38BDE8460040D0370000900000489C
:401000008358004003500140A0430040E808004802510040F0080048C0510040FC0800481051004008090048205100401409004832510040224300400048004004000840EA
:40104000B043004008B501F037FB03680C2B00D1FEE7FEE708B5094B1A681044084BC31A802B02DC054B186005E001F025FB0C2303604FF0FF32104608BD00BFCC80FF1F7C
:401080004882FF1F08B5104E104D16E029686B68AC68002204E051F8040B43F8040B0432A242F8D1E868002203E0002143F8041B04328242F9D11035013E002EE6D101F0E9
:4010C00001FBFEF7DFFFFEE7010000008438000008B5104A104B1A60104A136843F40073136000230AE0032B03D80D4A52F8231000E00C490C4A42F8231001332F2BF2D966
:401100000A4B1A780A4B1A70074A0A4B1A60FFF7FBFE08BD0004FA050CED00E014ED00E000000000451000000080FF1FBC760040C080FF1F08ED00E00222014B1A6070471F
:4011400000E100E00122014B1A60704700E100E008B501F0A9FA0C4A137843F020031370023A137843F010031370013A137843F01003137001F09CFA00F060FDFFF7DCFF7E
:40118000FFF7E0FF08BD00BF9D6400400222014B1A60704780E100E00122014B1A60704780E100E010B5FFF7F1FF064B1C78064A137803F009031C4300231370FFF7BCFFB2
:4011C000204610BD6B6400400C82FF1F10B5FFF7E3FF064B1B78064A147804F040041C4300231370FFF7AEFF204610BD6A6400401D82FF1F10B504462B4B1A7802F0FF03BB
:4012000012B1013BDBB200E00723284A1278D2B29342F1D0FFF7BAFF254B1978254A137803F009030B4313701F4B1A78D2B21F4B1B78DBB29A4207D11E4B1B7813F0040FB8
:4012400002D01D4B1C702CE0184A13780133DBB213701378DBB2072B02D90022134B1A70124B1A78D2B2104B1B78DBB29A420ED10D4A13780133DBB213701378DBB2072B23
:4012800002D90022084B1A7001220C4B1A70074B1B78DBB20A4AD4540A4A137843F004031370FFF749FF10BD1E82FF1F1C82FF1F6B6400400C82FF1F4A6400401882FF1FE0
:4012C0001082FF1F8B64004010B5FFF765FF134B1A78D2B2124B1B78DBB29A4214D0114B1B7813F0FF0F0CD10C4A13780133DBB213701378DBB2072B06D90022074B1A7016
:4013000002E00022074B1A70044B1B78DBB2064AD45CE4B2FFF716FF204610BD1B82FF1F1982FF1F1A82FF1F2082FF1F08B501E0094B1B78094B1B7813F0200FF8D1FFF7BF
:401340002BFF0023064A1370064A1370064A1370FFF7F8FE08BD00BF5A6400406A6400401A82FF1F1B82FF1F1982FF1F08B501F09BF90E4B1A7842F001021A701A7802F08D
:40138000FE021A7001F094F9FFF700FF0023084A1370084A1370084A1370084A137803F0FB031370FFF7C8FE08BD00BF9A6400401882FF1F1E82FF1F1C82FF1F8B6400405E
:4013C00070B506460C46002506E0705DFFF712FF0135EDB2013CE4B2002CF6D170BD00BF08B501E00A4B1B780A4B1B7813F0200FF8D101F059F9084B1A7842F001021A7074
:401400001A7802F0FE021A7001F052F908BD00BF5A6400406A6400409A64004010B50F22174B1A70174C022323600721012000F065FC1549012000F04DFC01232360072186
:40144000002000F05BFC1149002000F043FCFFF7C7FF00240E4B1C700E4B1C700E4B1C700E4B1C700E4B1C700E4B1C70FFF79AFEFFF7ACFE0C4B1C702022013B1A7010BD38
:401480008D64004080E100E0C9140000691500001A82FF1F1B82FF1F1982FF1F1882FF1F1E82FF1F1C82FF1F8B64004008B5054B1B7823B9FFF7B2FF0122024B1A70FFF7BD
:4014C00047FE08BD6681FF1F28E01F4B19781F4A137803F009030B431370137813F0040F24D01B4B1B7813F0FF0F0CD1194A13780133DBB213701378DBB2072B06D900221D
:40150000144B1A7002E00022114B1A70114B1B78DBB2114AD35CDBB2104A13700D4B1A78D2B20F4B1B78DBB29A42CED1094B1A78D2B20B4B1B78DBB29A4204D1094A137896
:4015400003F0FB03137070476B6400400C82FF1F1882FF1F1E82FF1F1082FF1F4A6400401C82FF1F8B640040204B1A7820490B7803F0400313430B7032E01E4B1A78D2B205
:401580001D490B780133DBB20B700B78DBB2072B02D90021184B1970174B1978C9B2174B1B78DBB299420ED114490B780133DBB20B700B78DBB2072B02D900210F4B1970F5
:4015C00001210F4B19700C4B1B78DBB20D49CA54064B1A7806490B7803F0400313430B70034B1B7813F0200FC7D170476A6400401D82FF1F5A6400401982FF1F1B82FF1FA0
:401600001A82FF1F2082FF1F7222084B1A702022013B1A700622A3F261131A70472210331A70002250331A70704700BF8A65004010B501F039F804460A4A137843F020038C
:401640001370013A137843F010031370A2F20112137843F01003137000F0FEFA204601F027F810BD9A65004008B5054B1B7823B9FFF7CAFF0122024B1A70FFF7D9FF08BD2B
:401680006781FF1F084B1B78DBB213F0200F06D0064A1078C0B213F01E0F02D17047002070470020704700BF6965004049650040034B1B7813F0040FFAD1024B18707047EE
:4016C000686400404C64004038B5074B1B782BB938BDFFF7EDFF0134A4B201E005460024285D0028F5D138BD6781FF1F044A137803F0EF03000100F01000184310707047C7
:4017000020510040044A137803F07F03C001C0B218431070704700BF105100400822014B1A60704700E100E00422014B1A60704700E100E008B500F0B7FF0C4A137843F042
:40174000200313700532137843F010031370043A137843F01003137000F0AAFF00F08AFAFFF7DCFFFFF7E0FF08BD00BF966500400822014B1A60704780E100E00422014BDA
:401780001A60704780E100E010B5FFF7F1FF064B1C78064A137803F009031C4300231370FFF7BCFF204610BD6B6500403782FF1F10B5FFF7E3FF064B1B78064A147804F02C
:4017C00040041C4300231370FFF7AEFF204610BD676500403082FF1F10B504462B4B1A7802F0FF0312B1013BDBB200E00723284A1278D2B29342F1D0FFF7BAFF254B197887
:40180000254A137803F009030B4313701F4B1A78D2B21F4B1B78DBB29A4207D11E4B1B7813F0040F02D01D4B1C702CE0184A13780133DBB213701378DBB2072B02D90022C4
:40184000134B1A70124B1A78D2B2104B1B78DBB29A420ED10D4A13780133DBB213701378DBB2072B02D90022084B1A7001220C4B1A70074B1B78DBB20A4AD4540A4A1378BC
:4018800043F004031370FFF749FF10BD3482FF1F3582FF1F6B6500403782FF1F486500403382FF1F3882FF1F8B65004010B5FFF765FF134B1A78D2B2124B1B78DBB29A421C
:4018C00014D0114B1B7813F0FF0F0CD10C4A13780133DBB213701378DBB2072B06D90022074B1A7002E00022074B1A70044B1B78DBB2064AD45CE4B2FFF716FF204610BD38
:401900003682FF1F3182FF1F3282FF1F2882FF1F08B501E0094B1B78094B1B7813F0200FF8D1FFF72BFF0023064A1370064A1370064A1370FFF7F8FE08BD00BF58650040D6
:40194000676500403282FF1F3682FF1F3182FF1F08B500F0A9FE0E4B1A7842F001021A701A7802F0FE021A7000F0A2FEFFF700FF0023084A1370084A1370084A1370084A5D
:40198000137803F0FB031370FFF7C8FE08BD00BF986500403382FF1F3482FF1F3582FF1F8B65004070B506460C46002506E0705DFFF712FF0135EDB2013CE4B2002CF6D1C2
:4019C00070BD00BF08B501E00A4B1B780A4B1B7813F0200FF8D100F067FE084B1A7842F001021A701A7802F0FE021A7000F060FE08BD00BF58650040676500409865004073
:401A000010B50F22174B1A70174C082323600721032000F073F91549032000F05BF9042323600721022000F069F91149022000F051F9FFF7C7FF00240E4B1C700E4B1C70A1
:401A40000E4B1C700E4B1C700E4B1C700E4B1C70FFF79AFEFFF7ACFE0C4B1C702022043B1A7010BD8665004080E100E0AD1A00004D1B00003282FF1F3682FF1F3182FF1FD5
:401A80003382FF1F3482FF1F3582FF1F8B65004008B5054B1B7823B9FFF7B2FF0122024B1A70FFF747FE08BD6981FF1F28E01F4B19781F4A137803F009030B431370137803
:401AC00013F0040F24D01B4B1B7813F0FF0F0CD1194A13780133DBB213701378DBB2072B06D90022144B1A7002E00022114B1A70114B1B78DBB2114AD35CDBB2104A137035
:401B00000D4B1A78D2B20F4B1B78DBB29A42CED1094B1A78D2B20B4B1B78DBB29A4204D1094A137803F0FB03137070476B6500403782FF1F3382FF1F3482FF1F3882FF1F42
:401B4000486500403582FF1F8B650040204B1A7820490B7803F0400313430B7032E01E4B1A78D2B21D490B780133DBB20B700B78DBB2072B02D90021184B1970174B1978B0
:401B8000C9B2174B1B78DBB299420ED114490B780133DBB20B700B78DBB2072B02D900210F4B197001210F4B19700C4B1B78DBB20D49CA54064B1A7806490B7803F0400356
:401BC00013430B70034B1B7813F0200FC7D17047676500403082FF1F586500403182FF1F3682FF1F3282FF1F2882FF1F014B1B681865704708ED00E04001C0B2014B187039
:401C0000704700BF04E400E01022014B1A60704700E100E01022014B1A60704780E100E010B50446FFF7F6FF2046FFF7DFFF0720FFF7E2FFFFF7E8FF10BD00BF054A137891
:401C400043F0020313701032137843F002031370704700BFA2430040054A137843F0080313701032137843F008031370704700BFA2430040054A137843F0040313701032E9
:401C8000137843F004031370704700BFA243004001BE704710B5044605E0084B186800F0FBFCA4F50044B4F5004FF6D8034B586800FB04F000F0F0FC10BD00BFD080FF1FA7
:401CC00008B5034B1B7A00FB03F000F0E5FC08BDD080FF1F70B504460E46074B1D681F2802D90020FFF7D4FF04F01F04103455F8240045F8246070BD08ED00E038B50446E7
:401D00000D46072902D90020FFF7C2FF1F2C02D90020FFF7BDFF04F01F0000F1604000F564406D01EDB2057038BD00BF10B59DF80840012C51D1013809282ED8DFE800F0EB
:401D4000052D2D052D2D0F192D230F2B03D92548007840B222E02448007840B21EE00F2B03D92248007840B218E02148007840B214E00F2B03D91F48007840B20EE01E4886
:401D8000007840B20AE00F2B03D91C48007840B204E01B48007840B200E0002001EB401101FB02F1C90B8AB20D2B0BD8C3F10E0289B211418AB2611E124800EB81010133DC
:401DC0008B7005E0631E0F4901EB83030F219970013C0C4B23F8242010BD0020FFF758FF10BD00BF180100491C010049190100491D0100491A0100491E0100491B01004903
:401E00001F0100496C81FF1FF8B5074600F04CFC06460D4D2B7843F003032B700B4C237843F0030323700A4B1F700320FFF748FF2B7803F0FC032B70237803F0FC0323708D
:401E4000304600F035FCF8BDF8460040F9460040925800400022324B1A7101285FD170B53422304B1A70042202331A70062201331A70002401331C7001331C703F220133E8
:401E80001A7002331C7001331C7001331C7001250A331D70502203F527631A700A2201331A702C2201331A7001331C70442203331A70482201331A7001331D7002260233C7
:401EC0001E70122201331A70282201331A70EB2201331A705220FFF797FF5822124B1A7001331C70052205331A7001331E7001331C7001331C70204600F042FA43F2333219
:401F00000A4B1A602946284600F05EFA2946082000F0DEFA06491D20FFF7DCFE70BD70476C81FF1F004E0040945800404082FF1F01220000F0B583B0284D01272F70284EBC
:401F400000247471102000F02DFA102000F0AEFA07211D20FFF7D2FE0422224B1A7001331C7007331C70204A137843F0180313701E4B1C7003F2F5231C7001331C700A223B
:401F8000A3F209331A7001331C7002331C705B2205331A705E2201331A7004331C701422A3F68C231A70009710234FF4004248F6F0510220FFF7BAFE2B78013B06EB830309
:401FC0009A780B4B1A702B78013B36F82320094B1A802878FFF73EFF03B0F0BDE080FF1F6C81FF1F96580040075B0040935800400E4E00400C4E004070B500F055FB064613
:402000002A4B1B782A4B1A7842F001021A701A7842F010021A7010331A7842F001021A701A7842F010021A70224D2B7843F002032B70214C237843F0020323701F4A1378D2
:4020400043F0030313700320FFF73AFE2B7803F0FD032B70237803F0FD032370184A137843F0060313707A22164B1A70164A137843F0010313701032137843F001031370A2
:402080000F3A137843F0010313701032137843F0010313704FF000530C4A1360A2F5C0721360304600F004FB70BD00BFE080FF1FAA430040F8460040F94600409158004052
:4020C0007758004082580040A143004080E200E008B5084B9B794BB9064BDB7913F0FF0F01D1FFF727FF0122024B9A71FFF784FF08BD00BF6C81FF1F024A137843F00103F4
:4021000013707047004E0040024A137803F0FE0313707047004E0040094B1B7913F0FF0F03D0074B5B79DBB203E0064B1B7803F00103012B01D00028EED01846704700BF50
:402140006C81FF1F014E0040154B1B7803F00303012B07D8134B1888023B1B889BB243EA004013E0022B0AD10E4B1888023B1B7843EA00430C4A107843EA002006E00B4B9B
:40218000188883B2074A108843EA0040084B1B7913F0FF0F02D00022054B5A71704700BF144E0040124E0040114E0040104E00406C81FF1F064B9B68C01A4FF47A7303FB91
:4021C00000F0044B1B6890FBF3F000B2704700BF6C81FF1F4082FF1F10B5084A137843F004031370FFF788FF0020FFF795FFFFF7ABFF0446FFF788FF204610BD014E0040ED
:40220000704700BF084A137843F0010313701032137843F00103137002F64D32137843F001031370704700BFA3430040084A137803F0FE031370A2F65D32137803F0FE03B8
:4022400013701032137803F0FE031370704700BF004F0040014B1870704700BF034F0040014B1878704700BF034F0040014B1880704700BF044F0040014B1880704700BF8B
:40228000064F004008B5154A137803F0010313700232137803F0FC031370114B1A7802F0CF021A701A7842F030021A701A7802F0F0021A701A7842F00F021A70094A13783C
:4022C00043F0010313706320FFF7D0FF6320FFF7D3FF0820FFF7BEFF08BD00BF004F00400B4F0040014F004008B5054B1B7823B9FFF7C8FF0122024B1A70FFF783FF08BD09
:402300007881FF1F024B1B68C3F88400704700BF08ED00E04001C0B2014B1870704700BF11E400E04FF40032014B1A60704700BF00E100E04FF40032014B1A60704700BF37
:4023400080E100E010B50446FFF7F4FF2046FFF7D9FF0720FFF7DEFFFFF7E4FF10BD00BF10B5002404E02046FEF7C0FD0134E4B2012CF8D9FF22014B1A7010BDE180FF1FA0
:4023800010B50446FFF7ECFF2046FEF7A1FD014B1C7010BDE180FF1F014B188880B2704780400040034B1A7800F0F80010431870704700BF82400040024B187800F007004C
:4023C000704700BF8240004070B505460E46FFF7F3FF0446FFF7E0FFA84256D02B4B1B7803F0010294B900B185B938B9284B1D80284A137803F0BF03137070BD254A1378F2
:4024000043F040031370224B1D8070BD22B3002321490B7001240F310C7004310B700C390B7803F07F030B701A4B1B7813F0080F00D08DB9194B18800721013B1970164BD4
:402440001B7813F0010FFAD110490B7803F0FE030B700021104B19700C4B1B7813F0010F0DD00E4B1D800EB1032200E001220A4B1A70094B1B7813F0010FFAD170BD044BC4
:402480001D8002490B7813430B7070BDA243004080400040824000400140004002400040014B188880B2704700410040034B1A7800F0F80010431870704700BF0241004097
:4024C000024B187800F00700704700BF0241004070B505460E46FFF7F3FF0446FFF7E0FFA84256D02B4B1B7803F0010294B900B185B938B9284B1D80284A137803F0BF0346
:40250000137070BD254A137843F040031370224B1D8070BD22B3002321490B70012413310C7004390B7008390B7803F07F030B701A4B1B7813F0080F00D08DB9194B18806F
:402540000721013B1970164B1B7813F0010FFAD110490B7803F0FE030B700021104B19700C4B1B7813F0010F0DD00E4B1D800EB1032200E001220A4B1A70094B1B7813F0CC
:40258000010FFAD170BD044B1D8002490B7813430B7070BDA143004000410040024100400140004002400040044A137803F0FE0300F0010018431070704700BF3051004060
:4025C000024A137843F080031370704778650040014B1870704700BF09640040014B1870704700BF49640040014B1870704700BF29640040014B1870704700BF896400403B
:40260000014B1878704700BF69640040014B1878704700BF5964004008B501E0FFF7F6FFFFF7EEFF10F0100FF8D108BD10B5114A137803F0C00343F0090313700E4C2378BB
:4026400043F001032370FF20FFF7C2FFFF20FFF7C5FF0020FFF7C8FF0020FFF7CBFF00F023F8237843F01003237000F021F8FFF7D3FF10BD786500409964004008B5054BA0
:402680001B7823B9FFF7D2FF0122024B1A70FFF797FF08BD7981FF1F0230800803D000BF01380046FCD17047EFF3108072B6704780F31088704700BF014B1868704700BF1E
:4026C0004481FF1F0E4B70B51E460E4C0025E41AA410A54204D056F8253098470135F8E701F0BEF8084B094C1E46E41AA4100025A54204D056F8253098470135F8E770BD89
:402700006C3800006C3800006C3800007438000010B5431E0A44914204D011F8014B03F8014FF8E710BD03460244934202D003F8011BFAE7704700000EB400B54FF4027188
:402740009CB0ADF814106FF00041049107914FF6FF711DAB02900690084853F8042BADF81610006802A9019300F064F8029B00221A701CB05DF804EB03B070474481FF1FA4
:402780002DE9F0478E6882469E420C46914698463ED88A8912F4906F3AD02568096902236F1A656905EB450595FBF3F57B1C43449D4238BF1D4653050FD5294600F040FB95
:4027C000064698B13A462169FFF7A2FFA38923F4906343F08003A38113E02A4600F08EFB064670B92169504600F0DEFA0C23CAF80030A3894FF0FF3043F04003A381BDE860
:40280000F08726613E44266046466561ED1BA560464528BF464649463246206800F0A8FAA36800209B1BA36023681E442660BDE8F08700002DE9F04F9DB003938B8980468F
:402840001C060D4616460DD50B695BB9402100F0F7FA2860286118B90C23C8F80030CDE040236B610023099320238DF82930DFF89CB130238DF82A3037463C4614F8013B81
:402880001BB9B7EB060910D003E0252BF9D02746F3E74B46324629464046FFF771FF013000F0A780099B4B4409933B78002B00F0A08000234FF0FF32049307930592069313
:4028C0008DF853301A930126052221784E4800F041FA671C049B38B14B4A3C46801A06FA00F018430490EFE7D90644BF20228DF853201A0744BF2B228DF8532022782A2A97
:4029000003D0079A00210A200BE0039A111D12680391002A10DA524243F00200079204900BE027463B780134303B092B03D800FB02320121F5E701B107923B782E2B1ED1DD
:402940007B782A2B0AD1039B02371A1D1B680392002BB8BF4FF0FF33059310E0002319460593781C0A2407463A780130303A092A03D804FB01210123F5E703B1059103225F
:402980003978224800F0E6F940B14023CBEB000003FA00F0049B013718430490397806221B487E1C8DF8281000F0D4F988B1194B33B9039B073323F007030833039314E0DD
:4029C00003AB00932A46144B04A94046AFF3008007E003AB00932A460F4B04A9404600F093F8B0F1FF3F824603D0099B5344099342E7AB895B0601D4099801E04FF0FF30FE
:402A00001DB0BDE8F08F00BF2A380000303800003438000000000000812700002DE9F04791461F460A698B6806469342B8BF1346C9F8003091F843200C46DDF8208012B1C1
:402A40000133C9F800302368990642BFD9F800300233C9F80030256815F0060510D104F1190A07E00123524639463046C04701301AD00135E368D9F800209B1A9D42F1DBBD
:402A800094F843302268003318BF012392060FD5E118302081F843005A1C94F845102244023382F8431003E04FF0FF30BDE8F08704F1430239463046C0470130F4D02268FD
:402AC000D9F80050E36802F00602042A08BF5D1B2269A3680CBF25EAE57500259342C4BF9B1AED184FF000091A344D4509D00123224639463046C0470130D5D009F101099F
:402B0000F3E70020BDE8F0872DE9F04317460A7E85B06E2A984606460C460C9B01F1430E00F0AE8011D8632A22D009D8002A00F0BB80582A40F0CA8081F84520834955E087
:402B4000642A1ED0692A1CD0C0E0732A00F0B08009D86F2A2ED0702A40F0B8800A6842F020020A603EE0752A24D0782A3AD0ADE01A6801F14205111D1960136884F842309E
:402B8000A8E021681A6811F0800F02D0111D196008E011F0400F02F10401196002D0B2F9003000E01368002B3CDA2D225B4284F8432037E021681A6811F0800F02D0111D0A
:402BC000196007E011F0400F02F10401196001D0138800E01368227E5C496F2A14BF0A2208221BE078225A4984F845202268186812F0800F00F104051D6003D1550601D5B6
:402C0000038800E00368D00744BF42F0200222601BB9226822F0200222601022002084F8430001E049490A226568002DA56008DB206820F0040020602BB9002D7DD1754632
:402C40000CE0002B79D07546B3FBF2F002FB1033CB5C05F8013D03460028F5D1082A0BD12368DA0708D5236962689A42DEBF302305F8013C05F1FF35C5EB0E0323612EE0A0
:402C800008681A6810F0800F496903D0101D1860136808E010F0400F02F104001860136801D0198000E0196000232361754616E01A68111D1960156800216268284600F0C3
:402CC00049F808B1401B6060636804E004F1420584F8422001232361002384F84330CDF800803B4603AA21463046FFF797FE013002D14FF0FF3026E023692A4639463046F8
:402D0000C0470130F5D023689B0710D5002504F1190907E001234A4639463046C0470130E7D00135E368039A9B1A9D42F2DBE068039B9842B8BF184605E00B7804F1420511
:402D400084F842308AE705B0BDE8F0833B3800004C38000010B5C9B202449042034605D01C7801308C42F8D1184610BD002010BD884210B501EB020301D8421E0BE09842C8
:402D8000FBD28118D21AD34204D013F8014D01F8014DF8E710BD994204D011F8014B02F8014FF8E710BD000038B50546002944D051F8043C0C1F002BB8BFE41800F0D4F80F
:402DC0001E4A1368114613B96360146030E0A3420DD92268A018834201BF18685B681218226063600C6023E0A24203D813465A68002AF9D118681918A1420BD121680144C7
:402E000058188242196013D110685268014419605A600DE002D90C232B6009E021686018824201BF106852680918216062605C602846BDE8384000F098B838BD8081FF1F36
:402E400070B5CD1C25F0030508350C2D38BF0C25002D064601DBA94202D90C23336046E000F082F8234B1C681A462146A1B10B685B1B0ED40B2B03D90B60CC18CD501EE0CA
:402E80008C420BBF63684B681360636018BF0C4615E00C464968E9E7174C23681BB9304600F052F820602946304600F04DF8431C18D0C41C24F00304A0420DD125603046CC
:402EC00000F053F804F10B00231D20F00700C31A0ED05A42E25070BD211A304600F034F80130EBD10C233360304600F03EF8002070BD00BF8081FF1F7C81FF1FF8B5074632
:402F000015460E4621B91146BDE8F840FFF798BF1AB9FFF749FF2846F8BD00F027F885420ED929463846FFF78BFF044650B131462A46FFF7EDFB31463846FFF735FF01E019
:402F40003046F8BD2046F8BD38B5064C0023054608462360FEF77EF8431C02D1236803B12B6038BD4482FF1F7047704751F8040C0028BEBF091851F8043CC018043870476C
:402F8000000000002A2A2057686F20616D2049207265676973746572203D20307825303258205B45787065637465643A20307833335D0D0A000000002A2A2A2A2A2A2A2AB6
:402FC0002A2A2A2A2A2A5265676973746572732056616C7565732A2A2A2A2A2A2A2A2A2A2A2A2A2A0D0A000020436F6E74726F6C20726567697374657220312068617320D7
:403000006265656E2073657420746F203D20307825303258200D0A0020436F6E74726F6C207265676973746572203520686173206265656E2073657420746F203D203078C7
:4030400025303258200D0A0020436F6E74726F6C207265676973746572206F66204649464F20686173206265656E2073657420746F203D20307825303258200D0A000000BB
:4030800020436F6E74726F6C207265676973746572203320686173206265656E2073657420746F203D20307825303258200D0A002A2A2A2A2A2A2A2A2A2A2A2A2A2A2A2AD7
:4030C0002A2A2A2A2A2A2A2A2A2A2A2A2A2A2A2A2A2A2A2A2A2A2A2A2A2A2A2A0D0A00000D0A204649464F20636C65616E200D0A00000000206669666F5F7372635F7265CB
:403100006720646F706F206C61206D756C7469726561642030782530325820200D0A0000205072696D692036332076616C6F72692064656C206275666665723A200D0A00CD
:4031400020256420000000000D0A206669666F5F7372635F72656720646F706F20696C2072657365742030782530325820200D0A000000002A2A20454550524F4D2053743C
:4031800061747573204F4E2D4F4646203D202564200D0A002A2A20454550524F4D20465352203D202564200D0A0000002A2A20454550524F4D205346203D202564200D0A9A
:4031C00000000000436F6E66696775726174696F6E206F662074686520616363656C65726F6D657465722066756C6C207363616C652072616E6765200D0A00002D2D2D2D93
:403200002D2D2D2D2D2D2D2D2D2D2D2D2D2D2D2D2D2D2D2D2D2D2D2D2D2D2D2D2D2D2D2D2D2D2D2D2D2D2D2D2D2D2D2D2D2D2D2D0D0A00004368617261637465722020201A
:403240007C2046756C6C207363616C652072616E6765200D0A0000003120202020202020202020207C202B2D203267200D0A00003220202020202020202020207C202B2D98
:40328000203467200D0A00003320202020202020202020207C202B2D203867200D0A00003420202020202020202020207C202B2D20313667200D0A00436F6E6669677572B5
:4032C0006174696F6E206F662074686520616363656C65726F6D657465722073616D706C696E67206672657175656E6379200D0A0000000043686172616374657220202051
:40330000202020207C2053616D706C696E67204672657175656E6379200D0A00312020202020202020202020202020207C2031487A200D0A00000000322020202020202044
:4033400020202020202020207C203130487A200D0A000000332020202020202020202020202020207C203235487A200D0A0000003420202020202020202020202020202034
:403380007C203530487A200D0A0000005468652073656C6563746564206F7074696F6E2077617320616C7265616479206265656E20736574746564200D0A00005468652088
:4033C0006368616E676520776173207375636365737366756C200D0A0000000053746F7265207468652074656D70657261747572652064617461200D0A00000043686172BA
:4034000061637465722020202020207C2054656D706572617475726520666F726D6174200D0A00006320202020202020202020202020207C2053746F72652064617461200D
:40344000696E2043656C7369757320666F726D6174200D0A000000006620202020202020202020202020207C2053746F7265206461746120696E2046616872656E68656973
:403480007420666F726D617420200D0A000000002A2A2A2A2A2A2A2A2A2A2A2A2A2A2A2A2A2A2A2A2A2A2A2A2A2A2A2A2A2A2A2A2A2A2A2A2A2A2A204D454E5527202A2A42
:4034C0002A2A2A2A2A2A2A2A2A2A2A2A2A2A2A2A2A2A2A2A2A2A2A2A2A2A2A2A2A2A2A2A2A2A2A2A2A2A2A2A2A2A0D0A000000002D2D2D2D2D2D2D2D2D2D2D2D2D2D2D2D01
:403500002D2D2D2D2D2D2D2D2D2D2D2D2D2D2D2D2D2D2D2D2D2D2D2D2D2D2D2D2D2D2D2D2D2D2D2D2D2D2D2D2D2D2D2D2D2D2D2D2D2D2D2D2D2D2D2D2D2D2D2D2D2D2D2D4B
:403540002D2D2D2D2D2D2D2D2D2D0D0A00000000436F6D6D616E6420207C20526573756C742020202020202020202020202020202020200D0A0000006220202020202020BF
:40358000207C2053746172742064617461206163717569736974696F6E2066726F6D2074686520616363656C65726F6D6574657220616E642073746F72616765206F6E2089
:4035C00074686520454550524F4D206D656D6F7279200D0A000000007320202020202020207C2053746F702064617461206163717569736974696F6E2066726F6D207468AA
:403600006520616363656C65726F6D6574657220616E642073746F72616765206F6E2074686520454550524F4D206D656D6F7279200D0A006620202020202020207C2043C7
:403640006F6E66696775726174696F6E206F662074686520616363656C65726F6D657465722066756C6C207363616C652072616E6765200D0A0000007020202020202020B5
:40368000207C20436F6E66696775726174696F6E206F662074686520616363656C65726F6D657465722073616D706C696E67206672657175656E6379200D0A0076202020AB
:4036C00020202020207C20537461727420646174612076697375616C697A6174696F6E20696E207468652042726964676520436F6E74726F6C2050616E656C200D0A000007
:403700007520202020202020207C2053746F7020646174612076697375616C697A6174696F6E20696E207468652042726964676520436F6E74726F6C2050616E656C200D63
:403740000A0000007420202020202020207C2053746F7265207468652074656D70657261747572652064617461200D0A000000002A2A2A2A2A2A2A2A2A2A2A2A2A2A2A2A62
:403780002A2A2A2A2A2A2A2A2A2A2A2A2A2A2A2A2A2A2A2A2A2A2A2A2A2A2A2A2A2A2A2A2A2A2A2A2A2A2A2A2A2A2A2A2A2A2A2A2A2A2A2A2A2A2A2A2A2A2A2A2A2A2A2A89
:4037C0002A2A2A2A2A2A2A2A2A2A2A0D0A000000035B00402443004040000000004F00400C00405100403000F0510040100000000140000A800A014080050014014000083A
:4038000000400140000A004C01400002005001402000000060520040600800480600000A01406808004880004300232D302B2000686C4C0065666745464700303132333466
:403840003536373839414243444546003031323334353637383961626364656600000000F8B500BFF8BC08BC9E4670474D000000D1100000F8B500BFF8BC08BC9E46704712
:403880002900000098380000C880FF1F800000000001000000000000000000004882FF1F0000E02EC05D00001800000000366E0101FF000000000000000000000000000058
:4038C0000000000000000000000000000000000000000000283800000000000000000000000000000000000000000000000000000000000000000000000000000000000068
:403900000000000000000000000000000000000000000000E480FF1F0000000000000000000000000000000000000000000000000000000000000000000000000000000005
:403940000000000000000000000000000000000000000000000000000000000000000000000000000000000000000000000000000000000000000000000000000000000047
:403980000000000000000000000000000000000000000000000000000000000000000000000000000000000000000000000000000000000000000000000000000000000007
:4039C00000000000000000000000000000000000000000000000000000000000000000000000000000000000000000000000000000000000000000000000000000000000C7
:403A00000000000000000000000000000000000000000000000000000000000000000000000000000000000000000000000000000000000000000000000000000000000086
:020000040003F7
:0200000480007A
:4000000001450040024F0040035200400364004003650040010301400404014004050140050701406408014040090140180A0140480B0140580C0140300D014007150140F2
:40004000531601403D1701406C18014046190140461A0140521B0140074001400B4101400D4201400A4301400244014005450140074601400547014008480140084901400A
:40008000054C0140084D01400650014002510140640101400A4B004001201102880F890D8D0F860F89388A72E20438883E4458045F0118011B04E208E601AB04B401E6022A
:4000C000EA04EE8003100473060C0B1312081480152C1615171319111B0E1C031E042308242A2644287329112A042B262F2C30C03110320F332A3430350F38223A083B280A
:400100003E103F014002474049FF4A074BFF4C404D204EF04F0550085401580459045A045B045C335D335F01604061A862406320850288088F04920396029A0D9B04AF01BD
:40014000B008B101B204B302B402B504B601BE10BF14C040C106C5D0C620C701C81AC9FFCAFFCBFFCDA0CF04D018D405D804D904DA04DB04DC55DD55DF01E040E2C0E440FC
:40018000E540E6C0E8C0EAC0ECC0EEC00010040405040620072009020B280E400F22171418121A841D241E40210623042440260827142A402E623220371438083B803F22FD
:4001C0004102452049014B2053145612571059015A845C425D105F088740890491049402954097109B089E109F20A309A648A804B201B410B601C022C2BEC460CAB8CC640B
:40020000CEAAD021D204D6FBEC10EE80840388018A0290049604A401A501A602AC04B001B404B501B602B820BE41BF10D409D604D804D904DB04DC02DD10DF01002001013E
:4002400003110420051007100A150B400E800F10101812411410154017041A011B101C041D401F012102270829102C202D04310233144002431449104A814B0450085120BA
:40028000524059405A405D105E425F04608061206240632067828081874089108A80910192149340980299109B159E119F20A030A201A309A688B002C06FC23FC4AFCA4413
:4002C000CC07D00ED20CD6F0D89FE404001001A80424058806CB0720081E09280A600B800C980DA8118012011328142815C416C01730188819161A101B811C981D242088FC
:40030000221024E8253126172742281029802A883003310832E033F0341C35073A083B283F0140234106450E47CB483149FF4AFF4BFF4EF04F44500C580459045A045C11CA
:400340005D035F0166C06A406B02800D845286A488028A0D8C0D900D940D980DA020A2D0A492A668AC31AEC2B40FB6F0BAA0D602D720D804DB04DC01DD10DF010121031166
:400380000510060207500A140B400E651241130815201705180119201C201D101E601F142601271C2F14368037553E153F40461047204C204E085709600162406602674010
:4003C00069216A156B0172028240C0FFC2FEC47DCA60CCF0CEF0D060D220D808AF20B104B208B308B440B620E602002002D003040408060408240A490CD80D050E010F029D
:4004000010111222142E15021681170418D91CD91F0320D924D1260829062B013107320F330736F03A8C5602572C580459045B045C225D205F0180308401861A880389D037
:400440008A148B228D228E308FD09003920C95239620975899F29DF2A002A1F2A21DA430A522A830A901AB74AC30AD63AF0CB01FB160B380B420B51FB920BA02BE10BF0405
:40048000D440D604D804D904DB04DC22DD20DF0100200144034004010514070908080B400C200E210F40106011101201170619021B101C011E201F0820402208234827A0BB
:4004C00029142A812F0830203348378839503D013E803F4062A26320644065026C206D506E016F45760177028008810482808501860288108B08C0FFC2FCC43FCA2FCC5E76
:40050000CE9CD88FE208E605E81001100510070C0B031405151C160217021806190C1B11220129142C032D092E042F103407351F38203B80406441054230440145CE46B06A
:4005400047FD483B49FF4AFF4BFF4C224EF04F0C50045280580459045A045B045C325D525F0162C0644065016610671168C069016B116C406D016E406F0180018544873137
:4005800089678A028D018F0E9967A202A401A522A751A801B002B107B360B401B718BE01BF40C062C104C203C401C5C0C60EC806C9FFCAFFCBFFCC62CDA0CEF0CF41D00CEC
:4005C000D418D604D804D904DA04DB04DC33DD33DF01E640E702E910EA30EB10ED10EE10EF1200320E040F1010A01110148015401B211E04204121042408255028202E404F
:400600002F0830203714384039183C043D203E024011432244804748488049104D444E404F1053405501562057045A026346764081208240830486208B10900492409304FD
:400640009408954097D09A029B149E40A308A660B002B114B301C00AC260C49ECA32CC64CEEED0DFD234D601D80DE480E810001F0144022005180623093C0BC20C030DC0E0
:40068000101C11801223140115E71640171818331A0C1BE31C3F1D102008211C23E124042704280C29082C022DFF301031C032403338340F362C371F3AA03B803E0156020B
:4006C0005713580459045B045C335D305F018D0190019202940399019F01A301AC01AE02B001B501B602B920BE41D409D604D804D904DB04DC30DD20DF01004003A009401C
:400700000AA40E800F10108212101324154019151A0C1B801D801F01202022C1262029042A102B822F80308232043320348035103680384A3B203D804580478059015D245B
:400740005E015F80674268216910708473247D807F028740888289048B108C218E109040914C920193109510960299209C209D10A140A240A320A431A620A702AB40B0801C
:40078000B241B308B541C00DC23FC48FCA8FCC3FCE1FD6F1D890E860EA10EC80EE0132403301340235803B40CCF0CE105E0162088208968097409C029D809F01D680D840A8
:4007C000E2205080628082408580968197409C029D809F01D420D640E210E680874097409C029F01A880AA80B201E640EA20EE207C01DE01000853019401C008D401448006
:40080000830194019702B004D001EA048B109C80B401E401EC08262087019C029F01A620B620C820E240778084029B809C02AF80DE20E640EA4008809310B480C202E808D6
:40084000128073108E809310A880C408DC01E202002E0C2E0E0A102C1A041C2C00FF01030884000040000000840000000A0010000400000004008000840E000080040409C3
:400880008405000A0100000000008000560009006003000407003800000F000080007F0080020000000010002306500001CEFD0B1FFFFFFF2200F0080400000040000400B1
:4008C00004040404111100010000C00040011011C0010011400140010000000000000000000000000000000000606000600000008400508C8C008C00000000008000408B6C
:400900008B000000000000001000011616000200000000000001010000001000080018010000000000000000000000000000000000000000000000000000000000000000BA
:400940000000000000000000000000000000000000000000000000000000000000000000000000000000000000000000000000000000000000000000000000000000000077
:400980000000000000000000000000000000000000000000000000000000000000000000000000000000000000000000000000000000000000000000000000000000000037
:4009C00000000000000000000000000000000000000000000000000000000000000000000000000000000000000000000000000000000000000000000000000000000000F7
:400A000000000000000000000000000000000000000000000000000000000000000000000000000000000000000000000000000000000000000000000000000000000000B6
:0200000490006A
:0400000000004005B7
:0200000490105A
:04000000BC90ACAF55
:0200000490303A
:0200000094AEBC
:0200000490402A
:4000000000000000000000000000000000000000000000000000000000000000000000000000000000000000000000000000000000000000000000000000000000000000C0
:400040000000000000000000000000000000000000000000000000000000000000000000000000000000000000000000000000000000000000000000000000000000000080
:400080000000000000000000000000000000000000000000000000000000000000000000000000000000000000000000000000000000000000000000000000000000000040
:4000C0000000000000000000000000000000000000000000000000000000000000000000000000000000000000000000000000000000000000000000000000000000000000
:0200000490501A
:0C00000000012E16106900012E2CA5171F
:00000001FF