:400000000080002011000000F5110000F511000008B5044B1A6803F53F5302331A6001F009F900BFFA46004010B5054C237833B9044B13B10448AFF300800123237010BD68
:400040004881FF1F0000000030310000084B10B51BB108490848AFF300800848036803B910BD074B002BFBD0BDE81040184700BF000000004C81FF1F30310000C880FF1F40
:4000800000000000F0B5D1B062B601F0C3FB01F0E5FA01F0D3FD02F0F1F8A04801F096FE9F4802F025FA02F0FDF802F0BDFB0A2001F0C6FE0F2000F05BFD9A4C02469A498A
:4000C000204602F011FC204601F0D4FB974801F0D1FB1721202000F033FD202000F048FD02469349204602F0FFFB204601F0C2FB4021242000F024FD242000F039FD0246DA
:400100008C49204602F0F0FB204601F0B3FB80212E2000F015FD2E2000F02AFD02468649204602F0E1FB204601F0A4FB0221222000F006FD222000F01BFD02467F492046F3
:4001400002F0D2FB204601F095FB7D4801F092FB4022002140A802F0BEFB0421032000F041FA00F089FA0023764A1370764A1370764A1370764A137000F006FE04E006226B
:400180000EA9282000F008FD2F2000F0F1FC2028F5D0644C6F4D0FCD20606160A260E3602B782374204601F065FB6B4B18680C909B88ADF8343000230A93ADF82C300793FA
:4001C0000893ADF824300AA90CA800F039FE9DF828209DF829309DF82A109DF82B00019000915E49204602F07FFB204601F042FB07A90AA800F044FE9DF81C209DF81D300D
:400200009DF81E109DF81F009DF820509DF821609DF82270049703960295019000915049204602F061FB204601F024FB04262F2000F09EFC10F0400F44D0C02210A928200C
:4002400000F0AAFC2F2000F093FC364D02464549284602F049FB284601F00CFB424C0FCC28606960AA60EB600FCC28616961AA61EB61284601F0FEFA00240AE0294D10AB8D
:400280001A5D3A49284602F02FFB284601F0F2FA0134BF2CF2D900212E2000F051FC022001F0E4FD40212E2000F04AFC2F2000F05FFC1C4C02462E49204602F015FB204670
:4002C00001F0D8FA204B1B78DBB2012B56D100F0D3F90636F6B23146032000F083F900F0CBF9022000F066F910F0400F66D0214801F0C0FA8021022000F074F900F0BCF934
:40030000022000F057F9074C02461B49204602F0EBFA204601F0AEFA50E000BF25070000890600009481FF1F3C31000070310000A0310000D03100000032000038320000C7
:4003400068320000F881FF1F8581FF1F8681FF1F8481FF1F9832000034310000AC320000D83200001833000044330000643300006C33000098330000B4330000794B1B78C8
:4003800013F0FF0F1AD1022000F014F910F0800F14D04021022000F025F900F06DF9724801F068FA022000F005F9704C02467049204602F099FA204601F05CFA6D4B19780D
:4003C000C9B21A78D2B2022A18BF01290CBF012000201978C9B21A78D5B2674C22785FFA82FC23785FFA83FE2378DFB22478E4B2042C14BF00240124032914BF014640F055
:400400000101042D14BF0A4641F00102BCF1010F08BF42F00102BEF1020F14BF134642F00103032F08BF43F0010363B9002C3FF4FEAE08E0402240A9042000F0EFF800F0E2
:400440001BF9013400E00024331F00D53F33B4EBA31FEFDB0421032000F0C4F800F00CF9444B1B78DBB2012B0AD18021002000F0B9F800223F4B1A70404801F0FBF92EE0B9
:400480003C4B1B78DBB2022B0AD19021002000F0A9F80022374B1A70394801F0EBF91EE0344B1B78DBB2032B0AD1A021002000F099F800222F4B1A70324801F0DBF90EE04C
:4004C0002C4B1B78DBB2042B09D1B021002000F089F80022274B1A702B4801F0CBF9264B1B78DBB2012B0AD11721012000F07AF80022214B1A70254801F0BCF92EE01E4BBF
:400500001B78DBB2022B0AD12721012000F06AF80022194B1A701E4801F0ACF91EE0164B1B78DBB2032B0AD13721012000F05AF80022114B1A70174801F09CF90EE00E4B55
:400540001B78DBB2042B09D14721012000F04AF80022094B1A70104801F08CF900F08CF864E600BF8581FF1FD43300009481FF1FB43300008681FF1F8481FF1FF03300009C
:4005800004340000183400002C3400004034000050340000603400007034000008B5052000F020FB08BD00BF08B5062000F004FB08BD00BF00B583B003218DF80410030AAE
:4005C0008DF805308DF8060002AA002302F8053D012301A800F020FB9DF8030003B05DF804FB00BF30B583B004460D46FFF7DCFF02238DF80430230A8DF805308DF806405F
:400600008DF80750002302AA02F8053D04210DEB010000F001FB03B030BD00BF2DE9F04182B000AF054688461446FFF7BDFF012001F01CFCE61C04F10A0323F00703ADEB3A
:40064000030D02238DF800302B0A8DF801308DF80250224641460DF1030002F031F9002307F1080202F8013DF1B2684600F0D4FA0837BD46BDE8F08108B5FFF78FFF10F0BD
:40068000010FFAD108BD00BF08B501F0BFFE1E4B1B78012B37D101F075FE1C4B1860002801DA00221A60194B1B68B3F5803F03DB4FF6FF72154B1A60144B18680212144B50
:4006C000DA71187201F04CFE124B1860A0F5FA70114B83FB0023C017C0EBA3000F4B1860094B5B78012B0BD100EBC00003F1663383FB0023C017C0EB63032033074A13601B
:400700000122074B1A7008BD6481FF1FFC81FF1F8881FF1F0882FF1F676666660082FF1FF881FF1F10B501F083F8AC4B18703138452800F2F081DFE810F0C000F40028012B
:400740008601EE01EE01EE01EE01EE01EE01EE01EE01EE01EE014600EE01EE014900E401EE01EE016100EE01EE01EE01EE01EE01EE01EE01EE01EE019700EE01EE015500DA
:40078000C701C301B901EE01EE01EE01EE01EE01EE01EE01EE01EE01EE01EE014900E401EE01EE016100EE01EE01EE01EE01EE01EE01EE01EE01EE019700EE01EE01550010
:4007C000C701C301B90100F0DFFA10BD0122844B1A7001F05FFEFF2001F0D6FF802001F0D9FF10BD00247E4B1C7001F0F5FDFF2001F0CAFF204601F0CDFF10BD794B1B78BC
:400800003BBB794801F036F8784C204601F032F8774801F02FF8204601F02CF8754801F029F8204601F026F8734801F023F8204601F020F8714801F01DF8204601F01AF8A9
:400840006F4801F017F8204601F014F805226D4B1A70644B1B78012B02D10122614B5A700022604B1A7010BD674801F003F8674C204600F0FFFF664800F0FCFF204600F066
:40088000F9FF644800F0F6FF204600F0F3FF624800F0F0FF204600F0EDFF604800F0EAFF204600F0E7FF5E4800F0E4FF204600F0E1FF05225B4B1A7010BD524B1B78DBB24F
:4008C000052B13D1232000F053F910F0800F03D0554800F0CFFF06E08021232000F030F9524800F0C7FF0122464B1A704D4B1B78DBB2052B40F00F81202000F039F910F02D
:40090000170F03D0484800F0B5FF06E01721202000F016F9454800F0ADFF0122414B1A7010BD384B1B78DBB2052B13D1232000F01FF910F0900F03D03B4800F09BFF06E097
:400940009021232000F0FCF8384800F093FF02222C4B1A70334B1B78DBB2052B40F0DB80202000F005F910F0270F03D02E4800F081FF06E02721202000F0E2F82B4800F067
:4009800079FF0222274B1A7010BD1E4B1B78DBB2052B13D1232000F0EBF810F0A00F03D0214800F067FF06E0A021232000F0C8F81E4800F05FFF0322124B1A70194B1B788D
:4009C000DBB2052B40F0A780202000F0D1F810F0370F2DD0144800F04DFF30E00C82FF1F8581FF1F6481FF1F80340000B8340000F0340000143500002C3500004435000045
:400A00005C3500008681FF1F74350000D0370000B0350000D8350000F4350000103600002C3600008481FF1F48360000783600003721202000F084F8374800F01BFF03228C
:400A4000364B1A7010BD364B1B78DBB2052B13D1232000F08DF810F0B00F03D0314800F009FF06E0B021232000F06AF82A4800F001FF04222A4B1A70284B1B78DBB2052B98
:400A800049D1202000F074F810F0470F03D0254800F0F0FE06E04721202000F051F81E4800F0E8FE04221D4B1A7010BDFF2001F06BFE002001F06EFE012001F04BFE10BD06
:400AC000002001F047FE10BD174800F0D3FE174C204600F0CFFE164800F0CCFE204600F0C9FE144800F0C6FE204600F0C3FE124800F0C0FE204600F0BDFE01220F4B1A70B1
:400B000010BD0E4B1B78012B02D100220B4B5A7000220A4B1A7010BD783600008481FF1F8681FF1F4836000098360000B8340000B8360000E0360000143700006481FF1F6D
:400B400030B583B08DF804008DF80510002402AD05F8054D012000F0ABFE23462A46022101A800F0B5F8204600F0A2FE03B030BD00B583B060F07F008DF8040002AA002377
:400B800002F8053D0123194601A800F0A1F89DF8030003B05DF804FB00B583B060F03F0302A800F8043D13460A46012100F090F803B05DF804FB00BF10B50446002000F020
:400BC0006BFE204600F0EEFB00F0C4FB10F0080FFAD000F051FC0446012000F05DFE204610BD00BF10B50446002000F055FE204600F0D8FB002000F0D5FB00F0ABFB10F0C7
:400C0000010FFAD000F038FC00F036FC0446012000F042FE204610BD2DE9F04383B006460C4617469846002000F036FE64B2002511E02146082CA8BF0821C9B206EBC500A5
:400C400000F096FC00F086FB10F0010FFAD0083C64B201356DB2002CEBDC00F099FC00F03DFC0026009601964FFA88F820E0C146B8F1080FA8BF4FF008095FFA89F168463C
:400C800000F076FC00F066FB10F0010FFAD0002406E004EBC60500F0EFFB78550134E4B24C45F6DBA8F108084FFA88F8013676B2B8F1000FDBDC012000F0EEFD00F068FC7F
:400CC00000F00CFC00F02AFC03B0BDE8F08300BF2DE9F04383B006460C4617469846002000F0E6FD64B2002511E02146082CA8BF0821C9B206EBC50000F02AFF00F01AFE6B
:400D000010F0010FFAD0083C64B201356DB2002CEBDC00F02DFF00F0D1FE0026009601964FFA88F820E0C146B8F1080FA8BF4FF008095FFA89F1684600F00AFF00F0FAFD61
:400D400010F0010FFAD0002406E004EBC60500F083FE78550134E4B24C45F6DBA8F108084FFA88F8013676B2B8F1000FDBDC012000F09EFD00F0FCFE00F0A0FE00F0BEFE5A
:400D800003B0BDE8F08300BF38B5214D284600F071FD204800F06EFD1F4C204600F06AFD1E4800F067FD204600F064FD1C4800F061FD204600F05EFD1A4800F05BFD2046B3
:400DC00000F058FD184800F055FD204600F052FD164800F04FFD204600F04CFD144800F049FD204600F046FD124800F043FD204600F040FD104800F03DFD204600F03AFDD7
:400E0000284600F037FD0D4800F034FD38BD00BF403300004C370000AC3700000C3800003438000094380000F03800003439000078390000BC390000003A00002C3A0000C6
:400E400010B443780B700378C27803F0600343EA92034B70C37882784479920842EA831323F00F0343EA14138B70427903799B0943EA0213CB7000230B714B7110BC7047F8
:400E8000A0230B7003784B70437823F03F038B70427883789B0943EA8203CB7083789B0023F03F030B718278C3781B0943EA02134B71C3781B0103F070038B710023CB7197
:400EC0000B72C0234B727047FEE700BFF0B40022174611E050F82760F3B226F0FF0608E001EB420511F812406D78A5550132013BDBB2002BF4D10137242FEBD9F0BC7047E4
:400F00000B4B1B78DBB203F007010A4A11701B09013213701023A2F23272137002F6C3121370583213704422034B1A70704700BFCF0100496E5800407658004008B50A4658
:400F4000002101F0C8FC08BD08B501F0B9FC08BD38B500243C4B1C80502202331A700B2202331A80182339490B7002310A80384A13701925023215800232137040F65F11EF
:400F8000023211800232137042F6C652314B1A8002331D704EF65F2202331A8002331D7004222D492D48FFF7CFFF02222C4B1A7008224FF040231A70032103F500731970CF
:400FC000284B1B78DBB228490B70284B1A8041F25122023B1A800CE0254B1B7803F0010343EA440404F003044FF4F07001F02CFC013D0DB1032CEFD115B90320FFF764FFA1
:401000001C4B4FF480721A8007221A7000221A490A704820023108701A700222033B1A7004220A331A70154A137843F07F031370013A137843F001031370013A137843F0B7
:401040008003137038BD00BF80400040864000408A4000409440004004090048004100400043004008010049A146004022420040254200400440004006400040A243004046
:40108000012807D8044B53F820201844017A13780B431370704700BF8C3A0000012808D8044B53F820201844017A137823EA0103137070478C3A000038B572B6394A137866
:4010C00043F00403137000240BE0374863001A19510001440A46098AD068FFF72FFF0134E4B2092CF1D900240CE02F48A20011194B000344B3F85020D96C986CFFF724FF0E
:401100000134E4B2022CF0D928494FF09040FFF7DDFE0A24264B1C70264A137843F0020313701032137843F002031370224D2B7843F040032B70A2F58632513A137843F078
:401140001003137008221D491D48FFF7FDFE22461C491D48FFF7F8FE22461C491C48FFF7F3FE22461B491C48FFF7EEFE08221B491B48FFF7E9FE1B4A137843F0080313702C
:40118000194C61232370FFF7E3FE812323700122164B1A70FFF7B4FE0E2229461448FFF7D3FE38BDE84600408C3A0000940000488358004003500140A0430040D008004836
:4011C00002510040D8080048C0510040E408004810510040F008004820510040FC08004832510040224300400048004004000840B043004008B501F037FB03680C2B00D10F
:40120000FEE7FEE708B5094B1A681044084BC31A802B02DC054B186005E001F025FB0C2303604FF0FF32104608BD00BFCC80FF1F5082FF1F08B5104E104D16E029686B687E
:40124000AC68002204E051F8040B43F8040B0432A242F8D1E868002203E0002143F8041B04328242F9D11035013E002EE6D101F001FBFEF707FFFEE7010000004C3B00007D
:4012800008B5104A104B1A60104A136843F40073136000230AE0032B03D80D4A52F8231000E00C490C4A42F8231001332F2BF2D90A4B1A780A4B1A70074A0A4B1A60FFF739
:4012C000FBFE08BD0004FA050CED00E014ED00E000000000F51100000080FF1FBC760040C080FF1F08ED00E00422014B1A60704700E100E00222014B1A60704700E100E064
:4013000008B501F0A9FA0C4A137843F0200313700132137843F0100313700132137843F01003137001F09CFA00F05EFDFFF7DCFFFFF7E0FF08BD00BF986400400422014BEA
:401340001A60704780E100E00222014B1A60704780E100E010B5FFF7F1FF064B1C78064A137803F009031C4300231370FFF7BCFF204610BD696400401082FF1F10B5FFF74E
:40138000E3FF064B1B78064A147804F040041C4300231370FFF7AEFF204610BD6A6400402182FF1F10B504462B4B1A7802F0FF0312B1013BDBB200E00723284A1278D2B288
:4013C0009342F1D0FFF7BAFF254B1978254A137803F009030B4313701F4B1A78D2B21F4B1B78DBB29A4207D11E4B1B7813F0040F02D01D4B1C702CE0184A13780133DBB28D
:4014000013701378DBB2072B02D90022134B1A70124B1A78D2B2104B1B78DBB29A420ED10D4A13780133DBB213701378DBB2072B02D90022084B1A7001220C4B1A70074BB1
:401440001B78DBB20A4AD4540A4A137843F004031370FFF749FF10BD2282FF1F2082FF1F696400401082FF1F496400401C82FF1F1482FF1F8964004010B5FFF765FF134BE3
:401480001A78D2B2124B1B78DBB29A4214D0114B1B7813F0FF0F0CD10C4A13780133DBB213701378DBB2072B06D90022074B1A7002E00022074B1A70044B1B78DBB2064A11
:4014C000D45CE4B2FFF716FF204610BD1F82FF1F1D82FF1F1E82FF1F2482FF1F08B501E0094B1B78094B1B7813F0200FF8D1FFF72BFF0023064A1370064A1370064A1370C7
:40150000FFF7F8FE08BD00BF596400406A6400401E82FF1F1F82FF1F1D82FF1F08B501F09BF90E4B1A7842F001021A701A7802F0FE021A7001F094F9FFF700FF0023084A14
:401540001370084A1370084A1370084A137803F0FB031370FFF7C8FE08BD00BF996400401C82FF1F2282FF1F2082FF1F8964004070B506460C46002506E0705DFFF712FF63
:401580000135EDB2013CE4B2002CF6D170BD00BF08B501E00A4B1B780A4B1B7813F0200FF8D101F059F9084B1A7842F001021A701A7802F0FE021A7001F052F908BD00BF86
:4015C000596400406A6400409964004010B50F22174B1A70174C042323600721022000F063FC1549022000F04BFC022323600721012000F059FC1149012000F041FCFFF790
:40160000C7FF00240E4B1C700E4B1C700E4B1C700E4B1C700E4B1C700E4B1C70FFF79AFEFFF7ACFE0C4B1C70202201331A7010BD8864004080E100E0791600001917000058
:401640001E82FF1F1F82FF1F1D82FF1F1C82FF1F2282FF1F2082FF1F8964004008B5054B1B7823B9FFF7B2FF0122024B1A70FFF747FE08BD6681FF1F28E01F4B19781F4A37
:40168000137803F009030B431370137813F0040F24D01B4B1B7813F0FF0F0CD1194A13780133DBB213701378DBB2072B06D90022144B1A7002E00022114B1A70114B1B7814
:4016C000DBB2114AD35CDBB2104A13700D4B1A78D2B20F4B1B78DBB29A42CED1094B1A78D2B20B4B1B78DBB29A4204D1094A137803F0FB0313707047696400401082FF1FAF
:401700001C82FF1F2282FF1F1482FF1F496400402082FF1F89640040204B1A7820490B7803F0400313430B7032E01E4B1A78D2B21D490B780133DBB20B700B78DBB2072BB5
:4017400002D90021184B1970174B1978C9B2174B1B78DBB299420ED114490B780133DBB20B700B78DBB2072B02D900210F4B197001210F4B19700C4B1B78DBB20D49CA54AA
:40178000064B1A7806490B7803F0400313430B70034B1B7813F0200FC7D170476A6400402182FF1F596400401D82FF1F1F82FF1F1E82FF1F2482FF1F7222074B1A7020228F
:4017C000013B1A700622613B1A70472210331A70002250331A7070478A65004010B501F03BF804460A4A137843F020031370013A137843F010031370013A137843F0100304
:40180000137000F0FFFA204601F02AF810BD00BF9A65004008B5054B1B7823B9FFF7CCFF0122024B1A70FFF7D9FF08BD6781FF1F084B1B78DBB213F0200F06D0064A1078D5
:40184000C0B213F01E0F02D17047002070470020704700BF6965004049650040034B1B7813F0040FFAD1024B18707047686500404B65004038B5074B1B782BB938BDFFF7E7
:40188000EDFF0134A4B201E005460024285D0028F5D138BD6781FF1F044A137803F0EF03000100F0100018431070704720510040044A137803F07F03C001C0B21843107095
:4018C000704700BF105100401022014B1A60704700E100E00822014B1A60704700E100E008B500F0B9FF0C4A137843F02003137002F58072137843F010031370FF3A1378D9
:4019000043F01003137000F0ABFF00F089FAFFF7DBFFFFF7DFFF08BD966400401022014B1A60704780E100E00822014B1A60704780E100E010B5FFF7F1FF064B1C78064A76
:40194000137803F009031C4300231370FFF7BCFF204610BD666500403B82FF1F10B5FFF7E3FF064B1B78064A147804F040041C4300231370FFF7AEFF204610BD6764004093
:401980003482FF1F10B504462B4B1A7802F0FF0312B1013BDBB200E00723284A1278D2B29342F1D0FFF7BAFF254B1978254A137803F009030B4313701F4B1A78D2B21F4B38
:4019C0001B78DBB29A4207D11E4B1B7813F0040F02D01D4B1C702CE0184A13780133DBB213701378DBB2072B02D90022134B1A70124B1A78D2B2104B1B78DBB29A420ED126
:401A00000D4A13780133DBB213701378DBB2072B02D90022084B1A7001220C4B1A70074B1B78DBB20A4AD4540A4A137843F004031370FFF749FF10BD3882FF1F3982FF1F12
:401A4000666500403B82FF1F466500403782FF1F3C82FF1F8665004010B5FFF765FF134B1A78D2B2124B1B78DBB29A4214D0114B1B7813F0FF0F0CD10C4A13780133DBB268
:401A800013701378DBB2072B06D90022074B1A7002E00022074B1A70044B1B78DBB2064AD45CE4B2FFF716FF204610BD3A82FF1F3582FF1F3682FF1F2C82FF1F08B501E0EA
:401AC000094B1B78094B1B7813F0200FF8D1FFF72BFF0023064A1370064A1370064A1370FFF7F8FE08BD00BF56650040676400403682FF1F3A82FF1F3582FF1F08B500F0B9
:401B0000ABFE0E4B1A7842F001021A701A7802F0FE021A7000F0A4FEFFF700FF0023084A1370084A1370084A1370084A137803F0FB031370FFF7C8FE08BD00BF966500404F
:401B40003782FF1F3882FF1F3982FF1F8665004070B506460C46002506E0705DFFF712FF0135EDB2013CE4B2002CF6D170BD00BF08B501E00A4B1B780A4B1B7813F0200FE9
:401B8000F8D100F069FE084B1A7842F001021A701A7802F0FE021A7000F062FE08BD00BF56650040676400409665004010B50F22174B1A70174C102323600721042000F007
:401BC00073F91549042000F05BF9082323600721032000F069F91149032000F051F9FFF7C7FF00240E4B1C700E4B1C700E4B1C700E4B1C700E4B1C700E4B1C70FFF79AFEE5
:401C0000FFF7ACFE0C4B1C702022FF3B1A7010BD8664004080E100E0591C0000F91C00003682FF1F3A82FF1F3582FF1F3782FF1F3882FF1F3982FF1F8665004008B5054B14
:401C40001B7823B9FFF7B2FF0122024B1A70FFF747FE08BD6981FF1F28E01F4B19781F4A137803F009030B431370137813F0040F24D01B4B1B7813F0FF0F0CD1194A13781B
:401C80000133DBB213701378DBB2072B06D90022144B1A7002E00022114B1A70114B1B78DBB2114AD35CDBB2104A13700D4B1A78D2B20F4B1B78DBB29A42CED1094B1A7809
:401CC000D2B20B4B1B78DBB29A4204D1094A137803F0FB0313707047666500403B82FF1F3782FF1F3882FF1F3C82FF1F466500403982FF1F86650040204B1A7820490B78E7
:401D000003F0400313430B7032E01E4B1A78D2B21D490B780133DBB20B700B78DBB2072B02D90021184B1970174B1978C9B2174B1B78DBB299420ED114490B780133DBB271
:401D40000B700B78DBB2072B02D900210F4B197001210F4B19700C4B1B78DBB20D49CA54064B1A7806490B7803F0400313430B70034B1B7813F0200FC7D1704767640040AE
:401D80003482FF1F566500403582FF1F3A82FF1F3682FF1F2C82FF1F014B1B685865704708ED00E04001C0B2014B1870704700BF05E400E02022014B1A60704700E100E0A5
:401DC0002022014B1A60704780E100E010B50446FFF7F6FF2046FFF7DFFF0720FFF7E2FFFFF7E8FF10BD00BF054A137843F0020313701032137843F002031370704700BFB5
:401E0000A2430040054A137843F0080313701032137843F008031370704700BFA2430040054A137843F0040313701032137843F004031370704700BFA243004001BE704787
:401E400010B5044605E0084B186800F0FDFCA4F50044B4F5004FF6D8034B586800FB04F000F0F2FC10BD00BFD080FF1F08B5034B1B7A00FB03F000F0E7FC08BDD080FF1FA6
:401E800070B504460E46074B1D681F2802D90020FFF7D4FF04F01F04103455F8240045F8246070BD08ED00E038B504460D46072902D90020FFF7C2FF1F2C02D90020FFF746
:401EC000BDFF04F01F0000F1604000F564406D01EDB2057038BD00BF10B59DF80840012C51D1013809282ED8DFE800F0052D2D052D2D0F192D230F2B03D92548007840B278
:401F000022E02448007840B21EE00F2B03D92248007840B218E02148007840B214E00F2B03D91F48007840B20EE01E48007840B20AE00F2B03D91C48007840B204E01B4868
:401F4000007840B200E0002001EB401101FB02F1C90B8AB20D2B0BD8C3F10E0289B211418AB2611E124800EB810101338B7005E0631E0F4901EB83030F219970013C0C4BA1
:401F800023F8242010BD0020FFF758FF10BD00BF180100491C010049190100491D0100491A0100491E0100491B0100491F0100496C81FF1FF8B5074600F04EFC06460D4DEB
:401FC0002B7843F003032B700B4C237843F0030323700A4B1F700320FFF748FF2B7803F0FC032B70237803F0FC032370304600F037FCF8BDF8460040F946004092580040A3
:402000000022324B1A7101285FD170B53422304B1A70042202331A70062201331A70002401331C7001331C703F2201331A7002331C7001331C7001331C7001250A331D70DE
:40204000502203F527631A700A2201331A702C2201331A7001331C70442203331A70482201331A7001331D70022602331E70122201331A70282201331A70EB2201331A706D
:402080005220FFF797FF5822124B1A7001331C70052205331A7001331E7001331C7001331C70204600F042FA43F233320A4B1A602946284600F05EFA2946082000F0DEFA57
:4020C00006491D20FFF7DCFE70BD70476C81FF1F004E0040945800404482FF1FAD230000F0B583B0284D01272F70284E00247471102000F02DFA102000F0AEFA07211D2020
:40210000FFF7D2FE0422224B1A7001331C7007331C70204A137843F0180313701E4B1C7003F2F5231C7001331C700A22A3F209331A7001331C7002331C705B2205331A70DB
:402140005E2201331A7004331C701422A3F68C231A70009710234FF4004248F6F0510220FFF7BAFE2B78013B06EB83039A780B4B1A702B78013B36F82320094B1A80287892
:40218000FFF73EFF03B0F0BDE080FF1F6C81FF1F96580040075B0040935800400E4E00400C4E004070B500F057FB06462A4B1B782A4B1A7842F001021A701A7842F010027B
:4021C0001A7010331A7842F001021A701A7842F010021A70224D2B7843F002032B70214C237843F0020323701F4A137843F0030313700320FFF73AFE2B7803F0FD032B7077
:40220000237803F0FD032370184A137843F0060313707A22164B1A70164A137843F0010313701032137843F0010313700F3A137843F0010313701032137843F00103137009
:402240004FF000530C4A1360A2F5C0721360304600F006FB70BD00BFE080FF1FAA430040F8460040F9460040915800407758004082580040A143004080E200E008B5084B04
:402280009B794BB9064BDB7913F0FF0F01D1FFF727FF0122024B9A71FFF784FF08BD00BF6C81FF1F024A137843F0010313707047004E0040024A137803F0FE031370704704
:4022C000004E0040094B1B7913F0FF0F03D0074B5B79DBB203E0064B1B7803F00103012B01D00028EED01846704700BF6C81FF1F014E0040154B1B7803F00303012B07D8CB
:40230000134B1888023B1B889BB243EA004013E0022B0AD10E4B1888023B1B7843EA00430C4A107843EA002006E00B4B188883B2074A108843EA0040084B1B7913F0FF0F47
:4023400002D00022054B5A71704700BF144E0040124E0040114E0040104E00406C81FF1F064B9B68C01A4FF47A7303FB00F0044B1B6890FBF3F000B2704700BF6C81FF1F8F
:402380004482FF1F10B5084A137843F004031370FFF788FF0020FFF795FFFFF7ABFF0446FFF788FF204610BD014E0040704700BF084A137843F0010313701032137843F07D
:4023C0000103137002F64D32137843F001031370704700BFA3430040084A137803F0FE031370A2F65D32137803F0FE0313701032137803F0FE031370704700BF004F004038
:40240000014B1870704700BF034F0040014B1878704700BF034F0040014B1880704700BF044F0040014B1880704700BF064F004008B5154A137803F0010313700232137820
:4024400003F0FC031370114B1A7802F0CF021A701A7842F030021A701A7802F0F0021A701A7842F00F021A70094A137843F001031370C720FFF7D0FFC720FFF7D3FF0820B2
:40248000FFF7BEFF08BD00BF004F00400B4F0040014F004008B5054B1B7823B9FFF7C8FF0122024B1A70FFF783FF08BD7881FF1F024B1B68C3F88400704700BF08ED00E04B
:4024C0004001C0B2014B1870704700BF11E400E04FF40032014B1A60704700BF00E100E04FF40032014B1A60704700BF80E100E010B50446FFF7F4FF2046FFF7D9FF072053
:40250000FFF7DEFFFFF7E4FF10BD00BF10B5002404E02046FEF7C2FD0134E4B2012CF8D9FF22014B1A7010BDE180FF1F10B50446FFF7ECFF2046FEF7A3FD014B1C7010BDE0
:40254000E180FF1F014B188880B2704780400040034B1A7800F0F80010431870704700BF82400040024B187800F00700704700BF8240004070B505460E46FFF7F3FF0446AA
:40258000FFF7E0FFA84256D02B4B1B7803F0010294B900B185B938B9284B1D80284A137803F0BF03137070BD254A137843F040031370224B1D8070BD22B3002321490B7091
:4025C00001240F310C7004310B700C390B7803F07F030B701A4B1B7813F0080F00D08DB9194B18800721013B1970164B1B7813F0010FFAD110490B7803F0FE030B70002143
:40260000104B19700C4B1B7813F0010F0DD00E4B1D800EB1032200E001220A4B1A70094B1B7813F0010FFAD170BD044B1D8002490B7813430B7070BDA24300408040004051
:40264000824000400140004002400040014B188880B2704700410040034B1A7800F0F80010431870704700BF02410040024B187800F00700704700BF0241004070B5054626
:402680000E46FFF7F3FF0446FFF7E0FFA84256D02B4B1B7803F0010294B900B185B938B9284B1D80284A137803F0BF03137070BD254A137843F040031370224B1D8070BDE7
:4026C00022B3002321490B70012413310C7004390B7008390B7803F07F030B701A4B1B7813F0080F00D08DB9194B18800721013B1970164B1B7813F0010FFAD110490B78ED
:4027000003F0FE030B700021104B19700C4B1B7813F0010F0DD00E4B1D800EB1032200E001220A4B1A70094B1B7813F0010FFAD170BD044B1D8002490B7813430B7070BDE5
:40274000A143004000410040024100400140004002400040044A137803F0FE0300F0010018431070704700BF30510040024A137843F08003137070477B640040014B1870A4
:40278000704700BF0B640040014B1870704700BF4B640040014B1870704700BF2B640040014B1870704700BF8B640040014B1878704700BF6B640040014B1878704700BF76
:4027C0005B64004008B501E0FFF7F6FFFFF7EEFF10F0100FF8D108BD10B5114A137803F0C00343F0090313700E4C237843F001032370FF20FFF7C2FFFF20FFF7C5FF002010
:40280000FFF7C8FF0020FFF7CBFF00F025F8237843F01003237000F023F8FFF7D3FF10BD7B6400409B64004008B5054B1B7823B9FFF7D2FF0122024B1A70FFF797FF08BDEE
:402840007981FF1F000000000230800803D000BF01380046FCD17047EFF3108072B6704780F31088704700BF014B1868704700BF4481FF1F0E4B70B51E460E4C0025E41A9B
:40288000A410A54204D056F8253098470135F8E701F04AF9084B094C1E46E41AA4100025A54204D056F8253098470135F8E770BD343B0000343B0000343B00003C3B0000B8
:4028C00010B5431E0A44914204D011F8014B03F8014FF8E710BD03460244934202D003F8011BFAE7704700000EB400B54FF402719CB0ADF814106FF00041049107914FF638
:40290000FF711DAB02900690084853F8042BADF81610006802A9019300F064F8029B00221A701CB05DF804EB03B070474481FF1F2DE9F0478E6882469E420C469146984617
:402940003ED88A8912F4906F3AD02568096902236F1A656905EB450595FBF3F57B1C43449D4238BF1D4653050FD5294600F040FB064698B13A462169FFF7A2FFA38923F44C
:40298000906343F08003A38113E02A4600F08EFB064670B92169504600F0DEFA0C23CAF80030A3894FF0FF3043F04003A381BDE8F08726613E44266046466561ED1BA560B2
:4029C000464528BF464649463246206800F0A8FAA36800209B1BA36023681E442660BDE8F08700002DE9F04F9DB003938B8980461C060D4616460DD50B695BB9402100F0A7
:402A0000F7FA2860286118B90C23C8F80030CDE040236B610023099320238DF82930DFF89CB130238DF82A3037463C4614F8013B1BB9B7EB060910D003E0252BF9D027467D
:402A4000F3E74B46324629464046FFF771FF013000F0A780099B4B4409933B78002B00F0A08000234FF0FF3204930793059206938DF853301A930126052221784E4800F0FD
:402A800041FA671C049B38B14B4A3C46801A06FA00F018430490EFE7D90644BF20228DF853201A0744BF2B228DF8532022782A2A03D0079A00210A200BE0039A111D126808
:402AC0000391002A10DA524243F00200079204900BE027463B780134303B092B03D800FB02320121F5E701B107923B782E2B1ED17B782A2B0AD1039B02371A1D1B680392C2
:402B0000002BB8BF4FF0FF33059310E0002319460593781C0A2407463A780130303A092A03D804FB01210123F5E703B1059103223978224800F0E6F940B14023CBEB0000F2
:402B400003FA00F0049B013718430490397806221B487E1C8DF8281000F0D4F988B1194B33B9039B073323F007030833039314E003AB00932A46144B04A94046AFF30080AA
:402B800007E003AB00932A460F4B04A9404600F093F8B0F1FF3F824603D0099B5344099342E7AB895B0601D4099801E04FF0FF301DB0BDE8F08F00BFF43A0000FA3A00008F
:402BC000FE3A000000000000312900002DE9F04791461F460A698B6806469342B8BF1346C9F8003091F843200C46DDF8208012B10133C9F800302368990642BFD9F80030AB
:402C00000233C9F80030256815F0060510D104F1190A07E00123524639463046C04701301AD00135E368D9F800209B1A9D42F1DB94F843302268003318BF012392060FD519
:402C4000E118302081F843005A1C94F845102244023382F8431003E04FF0FF30BDE8F08704F1430239463046C0470130F4D02268D9F80050E36802F00602042A08BF5D1B9B
:402C80002269A3680CBF25EAE57500259342C4BF9B1AED184FF000091A344D4509D00123224639463046C0470130D5D009F10109F3E70020BDE8F0872DE9F04317460A7E6C
:402CC00085B06E2A984606460C460C9B01F1430E00F0AE8011D8632A22D009D8002A00F0BB80582A40F0CA8081F84520834955E0642A1ED0692A1CD0C0E0732A00F0B080B2
:402D000009D86F2A2ED0702A40F0B8800A6842F020020A603EE0752A24D0782A3AD0ADE01A6801F14205111D1960136884F84230A8E021681A6811F0800F02D0111D196098
:402D400008E011F0400F02F10401196002D0B2F9003000E01368002B3CDA2D225B4284F8432037E021681A6811F0800F02D0111D196007E011F0400F02F10401196001D0F2
:402D8000138800E01368227E5C496F2A14BF0A2208221BE078225A4984F845202268186812F0800F00F104051D6003D1550601D5038800E00368D00744BF42F02002226060
:402DC0001BB9226822F0200222601022002084F8430001E049490A226568002DA56008DB206820F0040020602BB9002D7DD175460CE0002B79D07546B3FBF2F002FB10330C
:402E0000CB5C05F8013D03460028F5D1082A0BD12368DA0708D5236962689A42DEBF302305F8013C05F1FF35C5EB0E0323612EE008681A6810F0800F496903D0101D18601E
:402E4000136808E010F0400F02F104001860136801D0198000E0196000232361754616E01A68111D1960156800216268284600F049F808B1401B6060636804E004F14205AC
:402E800084F8422001232361002384F84330CDF800803B4603AA21463046FFF797FE013002D14FF0FF3026E023692A4639463046C0470130F5D023689B0710D5002504F10D
:402EC000190907E001234A4639463046C0470130E7D00135E368039A9B1A9D42F2DBE068039B9842B8BF184605E00B7804F1420584F842308AE705B0BDE8F083053B00000D
:402F0000163B000010B5C9B202449042034605D01C7801308C42F8D1184610BD002010BD884210B501EB020301D8421E0BE09842FBD28118D21AD34204D013F8014D01F84B
:402F4000014DF8E710BD994204D011F8014B02F8014FF8E710BD000038B50546002944D051F8043C0C1F002BB8BFE41800F0D4F81E4A1368114613B96360146030E0A342A8
:402F80000DD92268A018834201BF18685B681218226063600C6023E0A24203D813465A68002AF9D118681918A1420BD12168014458188242196013D11068526801441960B6
:402FC0005A600DE002D90C232B6009E021686018824201BF106852680918216062605C602846BDE8384000F098B838BD8081FF1F70B5CD1C25F0030508350C2D38BF0C252D
:40300000002D064601DBA94202D90C23336046E000F082F8234B1C681A462146A1B10B685B1B0ED40B2B03D90B60CC18CD501EE08C420BBF63684B681360636018BF0C465C
:4030400015E00C464968E9E7174C23681BB9304600F052F820602946304600F04DF8431C18D0C41C24F00304A0420DD12560304600F053F804F10B00231D20F00700C31A10
:403080000ED05A42E25070BD211A304600F034F80130EBD10C233360304600F03EF8002070BD00BF8081FF1F7C81FF1FF8B5074615460E4621B91146BDE8F840FFF798BFD5
:4030C0001AB9FFF749FF2846F8BD00F027F885420ED929463846FFF78BFF044650B131462A46FFF7EDFB31463846FFF735FF01E03046F8BD2046F8BD38B5064C002305466F
:4031000008462360FEF77EF8431C02D1236803B12B6038BD4882FF1F7047704751F8040C0028BEBF091851F8043CC018043870470000000000FF00FF00FF00002A2A2057D1
:40314000686F20616D2049207265676973746572203D20307825303258205B45787065637465643A20307833335D0D0A000000002A2A2A2A2A2A2A2A2A2A2A2A2A2A52650C
:40318000676973746572732056616C7565732A2A2A2A2A2A2A2A2A2A2A2A2A2A0D0A000020436F6E74726F6C207265676973746572203120686173206265656E20736574C2
:4031C00020746F203D20307825303258200D0A0020436F6E74726F6C207265676973746572203520686173206265656E2073657420746F203D20307825303258200D0A00F6
:4032000020436F6E74726F6C207265676973746572206F66204649464F20686173206265656E2073657420746F203D20307825303258200D0A00000020436F6E74726F6C0E
:40324000207265676973746572203320686173206265656E2073657420746F203D20307825303258200D0A002A2A2A2A2A2A2A2A2A2A2A2A2A2A2A2A2A2A2A2A2A2A2A2AC6
:403280002A2A2A2A2A2A2A2A2A2A2A2A2A2A2A2A2A2A2A2A0D0A00000D0A204649464F20636C65616E200D0A00000000206461746120454550524F4D203078253032582091
:4032C0003078253032582030782530325820307825303258200D0A0020646174612042435020307825303258203078253032582030782530325820307825303258203078AF
:40330000253032582030782530325820307825303258200D0A000000206669666F5F7372635F72656720646F706F206C61206D756C74697265616420307825303258202094
:403340000D0A0000205072696D692036332076616C6F72692064656C206275666665723A200D0A0020256420000000000D0A206669666F5F7372635F72656720646F706FC5
:4033800020696C2072657365742030782530325820200D0A000000002A2A20454550524F4D20537461747573204F4E202A2A200D0A0000002A2A20454550524F4D2053746C
:4033C00061747573204F4E2D4F4646203D202564200D0A002A2A20454550524F4D20537461747573204F4646202A2A0D0A0000004653522073657420746F202B2D3220671D
:40340000000000004653522073657420746F202B2D342067000000004653522073657420746F202B2D382067000000004653522073657420746F202B2D31362067000000AE
:4034400053462073657420746F203120487A000053462073657420746F20313020487A0053462073657420746F20323520487A0053462073657420746F20353020487A00C6
:40348000436F6E66696775726174696F6E206F662074686520616363656C65726F6D657465722066756C6C207363616C652072616E6765200D0A00002D2D2D2D2D2D2D2D1C
:4034C0002D2D2D2D2D2D2D2D2D2D2D2D2D2D2D2D2D2D2D2D2D2D2D2D2D2D2D2D2D2D2D2D2D2D2D2D2D2D2D2D2D2D2D2D0D0A00004368617261637465722020207C204675B5
:403500006C6C207363616C652072616E6765200D0A0000003120202020202020202020207C202B2D203267200D0A00003220202020202020202020207C202B2D2034672051
:403540000D0A00003320202020202020202020207C202B2D203867200D0A00003420202020202020202020207C202B2D20313667200D0A00436F6E66696775726174696F20
:403580006E206F662074686520616363656C65726F6D657465722073616D706C696E67206672657175656E6379200D0A0000000043686172616374657220202020202020BB
:4035C0007C2053616D706C696E67204672657175656E6379200D0A00312020202020202020202020202020207C2031487A200D0A0000000032202020202020202020202082
:40360000202020207C203130487A200D0A000000332020202020202020202020202020207C203235487A200D0A000000342020202020202020202020202020207C203530F0
:40364000487A200D0A0000005468652073656C6563746564206F7074696F6E2077617320616C7265616479206265656E20736574746564200D0A0000546865206368616E2C
:40368000676520776173207375636365737366756C200D0A0000000053746F7265207468652074656D70657261747572652064617461200D0A0000004368617261637465F4
:4036C000722020202020207C2054656D706572617475726520666F726D6174200D0A00006320202020202020202020202020207C2053746F7265206461746120696E2043AE
:40370000656C7369757320666F726D6174200D0A000000006620202020202020202020202020207C2053746F7265206461746120696E2046616872656E6865697420666F81
:40374000726D617420200D0A000000002A2A2A2A2A2A2A2A2A2A2A2A2A2A2A2A2A2A2A2A2A2A2A2A2A2A2A2A2A2A2A2A2A2A2A2A2A2A2A204D454E5527202A2A2A2A2A2A40
:403780002A2A2A2A2A2A2A2A2A2A2A2A2A2A2A2A2A2A2A2A2A2A2A2A2A2A2A2A2A2A2A2A2A2A2A2A2A2A0D0A000000002D2D2D2D2D2D2D2D2D2D2D2D2D2D2D2D2D2D2D2D32
:4037C0002D2D2D2D2D2D2D2D2D2D2D2D2D2D2D2D2D2D2D2D2D2D2D2D2D2D2D2D2D2D2D2D2D2D2D2D2D2D2D2D2D2D2D2D2D2D2D2D2D2D2D2D2D2D2D2D2D2D2D2D2D2D2D2D89
:403800002D2D2D2D2D2D0D0A00000000436F6D6D616E6420207C20526573756C742020202020202020202020202020202020200D0A0000006220202020202020207C2053A1
:40384000746172742064617461206163717569736974696F6E2066726F6D2074686520616363656C65726F6D6574657220616E642073746F72616765206F6E207468652074
:40388000454550524F4D206D656D6F7279200D0A000000007320202020202020207C2053746F702064617461206163717569736974696F6E2066726F6D20746865206163FF
:4038C00063656C65726F6D6574657220616E642073746F72616765206F6E2074686520454550524F4D206D656D6F7279200D0A006620202020202020207C20436F6E6669A2
:403900006775726174696F6E206F662074686520616363656C65726F6D657465722066756C6C207363616C652072616E6765200D0A0000007020202020202020207C20439F
:403940006F6E66696775726174696F6E206F662074686520616363656C65726F6D657465722073616D706C696E67206672657175656E6379200D0A00762020202020202067
:40398000207C20537461727420646174612076697375616C697A6174696F6E20696E207468652042726964676520436F6E74726F6C2050616E656C200D0A000075202020EF
:4039C00020202020207C2053746F7020646174612076697375616C697A6174696F6E20696E207468652042726964676520436F6E74726F6C2050616E656C200D0A0000006C
:403A00007420202020202020207C2053746F7265207468652074656D70657261747572652064617461200D0A000000002A2A2A2A2A2A2A2A2A2A2A2A2A2A2A2A2A2A2A2A01
:403A40002A2A2A2A2A2A2A2A2A2A2A2A2A2A2A2A2A2A2A2A2A2A2A2A2A2A2A2A2A2A2A2A2A2A2A2A2A2A2A2A2A2A2A2A2A2A2A2A2A2A2A2A2A2A2A2A2A2A2A2A2A2A2A2AC6
:403A80002A2A2A2A2A2A2A0D0A000000035B00402443004040000000004F00400C00405100403000F0510040100000000140800800090140000700140140000280160140CF
:403AC000800500400140000A004C0140000200500140200060520040C8070048060080080140D00700488000001601405008004880004300232D302B2000686C4C0065668F
:403B000067454647003031323334353637383941424344454600303132333435363738396162636465660000F8B500BFF8BC08BC9E4670474D00000081120000F8B500BF7D
:403B4000F8BC08BC9E46704729000000603B0000C880FF1F800000000801000000000000000000005082FF1F0000E02EC05D00001800000000366E0101FF000000000000A7
:403B800000000000000000000000000000000000000000000000000000000000F23A00000000000000000000000000000000000000000000000000000000000000000000D9
:403BC00000000000000000000000000000000000000000000000000000000000E480FF1F000000000000000000000000000000000000000000000000000000000000000043
:403C00000000000000000000000000000000000000000000000000000000000000000000000000000000000000000000000000000000000000000000000000000000000084
:403C40000000000000000000000000000000000000000000000000000000000000000000000000000000000000000000000000000000000000000000000000000000000044
:403C80000000000000000000000000000000000000000000000000000000000000000000000000000000000000000000000000000000000000000000000000000000000004
:403CC00000000000000000000000000000000000000000000000000000000000000000000000000000000000000000000000000000000000000000000000000000000000C4
:020000040003F7
:0200000480007A
:4000000001450040024F004002520040036400400365004002030140030501404A0601403E0701400B080140480901405A0A01403D0B0140030D0140040E0140030F014015
:40004000041501400C1601404D170140681801404A190140571A0140481B0140064001400D4101400C4201400B430140044401400545014006460140024701400948014072
:4000800004490140054C01400A4D01400650014002510140640101400A4B01401102860F880F8B0D880F89388A72EA02EE08820488108F80002301CB0254044105CB063A4D
:4000C00009C20B090C430D090E2C0FC211CB1402161D1A101C101D041F532010210924102810290D2B622D0F2F30317C321F3380344036203703382039023A083E403F0434
:4001000056025724580459045B045C225D205F01890D8A018D028F3490019102930D950D990D9F10A10DA50DA902AB38AD21AF02B10FB601B730BB02D440D604D804D9041C
:40014000DB04DC15DD20DF010020040405800620074108810A010C200E22150117141B801E291F042241260A2741282029212A802D822E20311432413601374038803920D6
:400180003D813E1648024A0161A06204638067086D806E166F14760280408340842085028680882089C08B088D04A010A604A780C0B2C2E8C470CABFCC9FCEFCD82FE2032F
:4001C000E61AEA20010135013B803F105602572859045B045C305D105F010080010809080A020B8012801304180419481A022008210623012540270929402A052B08302829
:40020000310A334039503A083B043E0241054208484849455264588059045A015B10634165086C206D526F407601810885108744888489048A018D039314955096029D4146
:400240009E41A108A308A420A501A620B090B308C005C20DC40CCA0FCC0FCE8ED007D20CD60FD849E210E610EA20011A05130704080109020A060B180C0C0D180F02100C10
:40028000140115011606171819181A031B021C071D1C1F0321022208240C280829182A042C042D1A2E083207330F340835133A083B083E1054405604580459045B045C11D1
:4002C0005D105F018204920393049602970199019B02A601B004B201B304B502B602B701BE04C050C103C5D0C620C710C82AC9FFCAFFCBFFCDA0CF04D018D280D405D804C8
:40030000D904DA04DB04DC65DD55DF01E040E2C0E440E540E6C0E8C0EAC0ECC0EEC0020103080680080109090A020B040E400F5010201150124016101B181C201E401F8087
:400340002108230425402724280129012B08302031483601372439503A013B0446104F41561057025C405F0960806260632076808B128C40A201A540A780AB80B601C01308
:40038000C23FC42FCA0DCCEECE0FD040D210D6D0D80FE040E680EC04A540AD40AF20B820BE10D804DF011D101F208D1088019C01B112EC108D058F0A91039304950EA9044F
:4003C000AB09B30FB908D904DC10DF010404060807410C020E240F02160217041C041E281F01210824082680272029202C222E082F48310A3684372138883A043E964408C4
:40040000461047014A024B804D064E0A4F025520568057085C805D1560046210674284088501860887408F20908092149404988099209A029B459C019D029E04A022A102A0
:40044000A20AA520A708A911B130B640C0F0C2F0C4A0CAF4CCF3CEF8D0E0D230D6F0D890E619EA14EE04001002400603080C0A710B13130C1414152C170319311A201B06A4
:4004800024DC25312622270E28102AAC2C092ED02F08321F333034E0350F39083A203B203F044002460449FF4A074BFF4C404D204EF04F0550085401580459045A045B048F
:4004C0005C335D335F01604061A8624063208201853F89248A018B8A8D088F70953F98029D01A512A78CB001B138B202B306B501B7C0BE05BF40C062C104C205C401C50C57
:40050000C60EC805C9FFCAFFCBFFCC62CDA0CEF0CF41D00CD418D604D804D904DA04DB04DC30DD33DF01E640E702E910EA30EB10ED10EE10EF1200220380051406400B0812
:400540000C200D08140217141B091D141F1420512120272428202E802F1030083240340236023714385039053A023F20400141204301472048114A085340542056C05710FF
:400580005A025DA15F086084630265206704808089208B029004931097809B099E02A140A680A940AA01AD01B020B201B501B710C07AC262C4E0CA52CCEACE2ED02DD20C85
:4005C000D6F1D80DE608EA20EE2201090304047C05600682085C09120AA10D1B0EA3131B14181578178319201A041CFF1D40201021FB2408259B276028E729602A182B9B17
:400600002C043040310332983378341F35043638378039803A283B083E0156025713580459045B045C335D305F018503871489408B159308950A9601973499339B0CA5335A
:40064000A704B160B30FB401B510B902BB08BF10C026C103C50CC7EBC831C9FFCAFFCBFFCEF0CF44D00CD804D904DA04DC35DD03DF01E6C0EA40EB020004030A0840096020
:400680000A100F1010A01140120C180419211B881E042120228926022718284029202A042C102F1030A0330A36023714385A3F24441047104F24550856025901680869048B
:4006C0006A8070A4721089808A048B088C218D40905093309504968297049B049C209D809E029F10A140A312A408A508A68AA780AF08C007C227C40FCA47CCEFCE6FD06067
:40070000D220D601E620EC123020330836483B20CCF0CE10324061829720A301A648A708AC20AF01CC10D640D840EA40EE1057046302830496809720A301A582A648A70877
:40074000D440D640E620820887088D0296809720A582A608A708B240E220E6407C208C20DE01E002012002205301C00AD4014508A220AB01B520D001EA08A220A508251000
:40078000824087108F8096809720B580C820E6C077809B80B510DE2008408440A508AE20C202128074048E80A004AC04B508C408DE04E202EC08006E0A260C6A102E1A0600
:4007C0001C2800FF010F00008C840000400000000000000002070D38008000044004008000018000650A1A1000840000498406000084800013602C00000400000056000949
:40080000007F0F808008700200028800000010546502300004CEFD0B1FFFFFFF2200F008040000000900040004040404111100010000C00040011011C00100114001400161
:4008400000000000000000000000000000000000A98D52001D8D2200108D02006300844012510022C0620018120000301002080D00220044020D108000000080128D000012
:400880000100E0701E80000F08003080000001105304600002CEFB0D1FFFFFFF2200F00C040000000900040004040404222200010000C00040011011C001001140014001CC
:4008C0000000000000000000000000000000000000606000600000008400508C8C008C00000000008000408B8B00000000000000100005121200020000000000000101004D
:400900000000100008001801000000000000000000000000000000000000000000000000000000000000000000000000000000000000000000000000000000000000000086
:400940000000000000000000000000000000000000000000000000000000000000000000000000000000000000000000000000000000000000000000000000000000000077
:400980000000000000000000000000000000000000000000000000000000000000000000000000000000000000000000000000000000000000000000000000000000000037
:4009C00000000000000000000000000000000000000000000000000000000000000000000000000000000000000000000000000000000000000000000000000000000000F7
:400A000000000000000000000000000000000000000000000000000000000000000000000000000000000000000000000000000000000000000000000000000000000000B6
:0200000490006A
:0400000000004005B7
:0200000490105A
:04000000BC90ACAF55
:0200000490303A
:0200000060C3DB
:0200000490402A
:4000000000000000000000000000000000000000000000000000000000000000000000000000000000000000000000000000000000000000000000000000000000000000C0
:400040000000000000000000000000000000000000000000000000000000000000000000000000000000000000000000000000000000000000000000000000000000000080
:400080000000000000000000000000000000000000000000000000000000000000000000000000000000000000000000000000000000000000000000000000000000000040
:4000C0000000000000000000000000000000000000000000000000000000000000000000000000000000000000000000000000000000000000000000000000000000000000
:0200000490501A
:0C00000000012E16106900012E2D712C3D
:00000001FF